:100000000C94E9000C9411010C9411010C94110151
:100010000C9411010C9411010C9411010C94110118
:100020000C9411010C9411010C9411010C94110108
:100030000C9411010C9411010C9411010C941101F8
:100040000C94DB090C9411010C9465140C943F146E
:100050000C9411010C9411010C9411010C941101D8
:100060000C94D4010C94110100407A10F35A00A0B2
:10007000724E18090010A5D4E80000E87648170071
:1000800000E40B54020000CA9A3B000000E1F505B1
:10009000000080969800000040420F000000A086FB
:1000A00001000000102700000000E803000000002D
:1000B0006400000000000A000000000001000000D1
:1000C00000002C76D888DC674F0823DFC1DFAE59EB
:1000D000E1B1B796E5E3E453C63AE651997696E87E
:1000E000E6C28426EB898C9B62ED407C6FFCEFBC02
:1000F0009C9F40F2BAA56FA5F490055A2AF75C932D
:100100006B6CF9676DC11BFCE0E40D47FEF520E662
:10011000B500D0ED902E0300943577050080841E45
:10012000080000204E0A000000C80C333333330FA0
:10013000986E12831141EF8D2114893BE65516CF3D
:10014000FEE6DB18D1844B381BF77C1D901DA4BB49
:10015000E424203284725E228100C9F124ECA1E5FE
:100160003D277C3C3E5E2B3D3F2F5B5D3B2C2A2296
:100170005C001F1C1F1E1F1E1F1F1E1F1E1F0000B6
:100180000008000201000003040700000000000056
:10019000000000000000250028002B0000000000E7
:1001A000240027002A0004040404040404040202B6
:1001B00002020202030303030303010204081020E6
:1001C0004080010204081020010204081020AD2222
:1001D000572111241FBECFEFD8E0DEBFCDBF26E0F0
:1001E000A4E0B2E001C01D92A030B207E1F712E036
:1001F000A0E0B1E0E4E6F6E502C005900D92A4307F
:10020000B107D9F710E0C8EED0E004C02197FE0195
:100210000E94EC28C73ED107C9F70E945F210C94C9
:10022000252B0C94000085ED8093BC008091BC00D0
:1002300084FDFCCF1092D702089540915A02262FD8
:1002400030E0240F311D21323105DCF42091D7023A
:100250002430C9F4FC0180E090E0861758F4309116
:100260005A022191DC01A85CBD4FA30FB11D2C9354
:100270000196F3CF80915A02680F60935A0280E092
:10028000089581E0089582E008950895E091900234
:1002900080918F02E81730F4F0E0EF56FD4F808137
:1002A00090E008958FEF9FEF0895909190028091D4
:1002B0008F02981750F4E92FF0E0EF56FD4F2081A0
:1002C00030E09F5F9093900202C02FEF3FEFC90193
:1002D000089580918F0290E020919002821B9109F5
:1002E0000895CF92DF92EF92FF920F931F93CF93D7
:1002F000DF937C01262F972F8A0180913702882374
:1003000091F0C62FD72F6E01C40ED51ECC15DD057A
:1003100071F06991D701ED91FC910190F081E02D90
:10032000C7010995F3CF642F822F0E941D01C801D8
:10033000DF91CF911F910F91FF90EF90DF90CF90C1
:100340000895CF93DF931F92CDB7DEB769832091D5
:1003500037022223D1F020913602203240F021E0F2
:1003600030E0FC013383228380E090E015C080916F
:100370003502E82FF0E0EB5EFD4F998190838F5FAF
:10038000809335028093360205C061E0CE0101966C
:100390000E941D0181E090E00F90DF91CF910895C0
:1003A000089580E090E008951F920F920FB60F928B
:1003B00011242F933F934F935F936F937F938F936A
:1003C0009F93AF93BF93EF93FF938091B900887F82
:1003D000803609F49CC068F5883209F45BC090F45B
:1003E000803109F454C038F4882309F4F6C0883009
:1003F00009F44DC0F6C0883109F44CC0803209F4CC
:100400005DC0EFC0803409F468C048F4803309F45B
:1004100055C0883309F0E5C08093D502D8C0803537
:1004200009F44FC0883509F45DC0883409F0D9C09B
:10043000D6C0883909F4C7C0A8F4883709F467C062
:1004400038F4883609F463C0803709F460C0C9C045
:10045000883809F4B8C0803909F45FC0803809F0E1
:10046000C0C05BC0803B09F486C038F4803A09F410
:1004700066C0883A09F47FC0B4C0803C09F4A7C0C4
:10048000883C09F4A4C0883B09F48AC0AAC08091C2
:10049000D20210C09091D4028091D302981770F5C7
:1004A000E091D40281E08E0F8093D402F0E0EF540B
:1004B000FD4F80818093BB0085EC86C08093D50280
:1004C0008EC0E091D40281E08E0F8093D40280919F
:1004D000BB00F0E0EF54FD4F80839091D4028091F7
:1004E000D3026EC0E091D40281E08E0F8093D402DB
:1004F0008091BB00F0E0EF54FD4F80838091D602E5
:1005000081116DC081E08093D10284EA61C083E0F3
:100510008093D70210927E02CFCF80917E028032EC
:1005200008F051C0E0917E0281E08E0F80937E0240
:100530008091BB00F0E0E25AFD4F8083BDCF85EC97
:100540008093BC001092D70280917E02803230F4FA
:10055000E0917E02F0E0E25AFD4F108260917E024F
:1005600070E0E0915C02F0915D028EE592E0099509
:1005700010927E0236C084E08093D70210925B0214
:1005800010925A02E0915802F09159020995809117
:100590005A02811105C081E080935A0210923802FC
:1005A000E0915B0281E08E0F80935B02F0E0E85CFB
:1005B000FD4F80818093BB0090915B0280915A0235
:1005C000981708F479CF85E88093BC000AC085ECC1
:1005D0008093BC001092D70204C01092D5020E94F2
:1005E0001301FF91EF91BF91AF919F918F917F91F7
:1005F0006F915F914F913F912F910F900FBE0F9090
:100600001F9018952091360290911402213208F023
:100610004AC08091D7028111FCCF32E03093D702DB
:1006200031E03093D6023FEF3093D5021092D402DE
:100630002093D302A5E1B2E041EB52E0FA013E2F54
:10064000341B321718F43D913193F9CF1092D20236
:100650002091D202990F922B9093D2029091D102C5
:10066000913061F41092D1029091D2029093BB002C
:100670009091BC0093FDF8CF95EC01C095EE90935E
:10068000BC009091D7029230E1F39091D5029F3F48
:1006900079F08091D502803241F08091D50280338B
:1006A00031F084E005C081E003C082E001C083E056
:1006B000109235021092360210923702089581E0AE
:1006C0008093370260931402109235021092360222
:1006D00008951092900210928F021092350210929B
:1006E00036021092D70281E08093D6021092D10296
:1006F00061E082E10E94490961E083E10E944909C9
:10070000E9EBF0E080818E7F808380818D7F808324
:1007100088E48093B80085E48093BC000895CF926C
:10072000DF92EF92FF920F931F93CF93DF938C0191
:10073000C1E0D0E06B01770FEE08FF080C171D0732
:1007400094F061E082E00E944909C701B6010E946D
:10075000950960E082E00E944909C701B6010E9444
:1007600095092196EBCFDF91CF911F910F91FF90CB
:10077000EF90DF90CF9008952F923F924F925F922B
:100780006F927F928F929F92AF92BF92CF92DF92A1
:10079000EF92FF920F931F93CF93DF93CDB7DEB706
:1007A000CD5AD1090FB6F894DEBF0FBECDBF0E945F
:1007B000CF096093100270931102809312029093FC
:1007C000130283EECE55DF4F8883C25AD040CE014C
:1007D0008E559F4F0E949817CE0101960E947E175A
:1007E0002981822F90E0A0E0B0E04427582F692FA4
:1007F0007A2F8A819A01AB01282BA4EAB4E40E94E3
:100800002D278D54924164E670E00E94B628072E91
:10081000000C880B990B0E9410266B017C016093E1
:100820000C0270930D0280930E0290930F0285EEDE
:10083000CF55DF4F8883C15AD040CE018F559F4F8F
:100840000E949817CE0101960E947E172981822F5F
:1008500090E0A0E0B0E04427582F692F7A2F8A81DA
:100860009A01AB01282BADE7B0E00E942D27BC0117
:100870006650710980E090E00E940E264B015C01F9
:10088000609308027093090280930A0290930B020E
:1008900060E088E00E945E1641E0C701B6010E9458
:1008A000981661E088E00E945E1640E0C501B40140
:1008B0000E94981662E370E081E090E00E948F034E
:1008C0008091100290911102A0911202B091130236
:1008D0004091040250910502609106027091070256
:1008E0008C019D01041B150B260B370BB901A801C8
:1008F000403157426105710508F4D2C38093040268
:1009000090930502A0930602B09307020E94AB17D2
:1009100029833A834B835C836D837E8386E0FE016B
:100920003196DE01A157BF4F01900D928A95E1F7F4
:1009300086E0FE01E157FF4FDE01AB56BF4F01904D
:100940000D928A95E1F70E94AB17C757DF4F2883B6
:10095000C958D040C657DF4F3883CA58D040C55712
:10096000DF4F4883CB58D040C457DF4F5883CC5813
:10097000D040C357DF4F6883CD58D040C257DF4FB8
:100980007883CE58D0404AE0672FCE018D579F4FD5
:100990000E94C1134AE0C357DF4F6881CD58D04051
:1009A000CE0183589F4F0E94C1134AE0C457DF4FC6
:1009B0006881CC58D040CE0189589F4F0E94C11306
:1009C000C757DF4F6881C958D04070E06053784FF7
:1009D0004AE0CE01845A9F4F0E9495134AE0C657C1
:1009E000DF4F6881CA58D040CE01CF960E94C11314
:1009F0004AE0C557DF4F6881CB58D040CE01019601
:100A00000E94C113BE016F5F7F4FCE0182960E948C
:100A1000EE136EE771E0CE0182960E942C13BE01A8
:100A2000615C7F4F0E9445136EE771E00E942C13BA
:100A3000BE01645A7F4F0E94451365E971E00E9430
:100A40002C13BE0169587F4F0E94451364EE71E07C
:100A50000E942C13BE0163587F4F0E94451364EE21
:100A600071E00E942C13BE016D577F4F0E94451309
:100A7000BC01CE0185569F4F0E94EE13CE01829697
:100A80000E949013CE0101960E949013CE01CF9642
:100A90000E949013CE01845A9F4F0E949013CE0162
:100AA00089589F4F0E949013CE0183589F4F0E94F8
:100AB0009013CE018D579F4F0E949013BE01655633
:100AC0007F4F8DED94E00E942B14CE0185569F4FF1
:100AD0000E9490138090080290900902A0900A0250
:100AE000B0900B0240900C0250900D0260900E02EC
:100AF00070900F02CB56DF4F1881C559D040CA56AF
:100B0000DF4F3881C659D040CB55DF4F3883C55AA7
:100B1000D040C956DF4F0881C759D040C755DF4F75
:100B20000883C95AD040C856DF4F3881C859D040D1
:100B3000C855DF4F3883C85AD040C756DF4F0881A9
:100B4000C959D040C555DF4F0883CB5AD040C6564F
:100B5000DF4F3881CA59D040C655DF4F3883CA5A53
:100B6000D0402091D205CB55DF4F0881C55AD040E7
:100B7000802F90E0211107C09093D4058093D30576
:100B800021E02093D2052091D3053091D40582171E
:100B9000930721F09093D4058093D3054AE0CB5579
:100BA000DF4F6881C55AD040CE01CF960E94C11355
:100BB000812F90E08C010053184FCA55DF4F1983E5
:100BC0000883C65AD0404AE0B801CE0101960E947F
:100BD00095137E0112E2E10EF11CBE016F5F7F4FA3
:100BE000C7010E94EE13BE01615C7F4FC7010E94E6
:100BF000451360E871E00E942C13BC01CE018757B9
:100C00009F4F0E94EE13C7010E949013CE010196E0
:100C10000E949013CE01CF960E94901365E871E078
:100C20008DED94E00E941614BE0167577F4F8DED45
:100C300094E00E942B140E941E15C757DF4FC880F6
:100C4000D980C958D04066EA75E0C7010E94FF1DEF
:100C50001C821B8282E391E09A8389831E82860133
:100C60009E012F5F3F4F19016FE270E0C8010E94A3
:100C7000042B009709F457C0F80120812F3219F492
:100C80000F5F1F4FF1CF801B8D3008F08CE0282FB5
:100C900030E0CD55DF4F39832883C35AD040A901B6
:100CA000B801CE01845A9F4F0E94162BECE5F0E06C
:100CB000EC0FFD1FCD55DF4F88819981C35AD0407D
:100CC000E80FF91F1082C1010E94261BF1018581E6
:100CD000882371F023961FAE1EAE239782E391E026
:100CE00021969FAF8EAF219725961FAE259729C0DD
:100CF00021E0AE01445A5F4FB701C1010E94820D4D
:100D0000882341F3CD55DF4F28813981C35AD04024
:100D1000020F131FC7010E94261B9E2D8F2D7101EC
:100D2000292E382EA1CFC8018C199D09C455DF4F3B
:100D300099838883CC5AD040B701CE01CF960E94C8
:100D4000FF1DC455DF4F08811981CC5AD0400C0DCE
:100D50001D1DF801808181110AC0BE01615C7F4FB9
:100D6000CE0101960E94FF1D4EE751E053C01DA227
:100D70001CA282E391E09BA38AA31FA225968FADBC
:100D8000259781111CC0A0961FAE1EAEA09788EEBD
:100D900093E0A0E0B0E0A4968CAF9DAFAEAFBFAF44
:100DA000A4978EE091E06E969FAF8EAF6E97E79618
:100DB0001FAE1EAEE797A9961FAEA99733C082500B
:100DC00023E1A801823048F466EA75E0CE018296FC
:100DD0000E94820D81110EC0D6CFBE01615C7F4F93
:100DE000CE0182960E94820D882369F2CE01CF96B1
:100DF0000E94261B4DA95EA96FA978ADCE018296EF
:100E00000E948819BE016E5D7F4FCE0101960E943F
:100E1000FF1DA801BE016F5F7F4FCE01845A9F4F17
:100E20000E94501EE796EEADFFADE797309709F4AC
:100E30002EC18581882309F42AC14AE0CA55DF4FB3
:100E400068817981C65AD040CE0189589F4F0E944F
:100E500095134AE0CB55DF4F6881C55AD040CE018B
:100E6000CF960E94C1134AE0C755DF4F6881C95A27
:100E7000D040CE0101960E94C113BE016F5F7F4F2B
:100E8000CE0182960E94EE136EE771E0CE0182964B
:100E90000E942C13BE01615C7F4F0E9445136EE7D8
:100EA00071E00E942C13BE0169587F4F0E944513C8
:100EB000BC01CE018D579F4F0E94EE13CE0182964A
:100EC0000E949013CE0101960E949013CE01CF96FE
:100ED0000E949013CE0189589F4F0E9490134AE0C0
:100EE000C655DF4F6881CA5AD040CE0189589F4FFE
:100EF0000E94C1134AE0C555DF4F6881CB5AD040EC
:100F0000CE01CF960E94C1134AE0C855DF4F6881D9
:100F1000C85AD040CE0101960E94C113BE016F5F36
:100F20007F4FCE0182960E94EE1364EE71E0CE01F7
:100F300082960E942C13BE01615C7F4F0E94451374
:100F400064EE71E00E942C13BE0169587F4F0E942D
:100F50004513BC01CE0183589F4F0E94EE13CE0172
:100F600082960E949013CE0101960E949013CE01AA
:100F7000CF960E949013CE0189589F4F0E949013E4
:100F8000BE016D577F4FCE0101960E94EE1365E9B9
:100F900071E0CE0101960E942C13BC01CE01845A4F
:100FA0009F4F0E940814CE0101960E949013BE012B
:100FB00063587F4FCE01845A9F4F0E94081467E9FF
:100FC00071E0CE01845A9F4F0E9416141BA21AA2F0
:100FD0001DA21CA21FA21EA28E010F5F1F4F22E0A6
:100FE00044E0C301B2010E944E23BC01CE018296AF
:100FF0000E947913BE016E5D7F4FCE01845A9F4FD0
:101000000E940814CE0182960E94901367E971E055
:10101000CE01845A9F4F0E9416141BA21AA21DA231
:101020001CA21FA21EA222E044E0C501B4010E943E
:101030004E23BC01CE0182960E947913BE016E5DE3
:101040007F4FCE01845A9F4F0E942B14CE0182966F
:101050000E949013E7968EAD9FADE797009761F0E1
:101060000E94261BE7968EAD9FADE7970E948729C9
:10107000E7961FAE1EAEE797CE0183589F4F0E94A2
:101080009013CE018D579F4F0E94901304C089E9A1
:1010900091E00E94F61FCE0187579F4F0E94901348
:1010A00068E873E180E090E00E949509C355DF4F46
:1010B0000FB6F894DEBF0FBECDBFDF91CF911F9169
:1010C0000F91FF90EF90DF90CF90BF90AF909F90E7
:1010D0008F907F906F905F904F903F902F900895EA
:1010E0003FB7F8948091890290918A02A0918B0277
:1010F000B0918C0226B5A89B05C02F3F19F0019630
:10110000A11DB11D3FBFBA2FA92F982F8827820F8D
:10111000911DA11DB11DBC01CD0142E0660F771FDD
:10112000881F991F4A95D1F7089521E001C0220F29
:101130006A95EAF7DC011C962C931C971A965C932F
:101140004E931997ED91FC910484F585E02D60E0B4
:101150000994DC01ED91FC910684F785E02D41E0D6
:10116000099581E090E0089508950895CF93DF9365
:10117000FC0123812223B1F0EC0181818095682359
:10118000608362818EEE95E00E945F0368818EEE3F
:1011900095E00E94A1018EEE95E00E940203282FA7
:1011A00030E002C020E030E081E090E0232B11F03D
:1011B00080E090E0DF91CF910895EF92FF920F933E
:1011C0001F93CF938C01FC01759684E0C0E060FF13
:1011D00002C09081C92B6695815031968111F7CF5D
:1011E000413011F4F8014489F8018585C82BC42BDE
:1011F0007801FEE0EF0EF11CF80162896C2BC7014B
:101200000E94B608F801628960956C23C701CF91EE
:101210001F910F91FF90EF900C94B6080F931F93BE
:10122000CF93DF93062F0F70423019F440E0602F08
:1012300010C0142F262FEC0130E0B90184E0759521
:1012400067958A95E1F7CE010E94DD08412F602F56
:10125000CE01DF91CF911F910F910C94DD08FC011D
:1012600084858823A9F0218532852115310519F45B
:10127000611106C007C02130310521F4611102C09F
:10128000858701C015866585CF010E960C94B6083A
:10129000089590E0FC01E258FE4F3491FC01E654C1
:1012A000FE4F2491FC01EA55FE4FE491EE2309F430
:1012B0003BC0332339F1333091F038F43130A9F0A9
:1012C000323001F584B58F7D12C0373091F038305F
:1012D000A1F03430B9F4809180008F7D03C08091FB
:1012E00080008F77809380000DC084B58F7784BD98
:1012F00009C08091B0008F7703C08091B0008F7DCE
:101300008093B000F0E0EE0FFF1FEE56FE4FA59168
:10131000B4918FB7F894EC91611103C020952E23FE
:1013200001C02E2B2C938FBF08958F929F92AF9266
:10133000BF92CF92DF92EF92FF926B017C010E94ED
:1013400070084B015C01C114D104E104F104F1F017
:101350000E947008DC01CB0188199909AA09BB0910
:10136000883E9340A105B10570F321E0C21AD1086F
:10137000E108F10888EE880E83E0981EA11CB11CDC
:10138000C114D104E104F10419F7DDCFFF90EF900F
:10139000DF90CF90BF90AF909F908F9008952FB720
:1013A000F8946091850270918602809187029091F5
:1013B00088022FBF08951F920F920FB60F9211242B
:1013C0002F933F938F939F93AF93BF938091850209
:1013D00090918602A0918702B09188023091840298
:1013E00023E0230F2D3720F40196A11DB11D05C068
:1013F00026E8230F0296A11DB11D2093840280933D
:10140000850290938602A0938702B0938802809110
:10141000890290918A02A0918B02B0918C02019670
:10142000A11DB11D8093890290938A02A0938B0223
:10143000B0938C02BF91AF919F918F913F912F916B
:101440000F900FBE0F901F901895DC01ED91FC914D
:101450000684F785E02D40E009940F931F93CF9306
:10146000DF93EC01423018F08C8188608C834F83CD
:101470006887222329F0413019F48C8184608C83A1
:1014800064E670E080E090E00E9495096C8164FD64
:1014900031C0E881F9810684F785E02D42E063E000
:1014A000CE0109958BE496E40197F1F7E881F98183
:1014B0000684F785E02D42E063E0CE01099503E55F
:1014C00012E0C8010197F1F7E881F9810684F785F8
:1014D000E02D42E063E0CE010995C8010197F1F7E4
:1014E000E881F9810684F785E02D42E062E0CE01D3
:1014F000099517C06062CE010E94250A8BE496E42C
:101500000197F1F76C816062CE010E94250A03E524
:1015100012E0C8010197F1F76C816062CE010E9470
:10152000250AC8010197F1F76C816062CE010E9423
:10153000250A8BEE90E00197F1F784E08D836CE053
:10154000CE010E94250A61E0CE010E94250A8BE3AC
:101550009FE10197F1F782E08E8366E0CE010E9461
:10156000250AE881F9810484F585E02D6FEFCE012D
:10157000DF91CF911F910F910994FF920F931F93C9
:10158000CF93DF93EC01162F042FF22E8B85888BDF
:101590008EEE95E00E94690368898EEE95E00E94C8
:1015A0005F038EEE95E00E94020391E0811190E0CE
:1015B000998B992329F08EEE95E00E9455018E8734
:1015C0008989882339F01F861C8260E0CE010E963F
:1015D0000E94B6082F2D402F612FCE01DF91CF91B1
:1015E0001F910F91FF900C942D0A50E0E2E7F1E07B
:1015F00021E02E1B322F3E0F361728F43491430F73
:10160000511D3196F7CF633038F09C01237033279A
:10161000232B11F44F5F5F4F2DE631E0829FB00125
:10162000839F700D929F700D1124615071099C0170
:101630002D5F3F4F3695279536952795CB01820F25
:10164000931F840F951F0895EF92FF920F931F939E
:10165000CF93DF93EC0188814A81698190E00E94F9
:10166000F50A9C01A8E1B0E00E946F272B817B0165
:101670008C01E20EF11C011D111DA8019701ACE3C4
:10168000B0E00E942D272C817B018C01E20EF11C21
:10169000011D111DA80197010E942D272D81620FA8
:1016A000711D811D911DDF91CF911F910F91FF90B1
:1016B000EF9008959C01F9012F5F3F4F90819F7E2D
:1016C0009032C9F380E0219190ED920F9A3040F46E
:1016D000880F982F990F990F890F8053820FF3CF9E
:1016E000089580917F028823A9F1409100015091D3
:1016F000010160910201709103012BED32E08091B4
:10170000DB049091DC040E94941D811102C080E0F2
:1017100008954091800250918102609182027091FF
:101720008302411551056105710591F02BED32E001
:101730008091DB049091DC040E94941D882339F38E
:101740001092800210928102109282021092830203
:1017500010927F0281E008958F929F92AF92BF9284
:10176000EF92FF920F931F93CF934B015C01C42F15
:101770008091000190910101A0910201B0910301BB
:1017800088159905AA05BB0501F10E94710B81110D
:1017900002C080E020C08BEDE82E82E0F82E00E051
:1017A00012E020E030E0B501A4018091DB049091CB
:1017B000DC040E94001D882361F380920001909256
:1017C0000101A0920201B092030180917F02C82B17
:1017D000C0937F0281E0CF911F910F91FF90EF9016
:1017E000BF90AF909F908F9008954F925F926F92AD
:1017F0007F928F929F92AF92BF92CF92DF92EF92A1
:10180000FF920F931F93CF93DF93EC016A017B014B
:1018100028013901423051056105710510F480E05D
:1018200073C089859A85AB85BC850196A11DB11DC4
:1018300084179507A607B70790F38B889C88AD8817
:10184000BE888F89803129F4BB27AF2D9E2D8D2D29
:1018500009C0DB01CA0147E0B695A7959795879522
:101860004A95D1F7880E991EAA1EBB1E80910001D1
:1018700090910101A0910201B0910301881699068F
:10188000AA06BB0679F48F898031A1F4DD24EE2409
:10189000FF24C601880F991FFC01E552FD4F5182BC
:1018A000408219C040E0C501B4010E94AC0B811117
:1018B000EACFB5CFE894C7F8DD24EE24FF24C601B3
:1018C000880F991F880F991FFC01E552FD4F408238
:1018D00051826282738280917F02816080937F0255
:1018E0008A89823080F08D819E81AF81B885880E93
:1018F000991EAA1EBB1E8092800290928102A09225
:101900008202B092830281E0DF91CF911F910F910B
:10191000FF90EF90DF90CF90BF90AF909F908F900F
:101920007F906F905F904F9008958F929F92AF92AB
:10193000BF92CF92DF92EF92FF920F931F93CF93BC
:10194000DF93FC0181859285A385B4850196A11D55
:10195000B11D84179507A607B70710F480E05CC097
:1019600083899489A589B689C789C03129F4852ED0
:10197000962EA72EBB2409C04A015B01C7E0B6948E
:10198000A79497948794CA95D1F7E9016A017B01DE
:101990008F01BC01CD01680D791D8A1D9B1D8090B2
:1019A000000190900101A0900201B0900301681520
:1019B00079058A059B0599F4F80187898031A9F496
:1019C000B701A601552766277727440F551FFA014F
:1019D000E552FD4F80819181A0E0B0E018C040E069
:1019E0000E94AC0B8111E8CFB9CFB701A6014F77A8
:1019F000552766277727440F551F440F551FFA01B7
:101A0000E552FD4F80819181A281B381BF708883AF
:101A10009983AA83BB8381E0DF91CF911F910F91BE
:101A2000FF90EF90DF90CF90BF90AF909F908F90FE
:101A300008954F925F926F927F92AF92BF92CF9232
:101A4000DF92EF92FF920F931F93CF93DF9300D01B
:101A500000D0CDB7DEB78C0149835A836B837C837A
:101A60005901C12CD12C7601412C82E0582E612CD9
:101A7000712C49815A816B817C819E012F5F3F4F80
:101A8000C8010E94950C882351F1D301C201F801CD
:101A9000058404C0880F991FAA1FBB1F0A94D2F7A0
:101AA000C80ED91EEA1EFB1E49815A816B817C81BA
:101AB0008789803129F088EF9FEFAFEFBFE004C046
:101AC00088EF9FEFA0E0B0E0481759076A077B074F
:101AD00080F2F501C082D182E282F38281E00F9030
:101AE0000F900F900F90DF91CF911F910F91FF906A
:101AF000EF90DF90CF90BF90AF907F906F905F900E
:101B00004F9008954F925F926F927F92AF92BF92E3
:101B1000CF92DF92EF92FF920F931F93CF93DF93B9
:101B2000CDB7DEB72B970FB6F894DEBF0FBECDBF93
:101B30007C01CE0101966C01FC0190E28BE08C0DE2
:101B400091938E13FDCFDA0130E047E09D91992308
:101B500039F19E3219F0E2E6F1E00AC04A3009F4A8
:101B600072C138E04AE0F2CF3196891709F46BC1AF
:101B700084918111F9CF431708F465C18FED890F66
:101B80008E3508F060C181E0830FF601E30FF11D8F
:101B90003FE9390F3A3108F490529083382FD6CF6D
:101BA0008981803209F44FC1B22E8B01DB015B9633
:101BB0008D919C915C97F701948F838F16961D925F
:101BC0001D921D921C921997FB0112861386148692
:101BD0001586712CF80182859385A485B585438986
:101BE00054896589768984179507A607B70708F091
:101BF00061C025E0B695A795979587952A95D1F769
:101C0000F82FFF706F2ED80115968C91823008F452
:101C10001AC1C8010E94851E97FD15C1F801828571
:101C20009385A485B5854F96A11DB11D82879387A5
:101C3000A487B587F0E26F9EC0011124BC016552F4
:101C40007D4F6115710509F4FEC0DB012C91222343
:101C500019F0253EC1F427C071100EC0F701628A49
:101C600040910001509101016091020170910301C6
:101C700046875787608B718BFC01E552FD4F808151
:101C8000811113C015C04BE050E0C6010E94EE2A3E
:101C9000892B09F09FCF8B2D8073803309F4D3C03B
:101CA0004B2D662DCCC07720C9F27724739492CF48
:101CB000772473948B2D8271823109F0C4C0772010
:101CC000D1F0D7011E966D917D918D919C91519788
:101CD00041E00E94AC0B882309F4B5C0F70162898A
:101CE000F0E26F9FB001112465527D4F61157105BF
:101CF00009F079C0A8C0D80115968C91823009F4FA
:101D0000A2C0C8010E94321B882309F49CC0D801DC
:101D10005B96ED91FC915C9716964D905D906D9061
:101D20007C901997B2E04B1A51086108710805843C
:101D300004C0440C551C661C771C0A94D2F7868597
:101D40009785A089B189480E591E6A1E7B1EA48002
:101D5000E1E04E1A510861087108AA2009F10E94B9
:101D6000710B882309F46FC0EBEDF2E0119224E0CF
:101D7000EB3DF207D9F7D301C2018A0D911DA11DD8
:101D8000B11D8093000190930101A0930201B093D3
:101D9000030180917F02816080937F02AA94DDCF4E
:101DA000D8015B96ED91FC915C9780E092E0A0E019
:101DB000B0E0058404C0880F991FAA1FBB1F0A94B6
:101DC000D2F7F8014389548965897689840F951F74
:101DD000A61FB71F838B948BA58BB68BD70152960A
:101DE0001C926BED72E080E2FB0111928A95E9F79B
:101DF0008BE0F601DB0101900D928A95E1F781E21B
:101E000098E2DB0151969C938E93509720E038E046
:101E10001F963C932E931E9753969C938E935297A6
:101E200059969C938E93589757963C932E9356971A
:101E30000E94710B882339F04B2DF7016289C7018D
:101E40000E941E1A01C080E02B960FB6F894DEBFE8
:101E50000FBECDBFDF91CF911F910F91FF90EF90FB
:101E6000DF90CF90BF90AF907F906F905F904F903A
:101E700008952F923F924F925F926F927F928F922E
:101E80009F92AF92BF92CF92DF92EF92FF920F9309
:101E90001F93CF93DF9300D000D0CDB7DEB78C0176
:101EA0005B011A01DC0115968C9115978130C9F4FC
:101EB00014968C9181FF15C082FF1BC0F8014389E5
:101EC00054896589768982859385A485B58584172B
:101ED0009507A607B70769F0C8010E948819811104
:101EE00008C081E090E0F8019383828380E090E075
:101EF00039C1610183C0D8015B968D919C915C973B
:101F0000FC01248121502A013B0139E07694679439
:101F1000579447943A95D1F7722E74207A01F1E0E4
:101F2000FF22772009F476C080E092E08E199F09A5
:101F300046018C159D0508F44C01D8015B962D9146
:101F40003C915C9716968D919D910D90BC91A02D22
:101F50000297A109B109F901058404C0880F991FEE
:101F6000AA1FBB1F0A94D2F74685578560897189DD
:101F7000840F951FA61FB71F9C01AD01270D311DB2
:101F8000411D511D29013A01811432E0930609F0E7
:101F900088C08091000190910101A0910201B0914F
:101FA000030184159505A605B70559F48FEF9FEF3A
:101FB000DC018093000190930101A0930201B09392
:101FC00003019501B301A2018091DB049091DC042F
:101FD0000E94941D882309F484CF9EEFB91AC81873
:101FE000D908F80182859385A485B585880D991D4A
:101FF000A11DB11D82879387A487B587D8011A9642
:102000004D915D916D917C911D97C114D10409F0A2
:1020100072CF87C0E114F10409F086CF16964D9176
:102020005D916D917C91199741155105610571057F
:1020300059F457968D919D910D90BC91A02D0097CC
:10204000A105B10541F521C09E012F5F3F4F0E94C0
:10205000950C882309F44BCF89819A81AB81BC818F
:10206000F801238D348DF9012789203129F048EFBB
:102070005FEF6FEF7FE004C048EF5FEF60E070E07C
:1020800084179507A607B70730F0C8010E94321BD6
:1020900081114ACF26CFF80186839783A087B18725
:1020A00043CFE114F10429F5D8011A964D915D91C1
:1020B0006D917C911D9753968D919D910D90BC9142
:1020C000A02D481759076A077B0798F00E94710BEB
:1020D000882309F406CF40920001509201016092DA
:1020E00002017092030180917F02816080937F02E0
:1020F00008C041E0C301B2010E94AC0B882309F47F
:10210000F0CED501F701E552FD4FCF01880D991DA5
:10211000E817F90719F02D912193FACFA80CB91CF3
:102120005ECF53968D919D910D90BC91A02D8417FB
:102130009507A607B70740F4F801438B548B658BCE
:10214000768B848180688483D80114968C9183FD7A
:1021500002C0C10107C0C8010E944219882309F4C6
:10216000C0CEF7CF0F900F900F900F90DF91CF91CF
:102170001F910F91FF90EF90DF90CF90BF90AF90A5
:102180009F908F907F906F905F904F903F902F9097
:102190000895CF93DF931F92CDB7DEB7698341E0F7
:1021A00050E0BE016F5F7F4F0E94390F0F90DF91AB
:1021B000CF910895CF92DF92EF92FF920F931F93EA
:1021C000CF93DF936C017A018B01C0E0D0E0CE1594
:1021D000DF0589F0D8016D918D01D601ED91FC915B
:1021E0000190F081E02DC6010995892B11F47E0143
:1021F00002C02196ECCFC701DF91CF911F910F91C3
:10220000FF90EF90DF90CF900895FC01538D448DA7
:10221000252F30E0842F90E0821B930B541710F091
:10222000CF96089501970895FC01918D828D98179E
:1022300061F0828DDF01A80FB11D5D968C91928DAA
:102240009F5F9F73928F90E008958FEF9FEF0895A7
:10225000FC01918D828D981731F0828DE80FF11D70
:10226000858D90E008958FEF9FEF0895FC01918D8B
:10227000228D892F90E0805C9F4F821B91098F7384
:10228000992708958DED94E00E94361121E0892B65
:1022900009F420E0822F0895FC01848DDF01A80F4E
:1022A000B11DA35ABF4F2C91848D90E001968F737E
:1022B0009927848FA689B7892C93A089B1898C919D
:1022C00080648C93938D848D981306C00288F38963
:1022D000E02D80818F7D80830895EF92FF920F9390
:1022E0001F93CF93DF93EC0181E0888F9B8D8C8DC2
:1022F000981305C0E889F989808185FD24C0F62EF0
:102300000B8D10E00F5F1F4F0F731127E02E8C8D88
:10231000E8120CC00FB607FCFACFE889F989808172
:1023200085FFF5CFCE010E944C11F1CF8B8DFE01C0
:10233000E80FF11DE35AFF4FF0820B8FEA89FB890A
:102340008081806207C0EE89FF896083E889F9890E
:1023500080818064808381E090E0DF91CF911F9144
:102360000F91FF90EF900895CF93DF93EC01888D4C
:102370008823C9F0EA89FB89808185FD05C0A88989
:10238000B9898C9186FD0FC00FB607FCF5CF80810F
:1023900085FFF2CFA889B9898C9185FFEDCFCE0159
:1023A0000E944C11E7CFDF91CF91089580E090E03B
:1023B000892B29F00E94421181110C94000008958C
:1023C000CF92DF92FF920F931F93CF93DF93EC0195
:1023D0008FE00E949418682F6F778FE00E94C418D6
:1023E00068E68091FA059091FB050E945F03809159
:1023F000FA059091FB05DC01ED91FC910190F081D3
:10240000E02D60E00995A091FA05B091FB052D81C2
:10241000ED91FC9111971AE0822F612F0E9496286E
:10242000982F880F980F990F692F620F0190F081F4
:10243000E02DCD010995A091FA05B091FB052C8105
:10244000ED91FC911197822F612F0E949628982F71
:10245000880F980F990F692F620F0190F081E02D7E
:10246000CD010995A091FA05B091FB052B81ED9165
:10247000FC911197822F612F0E949628982F880F28
:10248000980F990F692F620F0190F081E02DCD0117
:102490000995888190E09C012053384F10E3120F7A
:1024A000143628F01CEC120F20E8F22E01C0F12C9B
:1024B000E091FA05F091FB050190F081E02DC080DC
:1024C000D1804A8169810E94F50A069667E070E032
:1024D0000E94A228682F8091FA059091FB05F601D1
:1024E0000995A091FA05B091FB053A81ED91FC9117
:1024F00011970AE0832F602F0E949628982F880F4B
:10250000980F990F692F630F0190F081E02DCD0195
:1025100009952981A091FA05B091FB05ED91FC91F7
:102520001197822F602F0E949628982F880F980F5E
:10253000990F290F6F2D622B0190F081E02DCD01B5
:102540000995A091FA05B091FB05ED91FC911197C9
:10255000812F602F0E949628682F880F680F660FC2
:10256000610F0190F081E02DCD0109958091FA0570
:102570009091FB05DF91CF911F910F91FF90DF901C
:10258000CF900C9402030F931F93CF93DF93EC0132
:1025900088819981009729F02A813B812617370786
:1025A00088F48B016F5F7F4F0E941F2A009761F0B4
:1025B000998388831B830A832C813D81232B11F40B
:1025C000FC01108281E001C080E0DF91CF911F917A
:1025D0000F910895EF92FF920F931F93CF93DF9384
:1025E000FC01248135816115710511F480E019C069
:1025F00041155105A9F07B01EC018A01020F131F5F
:10260000B8010E94C312882389F3288139818C8103
:102610009D81B701820F931F0E940F2B1D830C8396
:1026200081E0DF91CF911F910F91FF90EF9008957E
:10263000CF93DF93EC0188819981009711F00E947C
:102640008729198218821D821C821B821A82DF91BF
:10265000CF9108950E94E92ACF93DF93EC01611591
:10266000710561F0FB0101900020E9F73197AF019E
:10267000461B570B0E94EA12811103C0CE010E9433
:102680001813CE01DF91CF910895CF93DF93EC0122
:10269000FB0144815581608171810E94EA128111A0
:1026A00003C0CE010E941813CE01DF91CF9108958F
:1026B000EF92FF920F931F93CF93DF93EC017B0177
:1026C0008A01BA010E94C312811104C0CE010E9486
:1026D000181307C01D830C83B701888199810E945C
:1026E0000F2BCE01DF91CF911F910F91FF90EF90B3
:1026F0000895CF93DF93EC016115710559F0FB014B
:1027000001900020E9F73197AF01461B570B0E945B
:10271000581302C00E941813CE01DF91CF91089583
:10272000FC01808191810C9487290F931F93CF9393
:10273000DF93CDB7DEB761970FB6F894DEBF0FBE5B
:10274000CDBF8C01CB01F80111821082138212825D
:102750001582148250E0BE016F5F7F4F0E946E238E
:10276000BE016F5F7F4FC8010E94791361960FB65B
:10277000F894DEBF0FBECDBFDF91CF911F910F91B7
:1027800008950F931F93CF93DF93CDB7DEB72997AB
:102790000FB6F894DEBF0FBECDBF8C01862FF801B7
:1027A00011821082138212821582148250E0BE01BF
:1027B0006F5F7F4F90E00E946E23BE016F5F7F4F7F
:1027C000C8010E94791329960FB6F894DEBF0FBE98
:1027D000CDBFDF91CF911F910F910895FB01DC01D7
:1027E00011961C921E9213961C921E921297159689
:1027F0001C921E9214978617970749F06081718189
:102800006115710521F0448155810C945813089588
:10281000DC01ED91FC91DB0114964D915C911597D3
:102820006D917C910280F381E02D09946115710511
:1028300079F0FB0101900020E9F73197AF01461BC9
:10284000570BDC01ED91FC910280F381E02D09949E
:1028500080E090E008950F931F93CF93DF93EC01F6
:102860000E9408148C0163EA71E0CE010E941614E4
:10287000800F911FDF91CF911F910F9108951F92AB
:102880000F920FB60F9211242F933F934F935F93A4
:102890006F937F938F939F93AF93BF93EF93FF9328
:1028A0008DED94E00E944C11FF91EF91BF91AF919B
:1028B0009F918F917F916F915F914F913F912F9158
:1028C0000F900FBE0F901F9018951F920F920FB68A
:1028D0000F9211242F938F939F93EF93FF93E09187
:1028E000ED04F091EE048081E091F304F091F404A2
:1028F00082FD12C090818091F6048F5F8F732091CA
:10290000F704821751F0E091F604F0E0E352FB4F38
:10291000958F8093F60401C08081FF91EF919F9184
:102920008F912F910F900FBE0F901F90189590913F
:10293000D7029111FCCF91E09093D7029093D602E9
:102940002FEF2093D5021092D402260F2093D302AA
:102950009093D2029091D202880F892B8093D20259
:102960008091D102813061F41092D1028091D20223
:102970008093BB008091BC0083FDF8CF85EC01C043
:1029800085EE8093BC008091D7028130E1F3809185
:10299000D402861710F46091D402A1EBB2E021E9D1
:1029A00032E0F9018E2F821B861718F48D918193E6
:1029B000F9CF862F08958F929F92AF92BF920F9377
:1029C0001F93CF93DF93CDB7DEB7A1970FB6F894DF
:1029D000DEBF0FBECDBF19A2423008F44AE08E011F
:1029E0000F5D1F4F842E912CA12CB12CA5019401B9
:1029F0000E94CA28E62FB901CA0101501109EA3024
:102A000014F4E05D01C0E95CD801EC93232B242B86
:102A1000252B61F7B80185ED95E00E941614A1966B
:102A20000FB6F894DEBF0FBECDBFDF91CF911F91DF
:102A30000F91BF90AF909F908F900895CF92DF92AB
:102A4000EF92FF921F93CF93DF931092870510921E
:102A50008505109282051092810584E0809380059F
:102A60000E94CF096B017C01809180050E94382172
:102A700061E0809180050E9449090E94C31F82E5A0
:102A800080937A0510927B0580917A0590917B0561
:102A90000E94851CDAE08FEF0E94461CD150D9F7C6
:102AA000E6018CE795E00E94881C20E030E0A90157
:102AB00060E08CE795E00E949E1C182F80938605AD
:102AC000813049F00E94CF096C1B7D0B613D77403E
:102AD00060F381E054C02AEA31E040E050E068E071
:102AE0008CE795E00E949E1C82FF03C0109387052F
:102AF0000EC014E00E944D1C809386051150D1F742
:102B00008A3A11F082E03BC082E080938705809191
:102B10008705823021F0C12CD12C760105C0C12C53
:102B2000D12CE12C30E4F32E20E030E0A90167E362
:102B30008CE795E00E949E1CA701960169E28CE754
:102B400095E00E949E1C80938605882349F00E9490
:102B5000CF096C1B7D0B613D774030F388E00FC0DF
:102B600080918705823001F520E030E0A9016AE319
:102B70008CE795E00E949E1C882341F086E08093BC
:102B800081058CE795E00E943B1C8FC00E944D1C84
:102B9000807C803C19F483E0809387050E944D1C63
:102BA0000E944D1C0E944D1C8CE795E00E943B1C2E
:102BB00080E580937A0510927B0581E00E940920D0
:102BC000882329F08091AB05882341F06EC080E016
:102BD0000E940920882309F469C0F4CF80919F05E1
:102BE000803109F582E08093AB051092BD0510920B
:102BF000BE051092BF051092C0058091A00590916E
:102C0000A105A0E0B0E025E0880F991FAA1FBB1F17
:102C10002A95D1F78093B9059093BA05A093BB0587
:102C2000B093BC051EC0803209F03FC083E08093A2
:102C3000AB054091A2055091A3056091A405709148
:102C4000A5054093BD055093BE056093BF057093E5
:102C5000C00529EB35E088E895E00E94190D88232E
:102C600021F188E895E09093C2058093C10581E049
:102C70008093AA051092AC051092AD051092AE0596
:102C80001092AF051092B0051092B1051092B205E6
:102C90001092B3051092B4051092B5051092B605C6
:102CA0001092B7051092B80501C080E0DF91CF9176
:102CB0001F91FF90EF90DF90CF900895CF93DF9317
:102CC000CDB7DEB728970FB6F894DEBF0FBECDBFE5
:102CD0001D8290E49E8324E12F8324E528871982B6
:102CE0009A8390E19B8390E59C839091DC05691722
:102CF00010F06FEF690F4091DD05262F30E0FE01E7
:102D0000E20FF31F403121F4943011F4918101C09E
:102D10009581682F690F606885ED95E028960FB65C
:102D2000F894DEBF0FBECDBFDF91CF910C94250A82
:102D30004F925F926F927F928F929F92AF92BF92CB
:102D4000CF92DF92EF92FF926B017C01B42E9B0138
:102D5000AC010E949128882319F067EF71E027C029
:102D600026013701E89477F82FEF3FEF4FE75FE751
:102D7000C301B2010E94912881110DC02FEF3FEFD6
:102D80004FE75FE7C301B2010E94092618161CF441
:102D90006BEF71E00CC02FEF3FEF4FE75FE4C7012F
:102DA000B6010E948C28181694F46FEF71E085ED3F
:102DB00095E0FF90EF90DF90CF90BF90AF909F9005
:102DC0008F907F906F905F904F900C9416142FEF20
:102DD0003FEF4FE75FECC701B6010E94092687FD70
:102DE000E4CF20E030E0A901C701B6010E94092626
:102DF00087FF11C0E091D505F091D6050190F081D3
:102E0000E02D6DE285ED95E009954C01F7FAF0941F
:102E1000F7F8F09402C0812C912CA12C60E070E0B6
:102E200080E09FE3AB1441F020E030E040E251E469
:102E30000E94EB27A394F6CF9B01AC01C701B6011A
:102E40000E947F272B013C010E945D286B017C01C1
:102E50000E940E269B01AC01C301B2010E947E2795
:102E60002B013C014AE0C701B6010E94DB147C0142
:102E7000E80CF91CBB2069F0E091D505F091D6056E
:102E80000190F081E02D6EE285ED95E00995E80E68
:102E9000F91EDB2CDD2021F120E030E040E251E49E
:102EA000C301B2010E946F262B013C010E945D28E4
:102EB0004B01A12CB12C4AE0C501B4010E94DB14E6
:102EC000E80EF91EC501B4010E940E269B01AC015B
:102ED000C301B2010E947E272B013C01DA94DACFB4
:102EE000C701FF90EF90DF90CF90BF90AF909F9081
:102EF0008F907F906F905F904F900895CF93DF9366
:102F0000EC0162E080E40E9497141092900280939A
:102F10008F028EEE95E00E94550188838EEE95E03B
:102F20000E945501898381E090E0DF91CF9108955F
:102F3000CF93DF93EC0160E48EEE95E00E945F0397
:102F400068818EEE95E00E94A1018EEE95E0DF9102
:102F5000CF910C940203EF92FF920F931F93CF93A4
:102F6000DF93CDB7DEB728970FB6F894DEBF0FBE5C
:102F7000CDBF68E68091FA059091FB050E945F0342
:102F80008091FA059091FB05DC01ED91FC91019097
:102F9000F081E02D60E009958091FA059091FB05A4
:102FA0000E94020367E088E60E9497141092900244
:102FB00080938F028091FA059091FB05DC01ED91E1
:102FC000FC910284F385E02D09958F77982F9295D7
:102FD0009F701AEF082F919F000D11248091FA0520
:102FE0009091FB05DC01ED91FC910284F385E02DCD
:102FF00009959C01332764E0359527956A95E1F79B
:10300000F82E129FF00C11248091FA059091FB0587
:10301000DC01ED91FC910284F385E02D099586FF9A
:103020000CC0582F5F71952F92959F70919F500DF6
:10303000112485FF0DC0545F0BC09C01332754E061
:10304000359527955A95E1F7582F129F500D112469
:103050008091FA059091FB05DC01ED91FC910284D1
:10306000F385E02D588709958091FA059091FB052D
:10307000DC01ED91FC910284F385E02D09959C0122
:10308000332794E0359527959A95E1F73AEFE32EAB
:10309000482FE29E400D11248091FA059091FB0586
:1030A000DC01ED91FC910284F385E02D4F830995BD
:1030B000182F8091FA059091FB05DC01ED91FC91B0
:1030C0000284F385E02D09959C01332744E0359572
:1030D00027954A95E1F7E82FE29EE00D1124F0E0F4
:1030E0009F012053384F4F81588517FF02C02C593C
:1030F0003F4F1F77205D812F82958F70312FB6E073
:103100008B9F301911246F2D702F80E090E028964E
:103110000FB6F894DEBF0FBECDBFDF91CF911F91E8
:103120000F91FF90EF900895CF93C82F68E680919C
:10313000FA059091FB050E945F038091FA0590913A
:10314000FB05DC01ED91FC910190F081E02D6C2FED
:1031500009958091FA059091FB050E94020361E0B8
:1031600088E60E9497141092900280938F028091BB
:10317000FA059091FB05DC01ED91FC910284F38549
:10318000E02D0995CF910895CF93DF93D82FC62FC7
:1031900068E68091FA059091FB050E945F0380919B
:1031A000FA059091FB05DC01ED91FC910190F08115
:1031B000E02D6D2F09958091FA059091FB05DC01BA
:1031C000ED91FC910190F081E02D6C2F099580919B
:1031D000FA059091FB05DF91CF910C940203DC017D
:1031E0005996ED91FC915A973097B9F0838994895B
:1031F000A589B6894285538564857585841B950BA1
:10320000A60BB70B811520E89207A105B10538F090
:103210008FEF9FE7A0E0B0E0089580E090E0089590
:10322000CF93DF931F92CDB7DEB76983DC01ED91B9
:10323000FC910280F381E02D41E050E0BE016F5F20
:103240007F4F09950F90DF91CF910895CF93DF9332
:10325000EC01898D9A8D009739F481E090E09B8391
:103260008A8380E090E00BC0FC01138212820E94EE
:10327000390FE98DFA8D22813381232B71F7DF918C
:10328000CF910895CF93DF93EC018D818823A1F135
:103290008C8187FF2DC06E857F858889998941E063
:1032A0000E94AC0B882341F1EA8980E2E89FF0019B
:1032B0001124DF01A552BD4F1097F1F08D818230AE
:1032C00050F44B895C896D897E895C964D935D9342
:1032D0006D937C935F978F89988DA98DBA8DE552F8
:1032E000FD4F938F828FB58BA48B8C818F778C83CE
:1032F000DF91CF910C94710B80E0DF91CF91089515
:10330000FC01818D928D009711F00C944219089563
:103310008F929F92AF92BF92CF92DF92EF92FF92E5
:103320000F931F93CF93DF93EC018D81811102C026
:1033300080E077C00B891C892D893E890417150709
:1033400026073707A8F36A017B01823029F4CA8671
:10335000DB86EC86FD860DC0C114D104E104F104C6
:1033600051F41E821F82188619861A861B861C86B7
:103370001D8681E056C08A849B84AC84BD84EB8D1D
:10338000FC8D258530E0275F3F4FB501A4014150FA
:10339000510961097109022E04C076956795579508
:1033A00047950A94D2F7D701C6010197A109B1093F
:1033B00004C0B695A795979587952A95D2F7841757
:1033C0009507A607B70720F089288A288B2849F493
:1033D0004F89588D698D7A8D4E835F836887798791
:1033E00004C0841B950BA60BB70B4C015D018E012D
:1033F0000A5F1F4F81149104A104B10409F4A7CFFF
:103400004E815F816885798598018B8D9C8D0E94A6
:10341000950C91E0891A9108A108B1088111EACFB1
:1034200087CFDF91CF911F910F91FF90EF90DF90A9
:10343000CF90BF90AF909F908F9008958F929F9262
:10344000AF92BF92CF92DF92EF92FF920F931F93B2
:10345000CF93DF9300D000D0CDB7DEB77C0180E200
:10346000689F60011124960125523D4FD9011B969A
:103470009C91917121F0842F827409F097C0142FD0
:10348000F701628B8091000190910101A0910201EE
:10349000B091030186879787A08BB18BF601E55227
:1034A000FD4F4489558960E070E0BA0155274427F3
:1034B000D70157964D935D936D937C935A97828D68
:1034C000938DA0E0B0E0482B592B6A2B7B2BD701C2
:1034D00057964D935D936D937C935A97D9011B96A4
:1034E0008C91887159F4848D958DA68DB78DF701D7
:1034F000838B948BA58BB68B81E012C0803109F051
:1035000055C097012D5E3F4FD7015B968D919C91E1
:103510005C970E94190D882309F448C084E0F701E4
:103520008583812F8F70D70114968C931497F701A0
:1035300016821782108611861A961D921D921D9270
:103540001C921D9716FF34C015968C91813071F531
:1035500011FF2CC0F7014389548965897689452B71
:10356000462B472B09F461C040E050E0BA01C70187
:103570000E9488198823D1F0F7018788908CA18C4C
:10358000B28CC38CD48C82E090E0A0E0B0E0F60175
:1035900080839183A283B3839E012F5F3F4FB50148
:1035A000A401C6010E94950C811104C080E03DC0B9
:1035B00081E03BC000E010E09801B501A401C60124
:1035C0000E94F50B882391F389809A80AB80BC80A0
:1035D000D60157968C91803129F088EF9FEFAFEF9D
:1035E000BFE004C088EF9FEFA0E0B0E08816990626
:1035F000AA06BB0688F2D70157961D921D921D920E
:103600001C925A97F701138A148A158A168A8481A4
:1036100080688483C7010E944219882339F240E000
:1036200050E0BA01C7010E9488190F900F900F90C7
:103630000F90DF91CF911F910F91FF90EF90DF904E
:10364000CF90BF90AF909F908F900895CF93DF93CE
:10365000EC010E944219882311F01D8281E0DF9164
:10366000CF9108953F924F925F926F927F928F9287
:103670009F92AF92BF92CF92DF92EF92FF920F9301
:103680001F93CF93DF93CDB7DEB72C970FB6F89487
:10369000DEBF0FBECDBF5C01DC015B968D909C90C0
:1036A0005C971696CD90DD90ED90FC901997C11423
:1036B000D104E104F10439F0BFEFCB1ADB0AEB0AC5
:1036C000FB0A312C07C0F401C080D180E280F38076
:1036D00033243394F40181859285A385B4859C01BC
:1036E000AD012F5F3F4F4F4F5F4F29873A874B8781
:1036F0005C87260137011D821E821F821886F40115
:1037000081859285A385B4852D813E814F81588521
:10371000281739074A075B0708F063C089859A852F
:10372000AB85BC858C159D05AE05BF0550F482E0C8
:10373000C82ED12CE12CF12C92E0492E512C612C79
:10374000712C9E012F5F3F4FB701A601C4010E945B
:10375000950C882309F445C089819A81AB81BC818D
:10376000892B8A2B8B2B41F0260137019FEF491AB9
:10377000590A690A790A05C0C414D504E604F70495
:1037800091F02D813E814F8158852F5F3F4F4F4FE4
:103790005F4F2D833E834F8358873FEFC31AD30A71
:1037A000E30AF30AACCF0FEF1FEF2FEF3FE0B301B7
:1037B000A201C4010E94F50B882399F0D501169649
:1037C0004D915D916D917C91199741155105610560
:1037D000710549F093018201C4010E94F50B81112A
:1037E00002C080E02AC0D50116964D925D926D927E
:1037F0007C921997332051F0D301C2010196A11D8B
:10380000B11DF40180839183A283B383F50187897D
:10381000908DA18DB28D892B8A2B8B2B69F4D501CC
:1038200057964D925D926D927C925A9714968C9118
:103830001497806814968C9381E02C960FB6F894B8
:10384000DEBF0FBECDBFDF91CF911F910F91FF90D3
:10385000EF90DF90CF90BF90AF909F908F907F9030
:103860006F905F904F903F9008958FB7F89480913C
:10387000DA028FBF089561E0FC0184810E9449094A
:103880008091D90281111092D90208958EBD000055
:103890000DB407FEFDCF8EB508958FEF0C94461C36
:1038A0000F931F93CF93DF93EB010E94CF098B01FE
:1038B0000E944D1C8F3F49F00E94CF09601B710B85
:1038C0006C177D07A8F380E001C081E0DF91CF9104
:1038D0001F910F910895CF93DF93EC018E81882380
:1038E00089F08F8198859C012F5F3F4F38872F8308
:1038F0008230924018F40E944D1CF3CFCE010E94FA
:103900003B1C1E82DF91CF9108958CBD9DBD089513
:10391000CF93DF93EC018091D902811109C081E03E
:103920008093D90280917A0590917B050E94851C35
:1039300060E08C81DF91CF910C944909CF92DF92A6
:10394000FF920F931F93CF93DF9300D000D0CDB79A
:10395000DEB76C01F62E29833A834B835C830E9489
:103960006B1CC6010E94881C6CE271E0C6010E94BB
:10397000501C8F2D80640E94461C08E110E05C8181
:103980004B813A812981DA01C901002E04C0B69524
:10399000A795979587950A94D2F729833A834B8305
:1039A0005C830E94461C0850110929813A814B8191
:1039B0005C81083F8FEF180731F7FF2029F0E8E01E
:1039C000FE1204C087E803C085E901C08FEF0E94A2
:1039D000461C10E00E944D1CF601828787FF04C040
:1039E0001F3F11F01F5FF6CF0F900F900F900F90B9
:1039F000DF91CF911F910F91FF90DF90CF900895AD
:103A0000AF92BF92CF92DF92EF92FF920F931F93EC
:103A1000CF93DF93EC016901C801820F931F8130BE
:103A2000924008F070C08E81882371F0888199815E
:103A3000AA81BB81481759076A077B0729F48F8140
:103A40009885C816D906B0F5488359836A837B8365
:103A50008B85833039F089E0440F551F661F771F2F
:103A60008A95D1F79A01AB0161E1CE010E949E1CBB
:103A7000882319F083E08D8346C00E94CF095B0143
:103A80000E944D1C8A878F3F49F40E94CF096A1912
:103A90007B096D327140A0F38FE003C08E3F31F09F
:103AA0008DE08D83CE010E943B1C2DC018861F82A5
:103AB00081E08E838F8198858C159D0540F40E944E
:103AC0004D1C8F819885019698878F83F3CF67016E
:103AD000E00EF11ECE14DF0431F00E944D1CF60101
:103AE00081936F01F7CF8F819885080F191F188771
:103AF0000F838985882319F00115124048F0CE0103
:103B00000E946B1C05C0CE010E943B1C80E001C0DE
:103B100081E0DF91CF911F910F91FF90EF90DF90A7
:103B2000CF90BF90AF900895EF92FF920F931F93A5
:103B3000CF93DF93EC0179014115510561057105C2
:103B400011F482E13CC08B85833039F089E0440F69
:103B5000551F661F771F8A95D1F79A01AB0168E15F
:103B6000CE010E949E1C882311F084E028C08EEFB5
:103B70000E94461C87018EEFF81AF80181918F018F
:103B80000E94461C0E151F05C1F78FEF0E94461CB0
:103B90008FEF0E94461C0E944D1C8A878F718530D2
:103BA00031F081E18D83CE010E943B1C09C068E5A4
:103BB00072E0CE010E94501C811107C085E18D8307
:103BC000CE010E943B1C80E013C020E030E0A90140
:103BD0006DE0CE010E949E1C811104C00E944D1C0C
:103BE000882311F084E1EBCFCE010E943B1C81E0E1
:103BF000DF91CF911F910F91FF90EF900895FC01FD
:103C0000DB0112968D919C9113979383828382E3BB
:103C100091E09183808314968C91149784831596F8
:103C20008C911597858316964D915D916D917C9140
:103C3000199746835783608771871A964D915D91D6
:103C40006D917C911D9742875387648775871E9677
:103C50004D915D916D917C91519746875787608B0F
:103C6000718B52968C915297828B53964D915D91A8
:103C70006D917C915697438B548B658B768B5796C1
:103C80004D915D916D917C915A97478B508F618FCB
:103C9000728F5B968D919C915C97948F838F089522
:103CA000EF92FF920F931F93CF93DF93EC017B0171
:103CB0008A011B821A8288EE93E0A0E0B0E08C8338
:103CC0009D83AE83BF838EE091E0998388838DE1ED
:103CD00090E00E94F2289A8F898F009779F02DE169
:103CE000F701DC0101900D922A95E1F74CE050E0DC
:103CF000B801CE010C960E94162B188EDF91CF9141
:103D00001F910F91FF90EF9008952F923F924F9245
:103D10005F926F927F928F929F92AF92BF92CF925B
:103D2000DF92EF92FF920F931F93CF93DF9300D018
:103D3000CDB7DEB7FC018581882309F4D9C0848121
:103D400080FFD6C021E02A8343895489658976891A
:103D500082859385A485B585481759076A077B072F
:103D600009F41A826F013A81832F90E0DE011196E7
:103D70004D013F01B6E06B0E711C892B09F47DC02B
:103D8000D6011A964D915D916D917C911D975A01C6
:103D9000B1E0BB22F60125811A012B0189E056947E
:103DA0004794379427948A95D1F7838D948D223048
:103DB00061F4FC01828D938DA48DB58DBC01CD0184
:103DC000620D731D841D951D45C0DC0114961C9168
:103DD00011501221A114B104D1F4111118C0452BB6
:103DE000462B472B51F4F6018789908DA18DB28D1A
:103DF00086839783A087B1870AC0468157816085F3
:103E0000718593010E94950C882309F471C0F60115
:103E1000238D348D86819781A085B1850297A10974
:103E2000B109AC01BD01F901058404C0440F551F5F
:103E3000661F771F0A94D2F786859785A089B18976
:103E4000840F951FA61FB71FBC01CD01610F711D07
:103E5000811D911DD60114962C9126FF14C000914E
:103E600000011091010120910201309103016017BE
:103E700071078207930751F506C0FA81FF23C1F14C
:103E8000898190E037C040E00E94AC0B882381F12B
:103E9000F501E552FD4FD401CF010196E817F9076E
:103EA00019F021912D93FACFEFEF8E1A9E0AF601A9
:103EB00082859385A485B5850196A11DB11D828754
:103EC0009387A487B58780E090E057CF740101E025
:103ED00010E09501AB01BC018091DB049091DC0402
:103EE0000E94001D882321F0BFEF8B1A9B0ADFCFB1
:103EF0008FEF9FEF0F900F90DF91CF911F910F9158
:103F0000FF90EF90DF90CF90BF90AF909F908F90F9
:103F10007F906F905F904F903F902F900895FC019D
:103F2000818D928D009711F00C94851E8FEF9FEF7D
:103F300008950F931F93CF93DF93FC01818D928D92
:103F40000097B9F0EF010E94851E8C010F3F8FEFA3
:103F5000180791F0898D9A8DFC01428553856485FF
:103F6000758541505109610971090E948819C8017C
:103F700005C080E090E002C08FEF9FEFDF91CF910E
:103F80001F910F910895CF93CFB7F8948091D802E5
:103F9000811124C0E0EBF1E08491E4ECF1E0949134
:103FA000E82FF0E0EE0FFF1FE456FE4FA591B4910D
:103FB000EC91E92321F461E08AE00E9449098AE05A
:103FC0000E9438218CB580618CBD8CB580648CBD1D
:103FD0008DE00E9438218BE00E9438218091D80228
:103FE0008F5F8093D802CFBFCF910895CF93DF9397
:103FF000BC018DED94E00E941614EC0163EA71E0BF
:104000008DED94E00E9416148C0F9D1FDF91CF91CF
:1040100008958F929F92AF92BF92CF92DF92EF92CC
:10402000FF92CF93DF93C82F8CE795E09093DC0449
:104030008093DB04CC2369F1C53010F080E00DC122
:1040400040E060E070E0CB010E94AC0B8823B1F34C
:1040500020E1C29FC001112485539D4FFC01E25411
:10406000FE4F20812F7751F73C964081518162812C
:104070007381443651056105710500F33497C080A2
:10408000D180E280F380C114D104E104F10421F471
:10409000D5CFC12CD12C760140E0C701B6010E94DA
:1040A000AC0B882359F28091E6029091E7028115CA
:1040B000924021F6A091EB02AA2309F4BFCF6091B0
:1040C000E9027091EA026115710509F4B7CF2091F8
:1040D000E802222309F4B2CFA0939A0520938C051D
:1040E00080E030E0E1E0F0E0C82FAF01082E02C030
:1040F000440F551F0A94E2F72417350741F0982F13
:104100008F5F983089F789E08093950597CF8093EA
:1041100095052091F1023091F2022115310519F037
:1041200040E050E008C02091FF0230910003409130
:1041300001035091020320938D0530938E05409327
:104140008F055093900546015701860E971EA11CBE
:10415000B11C80929B0590929C05A0929D05B09207
:104160009E05E091EC02F091ED02F093A105E09341
:10417000A005B0E00E942D27860E971EA81EB91E2E
:104180008092A2059092A305A092A405B092A505E5
:1041900085E0EE0FFF1F8A95E1F7E150FE4FEF2F0C
:1041A000FF27E6958E0E9F1EA11CB11C80929605DE
:1041B00090929705A0929805B09299052091EE02F1
:1041C0003091EF022115310521F0A90160E070E086
:1041D00008C04091FB025091FC026091FD02709179
:1041E000FE02D701C60188199909AA09BB09840FE3
:1041F000951FA61FB71F04C0B695A79597958795DD
:10420000CA95D2F78093910590939205A093930558
:10421000B0939405853F2FE09207A105B10510F4F6
:104220008CE018C0853F9F4FA105B10510F480E1D7
:1042300011C08091070390910803A0910903B091E8
:104240000A038093A2059093A305A093A405B093BD
:10425000A50580E280939F0581E0DF91CF91FF90DB
:10426000EF90DF90CF90BF90AF909F908F90089588
:1042700090E0FC01E654FE4F2491FC01EA55FE4F0C
:104280008491882399F090E0880F991FFC01E456EF
:10429000FE4FA591B491FC01EE56FE4F859194918D
:1042A0008FB7F894EC91E22BEC938FBF089585ECD7
:1042B00095E00E9490138BEC95E00C949013CF93B3
:1042C000DF93CDB7DEB72C970FB6F894DEBF0FBEE5
:1042D000CDBF789484B5826084BD84B5816084BD8F
:1042E00085B5826085BD85B5816085BD80916E0094
:1042F000816080936E0010928100809181008260C5
:104300008093810080918100816080938100809101
:1043100080008160809380008091B10084608093F0
:10432000B1008091B00081608093B00080917A00EC
:10433000846080937A0080917A00826080937A0012
:1043400080917A00816080937A0080917A00806801
:1043500080937A001092C100E091ED04F091EE0498
:1043600082E08083E091E904F091EA041082E09118
:10437000EB04F091EC0480E180831092F504E0916D
:10438000F104F091F20486E08083E091EF04F09173
:10439000F004808180618083E091EF04F091F0046B
:1043A000808188608083E091EF04F091F004808147
:1043B00080688083E091EF04F091F00480818F7D2C
:1043C00080830E94C31F8EEE95E00E946903809156
:1043D000FA059091FB050E9469038FEA91E00E9423
:1043E0005A0B8F8389E088878AEA91E00E945A0BF2
:1043F000898782EB91E00E945A0B8A8785EB91E0D6
:104400000E945A0B8B8788EB91E00E945A0B8C8795
:104410008FE00E94941887FF08C08BEB91E00E9408
:10442000F61FCE0107960E94E0118EE00E949418BC
:1044300087FF0CC084EC91E00E94F61F8EE00E9482
:104440009418682F6F778EE00E94C4180E94AB17F3
:1044500029833A834B835C836D837E83CE010196EF
:104460000E94240B6B017C01CE0107960E94240B55
:10447000C616D706E806F90640F480ED91E00E94E2
:10448000F61FCE0107960E94E0118FE00E9494185B
:10449000682F677F8FE00E94C4188EE00E949418F6
:1044A0008C7B682F64608EE00E94C4188EEE95E0CD
:1044B0000E94690360E48EEE95E00E945F038EEE39
:1044C00095E00E940203811103C081E080938E0277
:1044D00020E042E060E185ED95E00E94BD0A60E0E9
:1044E00082E00E945E166BED71E085ED95E00E9422
:1044F000161461E082E00E945E1661EE71E085EDC7
:1045000095E00E94161460E08DE00E945E1666EE53
:1045100071E085ED95E00E94161461E08DE00E9447
:104520005E1668EE71E085ED95E00E9416140E941B
:104530001E15811103C08AEE91E002C081EF91E067
:104540000E94F61F6AEF70E085E090E00E948F0302
:104550000E94BC030E94D611FBCFEDEDF4E0138264
:10456000128288EE93E0A0E0B0E084839583A68376
:10457000B78320E231E03183208325EC30E03587BA
:10458000248724EC30E03787268720EC30E0318B1D
:10459000208B21EC30E0338B228B22EC30E0358B0A
:1045A000248B26EC30E0378B268B118E128E138EE7
:1045B000148EEAE7F5E020E520831182ECE7F5E0D0
:1045C000158216821186138642E050E060E070E0AA
:1045D000448755876687778713A215A614A622E31A
:1045E00031E033A722A717A6EEEEF5E01382128280
:1045F00084839583A683B7838EE391E09183808340
:10460000F093FB05E093FA05E5EDF5E013821282E5
:104610008EE691E091838083108A8FEF87871686DC
:10462000118A8FE38387148615861286118684E0AB
:10463000828B82E0838B81E0848B80E1858B80E2BA
:10464000868B80E4878B80E8808F40E050E063E0D9
:10465000CF010E949508E2EDF5E0108212821182EE
:10466000EBECF5E011821082138212821582148223
:1046700040E050E065EA71E0CF010E945813E5EC9C
:10468000F5E011821082138212821582148240E0BA
:1046900050E065EA71E0CF010C945813EF920F934C
:1046A0001F93CF93DF93E80147FD02C034E001C0C0
:1046B00034E1E42F440FFF0BF7FF03C0F195E195C0
:1046C000F109E32E022F2E2FAE010E949323CE017B
:1046D000DF91CF911F910F91EF90089545325105D1
:1046E00020F4423010F00C947923FB011082CB01AE
:1046F0000895BB27FB015527AA27880F991FAA1FDA
:10470000A41710F0A41B83955051B9F7A05DAA33EC
:1047100008F0A95DA193009779F7B111B1931192B7
:10472000CB010C94F9254F925F926F927F929F92EA
:10473000AF92BF92CF92DF92EF92FF920F931F93AF
:10474000CF93DF93CDB7DEB729970FB6F894DEBFCE
:104750000FBECDBF6A01122FB02E2BE3201720F021
:10476000FF24F394F00E02C0BCE3FB2E0F2D27E0D4
:10477000AE014F5F5F4F0E942125AC018981982FC8
:104780009970913031F0E1FC06C0E0FE06C090E285
:1047900005C09DE203C09BE201C090E0EE2DE071F8
:1047A00083FF3CC0911102C083E001C084E0811707
:1047B00018F4212F281B01C020E0E1110BC0F601E5
:1047C000822F30E2882319F031938150FBCFC20E43
:1047D000D11C20E0992329F0D6019C93F601319653
:1047E0006F01C6010396E2FE0AC03EE4D6013C9387
:1047F00041E411964C93119712963C9306C03EE605
:10480000F601308341E641833283FC01322F40E2DE
:10481000332309F442C041933150FACF82FF44C0A0
:10482000911102C083E001C084E0811718F4212FA8
:10483000281B01C020E0E1110BC0F601822F30E2FD
:10484000882319F031938150FBCFC20ED11C20E098
:10485000992329F0D6019C93F60131966F01C60188
:104860000396E2FE0BC039E4D6013C933EE4119678
:104870003C93119736E412963C9307C039E6F60153
:1048800030833EE6318336E63283FC01322F40E24C
:10489000332319F041933150FBCFFC01E20FF11D9E
:1048A00010828EEF9FEFB7C0F1E0911101C0F0E0F0
:1048B0006F2F70E01416150624F49A012F5F3F4FF6
:1048C00002C021E030E0260F371FBB2029F06B2DFE
:1048D00070E06F5F7F4F02C060E070E0260F371F0F
:1048E000612F70E0261737071CF4121B212F01C01F
:1048F00020E03E2D387159F4D601322F60E2332387
:1049000019F06D933150FBCFC20ED11C20E0FF2374
:1049100031F0D6019C93B6016F5F7F4F6B01E111BF
:104920000BC0F601922F30E3992319F03193915087
:10493000FBCFC20ED11C20E09F2D940F3A81782F1F
:104940007071A72E84FF03C0313309F491501916FA
:1049500024F4993018F098E001C091E0E42F852FFD
:1049600057FF02C0E0E080E06E2F782FE0E0F0E03B
:10497000AEE29A2E3A01691A71082A01461A570ABC
:104980000B2D10E01195019511096F3F8FEF7807FE
:1049900029F4D6019C92C60101966C01461757076F
:1049A00084F0661677066CF47F01E40CF51CA1E038
:1049B000B0E0AC0FBD1FEA0EFB1ED7011196BC90F4
:1049C00002C090E3B92E615071093196C60101967B
:1049D0007C016017710724F0D601BC926C01D5CF21
:1049E0006417750741F4363320F4353321F4A110F0
:1049F00002C081E3B82EF601B082F701822F90E267
:104A0000882319F091938150FBCFF701E20FF11D3C
:104A1000108280E090E029960FB6F894DEBF0FBEBA
:104A2000CDBFDF91CF911F910F91FF90EF90DF905D
:104A3000CF90BF90AF909F907F906F905F904F907E
:104A40000895283008F027E03327DA01990F311D47
:104A500087FD916000966105710539F432602E5F23
:104A60003D9330E32A95E1F708959F3F30F0803879
:104A70007105610509F03C5F3C5F3D93913008F0A2
:104A80008068911DDF93CF931F930F93FF92EF9256
:104A9000192F987F9695E92F96959695E90FFF2700
:104AA000EE53FF4F99273327EE24FF24A701E70198
:104AB00005900894079428F4360FE71EF81E491F46
:104AC000511D660F771F881F991F0694A1F7059047
:104AD000079428F4E70EF81E491F561FC11D770FD3
:104AE000881F991F661F0694A1F70590079428F464
:104AF000F80E491F561FC71FD11D880F991F661F2B
:104B0000771F0694A1F70590079420F4490F561FCC
:104B1000C71FD81F990F661F771F881F0694A9F714
:104B200084911095177041F0D695C7955795479584
:104B3000F794E7941A95C1F7E8E6F0E068941590C9
:104B4000159135916591959105907FE27395E118E6
:104B5000F10A430B560BC90BD009C0F7E10CF11E4B
:104B6000431F561FC91FD01D7EF4703311F48A9560
:104B7000E6CFE894015030F0080F0AF4002702173E
:104B800008F4202F2395022F7A3328F079E37D93C0
:104B90002A95E9F710C07D932A9589F60694979592
:104BA0006795379517951794E118F10A430B560B43
:104BB000C90BD00998F023957E9173957A3308F04C
:104BC00070E37C932013B8F77E9170617D9330F091
:104BD000839571E37D9370E32A95E1F71124EF90BB
:104BE000FF900F911F91CF91DF91992787FD9095AD
:104BF0000895DC01FC01672F71917723E1F732976B
:104C000004C07C916D9370836291AE17BF07C8F3A7
:104C100008950E944B2608F481E00895E89409C0A5
:104C200097FB3EF490958095709561957F4F8F4FDF
:104C30009F4F9923A9F0F92F96E9BB279395F695F5
:104C4000879577956795B795F111F8CFFAF4BB0F73
:104C500011F460FF1BC06F5F7F4F8F4F9F4F16C0D7
:104C6000882311F096E911C0772321F09EE8872F61
:104C7000762F05C0662371F096E8862F70E060E01D
:104C80002AF09A95660F771F881FDAF7880F969596
:104C9000879597F90895990F0008550FAA0BE0E83A
:104CA000FEEF16161706E807F907C0F012161306EE
:104CB000E407F50798F0621B730B840B950B39F42E
:104CC0000A2661F0232B242B252B21F408950A2694
:104CD00009F4A140A6958FEF811D811D08950E94C2
:104CE00082260C94F3260E94E52638F00E94EC26DA
:104CF00020F0952311F00C94DC260C94E22611246C
:104D00000C9427270E94042770F3959FC1F3950FF9
:104D100050E0551F629FF001729FBB27F00DB11D3F
:104D2000639FAA27F00DB11DAA1F649F6627B00DCF
:104D3000A11D661F829F2227B00DA11D621F739FB8
:104D4000B00DA11D621F839FA00D611D221F749FC6
:104D50003327A00D611D231F849F600D211D822F0D
:104D6000762F6A2F11249F5750409AF0F1F0882334
:104D70004AF0EE0FFF1FBB1F661F771F881F915061
:104D80005040A9F79E3F510580F00C94DC260C940E
:104D900027275F3FE4F3983ED4F386957795679590
:104DA000B795F795E7959F5FC1F7FE2B880F911D8B
:104DB0009695879597F9089597F99F6780E870E031
:104DC00060E008959FEF80EC089500240A94161681
:104DD000170618060906089500240A9412161306E9
:104DE000140605060895092E0394000C11F4882377
:104DF00052F0BB0F40F4BF2B11F460FF04C06F5F93
:104E00007F4F8F4F9F4F089557FD9058440F551F68
:104E100059F05F3F71F04795880F97FB991F61F03C
:104E20009F3F79F087950895121613061406551FB3
:104E3000F2CF4695F1DF08C0161617061806991F1F
:104E4000F1CF86957105610508940895E894BB2714
:104E500066277727CB0197F908950E946F27A59FB2
:104E6000900DB49F900DA49F800D911D1124089565
:104E70002F923F924F925F926F927F928F929F926A
:104E8000AF92BF92CF92DF92EF92FF920F931F9358
:104E9000CF93DF93CDB7DEB7CA1BDB0B0FB6F89409
:104EA000DEBF0FBECDBF09942A88398848885F8449
:104EB0006E847D848C849B84AA84B984C884DF80BA
:104EC000EE80FD800C811B81AA81B981CE0FD11D9E
:104ED0000FB6F894DEBF0FBECDBFED010895A29FBF
:104EE000B001B39FC001A39F700D811D1124911DBE
:104EF000B29F700D811D1124911D08955058BB273C
:104F0000AA270E9496270C94F3260E94E52638F0E3
:104F10000E94EC2620F039F49F3F19F426F40C94FB
:104F2000E2260EF4E095E7FB0C94DC26E92F0E94C4
:104F3000042758F3BA17620773078407950720F010
:104F400079F4A6F50C9426270EF4E0950B2EBA2FD3
:104F5000A02D0B01B90190010C01CA01A00111247F
:104F6000FF27591B99F0593F50F4503E68F11A162B
:104F7000F040A22F232F342F4427585FF3CF4695BC
:104F800037952795A795F0405395C9F77EF41F16DE
:104F9000BA0B620B730B840BBAF09150A1F0FF0FA8
:104FA000BB1F661F771F881FC2F70EC0BA0F621F94
:104FB000731F841F48F4879577956795B795F79584
:104FC0009E3F08F0B0CF9395880F08F09927EE0F19
:104FD0009795879508950E94FF270C94F3260E94C9
:104FE000EC2658F00E94E52640F029F45F3F29F0B6
:104FF0000C94DC2651110C9427270C94E2260E9475
:10500000042768F39923B1F3552391F3951B550BAE
:10501000BB27AA2762177307840738F09F5F5F4F8B
:10502000220F331F441FAA1FA9F335D00E2E3AF0CA
:10503000E0E832D091505040E695001CCAF72BD0E2
:10504000FE2F29D0660F771F881FBB1F2617370733
:105050004807AB07B0E809F0BB0B802DBF01FF2765
:1050600093585F4F3AF09E3F510578F00C94DC2640
:105070000C9427275F3FE4F3983ED4F38695779509
:105080006795B795F7959F5FC9F7880F911D96951E
:10509000879597F90895E1E0660F771F881FBB1F7A
:1050A000621773078407BA0720F0621B730B840B27
:1050B000BA0BEE1F88F7E09508950E940C2788F040
:1050C0009F5798F0B92F9927B751B0F0E1F0660FCC
:1050D000771F881F991F1AF0BA95C9F714C0B1300D
:1050E00091F00E942627B1E008950C942627672F9F
:1050F000782F8827B85F39F0B93FCCF3869577953C
:105100006795B395D9F73EF4909580957095619524
:105110007F4F8F4F9F4F08950E944B2608F48FEFCB
:1051200008950E944B26880B990B0895991B79E0EE
:1051300004C0991F961708F0961B881F7A95C9F727
:1051400080950895AA1BBB1B51E107C0AA1FBB1F76
:10515000A617B70710F0A61BB70B881F991F5A9503
:10516000A9F780959095BC01CD01089597FB072E76
:1051700016F4009407D077FD09D00E94A22807FCFE
:1051800005D03EF4909581959F4F08957095619557
:105190007F4F0895A1E21A2EAA1BBB1BFD010DC073
:1051A000AA1FBB1FEE1FFF1FA217B307E407F507D7
:1051B00020F0A21BB30BE40BF50B661F771F881FB3
:1051C000991F1A9469F760957095809590959B0149
:1051D000AC01BD01CF010895EE0FFF1F0590F491C2
:1051E000E02D0994CF93DF938230910510F482E093
:1051F00090E0E091FE05F091FF0520E030E0C0E096
:10520000D0E0309711F14081518148175907C0F023
:105210004817590761F482819381209719F09B8385
:105220008A832BC09093FF058093FE0526C021152D
:10523000310519F04217530718F49A01BE01DF0136
:10524000EF010280F381E02DDCCF2115310509F15A
:10525000281B390B2430310590F412968D919C91C6
:1052600013976115710521F0FB019383828304C0BC
:105270009093FF058093FE05FD01329644C0FD0129
:10528000E20FF31F81939193225031092D933C93A8
:105290003AC02091FC053091FD05232B41F420916B
:1052A0000601309107013093FD052093FC05209104
:1052B0000401309105012115310541F42DB73EB7A8
:1052C0004091080150910901241B350BE091FC0528
:1052D000F091FD05E217F307A0F42E1B3F0B2817F2
:1052E000390778F0AC014E5F5F4F2417350748F05F
:1052F0004E0F5F1F5093FD054093FC0581939193E2
:1053000002C0E0E0F0E0CF01DF91CF9108950F936C
:105310001F93CF93DF93009709F48CC0FC01329761
:10532000138212820091FE051091FF0501151105EF
:1053300081F420813181820F931F2091FC053091EF
:10534000FD052817390779F5F093FD05E093FC0575
:1053500071C0D80140E050E0AE17BF0750F412967C
:105360002D913C911397AD012115310509F1D9011A
:10537000F3CF9D01DA013383228360817181860F2F
:10538000971F8217930769F4EC0128813981260F52
:10539000371F2E5F3F4F318320838A819B81938308
:1053A0008283452B29F4F093FF05E093FE0542C06C
:1053B0001396FC93EE931297ED01499159919E013A
:1053C000240F351FE217F30771F480819181840F58
:1053D000951F029611969C938E93828193811396CA
:1053E0009C938E931297E0E0F0E0D80112968D9195
:1053F0009C911397009719F0F8018C01F6CF8D91CD
:105400009C9198012E5F3F4F820F931F2091FC05C6
:105410003091FD052817390769F4309729F4109267
:10542000FF051092FE0502C0138212821093FD0543
:105430000093FC05DF91CF911F910F910895A0E09B
:10544000B0E0E5E2FAE20C943C27EC01009721F48D
:10545000CB010E94F228B8C0FC01E60FF71F9C01A7
:1054600022503109E217F30708F4ACC0D9010D91BD
:105470001C91119706171707B0F00530110508F4B5
:105480009FC0C80104978617970708F499C0025077
:105490001109061B170B019311936D937C93CF0198
:1054A0000E9487298DC05B01A01AB10A4C01800EB1
:1054B000911EA091FE05B091FF0540E050E0E12C67
:1054C000F12C109709F44AC0A815B905D1F56D90D3
:1054D0007C901197630182E0C80ED11CCA14DB04D2
:1054E00080F1A3014A195B096A0182E0C80ED11C50
:1054F0001296BC9012971396AC91B5E0CB16D104DE
:1055000040F0B282A38351834083D9016D937C9391
:105510000AC00E5F1F4FC301800F911FF9019183D5
:105520008083EB2DFA2FE114F10431F0D7011396AB
:10553000FC93EE93129744C0F093FF05E093FE05B1
:105540003FC08D919C9111974817590708F4AC0101
:105550007D0112960D90BC91A02DB3CF8091FC05DA
:105560009091FD0588159905E1F446175707C8F491
:105570008091040190910501009741F48DB79EB789
:105580004091080150910901841B950BE817F90718
:10559000C8F4F093FD05E093FC05F9017183608385
:1055A0000FC0CB010E94F2287C01009759F0A8019E
:1055B000BE010E94FB2ACE010E948729C70104C0B8
:1055C000CE0102C080E090E0CDB7DEB7EEE00C94F3
:1055D000582781E090E0F8940C94252BFB01DC0126
:1055E00004C08D910190801921F441505040C8F7BA
:1055F000881B990B0895FB01DC0102C001900D92FC
:1056000041505040D8F70895FC018191861721F050
:105610008823D9F7992708953197CF010895FB0181
:10562000DC0101900D920020E1F70895FB01DC01FF
:105630004150504048F001900D920020C9F701C040
:105640001D9241505040E0F7089510E0C8EED0E0C0
:1056500004C0FE010E94EC282196C93ED107C9F77B
:04566000F894FFCFEC
:10566400FFFFFFFF0000000680000000000010198B
:105674002619D1018019EF188F1F991F000000000F
:105684006D11DA100511B41136111411281100002E
:105694000000C910DA10D101D00100000000A101FE
:1056A4007101D10145016901550146010000000065
:1056B4002A13DA10D101D0012A132A132A13000065
:1056C40000002A13DA10D101D00100000000A9085B
:1056D400DA10D101D001BD0A95082F090E092F0057
:1056E4002E6373760053442057726974696E672081
:1056F400646174613A20003B005772697465204EFE
:105704004F4B000D0A005365702031332032303185
:10571400370031393A31383A353100525443206C2C
:105724006F7374005254432052756E206E6F77006D
:10573400557064617465205254430054656D703A29
:105744000048756D3A00630025005344204B4F21F7
:10575400005344204F4B006E616E00696E66006F0B
:045764007666000065
:00000001FF
