:100000000C944B010C9473010C9473010C947301C8
:100010000C9473010C9473010C9473010C94730190
:100020000C9473010C9473010C9473010C94730180
:100030000C9473010C9473010C9473010C94730170
:100040000C9439200C9473010C949F110C94791129
:100050000C9473010C9473010C9473010C94730150
:100060000C947C170C94730107634236B79BD8A796
:100070001A39685618AEBAAB558C1D3CB7CC5763CD
:10008000BD6DEDFD753EF6177231BF000000803F7B
:1000900008000000BE922449123EABAAAA2ABECD97
:1000A000CCCC4C3E00000080BEABAAAAAA3E000009
:1000B0000000BF000000803F000000000008417801
:1000C000D3BB4387D1133D190E3CC3BD4282AD2B38
:1000D0003E68EC8276BED98FE1A93E4C80EFFFBE30
:1000E00001C4FF7F3F000000000000407A10F35A77
:1000F00000A0724E18090010A5D4E80000E8764868
:10010000170000E40B54020000CA9A3B000000E113
:10011000F505000080969800000040420F000000A6
:10012000A08601000000102700000000E803000086
:1001300000006400000000000A0000000000010050
:10014000000000002C76D888DC674F0823DFC1DF71
:10015000AE59E1B1B796E5E3E453C63AE651997674
:1001600096E8E6C28426EB898C9B62ED407C6FFCAE
:10017000EFBC9C9F40F2BAA56FA5F490055A2AF7F0
:100180005C936B6CF9676DC11BFCE0E40D47FEF5F9
:1001900020E6B500D0ED902E030094357705008061
:1001A000841E080000204E0A000000C80C333333C0
:1001B000330F986E12831141EF8D2114893BE65560
:1001C00016CFFEE6DB18D1844B381BF77C1D901D43
:1001D000A4BBE424203284725E228100C9F124ECA5
:1001E000A1E53D2720416C742000205072657320EA
:1001F000002048756D200054656D702000000000DF
:10020000002300260029000404040404040404025A
:1002100002020202020303030303030102040810A3
:100220002040800102040810200102040810200070
:1002300000000800020100000304070000000000A5
:1002400000000000000000240027002A0000000039
:1002500000250028002B00424D45323830204F4BFE
:1002600000424D45323830206E6F742064657465ED
:1002700063746564007C3C3E5E2B3D3F2F5B5D3BC1
:100280002C2A225C001F1C1F1E1F1E1F1F1E1F1E4C
:100290001F00D527CD2711241FBECFEFD8E0DEBF2A
:1002A000CDBF26E0A8EFB1E001C01D92AD32B2078C
:1002B000E1F711E0A0E0B1E0E0EAFCE602C0059061
:1002C0000D92A83FB107D9F711E0CAE4D1E004C00C
:1002D0002197FE010E940A34C934D107C9F70E9450
:1002E00081280C9443360C940000089580E090E03F
:1002F000089510920F0410920E041092AD05109202
:10030000AE051092560481E080935504109250047B
:1003100061E082E10E94FA1161E083E10E94FA113A
:10032000E9EBF0E080818E7F808380818D7F808308
:1003300088E48093B80085E48093BC000895CF9250
:10034000DF92EF92FF920F931F93CF93DF938C0175
:10035000C1E0D0E06B01770FEE08FF080C171D0716
:1003600094F061E082E00E94FA11C701B6010E9498
:10037000661260E082E00E94FA11C701B6010E9495
:1003800066122196EBCFDF91CF911F910F91FF90D5
:10039000EF90DF90CF9008952F923F924F925F920F
:1003A0006F927F928F929F92AF92BF92CF92DF9285
:1003B000EF92FF920F931F93CF93DF93CDB7DEB7EA
:1003C000C75AD1090FB6F894DEBF0FBECDBF0E9449
:1003D0002D20609308027093090280930A02909383
:1003E0000B02A8958091840590918505892B09F4CD
:1003F000EDC00E94B50960930402709305028093DA
:1004000006029093070280915805882319F00E94F4
:10041000790A03C060E070E0CB0160930002709342
:100420000102809302029093030280915705882372
:1004300019F00E94790B03C060E070E0CB0160937B
:10044000FC017093FD018093FE019093FF0187EF03
:1004500091E00E9407090E94B509AB01BC0122E0AE
:1004600087E594E00E94CD2681EF91E00E94070984
:1004700080915805882329F00E94790AAB01BC01BC
:1004800003C040E050E0BA0122E087E594E00E941A
:10049000CD268AEE91E00E940709809157058823B6
:1004A00029F00E94790BAB01BC0103C040E050E091
:1004B000BA0122E087E594E00E94CD2684EE91E027
:1004C0000E94070960915B0570915C0580915D0554
:1004D00090915E05873E03E0900759F4673E13E074
:1004E000710739F0072E000C880B990B0E94032E20
:1004F0001CC0673E734011F5873E33E09307F1F06F
:10050000BC0160527109072E000C880B990B0E94E8
:10051000032E20E030E040EA50E40E94622E20E00A
:1005200030E040E151E40E94DE2F23E333E948E864
:1005300053E40E94722F6B017C0108C053E3C52E67
:1005400053E1D52E50E9E52E53E4F52E8091570561
:10055000882329F00E94790B4B015C0103C0812C98
:10056000912C54018091590590915A05BC0180E06D
:1005700090E00E94012E9B01AC01C501B4010E94D4
:10058000DE2F2FEC39ED42E45EE30E94D8309B0170
:10059000AC0160E070E080E89FE30E94712FA7014A
:1005A00096010E94622E24EF3DEF44ED5BE30E9432
:1005B000DE2FAB01BC0122E087E594E00E94CD264E
:1005C0006FE771E087E594E00E946F2662E370E0D8
:1005D00081E090E00E949F01C0900002D090010253
:1005E000E0900202F09003028090040290900502D5
:1005F000A0900602B090070260E088E00E94DC0D47
:1006000021E0B501A40186E895E00E94CD2661E0D5
:1006100088E00E94DC0D20E0B701A60186E895E0A5
:100620000E94CD268091080290910902A0910A02B1
:10063000B0910B024091F8015091F9016091FA01DB
:100640007091FB018C019D01041B150B260B370BD0
:10065000B901A801403C544D6140710508F41FC523
:100660008093F8019093F901A093FA01B093FB01F4
:100670000E94580F29833A834B835C836D837E836A
:1006800086E0FE013196DE01A557BF4F01900D9225
:100690008A95E1F786E0FE01E557FF4FDE01AF5690
:1006A000BF4F01900D928A95E1F70E94580FCB57EA
:1006B000DF4F2883C558D040CA57DF4F3883C6580C
:1006C000D040C957DF4F4883C758D040C857DF4F85
:1006D0005883C858D040C757DF4F6883C958D040A7
:1006E000C657DF4F7883CA58D0404AE0672FCE0103
:1006F00081589F4F0E941A264AE0C757DF4F6881F2
:10070000C958D040CE0187589F4F0E941A264AE010
:10071000C857DF4F6881C858D040CE018D589F4FD1
:100720000E941A26CB57DF4F6881C558D04070E031
:100730006053784F4AE0CE01885A9F4F0E94EE25C1
:100740004AE0CA57DF4F6881C658D040CE01CB96E9
:100750000E941A264AE0C957DF4F6881C758D04027
:10076000CE0101960E941A26BE016F5F7F4FCE0117
:100770004E960E94472662E871E0CE014E960E9496
:100780005525BE01655C7F4F0E946E2562E871E0D1
:100790000E945525BE01685A7F4F0E946E2569E967
:1007A00071E00E945525BE016D587F4F0E946E2555
:1007B00065EE71E00E945525BE0167587F4F0E948B
:1007C0006E2565EE71E00E945525BE0161587F4F90
:1007D0000E946E25BC01CE0189569F4F0E9447267C
:1007E000CE014E960E94B925CE0101960E94B925F0
:1007F000CE01CB960E94B925CE01885A9F4F0E9408
:10080000B925CE018D589F4F0E94B925CE0187583A
:100810009F4F0E94B925CE0181589F4F0E94B92554
:10082000BE0169567F4F87E594E00E94B727CE014D
:1008300089569F4F0E94B925809000029090010236
:10084000A0900202B0900302409004025090050272
:100850006090060270900702CF56DF4F1881C15991
:10086000D040CE56DF4F0881C259D040C156DF4F2D
:100870000883CF59D040CD56DF4F0881C359D040AF
:10088000CB55DF4F0883C55AD040CC56DF4F088187
:10089000C459D040CC55DF4F0883C45AD040CB5602
:1008A000DF4F0881C559D040CD55DF4F0883C35A6B
:1008B000D040CA56DF4F0881C659D040CE55DF4FD1
:1008C0000883C25AD04020914B05C156DF4F0881A2
:1008D000CF59D040802F90E0211107C090934D0553
:1008E00080934C0521E020934B0520914C053091DD
:1008F0004D058217930721F090934D0580934C0589
:100900004AE0C156DF4F6881CF59D040CE01CB9627
:100910000E941A26812F90E08C010053184FC05678
:10092000DF4F19830883C05AD0404AE0B801CE0196
:1009300001960E94EE25BE016F5F7F4FCE014E965D
:100940000E944726BE01655C7F4FCE014E960E94F5
:100950006E2564E871E00E945525BC01CE018B57DD
:100960009F4F0E944726CE014E960E94B925CE0188
:1009700001960E94B925CE01CB960E94B92569E85F
:1009800071E087E594E00E94CB27BE016B577F4F53
:1009900087E594E00E94B727109201051092FF04AA
:1009A0001092FC041092FB048AE08093FA040E94E7
:1009B0002D206B017C0161E08091FA040E942A12D3
:1009C00061E08091FA040E94FA110E94461782E5C4
:1009D0008093F4041092F5048091F4049091F5044E
:1009E0000E9408141AE08FEF0E94C9131150D9F722
:1009F000860186EF94E00E940B1420E030E0A9010C
:100A000060E086EF94E00E942114D82E80930005C8
:100A100031E0831749F00E942D20601B710B613D6E
:100A2000774058F381E056C02AEA31E040E050E0D8
:100A300068E086EF94E00E94211482FF03C0D09208
:100A4000010510C044E0D42E0E94D013809300050D
:100A5000DA94D110F9CF8A3A11F082E03BC082E0FB
:100A60008093010580910105823021F0C12CD12CA9
:100A7000760105C0C12CD12CE12C30E4F32E20E00E
:100A800030E0A90167E386EF94E00E942114A701FA
:100A9000960169E286EF94E00E942114809300059C
:100AA000882349F00E942D20601B710B613D774027
:100AB00030F388E00FC080910105823001F520E01D
:100AC00030E0A9016AE386EF94E00E9421148823B4
:100AD00041F086E08093FB0486EF94E00E94BE1311
:100AE0008DC00E94D013807C803C19F483E08093F9
:100AF00001050E94D0130E94D0130E94D01386EFEC
:100B000094E00E94BE1380E58093F4041092F504F3
:100B100081E00E94290E882329F0809125058823F1
:100B200041F06CC080E00E94290E882309F466C061
:100B3000F4CF80911905803109F582E08093250575
:100B400010923705109238051092390510923A0527
:100B500080911A0590911B05A0E0B0E025E0880F78
:100B6000991FAA1FBB1F2A95D1F780933305909335
:100B70003405A0933505B09336051DC08032F1F5DC
:100B800083E08093250540911C0550911D056091DF
:100B90001E0570911F0540933705509338056093EB
:100BA000390570933A0523E335E082E095E00E9431
:100BB0007723882319F182E095E090933C05809398
:100BC0003B0581E0809324051092260510922705AD
:100BD000109228051092290510922A0510922B05D3
:100BE00010922C0510922D0510922E0510922F05B3
:100BF000109230051092310510923205CB57DF4F1D
:100C0000E880F980C558D0408E01025E1F4F60E237
:100C100075E0C8010E9482151C821B8280E291E06F
:100C20009A8389831E826701FE0131961F016FE25C
:100C300070E0C6010E942236009709F454C0F60104
:100C400020812F3221F4FFEFCF1ADF0AF0CF8C1969
:100C50008D3008F08CE0282F30E0C356DF4F398309
:100C60002883CD59D040A901B601CE01885A9F4FA3
:100C70000E943436E8E5F0E0EC0FFD1FC356DF4F6D
:100C800088819981CD59D040E80FF91F1082C101A8
:100C90000E94481FF1018581882351F01EAE1DAED0
:100CA00080E291E09CAF8BAF21961FAE219729C0C7
:100CB00021E0AE01485A5F4FB801C1010E94911D69
:100CC000882361F3C356DF4F28813981CD59D04045
:100CD000C20ED31EC8010E94481F902F812F810190
:100CE000292E382EA4CFC6018E199F09CA55DF4F71
:100CF00099838883C65AD040B801CE01CB960E9412
:100D00008215CA55DF4F08811981C65AD0400E0D91
:100D10001F1DF801808181110AC0BE01655C7F4FF3
:100D2000CE0101960E94821542E851E053C019A2FB
:100D300018A280E291E09F8F8E8F1BA221968FAD2B
:100D4000219781111CC06C961FAE1EAE6C9788EE69
:100D500093E0A0E0B0E0A0968CAF9DAFAEAFBFAF88
:100D6000A09780E791E06A969FAF8EAF6A97E3966F
:100D70001FAE1EAEE397A5961FAEA59733C0825057
:100D800023E1A801823048F460E275E0CE014E967E
:100D90000E94911D81110EC0D6CFBE01655C7F4FB0
:100DA000CE014E960E94911D882369F2CE01CB960A
:100DB0000E94481F49A95AA96BA97CA9CE014E9649
:100DC0000E94521ABE01625E7F4FCE0101960E94C0
:100DD0008215A801BE016F5F7F4FCE01885A9F4FD9
:100DE0000E94D315E396EEADFFADE397309709F47B
:100DF0004DC18581882309F449C14AE0C056DF4FBF
:100E000068817981C05AD040CE018D589F4F0E9491
:100E1000EE254AE0C156DF4F6881CF59D040CE0160
:100E2000CB960E941A264AE0CB55DF4F6881C55AFF
:100E3000D040CE0101960E941A26BE016F5F7F4FFF
:100E4000CE014E960E94472662E871E0CE014E9692
:100E50000E945525BE01655C7F4F0E946E2562E8A9
:100E600071E00E945525BE016D587F4F0E946E258E
:100E7000BC01CE0181589F4F0E944726CE014E965D
:100E80000E94B925CE0101960E94B925CE01CB96CC
:100E90000E94B925CE018D589F4F0E94B9254AE086
:100EA000CE55DF4F6881C25AD040CE018D589F4F3A
:100EB0000E941A264AE0CD55DF4F6881C35AD040C0
:100EC000CE01CB960E941A264AE0CC55DF4F6881AE
:100ED000C45AD040CE0101960E941A26BE016F5F0F
:100EE0007F4FCE014E960E94472665EE71E0CE01FF
:100EF0004E960E945525BE01655C7F4F0E946E256F
:100F000065EE71E00E945525BE016D587F4F0E942D
:100F10006E25BC01CE0187589F4F0E944726CE0107
:100F20004E960E94B925CE0101960E94B925CE01A8
:100F3000CB960E94B925CE018D589F4F0E94B925AE
:100F4000BE0161587F4FCE0101960E94472669E994
:100F500071E0CE0101960E945525BC01CE01885A50
:100F60009F4F0E946126CE0101960E94B925BE01C5
:100F700067587F4FCE01885A9F4F0E9461266BE9C8
:100F800071E0CE01885A9F4F0E94CB2722E0B30127
:100F9000A201CE0101960E94BE25BE016F5F7F4F68
:100FA000CE01885A9F4F0E946126CE0101960E9471
:100FB000B9256BE971E0CE01885A9F4F0E94CB277B
:100FC00022E0B501A401CE0101960E94BE25BE011A
:100FD0006F5F7F4FCE01885A9F4F0E946126CE01DE
:100FE00001960E94B9256BE971E0CE01885A9F4FA6
:100FF0000E94CB2722E040E050E0BA01CE010196EA
:101000000E94BE25BE016F5F7F4FCE01885A9F4F61
:101010000E946126CE0101960E94B9256BE971E01C
:10102000CE01885A9F4F0E94CB2722E040E050E03B
:10103000BA01CE0101960E94BE25BE016F5F7F4FAF
:10104000CE01885A9F4F0E94B727CE0101960E9479
:10105000B925E3968EAD9FADE397009761F00E94AE
:10106000481FE3968EAD9FADE3970E94A534E396AB
:101070001FAE1EAEE397CE0187589F4F0E94B92541
:10108000CE0181589F4F0E94B92504C08DE991E09F
:101090000E94160ECE018B579F4F0E94B92568E81B
:1010A00073E180E090E00E946612C955DF4F0FB6F1
:1010B000F894DEBF0FBECDBFDF91CF911F910F918E
:1010C000FF90EF90DF90CF90BF90AF909F908F9068
:1010D0007F906F905F904F903F902F9008959091E8
:1010E00056049111FCCF91E09093560490935504CF
:1010F0002FEF2093540410925304260F2093520490
:101100009093510490915104880F892B809351043E
:1011100080915004813061F4109250048091510408
:101120008093BB008091BC0083FDF8CF85EC01C0AB
:1011300085EE8093BC00809156048130E1F380916C
:101140005304861710F460915304A0E3B4E020E147
:1011500034E0F9018E2F821B861718F48D9181934C
:10116000F9CF862F0895CF92DF92EF92FF920F93DF
:101170001F93CF93DF93E82EC7E0D0E0D12C01E09E
:1011800010E0DD0C60E0809150050E94FA11B8017A
:101190000C2E01C0660F0A94EAF76E21809151056A
:1011A0000E94FA1161E0809150050E94FA1120918D
:1011B000520530E0F901E15DFD4F8491F901E55EF2
:1011C000FD4FC490F901E95FFD4FF490FF2071F0ED
:1011D00081110E94D111EF2DF0E0EE0FFF1FE350BF
:1011E000FE4FA591B491EC91EC2169F4219708F0A0
:1011F000C8CF8D2DDF91CF911F910F91FF90EF9070
:10120000DF90CF9008958D2D8160D82EEFCF0F9372
:101210001F93CF93DF938C01C0E0D0E0F801EC0F77
:10122000FD1F6491662371F0E0915704F09158041A
:101230000190F081E02D87E594E00995892B11F06C
:101240002196ECCFCE01DF91CF911F910F910895A0
:10125000CF93C82F80914E05813069F460E0809172
:101260004F050E94FA118C2F80680E94B30880E01D
:101270000E94B3080EC08230A1F460E080914F0557
:101280000E94FA118C2F80680E94C91380E00E948E
:10129000C913C82F61E080914F050E94FA118C2F6D
:1012A0001CC0609153058FE995E00E9407196C2FCF
:1012B0008FE995E00E9465138FE995E00E94AA18D6
:1012C00061E0809153050E946F0810920F04809393
:1012D0000E048FE995E00E941913CF910895CF93E2
:1012E000DF93D82FC62F80914E05813089F460E0BE
:1012F00080914F050E94FA118D2F8F770E94B308BD
:101300008C2F0E94B30861E080914F050E94FA1172
:1013100080914E05823099F460E080914F050E94E3
:10132000FA118D2F8F770E94C9138C2F0E94C91339
:1013300061E080914F05DF91CF910C94FA1160919B
:1013400053058FE995E00E9407196D2F8FE995E00D
:101350000E9465136C2F8FE995E00E9465138FE959
:1013600095E0DF91CF910C94AA184F925F926F9203
:101370007F928F929F92AF92BF92CF92DF92EF9225
:10138000FF92CF9380915605882309F4A1C08AEF7C
:101390000E942809C82F8BEF0E942809C82ED12C43
:1013A000E12CF12C84E0CC0CDD1CEE1CFF1C8A959A
:1013B000D1F74C2F50E060E070E09CE0440F551FE7
:1013C000661F771F9A95D1F7C42AD52AE62AF72AED
:1013D0008CEF0E94280982958F70C82A40905F0583
:1013E00050906005612C712CD701C60124E0B595A1
:1013F000A795979587952A95D1F7BC01CD016419DA
:101400007509860997099B01AC010E9462329B0114
:10141000AC016CE055954795379527956A95D1F7BE
:10142000A0916305B09164050E94B4324B015C0148
:101430007EE0B594A794979487947A95D1F7D701D5
:10144000C601E3E0B595A79597958795EA95D1F7FD
:10145000440C551C661C771C9C01AD0124193509F0
:1014600046095709A0916105B09162050E94B43206
:10147000DC01CB01CBE0B595A79597958795CA95EB
:10148000D1F7A5019401280F391F4A1F5B1F209334
:101490008005309381054093820550938305A5E034
:1014A000B0E00E94202FDC01CB0180589F4FAF4F4E
:1014B000BF4F692F7A2F8B2F992787FD9A950E940E
:1014C000032E20E030E048EC52E40E94DE2F03C0FF
:1014D00060E070E0CB01CF91FF90EF90DF90CF9074
:1014E000BF90AF909F908F907F906F905F904F9044
:1014F00008954F925F926F927F928F929F92AF92D8
:10150000BF92CF92DF92EF92FF928DEF0E94280957
:10151000C82E8EEF0E94280980908005909081054A
:10152000A0908205B09083052CE2921A21E0A20AD5
:10153000B108D12CE12CF12CFE2CED2CDC2CCC2490
:10154000C82A4EE0CC0CDD1CEE1CFF1C4A95D1F7DE
:1015500080917B0590917C05092E000CAA0BBB0B9A
:1015600054E1880F991FAA1FBB1F5A95D1F7C81ABB
:10157000D90AEA0AFB0AA0917D05B0917E05A50172
:1015800094010E94B432C61AD70AE80AF90A30E474
:10159000D30EE11CF11C6FE0F594E794D794C79447
:1015A0006A95D1F7A0917F050A2E000CBB0BA5010F
:1015B00094010E94B4322B013C017AE07594679447
:1015C000579447947A95D1F7A0917A05B0E00E949C
:1015D000202FDC01CB01EBE0B595A795979587957A
:1015E000EA95D1F7BC01CD0170588F4F9F4FA301F1
:1015F00092010E946232DC01CB01FAE0B595A79519
:1016000097958795FA95D1F79C01AD01405E5F4FA4
:10161000A0917805B09179050E94B432DC01CB012C
:10162000905EAF4FBF4FBC01CD01AEE09595879561
:1016300077956795AA95D1F7A70196010E94623226
:101640006B017C01BFE09595879577956795BA9575
:10165000D1F79B01AC010E9462329B01AC0187E093
:1016600055954795379527958A95D1F7A091770598
:10167000B0E00E94202FDC01CB0124E0B595A795B6
:10168000979587952A95D1F7A7019601281B390BC5
:101690004A0B5B0BDA01C90157FF03C080E090E001
:1016A000DC0181309105A10539E1B30724F080E028
:1016B00090E0A0E0B9E1BC01CD012CE095958795C3
:1016C000779567952A95D1F70E94032E20E030E0A8
:1016D00040E85AE30E94622EFF90EF90DF90CF9097
:1016E000BF90AF909F908F907F906F905F904F9042
:1016F00008952F923F924F925F926F927F928F92B6
:101700009F92AF92BF92CF92DF92EF92FF920F9390
:101710001F93CF93DF93CDB7DEB7A4970FB6F8949E
:10172000DEBF0FBECDBF0E94B50987EF0E9428091A
:101730008F8388EF0E9428098E8F89EF0E942809E5
:101740008F8F8091800590918105A0918205B09145
:1017500083056C017D01FF0CCC08DC2C76019C011B
:10176000AD016C2D7C2D8C2D9C2D345F4140510999
:1017700061097109810991092CA33BA349835A830B
:101780006B837C838D839E8359016A017B018C016D
:101790000E94BC322E8B3F8B488F598F6A8F7B8F74
:1017A0008C8F9D8F00916F0508A3109170051B878A
:1017B00020916D0529A330916E053C8780916B05C2
:1017C0008AA3E0916C05ED87B0906805A09067054D
:1017D0001B2D110F110BC12ED12EE12EF12E012F39
:1017E0002CA13BA149815A816B817C818D819E8195
:1017F0000E94BC320CE00E94B53319012A013B0162
:101800004C01B0906A05A09069051B2D110F110BBA
:10181000C12ED12EE12EF12E012F2E893F89488D28
:10182000598D6A8D7B8D8C8D9D8D0E94BC3208E018
:101830000E94CE3351016201730184010E94EC3396
:1018400070588F4F9F4F209065053090660551016D
:10185000C12CD12CE12CF12C00E010E00E94BC3214
:1018600001E20E94CE332E873F87488B598B6A8BCB
:101870007B8B8C8B9D8BA0E00E94FE3309F480C192
:10188000FF814F2F50E060E070E08CE0440F551F67
:10189000661F771F8A95D1F70E8D802F90E0A0E00C
:1018A000B0E024E0880F991FAA1FBB1F2A95D1F72B
:1018B0008A019B01082B192B2A2B3B2B0F8318879E
:1018C00029873A87A8A01B85110F110BBB84C12E55
:1018D000D12EE12EF12E012F2E893F89488D598D71
:1018E0006A8D7B8D8C8D9D8D0E94BC3219012A01E1
:1018F0003B014C01A9A01C85110F110BBC84C12E0A
:10190000D12EE12EF12E012F2CA13BA149815A812C
:101910006B817C818D819E810E94BC3201E10E949D
:10192000B53359016A017B018C019101A201B30118
:10193000C4010E94EC3319012A013B014C018F8D37
:1019400082958F704F81588569857A85482B80E014
:1019500090E0A0E1B0E0841B950BA60BB70B6C01E7
:101960007D01FF0CCC08DC2C76019C01AD016C2DB7
:101970007C2D8C2D9C2D0FE10E94B533F901B42FE5
:10198000A52F6C837D8389839A832AA19D85990FD6
:10199000990B3D85492F592F692F792F892F03E204
:1019A0000E94B53359016A017B018C019101A201AA
:1019B000B301C4010E94EC3359016A017B018C011F
:1019C0009F014B2F5A2F6C817D8189819A810E94C2
:1019D000F5334901542E652EB62FA72FF82FE92F86
:1019E00003E00E94B5335401C52CD62CEB2EFA2E01
:1019F0000F2F1E2F0E94F53359016A017B01782EAB
:101A0000192F03E00E94B533072D0E94F53303E040
:101A10000E94B5335401C52CD62CEB2EFA2E0F2F75
:101A20001E2F0E94F53302E00E94B5330F2F0E9453
:101A3000F53301E00E94B5330F2F0E94F533AE84D9
:101A4000BF84C888D988EA88FB880C891D890E94D0
:101A500017332B873F8349835A836B837C838D8322
:101A60009E830DE00E94CE33922E832E742E652E1F
:101A7000562E472E382E292E309176052091750549
:101A8000932F990F990BA92CB82CC72CD62CE52C89
:101A9000F42C032D122D492F592F692F792F892FBF
:101AA0000E94BC320E94BC3209E10E94CE3359012F
:101AB0006A017B018C012B853F8149815A816B81B1
:101AC0007C818D819E810E94EC3319012A013B01AA
:101AD0004C013091740520917305932F990F990B48
:101AE000AB84BF80C980DA80EB80FC800D811E81D1
:101AF000492F592F692F792F892F0E94BC3203E17A
:101B00000E94CE3359016A017B018C019101A2012F
:101B1000B301C4010E94EC3308E00E94CE33522E80
:101B2000632E742E852E962EF72FE82FB92F309125
:101B3000720520917105932F990F990B492F592FF9
:101B4000692F792F892F04E00E94B53359016A016A
:101B50007B018C01252D362D472D582D692D7F2F8A
:101B60008E2F9B2F0E94EC3308E00E94CE330E9400
:101B70007F3020E030E048EC52E40E94DE2F03C0CA
:101B800060E070E0CB01A4960FB6F894DEBF0FBE04
:101B9000CDBFDF91CF911F910F91FF90EF90DF901C
:101BA000CF90BF90AF909F908F907F906F905F90FD
:101BB0004F903F902F900895CF93DF93CDB7DEB72E
:101BC00028970FB6F894DEBF0FBECDBF1D8290E4FC
:101BD0009E8324E12F8324E5288719829A8390E14C
:101BE0009B8390E59C8390918D05691710F06FEFB2
:101BF000690F40918E05262F30E0FE01E20FF31FA2
:101C0000403121F4943011F4918101C09581682F05
:101C1000690F606886E895E028960FB6F894DEBFF5
:101C20000FBECDBFDF91CF910C948320CF93DF9374
:101C3000BC0187E594E00E946F26EC016FE771E03C
:101C400087E594E00E946F268C0F9D1FDF91CF9156
:101C500008958F929F92AF92BF92CF92DF92EF92B0
:101C6000FF92CF93DF93C82F86EF94E090930D04FB
:101C700080930C04CC2369F1C53010F080E00DC1D5
:101C800040E060E070E0CB010E940A228823B1F3BB
:101C900020E1C29FC001112484509E4FFC01E254F8
:101CA000FE4F20812F7751F73C9640815181628110
:101CB0007381443651056105710500F33497C08086
:101CC000D180E280F380C114D104E104F10421F455
:101CD000D5CFC12CD12C760140E0C701B6010E94BE
:101CE0000A22882359F280911702909118028115D7
:101CF000924021F6A0911C02AA2309F4BFCF609163
:101D00001A0270911B026115710509F4B7CF209179
:101D10001902222309F4B2CFA093140520930605DB
:101D200080E030E0E1E0F0E0C82FAF01082E02C013
:101D3000440F551F0A94E2F72417350741F0982FF6
:101D40008F5F983089F789E080930F0597CF809354
:101D50000F0520912202309123022115310519F03F
:101D600040E050E008C020913002309131024091B3
:101D700032025091330220930705309308054093B7
:101D8000090550930A0546015701860E971EA11CAE
:101D9000B11C8092150590921605A0921705B0927D
:101DA0001805E0911D02F0911E02F0931B05E093CF
:101DB0001A05B0E00E94202F860E971EA81EB91E9D
:101DC00080921C0590921D05A0921E05B0921F05E1
:101DD00085E0EE0FFF1F8A95E1F7E150FE4FEF2FF0
:101DE000FF27E6958E0E9F1EA11CB11C8092100548
:101DF00090921105A0921205B092130520911F0236
:101E0000309120022115310521F0A90160E070E038
:101E100008C040912C0250912D0260912E027091C9
:101E20002F02D701C60188199909AA09BB09840F95
:101E3000951FA61FB71F04C0B695A79597958795C0
:101E4000CA95D2F780930B0590930C05A0930D05CE
:101E5000B0930E05853F2FE09207A105B10510F460
:101E60008CE018C0853F9F4FA105B10510F480E1BB
:101E700011C08091380290913902A0913A02B0913C
:101E80003B0280931C0590931D05A0931E05B09303
:101E90001F0580E28093190581E0DF91CF91FF90CB
:101EA000EF90DF90CF90BF90AF909F908F9008956C
:101EB000EF92FF920F931F93CF93DF93CDB7DEB7CF
:101EC00028970FB6F894DEBF0FBECDBF68E68091AD
:101ED000AB059091AC050E9407198091AB059091DC
:101EE000AC05DC01ED91FC910190F081E02D60E00A
:101EF00009958091AB059091AC050E94AA1867E006
:101F000088E60E946F0810920F0480930E0480915F
:101F1000AB059091AC05DC01ED91FC910284F38559
:101F2000E02D09958F77982F92959F701AEF082FC3
:101F3000919F000D11248091AB059091AC05DC01BF
:101F4000ED91FC910284F385E02D09959C013327E6
:101F500064E0359527956A95E1F7F82E129FF00C0D
:101F600011248091AB059091AC05DC01ED91FC91C1
:101F70000284F385E02D099586FF0CC0582F5F7110
:101F8000952F92959F70919F500D112485FF0DC044
:101F9000545F0BC09C01332754E0359527955A9523
:101FA000E1F7582F129F500D11248091AB059091AD
:101FB000AC05DC01ED91FC910284F385E02D58879E
:101FC00009958091AB059091AC05DC01ED91FC91F8
:101FD0000284F385E02D09959C01332794E0359523
:101FE00027959A95E1F73AEFE32E482FE29E400DB0
:101FF00011248091AB059091AC05DC01ED91FC9131
:102000000284F385E02D4F830995182F8091AB054D
:102010009091AC05DC01ED91FC910284F385E02DFB
:1020200009959C01332744E0359527954A95E1F7BA
:10203000E82FE29EE00D1124F0E09F012053384F7D
:102040004F81588517FF02C02C593F4F1F77205DE5
:10205000812F82958F70312FB6E08B9F301911241C
:102060006F2D702F80E090E028960FB6F894DEBFB9
:102070000FBECDBFDF91CF911F910F91FF90EF90D9
:102080000895CF93C82F68E68091AB059091AC0579
:102090000E9407198091AB059091AC05DC01ED9190
:1020A000FC910190F081E02D6C2F09958091AB059A
:1020B0009091AC050E94AA1861E088E60E946F0822
:1020C00010920F0480930E048091AB059091AC05A3
:1020D000DC01ED91FC910284F385E02D0995CF910F
:1020E0000895CF93DF93D82FC62F68E68091AB0574
:1020F0009091AC050E9407198091AB059091AC05B9
:10210000DC01ED91FC910190F081E02D6D2F09959E
:102110008091AB059091AC05DC01ED91FC910190B3
:10212000F081E02D6C2F09958091AB059091AC0565
:10213000DF91CF910C94AA18FC01538D448D252F6B
:1021400030E0842F90E0821B930B541710F0CF9651
:10215000089501970895FC01918D828D981761F083
:10216000828DDF01A80FB11D5D968C91928D9F5FCE
:102170009F73928F90E008958FEF9FEF0895FC0179
:10218000918D828D981731F0828DE80FF11D858D2C
:1021900090E008958FEF9FEF0895FC01918D228DBF
:1021A000892F90E0805C9F4F821B91098F73992744
:1021B000089587E594E00E94CD1021E0892B09F471
:1021C00020E0822F0895FC01848DDF01A80FB11D4E
:1021D000A35ABF4F2C91848D90E001968F7399275D
:1021E000848FA689B7892C93A089B1898C9180644A
:1021F0008C93938D848D981306C00288F389E02D0B
:1022000080818F7D80830895EF92FF920F931F93BB
:10221000CF93DF93EC0181E0888F9B8D8C8D981399
:1022200005C0E889F989808185FD24C0F62E0B8DD3
:1022300010E00F5F1F4F0F731127E02E8C8DE812F7
:102240000CC00FB607FCFACFE889F989808185FFB9
:10225000F5CFCE010E94E310F1CF8B8DFE01E80F88
:10226000F11DE35AFF4FF0820B8FEA89FB898081D1
:10227000806207C0EE89FF896083E889F9898081DF
:102280008064808381E090E0DF91CF911F910F9176
:10229000FF90EF900895CF93DF93EC01888D882312
:1022A000C9F0EA89FB89808185FD05C0A889B989C3
:1022B0008C9186FD0FC00FB607FCF5CF808185FF9E
:1022C000F2CFA889B9898C9185FFEDCFCE010E940C
:1022D000E310E7CFDF91CF91089580E090E0892B64
:1022E00029F00E94D91081110C94000008950E94D9
:1022F00007361F920F920FB60F9211242F933F9320
:102300004F935F936F937F938F939F93AF93BF93FD
:10231000EF93FF9387E594E00E94E310FF91EF9124
:10232000BF91AF919F918F917F916F915F914F91ED
:102330003F912F910F900FBE0F901F9018951F92F5
:102340000F920FB60F9211242F938F939F93EF93B9
:10235000FF93E0916704F09168048081E0916D043F
:10236000F0916E0482FD12C09081809170048F5FA5
:102370008F7320917104821751F0E0917004F0E0A6
:10238000E95AFB4F958F8093700401C08081FF91C3
:10239000EF919F918F912F910F900FBE0F901F90F3
:1023A0001895833081F028F4813099F08230A1F0C3
:1023B00008958730A9F08830B9F08430D1F4809145
:1023C00080008F7D03C0809180008F778093800094
:1023D000089584B58F7702C084B58F7D84BD08953C
:1023E0008091B0008F7703C08091B0008F7D809383
:1023F000B00008951F93CF93DF93282F30E0F901A9
:10240000E15DFD4F8491F901E55EFD4FD491F90145
:10241000E95FFD4FC491CC23C9F0162F81110E94B2
:10242000D111EC2FF0E0EE0FFF1FE35BFD4FA59104
:10243000B4918FB7F894111105C09C91ED2FE095E0
:10244000E92302C0EC91ED2BEC938FBFDF91CF918C
:102450001F910895CF93DF9390E0FC01E55EFD4F5F
:102460002491FC01E95FFD4F8491882361F190E0A4
:10247000880F991FFC01ED5BFD4FC591D491FC01C4
:10248000E35BFD4FA591B491611109C09FB7F8942A
:102490008881209582238883EC912E230BC06230A3
:1024A00061F49FB7F8943881822F809583238883C5
:1024B000EC912E2B2C939FBF06C08FB7F894E88128
:1024C0002E2B28838FBFDF91CF9108958F929F92FB
:1024D000AF92BF92CF92DF92EF92FF926B017C019D
:1024E0000E9408204B015C01C114D104E104F104F5
:1024F000F1F00E940820DC01CB0188199909AA0992
:10250000BB09883E9340A105B10570F321E0C21AD2
:10251000D108E108F10888EE880E83E0981EA11C1E
:10252000B11CC114D104E104F10419F7DDCFFF900F
:10253000EF90DF90CF90BF90AF909F908F900895D5
:10254000DC015996ED91FC915A973097B9F0838947
:102550009489A589B6894285538564857585841BD0
:10256000950BA60BB70B811520E89207A105B105C5
:1025700038F08FEF9FE7A0E0B0E0089580E090E0B2
:102580000895CF93DF931F92CDB7DEB76983DC0147
:10259000ED91FC910280F381E02D41E050E0BE011D
:1025A0006F5F7F4F09950F90DF91CF91089585ED73
:1025B0008093BC008091BC0084FDFCCF1092560437
:1025C00008954091F305262F30E0240F311D21326C
:1025D0003105DCF4209156042430C9F4FC0180E07C
:1025E00090E0861758F43091F3052191DC01AF5249
:1025F000BA4FA30FB11D2C930196F3CF8091F30531
:10260000680F6093F30580E0089581E0089582E00B
:1026100008950895E0910F0480910E04E81730F4B6
:10262000F0E0E05FFB4F808190E008958FEF9FEF37
:10263000089590910F0480910E04981750F4E92F9B
:10264000F0E0E05FFB4F208130E09F5F90930F044C
:1026500002C02FEF3FEFC901089580910E0490E072
:1026600020910F04821B91090895CF92DF92EF927F
:10267000FF920F931F93CF93DF937C01262F972F09
:102680008A018091D005882391F0C62FD72F6E0143
:10269000C40ED51ECC15DD0571F06991D701ED9101
:1026A000FC910190F081E02DC7010995F3CF642FD3
:1026B000822F0E94E112C801DF91CF911F910F91EB
:1026C000FF90EF90DF90CF900895CF93DF931F920C
:1026D000CDB7DEB769832091D0052223D1F02091B8
:1026E000AE05203240F021E030E0FC01338322834C
:1026F00080E090E015C08091AD05E82FF0E0E05556
:10270000FA4F998190838F5F8093AD058093AE05DA
:1027100005C061E0CE0101960E94E11281E090E0E7
:102720000F90DF91CF910895FC01818D928D0097DC
:1027300011F00C94141A0895CF93DF93EC01898D56
:102740009A8D009739F481E090E09B838A8380E042
:1027500090E00BC0FC01138212820E94E81AE98DFE
:10276000FA8D22813381232B71F7DF91CF91089568
:102770008FB7F89480911A068FBF089561E0FC012D
:1027800084810E94FA118091190681111092190614
:1027900008958EBD00000DB407FEFDCF8EB50895DF
:1027A0008FEF0C94C9130F931F93CF93DF93EB011B
:1027B0000E942D208B010E94D0138F3F49F00E9470
:1027C0002D20601B710B6C177D07A8F380E001C002
:1027D00081E0DF91CF911F910F910895CF93DF9307
:1027E000EC018E81882389F08F8198859C012F5F71
:1027F0003F4F38872F838230924018F40E94D013C5
:10280000F3CFCE010E94BE131E82DF91CF910895B7
:102810008CBD9DBD0895CF93DF93EC018091190687
:10282000811109C081E0809319068091F404909190
:10283000F5040E94081460E08C81DF91CF910C9424
:10284000FA11CF92DF92FF920F931F93CF93DF93F2
:1028500000D000D0CDB7DEB76C01F62E29833A83C5
:102860004B835C830E94EE13C6010E940B146CE242
:1028700071E0C6010E94D3138F2D80640E94C9139A
:1028800008E110E05C814B813A812981DA01C901BC
:10289000002E04C0B695A795979587950A94D2F710
:1028A00029833A834B835C830E94C9130850110922
:1028B00029813A814B815C81083F8FEF180731F7FE
:1028C000FF2029F0E8E0FE1204C087E803C085E994
:1028D00001C08FEF0E94C91310E00E94D013F601CF
:1028E000828787FF04C01F3F11F01F5FF6CF0F9054
:1028F0000F900F900F90DF91CF911F910F91FF904C
:10290000DF90CF900895AF92BF92CF92DF92EF9277
:10291000FF920F931F93CF93DF93EC016901C801DE
:10292000820F931F8130924008F070C08E818823FF
:1029300071F088819981AA81BB81481759076A077C
:102940007B0729F48F819885C816D906B0F548838E
:1029500059836A837B838B85833039F089E0440F08
:10296000551F661F771F8A95D1F79A01AB0161E168
:10297000CE010E942114882319F083E08D8346C084
:102980000E942D205B010E94D0138A878F3F49F45B
:102990000E942D206A197B096D327140A0F38FE0EF
:1029A00003C08E3F31F08DE08D83CE010E94BE13B7
:1029B0002DC018861F8281E08E838F8198858C15AB
:1029C0009D0540F40E94D0138F81988501969887C9
:1029D0008F83F3CF6701E00EF11ECE14DF0431F0D8
:1029E0000E94D013F60181936F01F7CF8F819885F4
:1029F000080F191F18870F838985882319F001157F
:102A0000124048F0CE010E94EE1305C0CE010E9494
:102A1000BE1380E001C081E0DF91CF911F910F9143
:102A2000FF90EF90DF90CF90BF90AF900895EF921E
:102A3000FF920F931F93CF93DF93EC017901411520
:102A400051056105710511F482E13CC08B8583302D
:102A500039F089E0440F551F661F771F8A95D1F71B
:102A60009A01AB0168E1CE010E942114882311F084
:102A700084E028C08EEF0E94C91387018EEFF81AF8
:102A8000F80181918F010E94C9130E151F05C1F72E
:102A90008FEF0E94C9138FEF0E94C9130E94D013B9
:102AA0008A878F71853031F081E18D83CE010E945C
:102AB000BE1309C068E572E0CE010E94D3138111F4
:102AC00007C085E18D83CE010E94BE1380E013C054
:102AD00020E030E0A9016DE0CE010E9421148111B7
:102AE00004C00E94D013882311F084E1EBCFCE0103
:102AF0000E94BE1381E0DF91CF911F910F91FF9053
:102B0000EF900895FC01DB0112968D919C91139733
:102B10009383828380E291E09183808314968C91E9
:102B20001497848315968C911597858316964D91ED
:102B30005D916D917C91199746835783608771876A
:102B40001A964D915D916D917C911D9742875387A7
:102B5000648775871E964D915D916D917C9151971B
:102B600046875787608B718B52968C915297828BD8
:102B700053964D915D916D917C915697438B548BFB
:102B8000658B768B57964D915D916D917C915A979F
:102B9000478B508F618F728F5B968D919C915C9764
:102BA000948F838F0895EF92FF920F931F93CF938B
:102BB000DF93EC017B018A011B821A8288EE93E08D
:102BC000A0E0B0E08C839D83AE83BF8380E791E07B
:102BD000998388838DE190E00E9410349A8F898FC9
:102BE000009779F02DE1F701DC0101900D922A9513
:102BF000E1F74CE050E0B801CE010C960E9434366B
:102C0000188EDF91CF911F910F91FF90EF90089553
:102C10002F923F924F925F926F927F928F929F92EC
:102C2000AF92BF92CF92DF92EF92FF920F931F93DA
:102C3000CF93DF9300D0CDB7DEB7FC018581882329
:102C400009F4D9C0848180FFD6C021E02A8343895A
:102C500054896589768982859385A485B5854817C9
:102C600059076A077B0709F41A826F013A81832F9B
:102C700090E0DE0111964D013F01B6E06B0E711C34
:102C8000892B09F47DC0D6011A964D915D916D9105
:102C90007C911D975A01B1E0BB22F60125811A01F2
:102CA0002B0189E056944794379427948A95D1F75D
:102CB000838D948D223061F4FC01828D938DA48DDF
:102CC000B58DBC01CD01620D731D841D951D45C0E0
:102CD000DC0114961C9111501221A114B104D1F4FD
:102CE000111118C0452B462B472B51F4F60187894B
:102CF000908DA18DB28D86839783A087B1870AC0FE
:102D0000468157816085718593010E94F322882353
:102D100009F471C0F601238D348D86819781A085D9
:102D2000B1850297A109B109AC01BD01F901058482
:102D300004C0440F551F661F771F0A94D2F786857B
:102D40009785A089B189840F951FA61FB71FBC0165
:102D5000CD01610F711D811D911DD60114962C911D
:102D600026FF14C000910001109101012091020181
:102D700030910301601771078207930751F506C070
:102D8000FA81FF23C1F1898190E037C040E00E94C1
:102D90000A22882381F1F501E45FFD4FD401CF01C0
:102DA0000196E817F90719F021912D93FACFEFEF6B
:102DB0008E1A9E0AF60182859385A485B5850196B3
:102DC000A11DB11D82879387A487B58780E090E01D
:102DD00057CF740101E010E09501AB01BC01809177
:102DE0000C0490910D040E948314882321F0BFEFFE
:102DF0008B1A9B0ADFCF8FEF9FEF0F900F90DF9121
:102E0000CF911F910F91FF90EF90DF90CF90BF90E7
:102E1000AF909F908F907F906F905F904F903F907A
:102E20002F900895FC01818D928D009711F00C94E4
:102E300008168FEF9FEF08950F931F93CF93DF93A3
:102E4000FC01818D928D0097B9F0EF010E94081668
:102E50008C010F3F8FEF180791F0898D9A8DFC013F
:102E60004285538564857585415051096109710911
:102E70000E94521AC80105C080E090E002C08FEFA6
:102E80009FEFDF91CF911F910F910895CF93CFB70F
:102E9000F89480911806811127C0E1E1F2E0849155
:102EA000E5E2F2E09491E82FF0E0EE0FFF1FED5B1A
:102EB000FD4FA591B491EC91E92321F461E08AE002
:102EC0000E94FA1161E08AE00E942A128CB58061AA
:102ED0008CBD8CB580648CBD61E08DE00E942A12AF
:102EE00061E08BE00E942A12809118068F5F809328
:102EF0001806CFBFCF9108951F920F920FB60F9271
:102F000011242F933F934F935F936F937F938F93EE
:102F10009F93AF93BF93EF93FF938091B900887F06
:102F2000803609F49CC068F5883209F45BC090F4DF
:102F3000803109F454C038F4882309F4F6C088308D
:102F400009F44DC0F6C0883109F44CC0803209F450
:102F50005DC0EFC0803409F468C048F4803309F4E0
:102F600055C0883309F0E5C080935404D8C080353B
:102F700009F44FC0883509F45DC0883409F0D9C020
:102F8000D6C0883909F4C7C0A8F4883709F467C0E7
:102F900038F4883609F463C0803709F460C0C9C0CA
:102FA000883809F4B8C0803909F45FC0803809F066
:102FB000C0C05BC0803B09F486C038F4803A09F495
:102FC00066C0883A09F47FC0B4C0803C09F4A7C049
:102FD000883C09F4A4C0883B09F48AC0AAC0809147
:102FE000510410C09091530480915204981770F5C9
:102FF000E091530481E08E0F80935304F0E0E05D94
:10300000FB4F80818093BB0085EC86C08093540485
:103010008EC0E091530481E08E0F80935304809121
:10302000BB00F0E0E05DFB4F808390915304809102
:1030300052046EC0E091530481E08E0F80935304DC
:103040008091BB00F0E0E05DFB4F808380915504F0
:1030500081116DC081E08093500484EA61C083E0F7
:103060008093560410921706CFCF809117068032B6
:1030700008F051C0E091170681E08E0F809317068B
:103080008091BB00F0E0E950FA4F8083BDCF85EC22
:103090008093BC001092560480911706803230F461
:1030A000E0911706F0E0E950FA4F108260911706A0
:1030B00070E0E091F505F091F60587EF95E0099550
:1030C0001092170636C084E0809356041092F405DF
:1030D0001092F305E091F105F091F20509958091C8
:1030E000F305811105C081E08093F3051092D105AD
:1030F000E091F40581E08E0F8093F405F0E0EF524B
:10310000FA4F80818093BB009091F4058091F30584
:10311000981708F479CF85E88093BC000AC085EC45
:103120008093BC001092560404C0109254040E9474
:10313000D712FF91EF91BF91AF919F918F917F91A6
:103140006F915F914F913F912F910F900FBE0F9014
:103150001F9018952091AE059091AF05213208F08F
:103160004AC0809156048111FCCF32E0309356045E
:1031700031E0309355043FEF3093540410925304E0
:1031800020935204A0EBB5E040E354E0FA013E2F57
:10319000341B321718F43D913193F9CF109251043A
:1031A00020915104990F922B9093510490915004C7
:1031B000913061F410925004909151049093BB00AF
:1031C0009091BC0093FDF8CF95EC01C095EE9093E3
:1031D000BC00909156049230E1F3909154049F3FCB
:1031E00079F080915404803241F08091540480330E
:1031F00031F084E005C081E003C082E001C083E0DB
:103200001092AD051092AE051092D005089581E0A0
:103210008093D0056093AF051092AD051092AE0576
:1032200008953F924F925F926F927F928F929F92FA
:10323000AF92BF92CF92DF92EF92FF920F931F93C4
:10324000CF93DF93CDB7DEB72C970FB6F894DEBFE0
:103250000FBECDBF5C01DC015B968D909C905C97AE
:103260001696CD90DD90ED90FC901997C114D10485
:10327000E104F10439F0BFEFCB1ADB0AEB0AFB0AD9
:10328000312C07C0F401C080D180E280F380332468
:103290003394F40181859285A385B4859C01AD01A9
:1032A0002F5F3F4F4F4F5F4F29873A874B875C8790
:1032B000260137011D821E821F821886F401818536
:1032C0009285A385B4852D813E814F81588528172D
:1032D00039074A075B0708F063C089859A85AB8583
:1032E000BC858C159D05AE05BF0550F482E0C82E47
:1032F000D12CE12CF12C92E0492E512C612C712C17
:103300009E012F5F3F4FB701A601C4010E94F32227
:10331000882309F445C089819A81AB81BC81892BBE
:103320008A2B8B2B41F0260137019FEF491A590A4E
:10333000690A790A05C0C414D504E604F70491F0BB
:103340002D813E814F8158852F5F3F4F4F4F5F4FFB
:103350002D833E834F8358873FEFC31AD30AE30A76
:10336000F30AACCF0FEF1FEF2FEF3FE0B301A20145
:10337000C4010E945322882399F0D50116964D91DD
:103380005D916D917C91199741155105610571050C
:1033900049F093018201C4010E945322811102C0AD
:1033A00080E02AC0D50116964D925D926D927C9276
:1033B0001997332051F0D301C2010196A11DB11D0F
:1033C000F40180839183A283B383F5018789908D73
:1033D000A18DB28D892B8A2B8B2B69F4D501579641
:1033E0004D925D926D927C925A9714968C9114979F
:1033F000806814968C9381E02C960FB6F894DEBF0B
:103400000FBECDBFDF91CF911F910F91FF90EF9035
:10341000DF90CF90BF90AF909F908F907F906F90F4
:103420005F904F903F900895CF93DF93EC018D8193
:103430008823A1F18C8187FF2DC06E857F858889C7
:10344000998941E00E940A22882341F1EA8980E2B9
:10345000E89FF0011124DF01A45FBD4F1097F1F048
:103460008D81823050F44B895C896D897E895C96B0
:103470004D935D936D937C935F978F89988DA98D04
:10348000BA8DE45FFD4F938F828FB58BA48B8C81B7
:103490008F778C83DF91CF910C94CF2180E0DF91E7
:1034A000CF9108958F929F92AF92BF92CF92DF9269
:1034B000EF92FF920F931F93CF93DF93EC018D81D7
:1034C000811102C080E077C00B891C892D893E895B
:1034D0000417150726073707A8F36A017B01823016
:1034E00029F4CA86DB86EC86FD860DC0C114D104A2
:1034F000E104F10451F41E821F82188619861A868F
:103500001B861C861D8681E056C08A849B84AC8401
:10351000BD84EB8DFC8D258530E0275F3F4FB501E5
:10352000A4014150510961097109022E04C0769528
:103530006795579547950A94D2F7D701C601019729
:10354000A109B10904C0B695A795979587952A95C5
:10355000D2F784179507A607B70720F089288A288D
:103560008B2849F44F89588D698D7A8D4E835F83FE
:103570006887798704C0841B950BA60BB70B4C0199
:103580005D018E010A5F1F4F81149104A104B104F3
:1035900009F4A7CF4E815F816885798598018B8D6D
:1035A0009C8D0E94F32291E0891A9108A108B1082C
:1035B0008111EACF87CFDF91CF911F910F91FF90BB
:1035C000EF90DF90CF90BF90AF909F908F90089535
:1035D0002F923F924F925F926F927F928F929F9223
:1035E000AF92BF92CF92DF92EF92FF920F931F9311
:1035F000CF93DF9300D000D0CDB7DEB78C015B0155
:103600001A01DC0115968C9115978130C9F4149636
:103610008C9181FF15C082FF1BC0F801438954893A
:103620006589768982859385A485B58584179507F4
:10363000A607B70769F0C8010E94521A811108C095
:1036400081E090E0F8019383828380E090E039C1CB
:10365000610183C0D8015B968D919C915C97FC01C0
:10366000248121502A013B0139E0769467945794D4
:1036700047943A95D1F7722E74207A01F1E0FF2237
:10368000772009F476C080E092E08E199F09460108
:103690008C159D0508F44C01D8015B962D913C9149
:1036A0005C9716968D919D910D90BC91A02D0297DF
:1036B000A109B109F901058404C0880F991FAA1F47
:1036C000BB1F0A94D2F74685578560897189840F9C
:1036D000951FA61FB71F9C01AD01270D311D411D70
:1036E000511D29013A01811432E0930609F088C086
:1036F0008091000190910101A0910201B09103011C
:1037000084159505A605B70559F48FEF9FEFDC01E9
:103710008093000190930101A0930201B0930301F3
:103720009501B301A20180910C0490910D040E94B7
:103730001715882309F484CF9EEFB91AC818D90841
:10374000F80182859385A485B585880D991DA11DF5
:10375000B11D82879387A487B587D8011A964D91AA
:103760005D916D917C911D97C114D10409F072CFC8
:1037700087C0E114F10409F086CF16964D915D9152
:103780006D917C911997411551056105710559F4A9
:1037900057968D919D910D90BC91A02D0097A105FC
:1037A000B10541F521C09E012F5F3F4F0E94F322DA
:1037B000882309F44BCF89819A81AB81BC81F801C0
:1037C000238D348DF9012789203129F048EF5FEFEF
:1037D0006FEF7FE004C048EF5FEF60E070E08417B8
:1037E0009507A607B70730F0C8010E94111981118B
:1037F0004ACF26CFF80186839783A087B18743CF2E
:10380000E114F10429F5D8011A964D915D916D915D
:103810007C911D9753968D919D910D90BC91A02DFB
:10382000481759076A077B0798F00E94CF21882321
:1038300009F406CF4092000150920101609202010A
:103840007092030180911B06816080931B0608C063
:1038500041E0C301B2010E940A22882309F4F0CE9C
:10386000D501F701E45FFD4FCF01880D991DE817E1
:10387000F90719F02D912193FACFA80CB91C5ECF4E
:1038800053968D919D910D90BC91A02D8417950715
:10389000A607B70740F4F801438B548B658B768BF2
:1038A000848180688483D80114968C9183FD02C042
:1038B000C10107C0C8010E94141A882309F4C0CEB0
:1038C000F7CF0F900F900F900F90DF91CF911F9136
:1038D0000F91FF90EF90DF90CF90BF90AF909F90AF
:1038E0008F907F906F905F904F903F902F900895B2
:1038F000CF93DF931F92CDB7DEB7698341E050E0ED
:10390000BE016F5F7F4F0E94E81A0F90DF91CF9149
:1039100008958F929F92AF92BF92CF92DF92EF92D3
:10392000FF920F931F93CF93DF9300D000D0CDB7BA
:10393000DEB77C0180E2689F600111249601245F5C
:103940003D4FD9011B969C91917121F0842F827477
:1039500009F097C0142FF701628B809100019091BC
:103960000101A0910201B091030186879787A08B86
:10397000B18BF601E45FFD4F4489558960E070E04A
:10398000BA0155274427D70157964D935D936D9300
:103990007C935A97828D938DA0E0B0E0482B592BF1
:1039A0006A2B7B2BD70157964D935D936D937C9338
:1039B0005A97D9011B968C91887159F4848D958DF5
:1039C000A68DB78DF701838B948BA58BB68B81E089
:1039D00012C0803109F055C097012D5E3F4FD701CD
:1039E0005B968D919C915C970E947723882309F4C4
:1039F00048C084E0F7018583812F8F70D70114962A
:103A00008C931497F70116821782108611861A96E6
:103A10001D921D921D921C921D9716FF34C0159683
:103A20008C91813071F511FF2CC0F70143895489C5
:103A300065897689452B462B472B09F461C040E008
:103A400050E0BA01C7010E94521A8823D1F0F70151
:103A50008788908CA18CB28CC38CD48C82E090E04F
:103A6000A0E0B0E0F60180839183A283B3839E013E
:103A70002F5F3F4FB501A401C6010E94F3228111BF
:103A800004C080E03DC081E03BC000E010E0980150
:103A9000B501A401C6010E945322882391F38980B5
:103AA0009A80AB80BC80D60157968C91803129F0EA
:103AB00088EF9FEFAFEFBFE004C088EF9FEFA0E07B
:103AC000B0E088169906AA06BB0688F2D701579679
:103AD0001D921D921D921C925A97F701138A148A07
:103AE000158A168A848180688483C7010E94141A0B
:103AF000882339F240E050E0BA01C7010E94521A0F
:103B00000F900F900F900F90DF91CF911F910F9119
:103B1000FF90EF90DF90CF90BF90AF909F908F90ED
:103B200008954F925F926F927F92AF92BF92CF9221
:103B3000DF92EF92FF920F931F93CF93DF93CDB756
:103B4000DEB72B970FB6F894DEBF0FBECDBF7C015A
:103B5000CE0101966C01FC0190E28BE08C0D9193FB
:103B60008E13FDCFDA0130E047E09D91992339F1C2
:103B70009E3219F0E5E7F2E00AC04A3009F472C15A
:103B800038E04AE0F2CF3196891709F46BC184918D
:103B90008111F9CF431708F465C18FED890F8E3578
:103BA00008F060C181E0830FF601E30FF11D3FE9EA
:103BB000390F3A3108F490529083382FD6CF89814B
:103BC000803209F44FC1B22E8B01DB015B968D91DF
:103BD0009C915C97F701948F838F16961D921D928E
:103BE0001D921C921997FB01128613861486158666
:103BF000712CF80182859385A485B5854389548904
:103C00006589768984179507A607B70708F061C00C
:103C100025E0B695A795979587952A95D1F7F82F22
:103C2000FF706F2ED80115968C91823008F41AC15E
:103C3000C8010E94081697FD15C1F8018285938579
:103C4000A485B5854F96A11DB11D82879387A48752
:103C5000B587F0E26F9EC0011124BC01645F7D4F07
:103C60006115710509F4FEC0DB012C91222319F0C6
:103C7000253EC1F427C071100EC0F701628A409141
:103C8000000150910101609102017091030146878A
:103C90005787608B718BFC01E45FFD4F8081811140
:103CA00013C015C04BE050E0C6010E940C36892BB2
:103CB00009F09FCF8B2D8073803309F4D3C04B2D37
:103CC000662DCCC07720C9F27724739492CF7724E5
:103CD00073948B2D8271823109F0C4C07720D1F0AA
:103CE000D7011E966D917D918D919C91519741E0E8
:103CF0000E940A22882309F4B5C0F7016289F0E224
:103D00006F9FB0011124645F7D4F6115710509F04B
:103D100079C0A8C0D80115968C91823009F4A2C050
:103D2000C8010E941119882309F49CC0D8015B9630
:103D3000ED91FC915C9716964D905D906D907C9006
:103D40001997B2E04B1A510861087108058404C044
:103D5000440C551C661C771C0A94D2F786859785FF
:103D6000A089B189480E591E6A1E7B1EA480E1E01D
:103D70004E1A510861087108AA2009F10E94CF214A
:103D8000882309F46FC0ECE0F2E0119224E0EC30FB
:103D9000F207D9F7D301C2018A0D911DA11DB11DF2
:103DA0008093000190930101A0930201B09303015D
:103DB00080911B06816080931B06AA94DDCFD801F9
:103DC0005B96ED91FC915C9780E092E0A0E0B0E022
:103DD000058404C0880F991FAA1FBB1F0A94D2F73D
:103DE000F8014389548965897689840F951FA61F38
:103DF000B71F838B948BA58BB68BD70152961C92E1
:103E00006CE072E080E2FB0111928A95E9F78BE0A9
:103E1000F601DB0101900D928A95E1F781E298E2CB
:103E2000DB0151969C938E93509720E038E01F96CB
:103E30003C932E931E9753969C938E93529759962C
:103E40009C938E93589757963C932E9356970E9427
:103E5000CF21882339F04B2DF7016289C7010E94D9
:103E6000891C01C080E02B960FB6F894DEBF0FBE10
:103E7000CDBFDF91CF911F910F91FF90EF90DF9019
:103E8000CF90BF90AF907F906F905F904F900895CC
:103E9000CF93DF93EC010E94141A882311F01D8246
:103EA00081E0DF91CF91089521E001C0220F6A9552
:103EB000EAF7DC011C962C931C971A965C934E93A0
:103EC0001997ED91FC910484F585E02D60E009944B
:103ED000DC01ED91FC910684F785E02D41E0099528
:103EE00081E090E0089508950895CF93DF93FC0159
:103EF00023812223B1F0EC018181809568236083C6
:103F000062818FE995E00E94071968818FE995E049
:103F10000E9465138FE995E00E94AA18282F30E0CF
:103F200002C020E030E081E090E0232B11F080E03F
:103F300090E0DF91CF910895EF92FF920F931F933E
:103F4000CF938C01FC01759684E0C0E060FF02C055
:103F50009081C92B6695815031968111F7CF413000
:103F600011F4F8014489F8018585C82BC42B780128
:103F7000FEE0EF0EF11CF80162896C2BC7010E9474
:103F8000751FF801628960956C23C701CF911F915D
:103F90000F91FF90EF900C94751F0F931F93CF9389
:103FA000DF93062F0F70423019F440E0602F10C0ED
:103FB000142F262FEC0130E0B90184E07595679548
:103FC0008A95E1F7CE010E949C1F412F602FCE0100
:103FD000DF91CF911F910F910C949C1FFC01848560
:103FE0008823A9F0218532852115310519F4611145
:103FF00006C007C02130310521F4611102C0858758
:1040000001C015866585CF010E960C94751F089525
:104010003FB7F8948091250690912606A091270637
:10402000B091280626B5A89B05C02F3F19F0019630
:10403000A11DB11D3FBFBA2FA92F982F8827820F2E
:10404000911DA11DB11DBC01CD0142E0660F771F7E
:10405000881F991F4A95D1F708952FB7F89460915A
:1040600021067091220680912306909124062FBF8D
:1040700008951F920F920FB60F9211242F933F9322
:104080008F939F93AF93BF938091210690912206C7
:10409000A0912306B09124063091200623E0230F3F
:1040A0002D3720F40196A11DB11D05C026E8230F70
:1040B0000296A11DB11D20932006809321069093A6
:1040C0002206A0932306B0932406809125069091A2
:1040D0002606A0912706B09128060196A11DB11DC4
:1040E0008093250690932606A0932706B093280672
:1040F000BF91AF919F918F913F912F910F900FBEE4
:104100000F901F901895DC01ED91FC910684F785C6
:10411000E02D40E009940F931F93CF93DF93EC01C0
:10412000423018F08C8188608C834F83688722230B
:1041300029F0413019F48C8184608C8364E670E04E
:1041400080E090E00E9466126C8164FD31C0E881DD
:10415000F9810684F785E02D42E063E0CE01099500
:104160008BE496E40197F1F7E881F9810684F785FD
:10417000E02D42E063E0CE01099503E512E0C801BD
:104180000197F1F7E881F9810684F785E02D42E097
:1041900063E0CE010995C8010197F1F7E881F98143
:1041A0000684F785E02D42E062E0CE01099517C054
:1041B0006062CE010E9483208BE496E40197F1F7C0
:1041C0006C816062CE010E94832003E512E0C80189
:1041D0000197F1F76C816062CE010E948320C801D3
:1041E0000197F1F76C816062CE010E9483208BEE13
:1041F00090E00197F1F784E08D836CE0CE010E949E
:10420000832061E0CE010E9483208BE39FE1019730
:10421000F1F782E08E8366E0CE010E948320E88180
:10422000F9810484F585E02D6FEFCE01DF91CF9108
:104230001F910F910994FF920F931F93CF93DF93D8
:10424000EC01162F042FF22E8B85888B8FE995E0D9
:104250000E94790168898FE995E00E9407198FE92A
:1042600095E00E94AA1891E0811190E0998B992322
:1042700029F08FE995E00E9419138E878989882398
:1042800039F01F861C8260E0CE010E960E94751FD9
:104290002F2D402F612FCE01DF91CF911F910F91D4
:1042A000FF900C948B2050E0E5E8F2E021E02E1B1B
:1042B000322F3E0F361728F43491430F511D31969B
:1042C000F7CF633038F09C0123703327232B11F490
:1042D0004F5F5F4F2DE631E0829FB001839F700DED
:1042E000929F700D1124615071099C012D5F3F4F09
:1042F0003695279536952795CB01820F931F840F0E
:10430000951F0895EF92FF920F931F93CF93DF9322
:10431000EC0188814A81698190E00E9453219C01CF
:10432000A8E1B0E00E94622F2B817B018C01E20E9C
:10433000F11C011D111DA8019701ACE3B0E00E9422
:10434000202F2C817B018C01E20EF11C011D111D1F
:10435000A80197010E94202F2D81620F711D811DE0
:10436000911DDF91CF911F910F91FF90EF900895D4
:104370009C01F9012F5F3F4F90819F7E9032C9F3DE
:1043800080E0219190ED920F9A3040F4880F982FA1
:10439000990F990F890F8053820FF3CF0895809161
:1043A0001B068823A9F14091000150910101609101
:1043B0000201709103012CE032E080910C04909195
:1043C0000D040E941715811102C080E008954091EC
:1043D0001C0650911D0660911E0670911F06411526
:1043E00051056105710591F02CE032E080910C04DB
:1043F00090910D040E941715882339F310921C0622
:1044000010921D0610921E0610921F0610921B0697
:1044100081E008958F929F92AF92BF92EF92FF92A8
:104420000F931F93CF934B015C01C42F8091000128
:1044300090910101A0910201B091030188159905A5
:10444000AA05BB0501F10E94CF21811102C080E0C5
:1044500020C08CE0E82E82E0F82E00E012E020E0A0
:1044600030E0B501A40180910C0490910D040E94EC
:104470008314882361F38092000190920101A0923D
:104480000201B092030180911B06C82BC0931B064A
:1044900081E0CF911F910F91FF90EF90BF90AF906F
:1044A0009F908F9008954F925F926F927F928F921C
:1044B0009F92AF92BF92CF92DF92EF92FF920F93B3
:1044C0001F93CF93DF93EC016A017B01280139012F
:1044D000423051056105710510F480E073C0898593
:1044E0009A85AB85BC850196A11DB11D84179507E2
:1044F000A607B70790F38B889C88AD88BE888F8904
:10450000803129F4BB27AF2D9E2D8D2D09C0DB01F5
:10451000CA0147E0B695A795979587954A95D1F733
:10452000880E991EAA1EBB1E809100019091010168
:10453000A0910201B091030188169906AA06BB0654
:1045400079F48F898031A1F4DD24EE24FF24C601A3
:10455000880F991FFC01E45FFD4F5182408219C012
:1045600040E0C501B4010E940A228111EACFB5CF13
:10457000E894C7F8DD24EE24FF24C601880F991FB4
:10458000880F991FFC01E45FFD4F408251826282D7
:10459000738280911B06816080931B068A8982301A
:1045A00080F08D819E81AF81B885880E991EAA1EEC
:1045B000BB1E80921C0690921D06A0921E06B09211
:1045C0001F0681E0DF91CF911F910F91FF90EF9037
:1045D000DF90CF90BF90AF909F908F907F906F9023
:1045E0005F904F9008958F929F92AF92BF92CF921B
:1045F000DF92EF92FF920F931F93CF93DF93FC0113
:1046000081859285A385B4850196A11DB11D84176E
:104610009507A607B70710F480E05CC083899489EA
:10462000A589B689C789C03129F4852E962EA72E73
:10463000BB2409C04A015B01C7E0B694A7949794D4
:104640008794CA95D1F7E9016A017B018F01BC010A
:10465000CD01680D791D8A1D9B1D809000019090F1
:104660000101A0900201B0900301681579058A0547
:104670009B0599F4F80187898031A9F4B701A60157
:10468000552766277727440F551FFA01E45FFD4F32
:1046900080819181A0E0B0E018C040E00E940A2231
:1046A0008111E8CFB9CFB701A6014F77552766270B
:1046B0007727440F551F440F551FFA01E45FFD4F44
:1046C00080819181A281B381BF7088839983AA83FD
:1046D000BB8381E0DF91CF911F910F91FF90EF900D
:1046E000DF90CF90BF90AF909F908F9008954F92A2
:1046F0005F926F927F92AF92BF92CF92DF92EF92D2
:10470000FF920F931F93CF93DF9300D000D0CDB7CC
:10471000DEB78C0149835A836B837C835901C12C9A
:10472000D12C7601412C82E0582E612C712C4981CC
:104730005A816B817C819E012F5F3F4FC8010E948F
:10474000F322882351F1D301C201F801058404C08A
:10475000880F991FAA1FBB1F0A94D2F7C80ED91E33
:10476000EA1EFB1E49815A816B817C8187898031D9
:1047700029F088EF9FEFAFEFBFE004C088EF9FEF15
:10478000A0E0B0E0481759076A077B0780F2F501FF
:10479000C082D182E282F38281E00F900F900F906D
:1047A0000F90DF91CF911F910F91FF90EF90DF90CD
:1047B000CF90BF90AF907F906F905F904F90089593
:1047C000CF92DF92EF92FF920F931F93CF93DF93DD
:1047D0006C017A018B01C0E0D0E0CE15DF0589F0D5
:1047E000D8016D918D01D601ED91FC910190F08180
:1047F000E02DC6010995892B11F47E0102C0219696
:10480000ECCFC701DF91CF911F910F91FF90EF90F7
:10481000DF90CF9008950F931F93CF93DF93EC0118
:1048200088819981009729F02A813B8126173707D3
:1048300088F48B016F5F7F4F0E943D35009761F0D8
:10484000998388831B830A832C813D81232B11F458
:10485000FC01108281E001C080E0DF91CF911F91C7
:104860000F910895EF92FF920F931F93CF93DF93D1
:10487000FC01248135816115710511F480E019C0B6
:1048800041155105A9F07B01EC018A01020F131FAC
:10489000B8010E940B24882389F3288139818C81F7
:1048A0009D81B701820F931F0E942D361D830C83BB
:1048B00081E0DF91CF911F910F91FF90EF900895CC
:1048C000CF93DF93EC0188819981009711F00E94CA
:1048D000A534198218821D821C821B821A82DF91E4
:1048E000CF910895CF92DF92FF920F931F93CF93B2
:1048F000DF93EC018FE00E944110682F6F778FE00B
:104900000E94711068E68091AB059091AC050E9401
:1049100007198091AB059091AC05DC01ED91FC91FC
:104920000190F081E02D60E00995A091AB05B09178
:10493000AC052D81ED91FC9111971AE0822F612F2A
:104940000E947232982F880F980F990F692F620F6B
:104950000190F081E02DCD010995A091AB05B091BA
:10496000AC052C81ED91FC911197822F612F0E9453
:104970007232982F880F980F990F692F620F01904C
:10498000F081E02DCD010995A091AB05B091AC056A
:104990002B81ED91FC911197822F612F0E94723231
:1049A000982F880F980F990F692F620F0190F0814F
:1049B000E02DCD010995888190E09C012053384F6E
:1049C00010E3120F143628F01CEC120F20E8F22E20
:1049D00001C0F12CE091AB05F091AC050190F081A4
:1049E000E02DC080D1804A8169810E9453210696C2
:1049F00067E070E00E947E32682F8091AB05909155
:104A0000AC05F6010995A091AB05B091AC053A81D2
:104A1000ED91FC9111970AE0832F602F0E94723272
:104A2000982F880F980F990F692F630F0190F081CD
:104A3000E02DCD0109952981A091AB05B091AC0580
:104A4000ED91FC911197822F602F0E947232982F66
:104A5000880F980F990F290F6F2D622B0190F0810D
:104A6000E02DCD010995A091AB05B091AC05ED917C
:104A7000FC911197812F602F0E947232682F880F4E
:104A8000680F660F610F0190F081E02DCD0109954F
:104A90008091AB059091AC05DF91CF911F910F9163
:104AA000FF90DF90CF900C94AA18CF93DF93EC0186
:104AB0006115710561F0FB0101900020E9F7319764
:104AC000AF01461B570B0E943224811103C0CE0157
:104AD0000E946024CE01DF91CF910895CF93DF93A0
:104AE000EC01FB0144815581608171810E94322477
:104AF000811103C0CE010E946024CE01DF91CF91CD
:104B00000895EF92FF920F931F93CF93DF93EC01E1
:104B10007B018A01BA010E940B24811104C0CE01DD
:104B20000E94602407C01D830C83B701888199818E
:104B30000E942D36CE01DF91CF911F910F91FF90F2
:104B4000EF900895CF93DF93EC016115710559F053
:104B5000FB0101900020E9F73197AF01461B570B8D
:104B60000E94812502C00E946024CE01DF91CF9176
:104B70000895FC01808191810C94A534EF92FF92FD
:104B80000F931F93CF93DF93CDB7DEB7A1970FB6E7
:104B9000F894DEBF0FBECDBF7C01CB01BA01F70197
:104BA00011821082138212821582148242E0420F17
:104BB0008E010F5F1F4F0E94412BBC01C7010E9455
:104BC000A225A1960FB6F894DEBF0FBECDBFDF9130
:104BD000CF911F910F91FF90EF9008950F931F9326
:104BE000CF93DF93CDB7DEB761970FB6F894DEBFF2
:104BF0000FBECDBF8C01CB01F80111821082138250
:104C000012821582148250E0BE016F5F7F4F0E94B6
:104C1000612BBE016F5F7F4FC8010E94A225619684
:104C20000FB6F894DEBF0FBECDBFDF91CF911F91BD
:104C30000F9108950F931F93CF93DF93CDB7DEB7F6
:104C400029970FB6F894DEBF0FBECDBF8C01862F1B
:104C5000F80111821082138212821582148250E0B0
:104C6000BE016F5F7F4F90E00E94612BBE016F5FBE
:104C70007F4FC8010E94A22529960FB6F894DEBF87
:104C80000FBECDBFDF91CF911F910F910895FB0112
:104C9000DC0111961C921E9213961C921E92129782
:104CA00015961C921E9214978617970749F06081FB
:104CB00071816115710521F0448155810C94812524
:104CC0000895DC01ED91FC91DB0114964D915C910E
:104CD00015976D917C910280F381E02D0994611507
:104CE000710579F0FB0101900020E9F73197AF01E0
:104CF000461B570BDC01ED91FC910280F381E02D06
:104D0000099480E090E008954F925F926F927F92B5
:104D1000EF92FF920F931F93CF93DF93CDB7DEB740
:104D2000A1970FB6F894DEBF0FBECDBF7C01FA018C
:104D3000CB0119A2223008F42AE08E010F5D1F4F2B
:104D4000422E512C612C712CBF01A30192010E94B3
:104D50009232F901CA01015011096A3014F4605D00
:104D600001C0695CD8016C93232B242B252B61F7A0
:104D7000B801C7010E946F26A1960FB6F894DEBF56
:104D80000FBECDBFDF91CF911F910F91FF90EF909C
:104D90007F906F905F904F9008954F925F926F92C7
:104DA0007F928F929F92AF92BF92CF92DF92EF92BB
:104DB000FF92CF93DF93EC016A017B01B22E9A013F
:104DC000AB01C701B6010E942831882319F06BEEB0
:104DD00071E027C026013701E89477F82FEF3FEF05
:104DE0004FE75FE7C301B2010E94283181110DC076
:104DF0002FEF3FEF4FE75FE7C301B2010E94FC2DA9
:104E000018161CF46FEE71E00CC02FEF3FEF4FE768
:104E10005FE4C701B6010E94D33018169CF463EF1B
:104E200071E0CE01DF91CF91FF90EF90DF90CF90B6
:104E3000BF90AF909F908F907F906F905F904F90BA
:104E40000C946F262FEF3FEF4FE75FECC701B601E1
:104E50000E94FC2D87FDE3CF20E030E0A901C701CF
:104E6000B6010E94FC2D87FF0EC0E881F9810190F8
:104E7000F081E02D6DE2CE0109954C01F7FAF09436
:104E8000F7F8F09402C0812C912CA12C60E070E026
:104E900080E09FE3AB1441F020E030E040E251E4D9
:104EA0000E94DE2FA394F6CF9B01AC01C701B6018F
:104EB0000E94722F2B013C010E9450306B017C013B
:104EC0000E94012E9B01AC01C301B2010E94712F0F
:104ED0002B013C012AE0B701A601CE010E948426E5
:104EE0007C01E80CF91CBB2051F0E881F9810190AC
:104EF000F081E02D6EE2CE010995E80EF91EDB2C63
:104F0000DD2029F120E030E040E251E4C301B201AC
:104F10000E94622E2B013C010E9450304B01A12CBB
:104F2000B12C2AE0B501A401CE010E948426E80E2E
:104F3000F91EC501B4010E94012E9B01AC01C30101
:104F4000B2010E94712F2B013C01DA94D9CFC70125
:104F5000DF91CF91FF90EF90DF90CF90BF90AF9017
:104F60009F908F907F906F905F904F9008950F93D8
:104F70001F93CF93DF93EC010E9461268C016FE7B2
:104F800071E0CE010E946F26800F911FDF91CF91BB
:104F90001F910F9108950C946F268FE395E00E9466
:104FA000B92585E495E00C94B925E7E5F4E0138292
:104FB000128288EE93E0A0E0B0E084839583A6831C
:104FC000B7832EE031E03183208325EC30E0358754
:104FD000248724EC30E03787268720EC30E0318BC3
:104FE000208B21EC30E0338B228B22EC30E0358BB0
:104FF000248B26EC30E0378B268B118E128E138E8D
:10500000148EE4EFF4E020E520831182E6EFF4E073
:10501000158216821186138642E050E060E070E04F
:10502000448755876687778713A215A614A620E2C2
:1050300031E033A722A717A6EFE9F5E01382128229
:1050400084839583A683B7838CE291E091838083E8
:10505000F093AC05E093AB05E6E8F5E0138212822D
:105060008CE591E091838083108A8FEF8787168685
:10507000118A8FE38387148615861286118684E051
:10508000828B82E0838B81E0848B80E1858B80E260
:10509000868B80E4878B80E8808F40E050E063E07F
:1050A000CF010E94541FEEE4F5E0108214861386AF
:1050B00016861586108A178617AA16AAEBE4F5E05D
:1050C000108212821182E5E4F5E0118210821382CF
:1050D00012821582148240E050E061E871E0CF0155
:1050E0000E948125EFE3F5E0118210821382128283
:1050F0001582148240E050E061E871E0CF010C9429
:105100008125CF93DF93CDB7DEB72C970FB6F894F8
:10511000DEBF0FBECDBF789484B5826084BD84B5F8
:10512000816084BD85B5826085BD85B5816085BDA2
:1051300080916E00816080936E001092810080915A
:1051400081008260809381008091810081608093E2
:105150008100809180008160809380008091B10007
:1051600084608093B1008091B00081608093B00032
:1051700080917A00846080937A0080917A008260C6
:1051800080937A0080917A00816080937A00809188
:105190007A00806880937A001092C100E0916704E1
:1051A000F091680482E08083E0916304F0916404EC
:1051B0001082E0916504F091660480E18083109292
:1051C0006F04E0916B04F0916C0486E08083E091C1
:1051D0006904F0916A04808180618083E0916904B0
:1051E000F0916A04808188608083E0916904F09185
:1051F0006A04808180688083E0916904F0916A0488
:1052000080818F7D808308E010E061E082E00E9471
:105210002A1201501109C9F70E9446178FE995E03B
:105220000E9479018091AB059091AC050E947901B3
:1052300080EB91E00E94B8218F8389E088878BEA18
:1052400091E00E94B821898783EB91E00E94B82108
:105250008A8786EB91E00E94B8218B8789EB91E0E9
:105260000E94B8218C878FE00E94411087FF08C000
:105270008CEB91E00E94160ECE0107960E947224DC
:105280008EE00E94411087FF0CC085EC91E00E94E7
:10529000160E8EE00E944110682F6F778EE00E94FC
:1052A00071100E94580F29833A834B835C836D836E
:1052B0007E83CE0101960E9482216B017C01CE018A
:1052C00007960E948221C616D706E806F90640F422
:1052D00081ED91E00E94160ECE0107960E94722485
:1052E0008FE00E944110682F677F8FE00E9471104D
:1052F0008EE00E9441108C7B682F64608EE00E94DB
:10530000711010924E0586E78093530583E08093D9
:10531000540584E08093550585E08093580580937B
:1053200056058093570585EF93E090935A05809337
:1053300059058FE090E090935C0580935B058BE3CB
:1053400090E090935E0580935D058FE995E00E9463
:10535000790189E80E942809182F88E80E94280905
:10536000212F30E0322F2227280F311D3093600586
:1053700020935F058BE80E942809182F8AE80E9475
:105380002809212F30E0322F2227280F311D30939A
:105390006205209361058DE80E942809182F8CE88A
:1053A0000E942809212F30E0322F2227280F311D9B
:1053B00030936405209363058FE80E942809182F15
:1053C0008EE80E942809212F30E0322F2227280F53
:1053D000311D309366052093650581E90E942809F7
:1053E000182F80E90E942809212F30E0322F222730
:1053F000280F311D309368052093670583E90E94CB
:105400002809182F82E90E942809212F30E0322F25
:105410002227280F311D30936A052093690585E9FD
:105420000E942809182F84E90E942809212F30E0C2
:10543000322F2227280F311D30936C0520936B05E6
:1054400087E90E942809182F86E90E942809212F40
:1054500030E0322F2227280F311D30936E05209324
:105460006D0589E90E942809182F88E90E942809FA
:10547000212F30E0322F2227280F311D3093700565
:1054800020936F058BE90E942809182F8AE90E9452
:105490002809212F30E0322F2227280F311D309389
:1054A0007205209371058DE90E942809182F8CE957
:1054B0000E942809212F30E0322F2227280F311D8A
:1054C00030937405209373058FE90E942809182FE3
:1054D0008EE90E942809212F30E0322F2227280F41
:1054E000311D309376052093750581EA0E942809C5
:1054F0008093770582EE0E942809182F81EE0E9482
:105500002809212F30E0322F2227280F311D309318
:1055100079052093780583EE0E94280980937A0507
:1055200084EE0E942809182F85EE0E9428098F70AA
:10553000282F30E0C90140E1149F800D911D1124F6
:1055400090937C0580937B0586EE0E942809182F96
:1055500085EE0E94280982958F70282F30E0C901BE
:1055600040E1149F800D911D112490937E0580933E
:105570007D0587EE0E94280980937F05609155057F
:1055800084E0689FB00111246C7185EF0E946F095F
:1055900060915805677082EF0E946F09209156054F
:1055A00040E2249F90011124609154056370622BA6
:1055B0009091570524E0929FC00111248C71682BB3
:1055C00084EF0E946F0980ED0E942809803689F4DB
:1055D00087E592E00E9407096FE771E087E594E0B4
:1055E0000E946F2681E090E090938505809384056A
:1055F0000EC081E692E00E9407096FE771E087E53F
:1056000094E00E946F26109285051092840520E098
:1056100042E060E186E895E00E941B2160E082E0C4
:105620000E94DC0D6CED71E086E895E00E94CB27CE
:1056300061E082E00E94DC0D62EE71E086E895E0B8
:105640000E94CB2760E08DE00E94DC0D67EE71E0E8
:1056500086E895E00E94CB2761E08DE00E94DC0D9A
:1056600069EE71E086E895E00E94CB276AEF70E072
:1056700085E090E00E949F010E94CC010E946D1184
:10568000FBCFEF920F931F93CF93DF93E80147FD7A
:1056900002C034E001C034E1E42F440FFF0BF7FFF8
:1056A00003C0F195E195F109E32E022F2E2FAE01F3
:1056B0000E94862BCE01DF91CF911F910F91EF9029
:1056C00008954532510520F4423010F00C946C2BB3
:1056D000FB011082CB010895BB27FB015527AA27A8
:1056E000880F991FAA1FA41710F0A41B839550516F
:1056F000B9F7A05DAA3308F0A95DA193009779F7E7
:10570000B111B1931192CB010C94EC2D4F925F9299
:105710006F927F929F92AF92BF92CF92DF92EF9261
:10572000FF920F931F93CF93DF93CDB7DEB72997E7
:105730000FB6F894DEBF0FBECDBF6A01122FB02E98
:105740002BE3201720F0FF24F394F00E02C0BCE3FB
:10575000FB2E0F2D27E0AE014F5F5F4F0E94142DEF
:10576000AC018981982F9970913031F0E1FC06C02D
:10577000E0FE06C090E205C09DE203C09BE201C0CE
:1057800090E0EE2DE07183FF3CC0911102C083E0F8
:1057900001C084E0811718F4212F281B01C020E0EC
:1057A000E1110BC0F601822F30E2882319F031930A
:1057B0008150FBCFC20ED11C20E0992329F0D601E5
:1057C0009C93F60131966F01C6010396E2FE0AC072
:1057D0003EE4D6013C9341E411964C931197129606
:1057E0003C9306C03EE6F601308341E641833283B6
:1057F000FC01322F40E2332309F442C0419331507F
:10580000FACF82FF44C0911102C083E001C084E05E
:10581000811718F4212F281B01C020E0E1110BC0D3
:10582000F601822F30E2882319F031938150FBCFAB
:10583000C20ED11C20E0992329F0D6019C93F601D9
:1058400031966F01C6010396E2FE0BC039E4D60122
:105850003C933EE411963C93119736E412963C93A8
:1058600007C039E6F60130833EE6318336E63283FF
:10587000FC01322F40E2332319F041933150FBCF2A
:10588000FC01E20FF11D10828EEF9FEFB7C0F1E037
:10589000911101C0F0E06F2F70E01416150624F48A
:1058A0009A012F5F3F4F02C021E030E0260F371FE3
:1058B000BB2029F06B2D70E06F5F7F4F02C060E06E
:1058C00070E0260F371F612F70E0261737071CF492
:1058D000121B212F01C020E03E2D387159F4D60152
:1058E000322F60E2332319F06D933150FBCFC20E9B
:1058F000D11C20E0FF2331F0D6019C93B6016F5FED
:105900007F4F6B01E1110BC0F601922F30E3992319
:1059100019F031939150FBCFC20ED11C20E09F2D86
:10592000940F3A81782F7071A72E84FF03C0313312
:1059300009F49150191624F4993018F098E001C038
:1059400091E0E42F852F57FF02C0E0E080E06E2F4A
:10595000782FE0E0F0E0AEE29A2E3A01691A710881
:105960002A01461A570A0B2D10E0119501951109CD
:105970006F3F8FEF780729F4D6019C92C6010196FC
:105980006C014617570784F0661677066CF47F01A2
:10599000E40CF51CA1E0B0E0AC0FBD1FEA0EFB1E4D
:1059A000D7011196BC9002C090E3B92E61507109E5
:1059B0003196C60101967C016017710724F0D6016B
:1059C000BC926C01D5CF6417750741F4363320F4CF
:1059D000353321F4A11002C081E3B82EF601B08264
:1059E000F701822F90E2882319F091938150FBCF29
:1059F000F701E20FF11D108280E090E029960FB6CA
:105A0000F894DEBF0FBECDBFDF91CF911F910F91F4
:105A1000FF90EF90DF90CF90BF90AF909F907F90DE
:105A20006F905F904F900895283008F027E033275B
:105A3000DA01990F311D87FD9160009661057105AE
:105A400039F432602E5F3D9330E32A95E1F70895F3
:105A50009F3F30F080387105610509F03C5F3C5F85
:105A60003D93913008F08068911DDF93CF931F9391
:105A70000F93FF92EF92192F987F9695E92F9695A5
:105A80009695E90FFF27EC5BFE4F99273327EE240D
:105A9000FF24A701E70105900894079428F4360F26
:105AA000E71EF81E491F511D660F771F881F991F9B
:105AB0000694A1F70590079428F4E70EF81E491FF5
:105AC000561FC11D770F881F991F661F0694A1F7E7
:105AD0000590079428F4F80E491F561FC71FD11DC3
