:100000000C944B010C9473010C9473010C947301C8
:100010000C9473010C9473010C9473010C94730190
:100020000C9473010C9473010C9473010C94730180
:100030000C9473010C9473010C9473010C94730170
:100040000C947E220C9473010C94F5120C94CF1234
:100050000C9473010C9473010C9473010C94730150
:100060000C9436020C94730107634236B79BD8A7F1
:100070001A39685618AEBAAB558C1D3CB7CC5763CD
:10008000BD6DEDFD753EF6177231BF000000803F7B
:1000900008000000BE922449123EABAAAA2ABECD97
:1000A000CCCC4C3E00000080BEABAAAAAA3E000009
:1000B0000000BF000000803F000000000008417801
:1000C000D3BB4387D1133D190E3CC3BD4282AD2B38
:1000D0003E68EC8276BED98FE1A93E4C80EFFFBE30
:1000E00001C4FF7F3F000000000000407A10F35A77
:1000F00000A0724E18090010A5D4E80000E8764868
:10010000170000E40B54020000CA9A3B000000E113
:10011000F505000080969800000040420F000000A6
:10012000A08601000000102700000000E803000086
:1001300000006400000000000A0000000000010050
:10014000000000002C76D888DC674F0823DFC1DF71
:10015000AE59E1B1B796E5E3E453C63AE651997674
:1001600096E8E6C28426EB898C9B62ED407C6FFCAE
:10017000EFBC9C9F40F2BAA56FA5F490055A2AF7F0
:100180005C936B6CF9676DC11BFCE0E40D47FEF5F9
:1001900020E6B500D0ED902E030094357705008061
:1001A000841E080000204E0A000000C80C333333C0
:1001B000330F986E12831141EF8D2114893BE65560
:1001C00016CFFEE6DB18D1844B381BF77C1D901D43
:1001D000A4BBE424203284725E228100C9F124ECA5
:1001E000A1E53D2720416C742000205072657320EA
:1001F000002048756D200054656D702000000000DF
:10020000002300260029000404040404040404025A
:1002100002020202020303030303030102040810A3
:100220002040800102040810200102040810200070
:1002300000000800020100000304070000000000A5
:1002400000000000000000240027002A0000000039
:1002500000250028002B00424D45323830204F4BFE
:1002600000424D45323830206E6F742064657465ED
:1002700063746564007C3C3E5E2B3D3F2F5B5D3BC1
:100280002C2A225C001F1C1F1E1F1E1F1F1E1F1E4C
:100290001F00E427DC2711241FBECFEFD8E0DEBF0C
:1002A000CDBF26E0A4E0B2E001C01D92AA33B207A0
:1002B000E1F712E0A0E0B1E0E2ECFCE602C005905C
:1002C0000D92A430B107D9F711E0CAE4D1E004C01F
:1002D0002197FE010E941B34C934D107C9F70E943F
:1002E00090280C9454360C94000085ED8093BC004B
:1002F0008091BC0084FDFCCF1092CD040895409104
:100300005E02262F30E0240F311D21323105DCF44E
:100310002091CD042430C9F4FC0180E090E08617E0
:1003200058F430915E022191DC01A45CBD4FA30F13
:10033000B11D2C930196F3CF80915E02680F6093FC
:100340005E0280E0089581E0089582E008950895B6
:10035000E091860480918504E81730F4F0E0E957D5
:10036000FB4F808190E008958FEF9FEF089590916B
:10037000860480918504981750F4E92FF0E0E9573E
:10038000FB4F208130E09F5F9093860402C02FEFE7
:100390003FEFC90108958091850490E02091860483
:1003A000821B91090895CF92DF92EF92FF920F93F3
:1003B0001F93CF93DF937C01262F972F8A01809183
:1003C0003B02882391F0C62FD72F6E01C40ED51E95
:1003D000CC15DD0571F06991D701ED91FC9101908B
:1003E000F081E02DC7010995F3CF642F822F0E9481
:1003F0007F01C801DF91CF911F910F91FF90EF9086
:10040000DF90CF900895CF93DF931F92CDB7DEB7E3
:10041000698320913B022223D1F020913A022032BD
:1004200040F021E030E0FC013383228380E090E063
:1004300015C080913902E82FF0E0E75EFD4F998109
:1004400090838F5F8093390280933A0205C061E008
:10045000CE0101960E947F0181E090E00F90DF9134
:10046000CF910895089580E090E008951F920F9233
:100470000FB60F9211242F933F934F935F936F9377
:100480007F938F939F93AF93BF93EF93FF9380914D
:10049000B900887F803609F49CC068F5883209F479
:1004A0005BC090F4803109F454C038F4882309F417
:1004B000F6C0883009F44DC0F6C0883109F44CC04C
:1004C000803209F45DC0EFC0803409F468C048F49C
:1004D000803309F455C0883309F0E5C08093CB041C
:1004E000D8C0803509F44FC0883509F45DC0883420
:1004F00009F0D9C0D6C0883909F4C7C0A8F4883734
:1005000009F467C038F4883609F463C0803709F409
:1005100060C0C9C0883809F4B8C0803909F45FC028
:10052000803809F0C0C05BC0803B09F486C038F455
:10053000803A09F466C0883A09F47FC0B4C0803CB0
:1005400009F4A7C0883C09F4A4C0883B09F48AC018
:10055000AAC08091C80410C09091CA048091C904B7
:10056000981770F5E091CA0481E08E0F8093CA0459
:10057000F0E0E955FB4F80818093BB0085EC86C09D
:100580008093CB048EC0E091CA0481E08E0F8093EB
:10059000CA048091BB00F0E0E955FB4F8083909145
:1005A000CA048091C9046EC0E091CA0481E08E0F34
:1005B0008093CA048091BB00F0E0E955FB4F808333
:1005C0008091CC0481116DC081E08093C70484EADE
:1005D00061C083E08093CD0410928202CFCF8091DE
:1005E0008202803208F051C0E091820281E08E0FD9
:1005F000809382028091BB00F0E0EE59FD4F808332
:10060000BDCF85EC8093BC001092CD048091820216
:10061000803230F4E0918202F0E0EE59FD4F10821A
:100620006091820270E0E0916002F091610282E6E6
:1006300092E009951092820236C084E08093CD0446
:1006400010925F0210925E02E0915C02F0915D02F6
:10065000099580915E02811105C081E080935E0260
:1006600010923C02E0915F0281E08E0F80935F0266
:10067000F0E0E45CFD4F80818093BB0090915F02CD
:1006800080915E02981708F479CF85E88093BC00CA
:100690000AC085EC8093BC001092CD0404C0109277
:1006A000CB040E947501FF91EF91BF91AF919F9193
:1006B0008F917F916F915F914F913F912F910F900B
:1006C0000FBE0F901F90189520913A02909118023A
:1006D000213208F04AC08091CD048111FCCF32E074
:1006E0003093CD0431E03093CC043FEF3093CB0412
:1006F0001092CA042093C904A9E1B2E047EA54E089
:10070000FA013E2F341B321718F43D913193F9CF83
:100710001092C8042091C804990F922B9093C8049A
:100720009091C704913061F41092C7049091C8046D
:100730009093BB009091BC0093FDF8CF95EC01C065
:1007400095EE9093BC009091CD049230E1F390919E
:10075000CB049F3F79F08091CB04803241F08091AF
:10076000CB04803331F084E005C081E003C082E037
:1007700001C083E01092390210923A0210923B02BB
:10078000089581E080933B02609318021092390231
:1007900010923A02089510928604109285041092E5
:1007A000390210923A021092CD0481E08093CC0479
:1007B0001092C70461E082E10E94501361E083E17E
:1007C0000E945013E9EBF0E080818E7F808380816E
:1007D0008D7F808388E48093B80085E48093BC009B
:1007E0000895CF92DF92EF92FF920F931F93CF93D2
:1007F000DF938C01C1E0D0E06B01770FEE08FF08BA
:100800000C171D0794F061E082E00E945013C701AD
:10081000B6010E94BC1360E082E00E945013C70141
:10082000B6010E94BC132196EBCFDF91CF911F91AF
:100830000F91FF90EF90DF90CF9008952F923F920D
:100840004F925F926F927F928F929F92AF92BF92E0
:10085000CF92DF92EF92FF920F931F93CF93DF938C
:10086000CDB7DEB7C75AD1090FB6F894DEBF0FBEB9
:10087000CDBF0E9472226093140270931502809380
:10088000160290931702A8958091FB059091FC05A4
:10089000892B09F4EDC00E94040C60931002709340
:1008A000110280931202909313028091CF05882346
:1008B00019F00E94C80C03C060E070E0CB016093A7
:1008C0000C0270930D0280930E0290930F028091A0
:1008D000CE05882319F00E94C80D03C060E070E0C7
:1008E000CB01609308027093090280930A029093EF
:1008F0000B0287EF91E00E94120B0E94040CAB01E7
:10090000BC0122E08EEC94E00E94AD2081EF91E0EA
:100910000E94120B8091CF05882329F00E94C80CF9
:10092000AB01BC0103C040E050E0BA0122E08EEC14
:1009300094E00E94AD208AEE91E00E94120B80911B
:10094000CE05882329F00E94C80DAB01BC0103C06D
:1009500040E050E0BA0122E08EEC94E00E94AD202D
:1009600084EE91E00E94120B6091D2057091D30544
:100970008091D4059091D505873E03E0900759F406
:10098000673E13E0710739F0072E000C880B990BB6
:100990000E94142E1CC0673E734011F5873E33E061
:1009A0009307F1F0BC0160527109072E000C880B0F
:1009B000990B0E94142E20E030E040EA50E40E949F
:1009C000732E20E030E040E151E40E94EF2F23E35A
:1009D00033E948E853E40E94832F6B017C0108C08F
:1009E00083E3C82E83E1D82E80E9E82E83E4F82E35
:1009F0008091CE05882329F00E94C80D4B015C012F
:100A000003C0812C912C54018091D0059091D10587
:100A1000BC0180E090E00E94122E9B01AC01C50158
:100A2000B4010E94EF2F2FEC39ED42E45EE30E9407
:100A3000E9309B01AC0160E070E080E89FE30E9438
:100A4000822FA70196010E94732E24EF3DEF44ED03
:100A50005BE30E94EF2FAB01BC0122E08EEC94E03F
:100A60000E94AD206FE771E08EEC94E00E94BA1214
:100A700062E370E081E090E00E94F103C0900C021C
:100A8000D0900D02E0900E02F0900F0280901002C4
:100A900090901102A0901202B090130260E088E0E2
:100AA0000E94401D21E0B501A4018DEF95E00E9458
:100AB000AD2061E088E00E94401D20E0B701A60162
:100AC0008DEF95E00E94AD20809114029091150267
:100AD000A0911602B09117024091040250910502B4
:100AE00060910602709107028C019D01041B150B99
:100AF000260B370BB901A80140315742610571053A
:100B000008F4EDC38093040290930502A0930602BB
:100B1000B09307020E947A1D29833A834B835C833A
:100B20006D837E8386E0FE013196DE01A557BF4FBF
:100B300001900D928A95E1F786E0FE01E557FF4F9F
:100B4000DE01AF56BF4F01900D928A95E1F70E94EA
:100B50007A1DCB57DF4F2883C558D040CA57DF4F87
:100B60003883C658D040C957DF4F4883C758D04054
:100B7000C857DF4F5883C858D040C757DF4F6883E6
:100B8000C958D040C657DF4F7883CA58D0404AE092
:100B9000672FCE0181589F4F0E9466204AE0C757B9
:100BA000DF4F6881C958D040CE0187589F4F0E94BF
:100BB00066204AE0C857DF4F6881C858D040CE0150
:100BC0008D589F4F0E946620CB57DF4F6881C558D4
:100BD000D04070E06053784F4AE0CE01885A9F4F72
:100BE0000E943A204AE0CA57DF4F6881C658D04079
:100BF000CE01CB960E9466204AE0C957DF4F68813C
:100C0000C758D040CE0101960E946620BE016F5F9A
:100C10007F4FCE014E960E94932062E871E0CE0194
:100C20004E960E94A11FBE01655C7F4F0E94BA1FB5
:100C300062E871E00E94A11FBE01685A7F4F0E94C6
:100C4000BA1F69E971E00E94A11FBE016D587F4F74
:100C50000E94BA1F65EE71E00E94A11FBE01675895
:100C60007F4F0E94BA1F65EE71E00E94A11FBE0176
:100C700061587F4F0E94BA1FBC01CE0189569F4F19
:100C80000E949320CE014E960E940520CE0101962F
:100C90000E940520CE01CB960E940520CE01885AE5
:100CA0009F4F0E940520CE018D589F4F0E94052026
:100CB000CE0187589F4F0E940520CE0181589F4F3B
:100CC0000E940520BE0169567F4F8EEC94E00E9481
:100CD0009721CE0189569F4F0E94052080900C02DB
:100CE00090900D02A0900E02B0900F024090100262
:100CF000509011026090120270901302CF56DF4F95
:100D00001881C159D040CE56DF4F3881C259D040EA
:100D1000C156DF4F3883CF59D040CD56DF4F0881C1
:100D2000C359D040CD55DF4F0883C35AD040CC566D
:100D3000DF4F3881C459D040CE55DF4F3883C25A77
:100D4000D040CB56DF4F0881C559D040CB55DF4F3F
:100D50000883C55AD040CA56DF4F3881C659D040A3
:100D6000CC55DF4F3883C45AD0402091C205C156BC
:100D7000DF4F0881CF59D040802F90E0211107C06C
:100D80009093C4058093C30521E02093C205209170
:100D9000C3053091C4058217930721F09093C405D1
:100DA0008093C3054AE0C156DF4F6881CF59D040D8
:100DB000CE01CB960E946620812F90E08C010053DB
:100DC000184FC056DF4F19830883C05AD0404AE0FD
:100DD000B801CE0101960E943A207E011EE1E10E8B
:100DE000F11CBE016F5F7F4FC7010E949320BE01BF
:100DF000655C7F4FC7010E94BA1F64E871E00E94E2
:100E0000A11FBC01CE018B579F4F0E949320C701A9
:100E10000E940520CE0101960E940520CE01CB96AE
:100E20000E94052069E871E08EEC94E00E94AB21FD
:100E3000BE016B577F4F8EEC94E00E9497210E9479
:100E40003E10CB57DF4FC880D980C558D04067E9E6
:100E500075E0C7010E94961A1C821B8281E291E014
:100E60009A8389831E8286019E012F5F3F4F19015D
:100E70006FE270E0C8010E943336009709F453C056
:100E8000F80120812F3219F40F5F1F4FF1CF801B23
:100E90008D3008F08CE0282F30E0C356DF4F3983C7
:100EA0002883CD59D040A901B801CE01885A9F4F5F
:100EB0000E944536E8E5F0E0EC0FFD1FC356DF4F1A
:100EC00088819981CD59D040E80FF91F1082C10166
:100ED0000E941116F1018581882351F01EAE1DAECE
:100EE00081E291E09CAF8BAF21961FAE219729C084
:100EF00021E0AE01485A5F4FB701C1010E9425268B
:100F0000882361F3C356DF4F28813981CD59D04002
:100F1000020F131FC7010E9411169E2D8F2D710104
:100F2000292E382EA5CFC8018C199D09CA55DF4F2F
:100F300099838883C65AD040B701CE01CB960E94D0
:100F4000961ACA55DF4F08811981C65AD0400C0D38
:100F50001D1DF801808181110AC0BE01655C7F4FB3
:100F6000CE0101960E94961A42E851E053C019A2A0
:100F700018A281E291E09F8F8E8F1BA221968FADE8
:100F8000219781111CC06C961FAE1EAE6C9788EE27
:100F900093E0A0E0B0E0A0968CAF9DAFAEAFBFAF46
:100FA000A09781E791E06A969FAF8EAF6A97E3962C
:100FB0001FAE1EAEE397A5961FAEA59733C0825015
:100FC00023E1A801823048F467E975E0CE014E962E
:100FD0000E94252681110EC0D6CFBE01655C7F4FD1
:100FE000CE014E960E942526882369F2CE01CB962B
:100FF0000E94111649A95AA96BA97CA9CE014E9647
:101000000E947314BE01625E7F4FCE0101960E9462
:10101000961AA801BE016F5F7F4FCE01885A9F4F7D
:101020000E94E71AE396EEADFFADE397309709F41F
:101030004DC18581882309F449C14AE0C056DF4F7C
:1010400068817981C05AD040CE018D589F4F0E944F
:101050003A204AE0C156DF4F6881CF59D040CE01D7
:10106000CB960E9466204AE0CD55DF4F6881C35A77
:10107000D040CE0101960E946620BE016F5F7F4F77
:10108000CE014E960E94932062E871E0CE014E960A
:101090000E94A11FBE01655C7F4F0E94BA1F62E8DB
:1010A00071E00E94A11FBE016D587F4F0E94BA1FC0
:1010B000BC01CE0181589F4F0E949320CE014E96D5
:1010C0000E940520CE0101960E940520CE01CB96FC
:1010D0000E940520CE018D589F4F0E9405204AE0B6
:1010E000CC55DF4F6881C45AD040CE018D589F4FF8
:1010F0000E9466204AE0CB55DF4F6881C55AD04038
:10110000CE01CB960E9466204AE0CE55DF4F688123
:10111000C25AD040CE0101960E946620BE016F5F88
:101120007F4FCE014E960E94932065EE71E0CE0176
:101130004E960E94A11FBE01655C7F4F0E94BA1FA0
:1011400065EE71E00E94A11FBE016D587F4F0E94A5
:10115000BA1FBC01CE0187589F4F0E949320CE0139
:101160004E960E940520CE0101960E940520CE01D8
:10117000CB960E940520CE018D589F4F0E940520DE
:10118000BE0161587F4FCE0101960E94932069E90C
:1011900071E0CE0101960E94A11FBC01CE01885AC8
:1011A0009F4F0E94AC12CE0101960E940520BE0105
:1011B00067587F4FCE01885A9F4F0E94AC126BE94F
:1011C00071E0CE01885A9F4F0E94AB2122E0B3010B
:1011D000A201CE0101960E940A20BE016F5F7F4FDF
:1011E000CE01885A9F4F0E94AC12CE0101960E94F8
:1011F00005206BE971E0CE01885A9F4F0E94AB2118
:1012000022E0B501A401CE0101960E940A20BE0190
:101210006F5F7F4FCE01885A9F4F0E94AC12CE0164
:1012200001960E9405206BE971E0CE01885A9F4F1C
:101230000E94AB2122E040E050E0BA01CE010196CD
:101240000E940A20BE016F5F7F4FCE01885A9F4FD8
:101250000E94AC12CE0101960E9405206BE971E05C
:10126000CE01885A9F4F0E94AB2122E040E050E01F
:10127000BA01CE0101960E940A20BE016F5F7F4F26
:10128000CE01885A9F4F0E949721CE0101960E945D
:101290000520E3968EAD9FADE397009761F00E9425
:1012A0001116E3968EAD9FADE3970E94B634E39698
:1012B0001FAE1EAEE397CE0187589F4F0E940520B8
:1012C000CE0181589F4F0E94052004C08DE991E016
:1012D0000E942B10CE018B579F4F0E94052068E87B
:1012E00073E180E090E00E94BC13C955DF4F0FB658
:1012F000F894DEBF0FBECDBFDF91CF911F910F914C
:10130000FF90EF90DF90CF90BF90AF909F908F9025
:101310007F906F905F904F903F902F900895CF9265
:10132000DF92EF92FF920F931F93CF93DF93E82EFC
:10133000C7E0D0E0D12C01E010E0DD0C60E080914E
:10134000C7050E945013B8010C2E01C0660F0A9405
:10135000EAF76E218091C8050E94501361E08091E8
:10136000C7050E9450132091C90530E0F901E15DE5
:10137000FD4F8491F901E55EFD4FC490F901E95FED
:10138000FD4FF490FF2071F081110E942713EF2D83
:10139000F0E0EE0FFF1FE350FE4FA591B491EC91EA
:1013A000EC2169F4219708F0C8CF8D2DDF91CF9102
:1013B0001F910F91FF90EF90DF90CF9008958D2DAA
:1013C0008160D82EEFCF8F929F92AF92BF92CF9233
:1013D000DF92EF92FF92CF93DF93C82F8DE695E0D7
:1013E0009093840480938304CC2369F1C53010F07A
:1013F00080E00DC140E060E070E0CB010E944F242E
:101400008823B1F320E1C29FC00111248D589D4F64
:10141000FC01E254FE4F20812F7751F73C9640812A
:10142000518162817381443651056105710500F374
:101430003497C080D180E280F380C114D104E104EC
:10144000F10421F4D5CFC12CD12C760140E0C701A5
:10145000B6010E944F24882359F280918E02909108
:101460008F028115924021F6A0919302AA2309F4DC
:10147000BFCF60919102709192026115710509F4DC
:10148000B7CF20919002222309F4B2CFA0938B050D
:1014900020937D0580E030E0E1E0F0E0C82FAF016F
:1014A000082E02C0440F551F0A94E2F7241735078F
:1014B00041F0982F8F5F983089F789E080938605F7
:1014C00097CF809386052091990230919A02211539
:1014D000310519F040E050E008C02091A70230919A
:1014E000A8024091A9025091AA0220937E05309350
:1014F0007F05409380055093810546015701860E74
:10150000971EA11CB11C80928C0590928D05A09213
:101510008E05B0928F05E0919402F0919502F093C0
:101520009205E0939105B0E00E94312F860E971E40
:10153000A81EB91E8092930590929405A0929505DD
:10154000B092960585E0EE0FFF1F8A95E1F7E15016
:10155000FE4FEF2FFF27E6958E0E9F1EA11CB11C9C
:101560008092870590928805A0928905B0928A059D
:1015700020919602309197022115310521F0A901A1
:1015800060E070E008C04091A3025091A402609115
:10159000A5027091A602D701C60188199909AA0966
:1015A000BB09840F951FA61FB71F04C0B695A7954A
:1015B00097958795CA95D2F7809382059093830576
:1015C000A0938405B0938505853F2FE09207A10580
:1015D000B10510F48CE018C0853F9F4FA105B105FF
:1015E00010F480E111C08091AF029091B002A091FF
:1015F000B102B091B2028093930590939405A093A9
:101600009505B093960580E28093900581E0DF9187
:10161000CF91FF90EF90DF90CF90BF90AF909F90D1
:101620008F9008950F931F93CF93DF938C01C0E0A9
:10163000D0E0F801EC0FFD1F6491662371F0E0919A
:10164000CE04F091CF040190F081E02D8EEC94E077
:101650000995892B11F02196ECCFCE01DF91CF9126
:101660001F910F9108959091CD049111FCCF91E0BD
:101670009093CD049093CC042FEF2093CB04109241
:10168000CA04260F2093C9049093C8049091C804FB
:10169000880F892B8093C8048091C704813061F43E
:1016A0001092C7048091C8048093BB008091BC0055
:1016B00083FDF8CF85EC01C085EE8093BC0080915E
:1016C000CD048130E1F38091CA04861710F4609153
:1016D000CA04A7EAB4E027E834E0F9018E2F821BA0
:1016E000861718F48D918193F9CF862F0895CF93A3
:1016F000C82F8091C505813069F460E08091C605EE
:101700000E9450138C2F80680E948F0980E00E94F5
:101710008F090EC08230A1F460E08091C6050E945E
:1017200050138C2F80680E94311780E00E9431177F
:10173000C82F61E08091C6050E9450138C2F1CC0F9
:101740006091CA0586E196E00E94C1036C2F86E194
:1017500096E00E94030286E196E00E94640361E045
:101760008091CA050E94330B1092860480938504F1
:1017700086E196E00E94B701CF910895CF93DF9361
:10178000D82FC62F8091C505813089F460E0809103
:10179000C6050E9450138D2F8F770E948F098C2FC2
:1017A0000E948F0961E08091C6050E9450138091CC
:1017B000C505823099F460E08091C6050E945013FF
:1017C0008D2F8F770E9431178C2F0E94311761E087
:1017D0008091C605DF91CF910C9450136091CA059A
:1017E00086E196E00E94C1036D2F86E196E00E949B
:1017F00003026C2F86E196E00E94030286E196E0E8
:10180000DF91CF910C9464034F925F926F927F921D
:101810008F929F92AF92BF92CF92DF92EF92FF9200
:10182000CF938091CD05882309F4A1C08AEF0E944F
:10183000770BC82F8BEF0E94770BC82ED12CE12C91
:10184000F12C84E0CC0CDD1CEE1CFF1C8A95D1F73A
:101850004C2F50E060E070E09CE0440F551F661F85
:10186000771F9A95D1F7C42AD52AE62AF72A8CEF52
:101870000E94770B82958F70C82A4090D6055090B1
:10188000D705612C712CD701C60124E0B595A79529
:10189000979587952A95D1F7BC01CD0164197509F3
:1018A000860997099B01AC010E9473329B01AC0130
:1018B0006CE055954795379527956A95D1F7A09196
:1018C000DA05B091DB050E94C5324B015C017EE078
:1018D000B594A794979487947A95D1F7D701C601C8
:1018E000E3E0B595A79597958795EA95D1F7440CD0
:1018F000551C661C771C9C01AD012419350946094D
:101900005709A091D805B091D9050E94C532DC01D4
:10191000CB01CBE0B595A79597958795CA95D1F75B
:10192000A5019401280F391F4A1F5B1F2093F7055B
:101930003093F8054093F9055093FA05A5E0B0E01F
:101940000E94312FDC01CB0180589F4FAF4FBF4F1A
:10195000692F7A2F8B2F992787FD9A950E94142E35
:1019600020E030E048EC52E40E94EF2F03C060E03A
:1019700070E0CB01CF91FF90EF90DF90CF90BF90C0
:10198000AF909F908F907F906F905F904F90089551
:101990004F925F926F927F928F929F92AF92BF927F
:1019A000CF92DF92EF92FF928DEF0E94770BC82EBD
:1019B0008EEF0E94770B8090F7059090F805A0902D
:1019C000F905B090FA052CE2921A21E0A20AB108BA
:1019D000D12CE12CF12CFE2CED2CDC2CCC24C82AB3
:1019E0004EE0CC0CDD1CEE1CFF1C4A95D1F780911B
:1019F000F2059091F305092E000CAA0BBB0B54E1E4
:101A0000880F991FAA1FBB1F5A95D1F7C81AD90A68
:101A1000EA0AFB0AA091F405B091F505A50194012D
:101A20000E94C532C61AD70AE80AF90A30E4D30E72
:101A3000E11CF11C6FE0F594E794D794C7946A9584
:101A4000D1F7A091F6050A2E000CBB0BA50194015D
:101A50000E94C5322B013C017AE07594679457943B
:101A600047947A95D1F7A091F105B0E00E94312F0B
:101A7000DC01CB01EBE0B595A79597958795EA95A5
:101A8000D1F7BC01CD0170588F4F9F4FA301920138
:101A90000E947332DC01CB01FAE0B595A7959795CA
:101AA0008795FA95D1F79C01AD01405E5F4FA091FB
:101AB000EF05B091F0050E94C532DC01CB01905ECC
:101AC000AF4FBF4FBC01CD01AEE09595879577959F
:101AD0006795AA95D1F7A70196010E9473326B0111
:101AE0007C01BFE09595879577956795BA95D1F775
:101AF0009B01AC010E9473329B01AC0187E05595BC
:101B00004795379527958A95D1F7A091EE05B0E0D6
:101B10000E94312FDC01CB0124E0B595A795979564
:101B200087952A95D1F7A7019601281B390B4A0BF7
:101B30005B0BDA01C90157FF03C080E090E0DC01D4
:101B400081309105A10539E1B30724F080E090E0F0
:101B5000A0E0B9E1BC01CD012CE095958795779582
:101B600067952A95D1F70E94142E20E030E040E8D6
:101B70005AE30E94732EFF90EF90DF90CF90BF90BA
:101B8000AF909F908F907F906F905F904F9008954F
:101B90002F923F924F925F926F927F928F929F927D
:101BA000AF92BF92CF92DF92EF92FF920F931F936B
:101BB000CF93DF93CDB7DEB7A4970FB6F894DEBF0F
:101BC0000FBECDBF0E94040C87EF0E94770B8F835E
:101BD00088EF0E94770B8E8F89EF0E94770B8F8F93
:101BE0008091F7059091F805A091F905B091FA055B
:101BF0006C017D01FF0CCC08DC2C76019C01AD0151
:101C00006C2D7C2D8C2D9C2D345F41405109610938
:101C10007109810991092CA33BA349835A836B83E2
:101C20007C838D839E8359016A017B018C010E9414
:101C3000CD322E8B3F8B488F598F6A8F7B8F8C8F45
:101C40009D8F0091E60508A31091E7051B87209161
:101C5000E40529A33091E5053C878091E2058AA33C
:101C6000E091E305ED87B090DF05A090DE051B2D28
:101C7000110F110BC12ED12EE12EF12E012F2CA10F
:101C80003BA149815A816B817C818D819E810E941B
:101C9000CD320CE00E94C63319012A013B014C01F0
:101CA000B090E105A090E0051B2D110F110BC12E86
:101CB000D12EE12EF12E012F2E893F89488D598D8D
:101CC0006A8D7B8D8C8D9D8D0E94CD3208E00E94A7
:101CD000DF3351016201730184010E94FD337058AA
:101CE0008F4F9F4F2090DC053090DD055101C12CB6
:101CF000D12CE12CF12C00E010E00E94CD3201E269
:101D00000E94DF332E873F87488B598B6A8B7B8BF2
:101D10008C8B9D8BA0E00E940F3409F480C1FF8161
:101D20004F2F50E060E070E08CE0440F551F661FBD
:101D3000771F8A95D1F70E8D802F90E0A0E0B0E05C
:101D400024E0880F991FAA1FBB1F2A95D1F78A018B
:101D50009B01082B192B2A2B3B2B0F8318872987D4
:101D60003A87A8A01B85110F110BBB84C12ED12E61
:101D7000E12EF12E012F2E893F89488D598D6A8DD4
:101D80007B8D8C8D9D8D0E94CD3219012A013B01E6
:101D90004C01A9A01C85110F110BBC84C12ED12EA2
:101DA000E12EF12E012F2CA13BA149815A816B819B
:101DB0007C818D819E810E94CD3201E10E94C633DB
:101DC00059016A017B018C019101A201B301C40197
:101DD0000E94FD3319012A013B014C018F8D829530
:101DE0008F704F81588569857A85482B80E090E017
:101DF000A0E1B0E0841B950BA60BB70B6C017D0135
:101E0000FF0CCC08DC2C76019C01AD016C2D7C2DE7
:101E10008C2D9C2D0FE10E94C633F901B42FA52F04
:101E20006C837D8389839A832AA19D85990F990B61
:101E30003D85492F592F692F792F892F03E20E9461
:101E4000C63359016A017B018C019101A201B301E2
:101E5000C4010E94FD3359016A017B018C019F017D
:101E60004B2F5A2F6C817D8189819A810E94063483
:101E70004901542E652EB62FA72FF82FE92F03E026
:101E80000E94C6335401C52CD62CEB2EFA2E0F2FF0
:101E90001E2F0E94063459016A017B01782E192FEA
:101EA00003E00E94C633072D0E94063403E00E941F
:101EB000C6335401C52CD62CEB2EFA2E0F2F1E2F15
:101EC0000E94063402E00E94C6330F2F0E9406349F
:101ED00001E00E94C6330F2F0E940634AE84BF84F7
:101EE000C888D988EA88FB880C891D890E94283314
:101EF0002B873F8349835A836B837C838D839E83A7
:101F00000DE00E94DF33922E832E742E652E562E06
:101F1000472E382E292E3091ED052091EC05932F78
:101F2000990F990BA92CB82CC72CD62CE52CF42C86
:101F3000032D122D492F592F692F792F892F0E9498
:101F4000CD320E94CD3209E10E94DF3359016A018E
:101F50007B018C012B853F8149815A816B817C817A
:101F60008D819E810E94FD3319012A013B014C01A4
:101F70003091EB052091EA05932F990F990BAB84D3
:101F8000BF80C980DA80EB80FC800D811E81492FE3
:101F9000592F692F792F892F0E94CD3203E10E949A
:101FA000DF3359016A017B018C019101A201B30168
:101FB000C4010E94FD3308E00E94DF33522E632EDD
:101FC000742E852E962EF72FE82FB92F3091E90524
:101FD0002091E805932F990F990B492F592F692FBD
:101FE000792F892F04E00E94C63359016A017B01D1
:101FF0008C01252D362D472D582D692D7F2F8E2FA5
:102000009B2F0E94FD3308E00E94DF330E94903036
:1020100020E030E048EC52E40E94EF2F03C060E083
:1020200070E0CB01A4960FB6F894DEBF0FBECDBF13
:10203000DF91CF911F910F91FF90EF90DF90CF90A4
:10204000BF90AF909F908F907F906F905F904F90D8
:102050003F902F900895CF93DF93BC018EEC94E0D6
:102060000E94BA12EC016FE771E08EEC94E00E94DE
:10207000BA128C0F9D1FDF91CF910895CF92DF92FE
:10208000EF92FF921F93CF93DF93109278051092F7
:10209000760510927305109272058AE0809371059F
:1020A0000E9472226B017C0161E0809171050E94A7
:1020B000801361E0809171050E9450130E945A1CA8
:1020C00082E580936B0510926C0580916B05909171
:1020D0006C050E947017DAE08FEF0E943117D15023
:1020E000D9F7E6018DE695E00E94731720E030E015
:1020F000A90160E08DE695E00E948917182F809372
:102100007705813049F00E9472226C1B7D0B613D86
:10211000774060F381E054C02AEA31E040E050E0CB
:1021200068E08DE695E00E94891782FF03C0109356
:1021300078050EC014E00E9438178093770511507F
:10214000D1F78A3A11F082E03BC082E080937805B3
:1021500080917805823021F0C12CD12C760105C008
:10216000C12CD12CE12C30E4F32E20E030E0A90189
:1021700067E38DE695E00E948917A701960169E261
:102180008DE695E00E94891780937705882349F0B2
:102190000E9472226C1B7D0B613D774030F388E01A
:1021A0000FC080917805823001F520E030E0A90170
:1021B0006AE38DE695E00E948917882341F086E066
:1021C000809372058DE695E00E9426178FC00E94CD
:1021D0003817807C803C19F483E0809378050E9456
:1021E00038170E9438170E9438178DE695E00E9434
:1021F000261780E580936B0510926C0581E00E94A4
:10220000E309882329F080919C05882341F06EC062
:1022100080E00E94E309882309F469C0F4CF80912B
:102220009005803109F582E080939C051092AE05FF
:102230001092AF051092B0051092B10580919105F2
:1022400090919205A0E0B0E025E0880F991FAA1FA9
:10225000BB1F2A95D1F78093AA059093AB05A09355
:10226000AC05B093AD051EC0803209F03FC083E0DD
:1022700080939C054091930550919405609195053C
:10228000709196054093AE055093AF056093B005ED
:102290007093B1052AEA35E089E795E00E94BC25F4
:1022A000882321F189E795E09093B3058093B205E7
:1022B00081E080939B0510929D0510929E051092DF
:1022C0009F051092A0051092A1051092A2051092F0
:1022D000A3051092A4051092A5051092A6051092D0
:1022E000A7051092A8051092A90501C080E0DF9112
:1022F000CF911F91FF90EF90DF90CF900895CF92F4
:10230000DF92EF92FF920F931F93CF93DF936C01B5
:102310007A018B01C0E0D0E0CE15DF0589F0D8014D
:102320006D918D01D601ED91FC910190F081E02D30
:10233000C6010995892B11F47E0102C02196ECCFCC
:10234000C701DF91CF911F910F91FF90EF90DF9028
:10235000CF900895FC01538D448D252F30E0842FBC
:1023600090E0821B930B541710F0CF9608950197BD
:102370000895FC01918D828D981761F0828DDF01A7
:10238000A80FB11D5D968C91928D9F5F9F73928F68
:1023900090E008958FEF9FEF0895FC01918D828D5D
:1023A000981731F0828DE80FF11D858D90E008952A
:1023B0008FEF9FEF0895FC01918D228D892F90E082
:1023C000805C9F4F821B91098F73992708958EEC33
:1023D00094E00E94DB1121E0892B09F420E0822F98
:1023E0000895FC01848DDF01A80FB11DA35ABF4FD2
:1023F0002C91848D90E001968F739927848FA68904
:10240000B7892C93A089B1898C9180648C93938D2A
:10241000848D981306C00288F389E02D80818F7D1A
:1024200080830895EF92FF920F931F93CF93DF93D2
:10243000EC0181E0888F9B8D8C8D981305C0E88915
:10244000F989808185FD24C0F62E0B8D10E00F5F89
:102450001F4F0F731127E02E8C8DE8120CC00FB6A2
:1024600007FCFACFE889F989808185FFF5CFCE0195
:102470000E94F111F1CF8B8DFE01E80FF11DE35A9F
:10248000FF4FF0820B8FEA89FB898081806207C051
:10249000EE89FF896083E889F9898081806480837F
:1024A00081E090E0DF91CF911F910F91FF90EF902D
:1024B0000895CF93DF93EC01888D8823C9F0EA89D2
:1024C000FB89808185FD05C0A889B9898C9186FD2D
:1024D0000FC00FB607FCF5CF808185FFF2CFA8892A
:1024E000B9898C9185FFEDCFCE010E94F111E7CF24
:1024F000DF91CF91089580E090E0892B29F00E9430
:10250000E71181110C94000008953FB7F894809171
:10251000240690912506A0912606B091270626B59F
:10252000A89B05C02F3F19F00196A11DB11D3FBF0B
:10253000BA2FA92F982F8827820F911DA11DB11D99
:10254000BC01CD0142E0660F771F881F991F4A9595
:10255000D1F708950E941836DC01ED91FC91DB0162
:1025600014964D915C9115976D917C910280F38149
:10257000E02D09946115710579F0FB0101900020AF
:10258000E9F73197AF01461B570BDC01ED91FC9148
:102590000280F381E02D099480E090E008951F927D
:1025A0000F920FB60F9211242F933F934F935F9387
:1025B0006F937F938F939F93AF93BF93EF93FF930B
:1025C0008EEC94E00E94F111FF91EF91BF91AF91D9
:1025D0009F918F917F916F915F914F913F912F913B
:1025E0000F900FBE0F901F9018951F920F920FB66D
:1025F0000F9211242F938F939F93EF93FF93E0916A
:10260000DE04F091DF048081E091E404F091E504C0
:1026100082FD12C090818091E7048F5F8F732091BB
:10262000E804821751F0E091E704F0E0E253FB4F39
:10263000958F8093E70401C08081FF91EF919F9176
:102640008F912F910F900FBE0F901F901895833090
:1026500081F028F4813099F08230A1F0089587301C
:10266000A9F08830B9F08430D1F4809180008F7D5A
:1026700003C0809180008F7780938000089584B597
:102680008F7702C084B58F7D84BD08958091B0009E
:102690008F7703C08091B0008F7D8093B000089544
:1026A0001F93CF93DF93282F30E0F901E15DFD4FB9
:1026B0008491F901E55EFD4FD491F901E95FFD4F89
:1026C000C491CC23C9F0162F81110E942713EC2F3F
:1026D000F0E0EE0FFF1FE35BFD4FA591B4918FB7C4
:1026E000F894111105C09C91ED2FE095E92302C0EB
:1026F000EC91ED2BEC938FBFDF91CF911F9108955B
:10270000CF93DF9390E0FC01E55EFD4F2491FC0147
:10271000E95FFD4F8491882361F190E0880F991F54
:10272000FC01ED5BFD4FC591D491FC01E35BFD4FD6
:10273000A591B491611109C09FB7F8948881209543
:1027400082238883EC912E230BC0623061F49FB703
:10275000F8943881822F809583238883EC912E2BE7
:102760002C939FBF06C08FB7F894E8812E2B288347
:102770008FBFDF91CF9108958F929F92AF92BF92BA
:10278000CF92DF92EF92FF926B017C010E94851243
:102790004B015C01C114D104E104F104F1F00E9489
:1027A0008512DC01CB0188199909AA09BB09883E69
:1027B0009340A105B10570F321E0C21AD108E108E8
:1027C000F10888EE880E83E0981EA11CB11CC1148C
:1027D000D104E104F10419F7DDCFFF90EF90DF9011
:1027E000CF90BF90AF909F908F900895DC01599645
:1027F000ED91FC915A973097B9F083899489A58916
:10280000B6894285538564857585841B950BA60B17
:10281000B70B811520E89207A105B10538F08FEFBD
:102820009FE7A0E0B0E0089580E090E00895CF93A6
:10283000DF931F92CDB7DEB76983DC01ED91FC9188
:102840000280F381E02D41E050E0BE016F5F7F4FD9
:1028500009950F90DF91CF910895CF93DF93EC010D
:102860008D818823A1F18C8187FF2DC06E857F85A6
:102870008889998941E00E944F24882341F1EA899F
:1028800080E2E89FF0011124DF01AD57BD4F1097A2
:10289000F1F08D81823050F44B895C896D897E899D
:1028A0005C964D935D936D937C935F978F89988D24
:1028B000A98DBA8DED57FD4F938F828FB58BA48B69
:1028C0008C818F778C83DF91CF910C94142480E0DE
:1028D000DF91CF910895FC01818D928D009711F0C9
:1028E0000C942D1408958F929F92AF92BF92CF9225
:1028F000DF92EF92FF920F931F93CF93DF93EC0140
:102900008D81811102C080E077C00B891C892D89DF
:102910003E890417150726073707A8F36A017B01CC
:10292000823029F4CA86DB86EC86FD860DC0C11490
:10293000D104E104F10451F41E821F821886198625
:102940001A861B861C861D8681E056C08A849B845D
:10295000AC84BD84EB8DFC8D258530E0275F3F4F37
:10296000B501A4014150510961097109022E04C049
:1029700076956795579547950A94D2F7D701C60182
:102980000197A109B10904C0B695A79597958795B8
:102990002A95D2F784179507A607B70720F089284C
:1029A0008A288B2849F44F89588D698D7A8D4E83FA
:1029B0005F836887798704C0841B950BA60BB70BD0
:1029C0004C015D018E010A5F1F4F81149104A10427
:1029D000B10409F4A7CF4E815F816885798598019C
:1029E0008B8D9C8D0E94382591E0891A9108A10851
:1029F000B1088111EACF87CFDF91CF911F910F915D
:102A0000FF90EF90DF90CF90BF90AF909F908F900E
:102A100008958F929F92AF92BF92CF92DF92EF92E2
:102A2000FF920F931F93CF93DF9300D000D0CDB7C9
:102A3000DEB77C0180E2689F6001112496012D576A
:102A40003D4FD9011B969C91917121F0842F827486
:102A500009F097C0142FF701628B809100019091CB
:102A60000101A0910201B091030186879787A08B95
:102A7000B18BF601ED57FD4F4489558960E070E058
:102A8000BA0155274427D70157964D935D936D930F
:102A90007C935A97828D938DA0E0B0E0482B592B00
:102AA0006A2B7B2BD70157964D935D936D937C9347
:102AB0005A97D9011B968C91887159F4848D958D04
:102AC000A68DB78DF701838B948BA58BB68B81E098
:102AD00012C0803109F055C097012D5E3F4FD701DC
:102AE0005B968D919C915C970E94BC25882309F48C
:102AF00048C084E0F7018583812F8F70D701149639
:102B00008C931497F70116821782108611861A96F5
:102B10001D921D921D921C921D9716FF34C0159692
:102B20008C91813071F511FF2CC0F70143895489D4
:102B300065897689452B462B472B09F461C040E017
:102B400050E0BA01C7010E9473148823D1F0F70145
:102B50008788908CA18CB28CC38CD48C82E090E05E
:102B6000A0E0B0E0F60180839183A283B3839E014D
:102B70002F5F3F4FB501A401C6010E943825811186
:102B800004C080E03DC081E03BC000E010E098015F
:102B9000B501A401C6010E949824882391F389807D
:102BA0009A80AB80BC80D60157968C91803129F0F9
:102BB00088EF9FEFAFEFBFE004C088EF9FEFA0E08A
:102BC000B0E088169906AA06BB0688F2D701579688
:102BD0001D921D921D921C925A97F701138A148A16
:102BE000158A168A848180688483C7010E942D1407
:102BF000882339F240E050E0BA01C7010E94731403
:102C00000F900F900F900F90DF91CF911F910F9128
:102C1000FF90EF90DF90CF90BF90AF909F908F90FC
:102C20000895CF93DF93EC010E942D14882311F0B7
:102C30001D8281E0DF91CF9108953F924F925F9284
:102C40006F927F928F929F92AF92BF92CF92DF92BC
:102C5000EF92FF920F931F93CF93DF93CDB7DEB721
:102C60002C970FB6F894DEBF0FBECDBF5C01DC0120
:102C70005B968D909C905C971696CD90DD90ED9034
:102C8000FC901997C114D104E104F10439F0BFEFAD
:102C9000CB1ADB0AEB0AFB0A312C07C0F401C08017
:102CA000D180E280F38033243394F40181859285CE
:102CB000A385B4859C01AD012F5F3F4F4F4F5F4F00
:102CC00029873A874B875C87260137011D821E8240
:102CD0001F821886F40181859285A385B4852D8194
:102CE0003E814F815885281739074A075B0708F04E
:102CF00063C089859A85AB85BC858C159D05AE051D
:102D0000BF0550F482E0C82ED12CE12CF12C92E0CA
:102D1000492E512C612C712C9E012F5F3F4FB70122
:102D2000A601C4010E943825882309F445C0898181
:102D30009A81AB81BC81892B8A2B8B2B41F0260198
:102D400037019FEF491A590A690A790A05C0C41464
:102D5000D504E604F70491F02D813E814F8158851A
:102D60002F5F3F4F4F4F5F4F2D833E834F835887D9
:102D70003FEFC31AD30AE30AF30AACCF0FEF1FEFFA
:102D80002FEF3FE0B301A201C4010E9498248823E1
:102D900099F0D50116964D915D916D917C911997A1
:102DA000411551056105710549F093018201C40186
:102DB0000E949824811102C080E02AC0D501169695
:102DC0004D925D926D927C921997332051F0D30110
:102DD000C2010196A11DB11DF40180839183A283DC
:102DE000B383F5018789908DA18DB28D892B8A2BB4
:102DF0008B2B69F4D50157964D925D926D927C9222
:102E00005A9714968C911497806814968C9381E04D
:102E10002C960FB6F894DEBF0FBECDBFDF91CF91D9
:102E20001F910F91FF90EF90DF90CF90BF90AF90E8
:102E30009F908F907F906F905F904F903F900895FC
:102E40008FB7F89480912B068FBF089561E0FC0145
:102E500084810E94501380912A06811110922A06C3
:102E600008958EBD00000DB407FEFDCF8EB5089508
:102E70008FEF0C9431170F931F93CF93DF93EB01D8
:102E80000E9472228B010E9438178F3F49F00E94E6
:102E90007222601B710B6C177D07A8F380E001C0E4
:102EA00081E0DF91CF911F910F910895CF93DF9330
:102EB000EC018E81882389F08F8198859C012F5F9A
:102EC0003F4F38872F838230924018F40E94381782
:102ED000F3CFCE010E9426171E82DF91CF91089575
:102EE0008CBD9DBD0895CF93DF93EC0180912A06A0
:102EF000811109C081E080932A0680916B05909131
:102F00006C050E94701760E08C81DF91CF910C946A
:102F10005013CF92DF92FF920F931F93CF93DF93C3
:102F200000D000D0CDB7DEB76C01F62E29833A83EE
:102F30004B835C830E945617C6010E9473176CE294
:102F400071E0C6010E943B178F2D80640E943117EB
:102F500008E110E05C814B813A812981DA01C901E5
:102F6000002E04C0B695A795979587950A94D2F739
:102F700029833A834B835C830E94311708501109DF
:102F800029813A814B815C81083F8FEF180731F727
:102F9000FF2029F0E8E0FE1204C087E803C085E9BD
:102FA00001C08FEF0E94311710E00E943817F60120
:102FB000828787FF04C01F3F11F01F5FF6CF0F907D
:102FC0000F900F900F90DF91CF911F910F91FF9075
:102FD000DF90CF900895AF92BF92CF92DF92EF92A1
:102FE000FF920F931F93CF93DF93EC016901C80108
:102FF000820F931F8130924008F070C08E81882329
:1030000071F088819981AA81BB81481759076A07A5
:103010007B0729F48F819885C816D906B0F54883B7
:1030200059836A837B838B85833039F089E0440F31
:10303000551F661F771F8A95D1F79A01AB0161E191
:10304000CE010E948917882319F083E08D8346C042
:103050000E9472225B010E9438178A878F3F49F4D1
:103060000E9472226A197B096D327140A0F38FE0D1
:1030700003C08E3F31F08DE08D83CE010E94261774
:103080002DC018861F8281E08E838F8198858C15D4
:103090009D0540F40E9438178F8198850196988786
:1030A0008F83F3CF6701E00EF11ECE14DF0431F001
:1030B0000E943817F60181936F01F7CF8F819885B1
:1030C000080F191F18870F838985882319F00115A8
:1030D000124048F0CE010E94561705C0CE010E9452
:1030E000261780E001C081E0DF91CF911F910F9101
:1030F000FF90EF90DF90CF90BF90AF900895EF9248
:10310000FF920F931F93CF93DF93EC017901411549
:1031100051056105710511F482E13CC08B85833056
:1031200039F089E0440F551F661F771F8A95D1F744
:103130009A01AB0168E1CE010E948917882311F042
:1031400084E028C08EEF0E94311787018EEFF81AB5
:10315000F80181918F010E9431170E151F05C1F7EB
:103160008FEF0E9431178FEF0E9431170E9438179E
:103170008A878F71853031F081E18D83CE010E9485
:10318000261709C068E572E0CE010E943B17811145
:1031900007C085E18D83CE010E94261780E013C011
:1031A00020E030E0A9016DE0CE010E948917811175
:1031B00004C00E943817882311F084E1EBCFCE01C0
:1031C0000E94261781E0DF91CF911F910F91FF9010
:1031D000EF9008952F923F924F925F926F927F925D
:1031E0008F929F92AF92BF92CF92DF92EF92FF9217
:1031F0000F931F93CF93DF9300D000D0CDB7DEB7EE
:103200008C015B011A01DC0115968C9115978130B8
:10321000C9F414968C9181FF15C082FF1BC0F80180
:10322000438954896589768982859385A485B58586
:1032300084179507A607B70769F0C8010E947314A1
:10324000811108C081E090E0F8019383828380E0DF
:1032500090E039C1610183C0D8015B968D919C914A
:103260005C97FC01248121502A013B0139E07694CE
:103270006794579447943A95D1F7722E74207A0147
:10328000F1E0FF22772009F476C080E092E08E1909
:103290009F0946018C159D0508F44C01D8015B96E9
:1032A0002D913C915C9716968D919D910D90BC91BE
:1032B000A02D0297A109B109F901058404C0880F66
:1032C000991FAA1FBB1F0A94D2F7468557856089AC
:1032D0007189840F951FA61FB71F9C01AD01270D93
:1032E000311D411D511D29013A01811432E093061F
:1032F00009F088C08091000190910101A091020124
:10330000B091030184159505A605B70559F48FEF13
:103310009FEFDC018093000190930101A0930201D3
:10332000B09303019501B301A201809183049091B0
:1033300084040E947F18882309F484CF9EEFB91A71
:10334000C818D908F80182859385A485B585880DAC
:10335000991DA11DB11D82879387A487B587D801C8
:103360001A964D915D916D917C911D97C114D10478
:1033700009F072CF87C0E114F10409F086CF1696E8
:103380004D915D916D917C911997411551056105A4
:10339000710559F457968D919D910D90BC91A02D7A
:1033A0000097A105B10541F521C09E012F5F3F4F58
:1033B0000E943825882309F44BCF89819A81AB81FB
:1033C000BC81F801238D348DF9012789203129F042
:1033D00048EF5FEF6FEF7FE004C048EF5FEF60E022
:1033E00070E084179507A607B70730F0C8010E9460
:1033F0001D1681114ACF26CFF80186839783A087B7
:10340000B18743CFE114F10429F5D8011A964D9103
:103410005D916D917C911D9753968D919D910D902D
:10342000BC91A02D481759076A077B0798F00E94A6
:103430001424882309F406CF409200015092010120
:10344000609202017092030180912C06816080934A
:103450002C0608C041E0C301B2010E944F2488231A
:1034600009F4F0CED501F701ED57FD4FCF01880DDE
:10347000991DE817F90719F02D912193FACFA80C9F
:10348000B91C5ECF53968D919D910D90BC91A02D4E
:1034900084179507A607B70740F4F801438B548BB0
:1034A000658B768B848180688483D80114968C9197
:1034B00083FD02C0C10107C0C8010E942D148823EA
:1034C00009F4C0CEF7CF0F900F900F900F90DF91BF
:1034D000CF911F910F91FF90EF90DF90CF90BF9011
:1034E000AF909F908F907F906F905F904F903F90A4
:1034F0002F900895CF93DF93EC01898D9A8D0097DB
:1035000039F481E090E09B838A8380E090E00BC0F7
:10351000FC01138212820E94EA18E98DFA8D228141
:103520003381232B71F7DF91CF910895FC01DB01EB
:1035300012968D919C9113979383828381E291E0FF
:103540009183808314968C911497848315968C9123
:103550001597858316964D915D916D917C91199784
:1035600046835783608771871A964D915D916D915F
:103570007C911D9742875387648775871E964D916E
:103580005D916D917C91519746875787608B718BC8
:1035900052968C915297828B53964D915D916D917D
:1035A0007C915697438B548B658B768B57964D91B8
:1035B0005D916D917C915A97478B508F618F728F7F
:1035C0005B968D919C915C97948F838F0895EF9279
:1035D000FF920F931F93CF93DF93EC017B018A013E
:1035E0001B821A8288EE93E0A0E0B0E08C839D837A
:1035F000AE83BF8381E791E0998388838DE190E07A
:103600000E9421349A8F898F009779F02DE1F7017C
:10361000DC0101900D922A95E1F74CE050E0B801F1
:10362000CE010C960E944536188EDF91CF911F91E6
:103630000F91FF90EF9008952F923F924F925F92DB
:103640006F927F928F929F92AF92BF92CF92DF92B2
:10365000EF92FF920F931F93CF93DF9300D0CDB7DC
:10366000DEB7FC018581882309F4D9C0848180FFFD
:10367000D6C021E02A834389548965897689828569
:103680009385A485B585481759076A077B0709F410
:103690001A826F013A81832F90E0DE0111964D016D
:1036A0003F01B6E06B0E711C892B09F47DC0D60179
:1036B0001A964D915D916D917C911D975A01B1E0E3
:1036C000BB22F60125811A012B0189E0569447940B
:1036D000379427948A95D1F7838D948D223061F4A5
:1036E000FC01828D938DA48DB58DBC01CD01620D41
:1036F000731D841D951D45C0DC0114961C9111504D
:103700001221A114B104D1F4111118C0452B462B7C
:10371000472B51F4F6018789908DA18DB28D868358
:103720009783A087B1870AC04681578160857185DC
:1037300093010E943825882309F471C0F601238D76
:10374000348D86819781A085B1850297A109B10941
:10375000AC01BD01F901058404C0440F551F661F6B
:10376000771F0A94D2F786859785A089B189840F3F
:10377000951FA61FB71FBC01CD01610F711D811DD3
:10378000911DD60114962C9126FF14C000910001C2
:10379000109101012091020130910301601771071E
:1037A0008207930751F506C0FA81FF23C1F1898191
:1037B00090E037C040E00E944F24882381F1F5015A
:1037C000ED57FD4FD401CF010196E817F90719F025
:1037D00021912D93FACFEFEF8E1A9E0AF601828582
:1037E0009385A485B5850196A11DB11D8287938718
:1037F000A487B58780E090E057CF740101E010E026
:103800009501AB01BC0180918304909184040E94D6
:10381000EB17882321F0BFEF8B1A9B0ADFCF8FEFC6
:103820009FEF0F900F90DF91CF911F910F91FF901D
:10383000EF90DF90CF90BF90AF909F908F907F9050
:103840006F905F904F903F902F900895FC01818D75
:10385000928D009711F00C941C1B8FEF9FEF089531
:103860000F931F93CF93DF93FC01818D928D00976F
:10387000B9F0EF010E941C1B8C010F3F8FEF18075E
:1038800091F0898D9A8DFC014285538564857585FB
:1038900041505109610971090E947314C80105C0A2
:1038A00080E090E002C08FEF9FEFDF91CF911F91FA
:1038B0000F910895CF93CFB7F89480912906811185
:1038C00027C0E1E1F2E08491E5E2F2E09491E82F93
:1038D000F0E0EE0FFF1FED5BFD4FA591B491EC9171
:1038E000E92321F461E08AE00E94501361E08AE05C
:1038F0000E9480138CB580618CBD8CB580648CBDBA
:1039000061E08DE00E94801361E08BE00E948013F3
:10391000809129068F5F80932906CFBFCF910895AC
:103920000F931F93CF93DF93EC01888199810097C8
:1039300029F02A813B812617370788F48B016F5FB6
:103940007F4F0E944E35009761F0998388831B83D7
:103950000A832C813D81232B11F4FC01108281E02C
:1039600001C080E0DF91CF911F910F910895EF92F8
:10397000FF920F931F93CF93DF93FC012481358136
:103980006115710511F480E019C041155105A9F0C8
:103990007B01EC018A01020F131FB8010E94901CE9
:1039A000882389F3288139818C819D81B701820F19
:1039B000931F0E943E361D830C8381E0DF91CF91DF
:1039C0001F910F91FF90EF900895CF93DF93EC013B
:1039D00088819981009711F00E94B634198218826B
:1039E0001D821C821B821A82DF91CF9108954F9213
:1039F0005F926F927F92EF92FF920F931F93CF93FC
:103A0000DF93CDB7DEB7A1970FB6F894DEBF0FBE38
:103A1000CDBF7C01FA01CB0119A2223008F42AE0C3
:103A20008E010F5D1F4F422E512C612C712CBF0156
:103A3000A30192010E94A332F901CA0101501109A8
:103A40006A3014F4605D01C0695CD8016C93232B6B
:103A5000242B252B61F7B801C7010E94BA12A19649
:103A60000FB6F894DEBF0FBECDBFDF91CF911F918F
:103A70000F91FF90EF907F906F905F904F9008951F
:103A8000CF93DF93CDB7DEB728970FB6F894DEBF9C
:103A90000FBECDBF1D8290E49E8324E12F8324E5D9
:103AA000288719829A8390E19B8390E59C8390916B
:103AB0000406691710F06FEF690F40910506262F75
:103AC00030E0FE01E20FF31F403121F4943011F495
:103AD000918101C09581682F690F60688DEF95E035
:103AE00028960FB6F894DEBF0FBECDBFDF91CF9101
:103AF0000C94C822EF92FF920F931F93CF93DF9302
:103B0000CDB7DEB728970FB6F894DEBF0FBECDBF96
:103B100068E680912206909123060E94C10380915D
:103B2000220690912306DC01ED91FC910190F08139
:103B3000E02D60E0099580912206909123060E9475
:103B4000640367E088E60E94330B1092860480933A
:103B500085048091220690912306DC01ED91FC9171
:103B60000284F385E02D09958F77982F92959F70A9
:103B70001AEF082F919F000D112480912206909139
:103B80002306DC01ED91FC910284F385E02D09957B
:103B90009C01332764E0359527956A95E1F7F82E67
:103BA000129FF00C11248091220690912306DC01D3
:103BB000ED91FC910284F385E02D099586FF0CC000
:103BC000582F5F71952F92959F70919F500D1124E2
:103BD00085FF0DC0545F0BC09C01332754E0359521
:103BE00027955A95E1F7582F129F500D1124809177
:103BF000220690912306DC01ED91FC910284F3856D
:103C0000E02D588709958091220690912306DC01CA
:103C1000ED91FC910284F385E02D09959C013327F9
:103C200094E0359527959A95E1F73AEFE32E482FE2
:103C3000E29E400D11248091220690912306DC0122
:103C4000ED91FC910284F385E02D4F830995182FA7
:103C50008091220690912306DC01ED91FC91028473
:103C6000F385E02D09959C01332744E03595279590
:103C70004A95E1F7E82FE29EE00D1124F0E09F0164
:103C80002053384F4F81588517FF02C02C593F4FA2
:103C90001F77205D812F82958F70312FB6E08B9F2B
:103CA000301911246F2D702F80E090E028960FB608
:103CB000F894DEBF0FBECDBFDF91CF911F910F9162
:103CC000FF90EF900895CF93C82F68E68091220669
:103CD000909123060E94C1038091220690912306B1
:103CE000DC01ED91FC910190F081E02D6C2F0995A4
:103CF00080912206909123060E94640361E088E689
:103D00000E94330B109286048093850480912206D2
:103D100090912306DC01ED91FC910284F385E02D66
:103D20000995CF910895CF93DF93D82FC62F68E6DA
:103D300080912206909123060E94C1038091220661
:103D400090912306DC01ED91FC910190F081E02D32
:103D50006D2F09958091220690912306DC01ED914B
:103D6000FC910190F081E02D6C2F09958091220645
:103D700090912306DF91CF910C946403CF92DF9250
:103D8000FF920F931F93CF93DF93EC018FE00E947C
:103D9000631E682F6F778FE00E94931E68E6809104
:103DA0002206909123060E94C103809122069091E1
:103DB0002306DC01ED91FC910190F081E02D60E0A3
:103DC0000995A0912206B09123062D81ED91FC91D9
:103DD00011971AE0822F612F0E948332982F880F4B
:103DE000980F990F692F620F0190F081E02DCD019E
:103DF0000995A0912206B09123062C81ED91FC91AA
:103E00001197822F612F0E948332982F880F980F6D
:103E1000990F692F620F0190F081E02DCD01099576
:103E2000A0912206B09123062B81ED91FC91119770
:103E3000822F612F0E948332982F880F980F990F3D
:103E4000692F620F0190F081E02DCD0109958881E5
:103E500090E09C012053384F10E3120F143628F0E5
:103E60001CEC120F20E8F22E01C0F12CE09122068A
:103E7000F09123060190F081E02DC080D1804A812D
:103E800069810E949823069667E070E00E948F3255
:103E9000682F8091220690912306F6010995A09142
:103EA0002206B09123063A81ED91FC9111970AE028
:103EB000832F602F0E948332982F880F980F990FBD
:103EC000692F630F0190F081E02DCD0109952981C3
:103ED000A0912206B0912306ED91FC911197822FBB
:103EE000602F0E948332982F880F980F990F290F07
:103EF0006F2D622B0190F081E02DCD010995A091ED
:103F00002206B0912306ED91FC911197812F602F2D
:103F10000E948332682F880F680F660F610F01902F
:103F2000F081E02DCD010995809122069091230624
:103F3000DF91CF911F910F91FF90DF90CF900C9464
:103F40006403CF93DF93EC016115710561F0FB0110
:103F500001900020E9F73197AF01461B570B0E94F3
:103F6000B71C811103C0CE010E94E51CCE01DF9178
:103F7000CF910895CF93DF93EC01FB0144815581EC
:103F8000608171810E94B71C811103C0CE010E9423
:103F9000E51CCE01DF91CF910895EF92FF920F9330
:103FA0001F93CF93DF93EC017B018A01BA010E943A
:103FB000901C811104C0CE010E94E51C07C01D8326
:103FC0000C83B701888199810E943E36CE01DF9132
:103FD000CF911F910F91FF90EF900895CF93DF93B2
:103FE000EC016115710559F0FB0101900020E9F722
:103FF0003197AF01461B570B0E94CD1F02C00E9494
:10400000E51CCE01DF91CF910895FC018081918163
:104010000C94B634EF92FF920F931F93CF93DF93DC
:10402000CDB7DEB7A1970FB6F894DEBF0FBECDBFF8
:104030007C01CB01BA01F701118210821382128236
:104040001582148242E0420F8E010F5F1F4F0E94C3
:10405000522BBC01C7010E94EE1FA1960FB6F89427
:10406000DEBF0FBECDBFDF91CF911F910F91FF90AB
:10407000EF9008950F931F93CF93DF93CDB7DEB7E3
:1040800061970FB6F894DEBF0FBECDBF8C01CB0198
:10409000F80111821082138212821582148250E07C
:1040A000BE016F5F7F4F0E94722BBE016F5F7F4F1B
:1040B000C8010E94EE1F61960FB6F894DEBF0FBED6
:1040C000CDBFDF91CF911F910F9108950F931F9353
:1040D000CF93DF93CDB7DEB729970FB6F894DEBF45
:1040E0000FBECDBF8C01862FF80111821082138282
:1040F00012821582148250E0BE016F5F7F4F90E004
:104100000E94722BBE016F5F7F4FC8010E94EE1F9D
:1041100029960FB6F894DEBF0FBECDBFDF91CF91C9
:104120001F910F910895FB01DC0111961C921E92C4
:1041300013961C921E92129715961C921E9214971B
:104140008617970749F0608171816115710521F02B
:10415000448155810C94CD1F08954F925F926F92C8
:104160007F928F929F92AF92BF92CF92DF92EF9207
:10417000FF92CF93DF93EC016A017B01B22E9A018B
:10418000AB01C701B6010E943931882319F068EFED
:1041900071E027C026013701E89477F82FEF3FEF51
:1041A0004FE75FE7C301B2010E94393181110DC0B1
:1041B0002FEF3FEF4FE75FE7C301B2010E940D2EE3
:1041C00018161CF46CEF71E00CC02FEF3FEF4FE7B7
:1041D0005FE4C701B6010E94E43018169CF460E069
:1041E00072E0CE01DF91CF91FF90EF90DF90CF9002
:1041F000BF90AF909F908F907F906F905F904F9007
:104200000C94BA122FEF3FEF4FE75FECC701B601F6
:104210000E940D2E87FDE3CF20E030E0A901C70109
:10422000B6010E940D2E87FF0EC0E881F981019032
:10423000F081E02D6DE2CE0109954C01F7FAF09482
:10424000F7F8F09402C0812C912CA12C60E070E072
:1042500080E09FE3AB1441F020E030E040E251E425
:104260000E94EF2FA394F6CF9B01AC01C701B601CA
:104270000E94832F2B013C010E9461306B017C0165
:104280000E94122E9B01AC01C301B2010E94822F39
:104290002B013C012AE0B701A601CE010E94F71CC8
:1042A0007C01E80CF91CBB2051F0E881F9810190F8
:1042B000F081E02D6EE2CE010995E80EF91EDB2CAF
:1042C000DD2029F120E030E040E251E4C301B201F9
:1042D0000E94732E2B013C010E9461304B01A12CE6
:1042E000B12C2AE0B501A401CE010E94F71CE80E12
:1042F000F91EC501B4010E94122E9B01AC01C3013D
:10430000B2010E94822F2B013C01DA94D9CFC70160
:10431000DF91CF91FF90EF90DF90CF90BF90AF9063
:104320009F908F907F906F905F904F9008950F9324
:104330001F93CF93DF93EC010E94AC128C016FE7C7
:1043400071E0CE010E94BA12800F911FDF91CF91D0
:104350001F910F9108950C94BA1221E001C0220F11
:104360006A95EAF7DC011C962C931C971A965C93CD
:104370004E931997ED91FC910484F585E02D60E052
:104380000994DC01ED91FC910684F785E02D41E074
:10439000099581E090E0089508950895CF93DF9303
:1043A000FC0123812223B1F0EC01818180956823F7
:1043B0006083628186E196E00E94C103688186E1A4
:1043C00096E00E94030286E196E00E946403282F93
:1043D00030E002C020E030E081E090E0232B11F0DB
:1043E00080E090E0DF91CF910895EF92FF920F93DC
:1043F0001F93CF938C01FC01759684E0C0E060FFB1
:1044000002C09081C92B6695815031968111F7CFFA
:10441000413011F4F8014489F8018585C82BC42B7B
:104420007801FEE0EF0EF11CF80162896C2BC701E8
:104430000E94CE21F801628960956C23C701CF915B
:104440001F910F91FF90EF900C94CE210F931F932B
:10445000CF93DF93062F0F70423019F440E0602FA6
:1044600010C0142F262FEC0130E0B90184E07595BF
:1044700067958A95E1F7CE010E94F521412F602FC3
:10448000CE01DF91CF911F910F910C94F521FC018A
:1044900084858823A9F0218532852115310519F4F9
:1044A000611106C007C02130310521F4611102C03D
:1044B000858701C015866585CF010E960C94CE21A7
:1044C0000895CF93DF931F92CDB7DEB7698341E0A4
:1044D00050E0BE016F5F7F4F0E94EA180F90DF919E
:1044E000CF9108952FB7F8946091320670913306FA
:1044F00080913406909135062FBF08951F920F9238
:104500000FB60F9211242F933F938F939F93AF93E6
:10451000BF938091320690913306A0913406B091FA
:1045200035063091310623E0230F2D3720F4019614
:10453000A11DB11D05C026E8230F0296A11DB11DC6
:10454000209331068093320690933306A09334066D
:10455000B09335068091240690912506A0912606F9
:10456000B09127060196A11DB11D8093240690935A
:104570002506A0932606B0932706BF91AF919F9181
:104580008F913F912F910F900FBE0F901F90189514
:10459000DC01ED91FC910684F785E02D40E0099463
:1045A0000F931F93CF93DF93EC01423018F08C816F
:1045B00088608C834F836887222329F0413019F467
:1045C0008C8184608C8364E670E080E090E00E94DF
:1045D000BC136C8164FD31C0E881F9810684F785E4
:1045E000E02D42E063E0CE0109958BE496E401976B
:1045F000F1F7E881F9810684F785E02D42E063E078
:10460000CE01099503E512E0C8010197F1F7E881B1
:10461000F9810684F785E02D42E063E0CE0109953B
:10462000C8010197F1F7E881F9810684F785E02D4B
:1046300042E062E0CE01099517C06062CE010E949F
:10464000C8228BE496E40197F1F76C816062CE0199
:104650000E94C82203E512E0C8010197F1F76C81BE
:104660006062CE010E94C822C8010197F1F76C81F7
:104670006062CE010E94C8228BEE90E00197F1F7B4
:1046800084E08D836CE0CE010E94C82261E0CE01FF
:104690000E94C8228BE39FE10197F1F782E08E83AD
:1046A00066E0CE010E94C822E881F9810484F58584
:1046B000E02D6FEFCE01DF91CF911F910F91099403
:1046C000FF920F931F93CF93DF93EC01162F042FCC
:1046D000F22E8B85888B86E196E00E94CB03688959
:1046E00086E196E00E94C10386E196E00E946403A1
:1046F00091E0811190E0998B992329F086E196E071
:104700000E94B7018E878989882339F01F861C8211
:1047100060E0CE010E960E94CE212F2D402F612FFA
:10472000CE01DF91CF911F910F91FF900C94D02279
:1047300050E0E5E8F2E021E02E1B322F3E0F361765
:1047400028F43491430F511D3196F7CF633038F080
:104750009C0123703327232B11F44F5F5F4F2DE60D
:1047600031E0829FB001839F700D929F700D1124E4
:10477000615071099C012D5F3F4F36952795369505
:104780002795CB01820F931F840F951F0895EF92F9
:10479000FF920F931F93CF93DF93EC0188814A819F
:1047A000698190E00E9498239C01A8E1B0E00E94FA
:1047B000732F2B817B018C01E20EF11C011D111D59
:1047C000A8019701ACE3B0E00E94312F2C817B015E
:1047D0008C01E20EF11C011D111DA80197010E9420
:1047E000312F2D81620F711D811D911DDF91CF91A0
:1047F0001F910F91FF90EF9008959C01F9012F5F99
:104800003F4F90819F7E9032C9F380E0219190EDDF
:10481000920F9A3040F4880F982F990F990F890FB3
:104820008053820FF3CF089580912C068823A9F13D
:1048300040910001509101016091020170910301CA
:1048400023E832E080918304909184040E947F18D1
:10485000811102C080E0089540912D0650912E06EE
:1048600060912F0670913006411551056105710563
:1048700091F023E832E080918304909184040E94B7
:104880007F18882339F310922D0610922E0610926D
:104890002F061092300610922C0681E008958F9218
:1048A0009F92AF92BF92EF92FF920F931F93CF937D
:1048B0004B015C01C42F8091000190910101A091F6
:1048C0000201B091030188159905AA05BB0501F104
:1048D0000E941424811102C080E020C083E8E82EE9
:1048E00082E0F82E00E012E020E030E0B501A40103
:1048F00080918304909184040E94EB17882361F3D4
:104900008092000190920101A0920201B0920301F5
:1049100080912C06C82BC0932C0681E0CF911F916B
:104920000F91FF90EF90BF90AF909F908F90089560
:104930004F925F926F927F928F929F92AF92BF92AF
:10494000CF92DF92EF92FF920F931F93CF93DF935B
:10495000EC016A017B0128013901423051056105F2
:10496000710510F480E073C089859A85AB85BC859C
:104970000196A11DB11D84179507A607B70790F3EF
:104980008B889C88AD88BE888F89803129F4BB27AD
:10499000AF2D9E2D8D2D09C0DB01CA0147E0B695D4
:1049A000A795979587954A95D1F7880E991EAA1EC7
:1049B000BB1E8091000190910101A0910201B09174
:1049C000030188169906AA06BB0679F48F898031FF
:1049D000A1F4DD24EE24FF24C601880F991FFC01F9
:1049E000ED57FD4F5182408219C040E0C501B4012E
:1049F0000E944F248111EACFB5CFE894C7F8DD2497
:104A0000EE24FF24C601880F991F880F991FFC010F
:104A1000ED57FD4F408251826282738280912C0655
:104A2000816080932C068A89823080F08D819E81FE
:104A3000AF81B885880E991EAA1EBB1E80922D06D6
:104A400090922E06A0922F06B092300681E0DF9160
:104A5000CF911F910F91FF90EF90DF90CF90BF907B
:104A6000AF909F908F907F906F905F904F90089540
:104A70008F929F92AF92BF92CF92DF92EF92FF926E
:104A80000F931F93CF93DF93FC0181859285A385BC
:104A9000B4850196A11DB11D84179507A607B70718
:104AA00010F480E05CC083899489A589B689C789A0
:104AB000C03129F4852E962EA72EBB2409C04A01A9
:104AC0005B01C7E0B694A79497948794CA95D1F7F1
:104AD000E9016A017B018F01BC01CD01680D791DDF
:104AE0008A1D9B1D8090000190900101A090020101
:104AF000B0900301681579058A059B0599F4F801C2
:104B000087898031A9F4B701A60155276627772741
:104B1000440F551FFA01ED57FD4F80819181A0E0B0
:104B2000B0E018C040E00E944F248111E8CFB9CF17
:104B3000B701A6014F77552766277727440F551FE2
:104B4000440F551FFA01ED57FD4F80819181A281DD
:104B5000B381BF7088839983AA83BB8381E0DF918F
:104B6000CF911F910F91FF90EF90DF90CF90BF906A
:104B7000AF909F908F9008954F925F926F927F9227
:104B8000AF92BF92CF92DF92EF92FF920F931F935B
:104B9000CF93DF9300D000D0CDB7DEB78C0149832F
:104BA0005A836B837C835901C12CD12C7601412C13
:104BB00082E0582E612C712C49815A816B817C8155
:104BC0009E012F5F3F4FC8010E943825882351F175
:104BD000D301C201F801058404C0880F991FAA1FE0
:104BE000BB1F0A94D2F7C80ED91EEA1EFB1E4981CC
:104BF0005A816B817C818789803129F088EF9FEF12
:104C0000AFEFBFE004C088EF9FEFA0E0B0E048172F
:104C100059076A077B0780F2F501C082D182E282E0
:104C2000F38281E00F900F900F900F90DF91CF9162
:104C30001F910F91FF90EF90DF90CF90BF90AF90BA
:104C40007F906F905F904F9008954F925F926F9218
:104C50007F92AF92BF92CF92DF92EF92FF920F932B
:104C60001F93CF93DF93CDB7DEB72B970FB6F89492
:104C7000DEBF0FBECDBF7C01CE0101966C01FC01F1
:104C800090E28BE08C0D91938E13FDCFDA0130E032
:104C900047E09D91992339F19E3219F0E5E7F2E062
:104CA0000AC04A3009F472C138E04AE0F2CF3196C6
:104CB000891709F46BC184918111F9CF431708F466
:104CC00065C18FED890F8E3508F060C181E0830FDB
:104CD000F601E30FF11D3FE9390F3A3108F4905224
:104CE0009083382FD6CF8981803209F44FC1B22EFC
:104CF0008B01DB015B968D919C915C97F701948F02
:104D0000838F16961D921D921D921C921997FB017E
:104D10001286138614861586712CF8018285938578
:104D2000A485B58543895489658976898417950753
:104D3000A607B70708F061C025E0B695A795979537
:104D400087952A95D1F7F82FFF706F2ED801159609
:104D50008C91823008F41AC1C8010E941C1B97FD77
:104D600015C1F80182859385A485B5854F96A11D4F
:104D7000B11D82879387A487B587F0E26F9EC0013B
:104D80001124BC016D577D4F6115710509F4FEC0FA
:104D9000DB012C91222319F0253EC1F427C07110AC
:104DA0000EC0F701628A40910001509101016091AB
:104DB00002017091030146875787608B718BFC015C
:104DC000ED57FD4F8081811113C015C04BE050E0BD
:104DD000C6010E941D36892B09F09FCF8B2D807351
:104DE000803309F4D3C04B2D662DCCC07720C9F297
:104DF0007724739492CF772473948B2D82718231B0
:104E000009F0C4C07720D1F0D7011E966D917D9135
:104E10008D919C91519741E00E944F24882309F481
:104E2000B5C0F7016289F0E26F9FB00111246D57A0
:104E30007D4F6115710509F079C0A8C0D80115969C
:104E40008C91823009F4A2C0C8010E941D168823EB
:104E500009F49CC0D8015B96ED91FC915C97169685
:104E60004D905D906D907C901997B2E04B1A51086F
:104E700061087108058404C0440C551C661C771C2D
:104E80000A94D2F786859785A089B189480E591E64
:104E90006A1E7B1EA480E1E04E1A51086108710869
:104EA000AA2009F10E941424882309F46FC0E3E8C2
:104EB000F2E0119224E0E338F207D9F7D301C201FE
:104EC0008A0D911DA11DB11D8093000190930101D8
:104ED000A0930201B093030180912C06816080931E
:104EE0002C06AA94DDCFD8015B96ED91FC915C97DE
:104EF00080E092E0A0E0B0E0058404C0880F991F34
:104F0000AA1FBB1F0A94D2F7F80143895489658907
:104F10007689840F951FA61FB71F838B948BA58B53
:104F2000B68BD70152961C9263E872E080E2FB01D7
:104F300011928A95E9F78BE0F601DB0101900D9261
:104F40008A95E1F781E298E2DB0151969C938E937A
:104F5000509720E038E01F963C932E931E9753966F
:104F60009C938E93529759969C938E9358975796ED
:104F70003C932E9356970E941424882339F04B2D8E
:104F8000F7016289C7010E94091501C080E02B96D4
:104F90000FB6F894DEBF0FBECDBFDF91CF911F914A
:104FA0000F91FF90EF90DF90CF90BF90AF907F90E8
:104FB0006F905F904F90089586EB95E00E940520DA
:104FC0008CEB95E00C940520EEECF4E01382128259
:104FD00088EE93E0A0E0B0E084839583A683B78356
:104FE0002FE031E03183208325EC30E035872487C2
:104FF00024EC30E03787268720EC30E0318B208BA3
:1050000021EC30E0338B228B22EC30E0358B248B8B
:1050100026EC30E0378B268B118E128E138E148E79
:10502000EBE6F5E020E520831182EDE6F5E0158260
:1050300016821186138642E050E060E070E04487FB
:1050400055876687778713A215A614A621E231E05B
:1050500033A722A717A6E6E1F6E013821282848323
:105060009583A683B7838DE291E091838083F0934B
:105070002306E0932206EDEFF5E0138212828DE520
:1050800091E091838083108A8FEF87871686118A3B
:105090008FE38387148615861286118684E0828BBF
:1050A00082E0838B81E0848B80E1858B80E2868B3C
:1050B00080E4878B80E8808F40E050E063E0CF01A0
:1050C0000E94AD21E5ECF5E0108214861386168669
:1050D0001586108A178617AA16AAE2ECF5E0108248
:1050E00012821182ECEBF5E011821082138212829F
:1050F0001582148240E050E061E871E0CF010E9427
:10510000CD1FE6EBF5E01182108213821282158228
:10511000148240E050E061E871E0CF010C94CD1FB3
:10512000CF93DF93CDB7DEB72C970FB6F894DEBFE1
:105130000FBECDBF789484B5826084BD84B5816094
:1051400084BD85B5826085BD85B5816085BD809152
:105150006E00816080936E001092810080918100CA
:1051600082608093810080918100816080938100C2
:10517000809180008160809380008091B100846084
:105180008093B1008091B00081608093B0008091E5
:105190007A00846080937A0080917A0082608093A4
:1051A0007A0080917A00816080937A0080917A0001
:1051B000806880937A001092C100E091DE04F09143
:1051C000DF0482E08083E091DA04F091DB04108256
:1051D000E091DC04F091DD0480E180831092E6042C
:1051E000E091E204F091E30486E08083E091E00442
:1051F000F091E104808180618083E091E004F0918E
:10520000E104808188608083E091E004F091E10412
:10521000808180688083E091E004F091E1048081E6
:105220008F7D80830E945A1C86E196E00E94CB030A
:1052300080912206909123060E94CB0380EB91E09F
:105240000E94FD238F8389E088878BEA91E00E948A
:10525000FD23898783EB91E00E94FD238A8786EBFB
:1052600091E00E94FD238B8789EB91E00E94FD2352
:105270008C878FE00E94631E87FF08C08CEB91E053
:105280000E942B10CE0107960E94BE1E8EE00E9447
:10529000631E87FF0CC085EC91E00E942B108EE00E
:1052A0000E94631E682F6F778EE00E94931E0E94FB
:1052B0007A1D29833A834B835C836D837E83CE0181
:1052C00001960E94C7236B017C01CE0107960E94C4
:1052D000C723C616D706E806F90640F481ED91E02B
:1052E0000E942B10CE0107960E94BE1E8FE00E94E6
:1052F000631E682F677F8FE00E94931E8EE00E94DE
:10530000631E8C7B682F64608EE00E94931E109257
:10531000C50586E78093CA0583E08093CB0584E0CA
:105320008093CC0585E08093CF058093CD05809355
:10533000CE0585EF93E09093D1058093D0058FE063
:1053400090E09093D3058093D2058BE390E0909307
:10535000D5058093D40586E196E00E94CB0389E8C9
:105360000E94770B182F88E80E94770B212F30E0DE
:10537000322F2227280F311D3093D7052093D605D1
:105380008BE80E94770B182F8AE80E94770B212F59
:1053900030E0322F2227280F311D3093D90520937A
:1053A000D8058DE80E94770B182F8CE80E94770BA8
:1053B000212F30E0322F2227280F311D3093DB05BB
:1053C0002093DA058FE80E94770B182F8EE80E9451
:1053D000770B212F30E0322F2227280F311D3093F9
:1053E000DD052093DC0581E90E94770B182F80E909
:1053F0000E94770B212F30E0322F2227280F311DFA
:105400003093DF052093DE0583E90E94770B182F88
:1054100082E90E94770B212F30E0322F2227280FBC
:10542000311D3093E1052093E00585E90E94770B5B
:10543000182F84E90E94770B212F30E0322F22278A
:10544000280F311D3093E3052093E20587E90E9480
:10545000770B182F86E90E94770B212F30E0322F2F
:105460002227280F311D3093E5052093E40589E9B3
:105470000E94770B182F88E90E94770B212F30E0CC
:10548000322F2227280F311D3093E7052093E605A0
:105490008BE90E94770B182F8AE90E94770B212F46
:1054A00030E0322F2227280F311D3093E905209359
:1054B000E8058DE90E94770B182F8CE90E94770B85
:1054C000212F30E0322F2227280F311D3093EB059A
:1054D0002093EA058FE90E94770B182F8EE90E942E
:1054E000770B212F30E0322F2227280F311D3093E8
:1054F000ED052093EC0581EA0E94770B8093EE0581
:1055000082EE0E94770B182F81EE0E94770B212FDD
:1055100030E0322F2227280F311D3093F0052093E1
:10552000EF0583EE0E94770B8093F10584EE0E94D5
:10553000770B182F85EE0E94770B8F70282F30E0A5
:10554000C90140E1149F800D911D11249093F30532
:105550008093F20586EE0E94770B182F85EE0E944D
:10556000770B82958F70282F30E0C90140E1149F9E
:10557000800D911D11249093F5058093F40587EE1D
:105580000E94770B8093F6056091CC0584E0689FBC
:10559000B00111246C7185EF0E94BE0B6091CF05A4
:1055A000677082EF0E94BE0B2091CD0540E2249FE0
:1055B000900111246091CB056370622B9091CE0510
:1055C00024E0929FC00111248C71682B84EF0E940B
:1055D000BE0B80ED0E94770B803689F487E592E060
:1055E0000E94120B6FE771E08EEC94E00E94BA12F9
:1055F00081E090E09093FC058093FB050EC081E66E
:1056000092E00E94120B6FE771E08EEC94E00E9432
:10561000BA121092FC051092FB0520E042E060E116
:105620008DEF95E00E94602360E082E00E94401DC3
:105630006CED71E08DEF95E00E94AB2161E082E0BE
:105640000E94401D62EE71E08DEF95E00E94AB215B
:1056500060E08DE00E94401D67EE71E08DEF95E007
:105660000E94AB2161E08DE00E94401D69EE71E077
:105670008DEF95E00E94AB210E943E10811103C086
:105680008BEE91E002C082EF91E00E942B106AEF56
:1056900070E085E090E00E94F1030E941E040E94E9
:1056A0007B12FBCFEF920F931F93CF93DF93E80111
:1056B00047FD02C034E001C034E1E42F440FFF0B8A
:1056C000F7FF03C0F195E195F109E32E022F2E2F8C
:1056D000AE010E94972BCE01DF91CF911F910F91C8
:1056E000EF9008954532510520F4423010F00C94AB
:1056F0007D2BFB011082CB010895BB27FB015527B1
:10570000AA27880F991FAA1FA41710F0A41B83951E
:105710005051B9F7A05DAA3308F0A95DA193009795
:1057200079F7B111B1931192CB010C94FD2D4F92E9
:105730005F926F927F929F92AF92BF92CF92DF92D1
:10574000EF92FF920F931F93CF93DF93CDB7DEB706
:1057500029970FB6F894DEBF0FBECDBF6A01122F96
:10576000B02E2BE3201720F0FF24F394F00E02C09C
:10577000BCE3FB2E0F2D27E0AE014F5F5F4F0E9471
:10578000252DAC018981982F9970913031F0E1FC81
:1057900006C0E0FE06C090E205C09DE203C09BE2A9
:1057A00001C090E0EE2DE07183FF3CC0911102C07A
:1057B00083E001C084E0811718F4212F281B01C069
:1057C00020E0E1110BC0F601822F30E2882319F0AE
:1057D00031938150FBCFC20ED11C20E0992329F0D8
:1057E000D6019C93F60131966F01C6010396E2FE45
:1057F0000AC03EE4D6013C9341E411964C931197C4
:1058000012963C9306C03EE6F601308341E64183A2
:105810003283FC01322F40E2332309F442C041932A
:105820003150FACF82FF44C0911102C083E001C021
:1058300084E0811718F4212F281B01C020E0E1111A
:105840000BC0F601822F30E2882319F0319381508A
:10585000FBCFC20ED11C20E0992329F0D6019C93E6
:10586000F60131966F01C6010396E2FE0BC039E4E2
:10587000D6013C933EE411963C93119736E4129680
:105880003C9307C039E6F60130833EE6318336E6C5
:105890003283FC01322F40E2332319F0419331501F
:1058A000FBCFFC01E20FF11D10828EEF9FEFB7C01E
:1058B000F1E0911101C0F0E06F2F70E014161506B1
:1058C00024F49A012F5F3F4F02C021E030E0260F01
:1058D000371FBB2029F06B2D70E06F5F7F4F02C038
:1058E00060E070E0260F371F612F70E02617370742
:1058F0001CF4121B212F01C020E03E2D387159F4F9
:10590000D601322F60E2332319F06D933150FBCF73
:10591000C20ED11C20E0FF2331F0D6019C93B601CA
:105920006F5F7F4F6B01E1110BC0F601922F30E3E7
:10593000992319F031939150FBCFC20ED11C20E076
:105940009F2D940F3A81782F7071A72E84FF03C08A
:10595000313309F49150191624F4993018F098E075
:1059600001C091E0E42F852F57FF02C0E0E080E006
:105970006E2F782FE0E0F0E0AEE29A2E3A01691A3D
:1059800071082A01461A570A0B2D10E0119501954E
:1059900011096F3F8FEF780729F4D6019C92C60159
:1059A00001966C014617570784F0661677066CF46B
:1059B0007F01E40CF51CA1E0B0E0AC0FBD1FEA0EC6
:1059C000FB1ED7011196BC9002C090E3B92E615026
:1059D00071093196C60101967C016017710724F0A8
:1059E000D601BC926C01D5CF6417750741F43633EC
:1059F00020F4353321F4A11002C081E3B82EF60162
:105A0000B082F701822F90E2882319F091938150A0
:105A1000FBCFF701E20FF11D108280E090E02996A4
:105A20000FB6F894DEBF0FBECDBFDF91CF911F91AF
:105A30000F91FF90EF90DF90CF90BF90AF909F902D
:105A40007F906F905F904F900895283008F027E086
:105A50003327DA01990F311D87FD916000966105AA
:105A6000710539F432602E5F3D9330E32A95E1F7FA
:105A700008959F3F30F080387105610509F03C5F63
:105A80003C5F3D93913008F08068911DDF93CF9388
:105A90001F930F93FF92EF92192F987F9695E92FFE
:105AA00096959695E90FFF27EC5BFE4F99273327D4
:105AB000EE24FF24A701E70105900894079428F439
:105AC000360FE71EF81E491F511D660F771F881FEE
:105AD000991F0694A1F70590079428F4E70EF81E85
