:100000000C94EE000C9416010C9416010C9416013D
:100010000C9416010C9416010C9416010C94160104
:100020000C9416010C9416010C9416010C941601F4
:100030000C9416010C9416010C9416010C941601E4
:100040000C940E100C9416010C94A5170C947F17A9
:100050000C9416010C9416010C9416010C941601C4
:100060000C9419030C94160100407A10F35A00A066
:10007000724E18090010A5D4E80000E87648170071
:1000800000E40B54020000CA9A3B000000E1F505B1
:10009000000080969800000040420F000000A086FB
:1000A00001000000102700000000E803000000002D
:1000B0006400000000000A000000000001000000D1
:1000C00000002C76D888DC674F0823DFC1DFAE59EB
:1000D000E1B1B796E5E3E453C63AE651997696E87E
:1000E000E6C28426EB898C9B62ED407C6FFCEFBC02
:1000F0009C9F40F2BAA56FA5F490055A2AF75C932D
:100100006B6CF9676DC11BFCE0E40D47FEF520E662
:10011000B500D0ED902E0300943577050080841E45
:10012000080000204E0A000000C80C333333330FA0
:10013000986E12831141EF8D2114893BE65516CF3D
:10014000FEE6DB18D1844B381BF77C1D901DA4BB49
:10015000E424203284725E228100C9F124ECA1E5FE
:100160003D277C3C3E5E2B3D3F2F5B5D3B2C2A2296
:100170005C0000000000240027002A0000000000AE
:10018000250028002B000000000023002600290085
:10019000040404040404040402020202020203032D
:1001A0000303030301020408102040800102040835
:1001B00010200102040810200000000800020100C5
:1001C0000003040700000000000000001F1C1F1EA9
:1001D0001F1E1F1F1E1F1E1FAA27C12411241FBE62
:1001E000CFEFD8E0DEBFCDBF26E0A2EFB1E001C087
:1001F0001D92AD32B207E1F711E0A0E0B1E0E2EB11
:10020000F4E602C005900D92A23FB107D9F710E0C5
:10021000CDEED0E004C02197FE010E941330CC3E09
:10022000D107C9F70E94C9240C944C320C940000E9
:1002300085ED8093BC008091BC0084FDFCCF1092C2
:10024000A802089540912802262F30E0240F311D86
:1002500021323105DCF42091A8022430C9F4FC01DC
:1002600080E090E0861758F4309128022191DC015B
:10027000AA5FBD4FA30FB11D2C930196F3CF8091C0
:100280002802680F6093280280E0089581E00895B5
:1002900082E008950895E091AA028091A902E817EA
:1002A00030F4F0E0E555FD4F808190E008958FEF48
:1002B0009FEF08959091AA028091A902981750F497
:1002C000E92FF0E0E555FD4F208130E09F5F9093EE
:1002D000AA0202C02FEF3FEFC90108958091A90241
:1002E00090E02091AA02821B91090895CF92DF929B
:1002F000EF92FF920F931F93CF93DF937C01262FF2
:10030000972F8A0180915E02882391F0C62FD72F04
:100310006E01C40ED51ECC15DD0571F06991D701B3
:10032000ED91FC910190F081E02DC7010995F3CF8B
:10033000642F822F0E942201C801DF91CF911F916B
:100340000F91FF90EF90DF90CF900895CF93DF93C0
:100350001F92CDB7DEB7698320915E022223D1F0D0
:1003600020918102203240F021E030E0FC01338313
:10037000228380E090E015C080915F02E82FF0E0DA
:10038000E05AFD4F998190838F5F80935F02809345
:10039000810205C061E0CE0101960E94220181E048
:1003A00090E00F90DF91CF910895089580E090E064
:1003B00008952F923F924F925F926F927F928F9209
:1003C0009F92AF92BF92CF92DF92EF92FF920F93E4
:1003D0001F93CF93DF9300D0CDB7DEB7FC018581AB
:1003E000882309F4D9C0848180FFD6C021E02A8304
:1003F000438954896589768982859385A485B585E5
:10040000481759076A077B0709F41A826F013A8176
:10041000832F90E0DE0111964D013F01B6E06B0E97
:10042000711C892B09F47DC0D6011A964D915D91FE
:100430006D917C911D975A01B1E0BB22F601258197
:100440001A012B0189E056944794379427948A9592
:10045000D1F7838D948D223061F4FC01828D938DD0
:10046000A48DB58DBC01CD01620D731D841D951D3C
:1004700045C0DC0114961C9111501221A114B10445
:10048000D1F4111118C0452B462B472B51F4F6011E
:100490008789908DA18DB28D86839783A087B18740
:1004A0000AC0468157816085718593010E941F12A1
:1004B000882309F471C0F601238D348D86819781DC
:1004C000A085B1850297A109B109AC01BD01F9016F
:1004D000058404C0440F551F661F771F0A94D2F786
:1004E00086859785A089B189840F951FA61FB71FA0
:1004F000BC01CD01610F711D811D911DD6011496A6
:100500002C9126FF14C0009100011091010120914F
:10051000020130910301601771078207930751F5BB
:1005200006C0FA81FF23C1F1898190E037C040E025
:100530000E943611882381F1F501E95DFB4FD4015A
:10054000CF010196E817F90719F021912D93FACF01
:10055000EFEF8E1A9E0AF60182859385A485B585F4
:100560000196A11DB11D82879387A487B58780E07E
:1005700090E057CF740101E010E09501AB01BC01A0
:1005800080912706909128060E94AD1C882321F0B7
:10059000BFEF8B1A9B0ADFCF8FEF9FEF0F900F906B
:1005A000DF91CF911F910F91FF90EF90DF90CF904F
:1005B000BF90AF909F908F907F906F905F904F9083
:1005C0003F902F900895CF93CFB7F89480914D022C
:1005D000811127C0EAE9F1E08491EEEAF1E094911B
:1005E000E82FF0E0EE0FFF1FEE58FE4FA591B491FB
:1005F000EC91E92321F461E08AE00E94001861E0B7
:100600008AE00E9430188CB580618CBD8CB5806406
:100610008CBD61E08DE00E94301861E08BE00E94AB
:10062000301880914D028F5F80934D02CFBFCF91E4
:1006300008951F920F920FB60F9211242F933F939C
:100640004F935F936F937F938F939F93AF93BF93DA
:10065000EF93FF938091B900887F803609F49CC0A6
:1006600068F5883209F45BC090F4803109F454C015
:1006700038F4882309F4F6C0883009F44DC0F6C078
:10068000883109F44CC0803209F45DC0EFC0803479
:1006900009F468C048F4803309F455C0883309F080
:1006A000E5C08093A602D8C0803509F44FC08835D4
:1006B00009F45DC0883409F0D9C0D6C0883909F47E
:1006C000C7C0A8F4883709F467C038F4883609F43D
:1006D00063C0803709F460C0C9C0883809F4B8C065
:1006E000803909F45FC0803809F0C0C05BC0803B2E
:1006F00009F486C038F4803A09F466C0883A09F4EF
:100700007FC0B4C0803C09F4A7C0883C09F4A4C0F1
:10071000883B09F48AC0AAC08091A30210C09091BE
:10072000A5028091A402981770F5E091A50281E0DE
:100730008E0F8093A502F0E0EE57FD4F80818093ED
:10074000BB0085EC86C08093A6028EC0E091A50216
:1007500081E08E0F8093A5028091BB00F0E0EE5700
:10076000FD4F80839091A5028091A4026EC0E0911C
:10077000A50281E08E0F8093A5028091BB00F0E07E
:10078000EE57FD4F80838091A70281116DC081E0FB
:100790008093A20284EA61C083E08093A802109251
:1007A0004C02CFCF80914C02803208F051C0E091D2
:1007B0004C0281E08E0F80934C028091BB00F0E0F0
:1007C000E45DFD4F8083BDCF85EC8093BC0010922B
:1007D000A80280914C02803230F4E0914C02F0E0AB
:1007E000E45DFD4F108260914C0270E0E0912A02BE
:1007F000F0912B028CE292E0099510924C0236C0E7
:1008000084E08093A8021092290210922802E091BD
:100810002602F0912702099580912802811105C0D6
:1008200081E08093280210920602E091290281E083
:100830008E0F80932902F0E0EA5FFD4F8081809364
:10084000BB009091290280912802981708F479CF73
:1008500085E88093BC000AC085EC8093BC001092B0
:10086000A80204C01092A6020E941801FF91EF9105
:10087000BF91AF919F918F917F916F915F914F91B8
:100880003F912F910F900FBE0F901F901895CF9210
:10089000DF92EF92FF920F931F93CF93DF938C0120
:1008A000C1E0D0E06B01770FEE08FF080C171D07C1
:1008B00094F061E082E00E940018C701B6010E9436
:1008C0006C1860E082E00E940018C701B6010E9427
:1008D0006C182196EBCFDF91CF911F910F91FF9074
:1008E000EF90DF90CF9008952F923F924F925F92BA
:1008F0006F927F928F929F92AF92BF92CF92DF9230
:10090000EF92FF920F931F93CF93DF93CDB7DEB794
:10091000C45BD1090FB6F894DEBF0FBECDBF0E94F5
:10092000021060930202709303028093040290937A
:100930000502A89580910C0490910D04892B09F46F
:1009400023C58091DE03882319F00E94761F03C01F
:1009500060E070E0CB016093FE017093FF01809333
:100960000002909301028091E003882309F4E6C01D
:100970008DEF0E942E1FC82E8EEF0E942E1F80909A
:10098000080490900904A0900A04B0900B040CE2B3
:10099000901A01E0A00AB108D12CE12CF12CFE2C18
:1009A000ED2CDC2CCC24C82A5EE0CC0CDD1CEE1C2B
:1009B000FF1C5A95D1F78091030490910404092EED
:1009C000000CAA0BBB0B64E1880F991FAA1FBB1F69
:1009D0006A95D1F7C81AD90AEA0AFB0AA091050458
:1009E000B0910604A50194010E94BD2EC61AD70A33
:1009F000E80AF90A10E4D10EE11CF11C7FE0F5943D
:100A0000E794D794C7947A95D1F7A09107040A2E5A
:100A1000000CBB0B0E94BD2E2B013C01EAE075943B
:100A2000679457944794EA95D1F7A0910204B0E0F7
:100A30000E94C22CDC01CB01FBE0B595A7959795F0
:100A40008795FA95D1F7BC01CD0170588F4F9F4F14
:100A5000A30192010E947F2EDC01CB011AE0B59523
:100A6000A795979587951A95D1F79C01AD01405EA2
:100A70005F4FA0910004B09101040E94BD2EDC01E3
:100A8000CB01905EAF4FBF4FBC01CD010EE09595FD
:100A90008795779567950A95D1F7A70196010E94EA
:100AA0007F2E6B017C012FE0959587957795679553
:100AB0002A95D1F79B01AC010E947F2E9B01AC01CE
:100AC00067E055954795379527956A95D1F7A09199
:100AD000FF03B0E00E94C22CDC01CB0174E0B595AD
:100AE000A795979587957A95D1F7A7019601281B29
:100AF000390B4A0B5B0BDA01C90157FF03C080E0D9
:100B000090E0DC0181309105A10539E1B30724F0C3
:100B100080E090E0A0E0B9E1BC01CD013CE095951A
:100B20008795779567953A95D1F70E94A52B20E098
:100B300030E040E85AE30E94042C03C060E070E01B
:100B4000CB016093FA017093FB018093FC019093B9
:100B5000FD018091DF03811104C060E070E0CB01F2
:100B60000BC48091DE0381110E94761F87EF0E94E3
:100B70002E1FC956DF4F8883C759D04088EF0E9487
:100B80002E1FC255DF4F8883CE5AD04089EF0E9476
:100B90002E1FC155DF4F8883CF5AD0408091080463
:100BA00090910904A0910A04B0910B046C017D019D
:100BB000FF0CCC08DC2C76019C01AD016C2D7C2D4A
:100BC0008C2D9C2D345F41405109610971098109C7
:100BD0009109C557DF4F2883CB58D040C457DF4F0A
:100BE0003883CC58D040C357DF4F4883CD58D040CE
:100BF000C257DF4F5883CE58D040C057DF4F68836D
:100C0000C059D040CC56DF4F7883C459D040CB5622
:100C1000DF4F8883C559D040CA56DF4F9883C659E5
:100C2000D04059016A017B018C010E94C52ECA5532
:100C3000DF4F2883C65AD040C955DF4F3883C75A83
:100C4000D040C855DF4F4883C85AD040C755DF4F02
:100C50005883C95AD040C655DF4F6883CA5AD0401E
:100C6000C555DF4F7883CB5AD040C455DF4F8883BA
:100C7000CC5AD040C355DF4F9883CD5AD0404091D5
:100C8000F703CE54DF4F4883C25BD0405091F80346
:100C9000C556DF4F5883CB59D0408091F503CD54D2
:100CA000DF4F8883C35BD0409091F603C456DF4F7B
:100CB0009883CC59D040A091F303CC54DF4FA88344
:100CC000C45BD040B091F403C356DF4FB883CD5915
:100CD000D040B090F003A090EF031B2D110F110B2B
:100CE000C12ED12EE12EF12E012FC557DF4F2881C5
:100CF000CB58D040C457DF4F3881CC58D040C35771
:100D0000DF4F4881CD58D040C257DF4F5881CE5871
:100D1000D040C057DF4F6881C059D040CC56DF4F1C
:100D20007881C459D040CB56DF4F8881C559D04017
:100D3000CA56DF4F9881C659D0400E94C52E0CE09C
:100D40000E94BE2F19012A013B014C01B090F20311
:100D5000A090F1031B2D110F110BC12ED12EE12EEE
:100D6000F12E012FCA55DF4F2881C65AD040C955F0
:100D7000DF4F3881C75AD040C855DF4F4881C85A25
:100D8000D040C755DF4F5881C95AD040C655DF4FB4
:100D90006881CA5AD040C555DF4F7881CB5AD040C0
:100DA000C455DF4F8881CC5AD040C355DF4F98815E
:100DB000CD5AD0400E94C52E08E00E94D72F510185
:100DC0006201730184010E94F52F70588F4F9F4F6D
:100DD0002090ED033090EE035101C12CD12CE12C79
:100DE000F12C00E010E00E94C52E01E20E94D72FF6
:100DF000C256DF4F2883CE59D040C156DF4F3883CB
:100E0000CF59D040C056DF4F4883C05AD040CF554D
:100E1000DF4F5883C15AD040CE55DF4F6883C25A46
:100E2000D040CD55DF4F7883C35AD040CC55DF4FEB
:100E30008883C45AD040CB55DF4F9883C55AD040E1
:100E4000A0E00E94073009F488CEC956DF4FE88140
:100E5000C759D0404E2F50E060E070E0ACE0440F46
:100E6000551F661F771FAA95D1F7C255DF4FF8812E
:100E7000CE5AD0408F2F90E0A0E0B0E014E0880F71
:100E8000991FAA1FBB1F1A95D1F78A019B01082B36
:100E9000192B2A2B3B2BC956DF4F088319832A8332
:100EA0003B83C759D040CE54DF4FA880C25BD040AF
:100EB000C556DF4F1881CB59D040110F110BC556C5
:100EC000DF4FB880CB59D040C12ED12EE12EF12E6C
:100ED000012FCA55DF4F2881C65AD040C955DF4F70
:100EE0003881C75AD040C855DF4F4881C85AD040D2
:100EF000C755DF4F5881C95AD040C655DF4F68816A
:100F0000CA5AD040C555DF4F7881CB5AD040C4551E
:100F1000DF4F8881CC5AD040C355DF4F9881CD5ADE
:100F2000D0400E94C52E19012A013B014C01CD542D
:100F3000DF4FA880C35BD040C456DF4F1881CC5927
:100F4000D040110F110BC456DF4FB880CC59D040A0
:100F5000C12ED12EE12EF12E012FC557DF4F288152
:100F6000CB58D040C457DF4F3881CC58D040C357FE
:100F7000DF4F4881CD58D040C257DF4F5881CE58FF
:100F8000D040C057DF4F6881C059D040CC56DF4FAA
:100F90007881C459D040CB56DF4F8881C559D040A5
:100FA000CA56DF4F9881C659D0400E94C52E01E134
:100FB0000E94BE2F59016A017B018C019101A2019F
:100FC000B301C4010E94F52F19012A013B014C0114
:100FD000C155DF4F8881CF5AD04082958F70C95656
:100FE000DF4F488159816A817B81C759D040482BA6
:100FF00080E090E0A0E1B0E0841B950BA60BB70B5E
:101000006C017D01FF0CCC08DC2C76019C01AD014C
:101010006C2D7C2D8C2D9C2D0FE10E94BE2FB22FAC
:10102000A32FF42FE52FC557DF4F6883CB58D0404F
:10103000C457DF4F7883CC58D040C357DF4F8883E5
:10104000CD58D040C257DF4F9883CE58D040CC54B3
:10105000DF4F2881C45BD040C356DF4F9881CD5904
:10106000D040990F990BC356DF4F3881CD59D040EE
:10107000492F592F692F792F892F03E20E94BE2F04
:1010800059016A017B018C019101A201B301C401E4
:101090000E94F52F59016A017B018C012B2F3A2FF9
:1010A0004F2F5E2FC557DF4F6881CB58D040C457B4
:1010B000DF4F7881CC58D040C357DF4F8881CD585F
:1010C000D040C257DF4F9881CE58D0400E94FE2FAB
:1010D00039014A01B62FA72FF82FE92F03E00E940C
:1010E000BE2F53016401EB2EFA2E0F2F1E2F0E94EC
:1010F000FE2F59016A017B01182F592E03E00E942F
:10110000BE2F012F152D0E94FE2F03E00E94BE2F3F
:1011100053016401EB2EFA2E0F2F1E2F0E94FE2F7B
:1011200002E00E94BE2F0F2F0E94FE2F01E00E94BE
:10113000BE2F0F2F0E94FE2FC256DF4FA880CE5920
:10114000D040C156DF4FB880CF59D040C056DF4F96
:10115000C880C05AD040CF55DF4FD880C15AD04048
:10116000CE55DF4FE880C25AD040CD55DF4FF880D2
:10117000C35AD040CC55DF4F0881C45AD040CB551C
:10118000DF4F1881C55AD0400E94202FC557DF4F2E
:101190002883CB58D040C457DF4F3883CC58D04039
:1011A000C357DF4F4883CD58D040C257DF4F5883D5
:1011B000CE58D040C057DF4F6883C059D040CC567E
:1011C000DF4F7883C459D040CB56DF4F8883C55951
:1011D000D040CA56DF4F9883C659D0400DE00E94D8
:1011E000D72F922E832E742E652E562E472E382EF4
:1011F000292E3091FE032091FD03932F990F990B17
:10120000A92CB82CC72CD62CE52CF42C032D122D90
:10121000492F592F692F792F892F0E94C52E0E949F
:10122000C52E09E10E94D72F59016A017B018C016B
:10123000C557DF4F2881CB58D040C457DF4F388186
:10124000CC58D040C357DF4F4881CD58D040C2570B
:10125000DF4F5881CE58D040C057DF4F6881C0590A
:10126000D040CC56DF4F7881C459D040CB56DF4FA9
:101270008881C559D040CA56DF4F9881C659D040A1
:101280000E94F52F19012A013B014C013091FC030A
:101290002091FB03932F990F990BC557DF4FA8801F
:1012A000CB58D040C457DF4FB880CC58D040C3573C
:1012B000DF4FC880CD58D040C257DF4FD880CE58BE
:1012C000D040C057DF4FE880C059D040CC56DF4FE8
:1012D000F880C459D040CB56DF4F0881C559D04063
:1012E000CA56DF4F1881C659D040492F592F692F50
:1012F000792F892F0E94C52E03E10E94D72F590113
:101300006A017B018C019101A201B301C4010E9419
:10131000F52F08E00E94D72F322E432E542E652E33
:10132000762E872E982EB92F3091FA032091F9034B
:10133000932F990F990B492F592F692F792F892FA7
:1013400004E00E94BE2F59016A017B018C01232D0C
:10135000342D452D562D672D782D892D9B2F0E94DC
:10136000F52F08E00E94D72F0E94212E20E030E0C8
:1013700048EC52E40E94802D6093F6017093F701CF
:101380008093F8019093F90162E370E081E090E0CE
:101390000E944704C090FA01D090FB01E090FC014C
:1013A000F090FD018090FE019090FF01A09000025E
:1013B000B090010260E088E00E94292041E0C50170
:1013C000B4010E94D92361E088E00E94292040E016
:1013D000C701B6010E94D9238091020290910302B5
:1013E000A0910402B09105024091F2015091F301E5
:1013F0006091F4017091F5018C019D01041B150BA6
:10140000260B370BB901A801403C544D61407105D2
:1014100008F4C7C48093F2019093F301A093F40100
:10142000B093F50111E010935E0288E6809380028C
:1014300010925F021092810260E083EB93E00E94C1
:10144000A6010E947D1E67E070E088E690E00E94A1
:10145000321E83EB93E00E945A018F77982F92956A
:101460009F700AEF909F800D1124C557DF4F88832E
:10147000CB58D04083EB93E00E945A019C01332764
:1014800054E0359527955A95E1F7482F029F400D76
:101490001124C457DF4F4883CC58D04083EB93E0EE
:1014A0000E945A019C01332764E0359527956A957F
:1014B000E1F7582F029F500D1124C357DF4F588377
:1014C000CD58D04083EB93E00E945A0183EB93E028
:1014D0000E945A019C01332774E0359527957A952F
:1014E000E1F7682E029F600C112483EB93E00E94C9
:1014F0005A019C013327E4E035952795EA95E1F7F9
:10150000782E029F700C112483EB93E00E945A0105
:101510009C013327F4E035952795FA95E1F7029F72
:10152000800D1124A82EB12C8093BF037092C003AC
:101530006092C103C357DF4F0881CD58D04000935C
:10154000C203C457DF4F0881CC58D0400093C30377
:10155000C557DF4F0881CB58D0400093C403C090DB
:10156000FA01D090FB01E090FC01F090FD01209188
:10157000FE013091FF014091000250910102C057DD
:10158000DF4F288339834A835B83C059D040209141
:10159000D103872D90E0211106C09093D30380934F
:1015A000D2031093D1032091D2033091D303821739
:1015B000930721F09093D3038093D2034AE0672DE1
:1015C000CE01CB960E946F2385010053184FC2575E
:1015D000DF4F19830883CE58D0401F8E1E8E19A26C
:1015E00018A21BA21AA24AE0BE016F5F7F4FC8017A
:1015F0000E940E292E011EE1410E511CBE016F5F9B
:101600007F4FC2010E942323B201CE0101960E94A6
:101610009C23BE01655C7F4FCE0101960E94EF22A4
:101620006FE771E00E94D622BC01CE018B579F4F1D
:101630000E949C23CE0101960E943A23C2010E947F
:101640003A23CE01CB960E943A2364E871E08BECFA
:1016500092E00E94BF24BE016B577F4F8BEC92E05B
:101660000E94B62366E971E08BEC92E00E94C423ED
:1016700010927503109273031092700310926F030F
:101680008AE080936E030E9402104B015C0161E0CE
:1016900080916E030E94301861E080916E030E9479
:1016A00000180E94E30282E58093680310926903A8
:1016B00080916803909169030E94321C1AE08FEFB9
:1016C0000E94F31B1150D9F784018AE693E00E942F
:1016D000351C20E030E0A90160E08AE693E00E943A
:1016E0004B1CB82E8093740331E0831749F00E949D
:1016F0000210601B710B613D774058F381E056C0CA
:101700002AEA31E040E050E068E08AE693E00E9497
:101710004B1C82FF03C0B092750310C044E0B42E8E
:101720000E94FA1B80937403BA94B110F9CF8A3ADD
:1017300011F082E03BC082E08093750380917503D5
:10174000823021F0812C912C540105C0812C912CE8
:10175000A12C30E4B32E20E030E0A90167E38AE653
:1017600093E00E944B1CA501940169E28AE693E094
:101770000E944B1C80937403882349F00E9402103E
:10178000601B710B613D774030F388E00FC08091A2
:101790007503823001F520E030E0A9016AE38AE6B2
:1017A00093E00E944B1C882341F086E080936F03F6
:1017B0008AE693E00E94E81B8DC00E94FA1B807CA1
:1017C000803C19F483E0809375030E94FA1B0E9409
:1017D000FA1B0E94FA1B8AE693E00E94E81B80E550
:1017E000809368031092690381E00E94A7218823F7
:1017F00029F080919903882341F06CC080E00E9419
:10180000A721882309F466C0F4CF80918D0380312D
:1018100009F582E0809399031092AB031092AC0318
:101820001092AD031092AE0380918E0390918F03BE
:10183000A0E0B0E025E0880F991FAA1FBB1F2A95E2
:10184000D1F78093A7039093A803A093A903B09323
:10185000AA031DC08032F1F583E080939903409183
:101860009003509191036091920370919303409380
:10187000AB035093AC036093AD037093AE0327EAC0
:1018800033E086E793E00E94A312882319F186E7EC
:1018900093E09093B0038093AF0381E0809398032B
:1018A00010929A0310929B0310929C0310929D0336
:1018B00010929E0310929F031092A0031092A10316
:1018C0001092A2031092A3031092A4031092A503F6
:1018D0001092A603CB57DF4F28803980C558D040DF
:1018E00064E973E0C2010E94AC1D1C821B8283E389
:1018F00091E09A8389831E8241018E010F5F1F4F01
:10190000B42CA52C6FE270E0C4010E942B3200972A
:1019100009F449C0D4012C912F3249F4BFEF8B1A3E
:101920009B0A902F812F0B2D1A2D5C0136C0881930
:101930008D3008F08CE0482E512CA201B401CE016C
:10194000885A9F4F0E943D32E8E5F0E0EC0FFD1F02
:10195000E40DF51D1082C8010E94D31AF80185819B
:10196000882351F01EAE1DAE83E391E09CAF8BAF98
:1019700021961FAE219726C021E0AE01485A5F4F45
:101980006B2D7A2DC8010E940C13882359F3840C07
:10199000951C8B2D9A2D0E94D31AC501B02EA12E15
:1019A000092F182FAFCF840102191309C055DF4F3B
:1019B00019830883C05BD0406B2D7A2DCE01CB9666
:1019C0000E94AC1DC055DF4F88809980C05BD0401D
:1019D000820C931CD4018C9181110AC0BE01655CFC
:1019E0007F4FCE0101960E94AC1D49E951E053C0E2
:1019F00019A218A283E391E09F8F8E8F1BA22196DC
:101A00008FAD219781111CC06C961FAE1EAE6C97D6
:101A100088EE93E0A0E0B0E0A0968CAF9DAFAEAFB3
:101A2000BFAFA0978EE091E06A969FAF8EAF6A97A6
:101A3000E3961FAE1EAEE397A5961FAEA59733C0E3
:101A4000825023E1A401823048F464E973E0CE01BE
:101A50004E960E940C1381110EC0D6CFBE01655C5C
:101A60007F4FCE014E960E940C13882369F2CE015F
:101A7000CB960E94D31A49A95AA96BA97CA9CE0179
:101A80004E960E940B19BE01625E7F4FCE010196F9
:101A90000E94AC1DA401BE016F5F7F4FCE01885A2A
:101AA0009F4F0E94FD1DE396EEADFFADE39730978B
:101AB00009F466C18581882309F462C1E5961FAEE9
:101AC0001EAEE597E7961FAE1EAEE797E9961FAEEE
:101AD0001EAEE9974AE0BE016F5F7F4FC257DF4FEE
:101AE00088819981CE58D0400E940E29BE016F5F37
:101AF0007F4FCE018D589F4F0E9423234AE0672DD0
:101B0000CE01CB960E946F234AE0662DCE0101964E
:101B10000E946F23BE016F5F7F4FCE014E960E94E1
:101B20009C2369E971E0CE014E960E94D622BE0147
:101B3000655C7F4F0E94EF2269E971E00E94D62226
:101B4000BE016D587F4F0E94EF22BC01CE0181582B
:101B50009F4F0E949C23CE014E960E943A23CE01B5
:101B600001960E943A23CE01CB960E943A23CE01E1
:101B70008D589F4F0E943A234AE0C557DF4F688136
:101B8000CB58D040CE018D589F4F0E946F234AE022
:101B9000C457DF4F6881CC58D040CE01CB960E940D
:101BA0006F234AE0C357DF4F6881CD58D040CE0144
:101BB00001960E946F23BE016F5F7F4FCE014E964C
:101BC0000E949C2365EC71E0CE014E960E94D622C5
:101BD000BE01655C7F4F0E94EF2265EC71E00E94C0
:101BE000D622BE016D587F4F0E94EF22BC01CE016C
:101BF00087589F4F0E949C23CE014E960E943A2305
:101C0000CE0101960E943A23CE01CB960E943A2340
:101C1000CE018D589F4F0E943A23BE0161587F4FDD
:101C2000CE0101960E949C2364E971E0CE010196E9
:101C30000E94D622BC01CE01885A9F4F0E94B62333
:101C4000CE0101960E943A23BE0167587F4FCE0114
:101C5000885A9F4F0E94B6236BE971E0CE01885AE3
:101C60009F4F0E94BF2422E0C057DF4F4881598117
:101C70006A817B81C059D040CE0101960E943F23EA
:101C8000BE016F5F7F4FCE01885A9F4F0E94B623DF
:101C9000CE0101960E943A236BE971E0CE01885A89
:101CA0009F4F0E94BF2422E0B701A601CE010196FA
:101CB0000E943F23BE016F5F7F4FCE01885A9F4F26
:101CC0000E94B623CE0101960E943A236BE971E08F
:101CD000CE01885A9F4F0E94BF2422E040E050E08E
:101CE000BA01CE0101960E943F23BE016F5F7F4F74
:101CF000CE01885A9F4F0E94B623CE0101960E94C2
:101D00003A236BE971E0CE01885A9F4F0E94BF24AD
:101D100022E040E050E0BA01CE0101960E943F234C
:101D2000BE016F5F7F4FCE01885A9F4F0E94B6233E
:101D300066E971E0CE01885A9F4F0E94C423CE010C
:101D400001960E943A23E3968EAD9FADE3970097EC
:101D500061F00E94D31AE3968EAD9FADE3970E9487
:101D6000AE30E3961FAE1EAEE397CE0187589F4F6D
:101D70000E943A23CE0181589F4F0E943A230CC003
:101D80006DE971E08BEC92E00E94C42366E971E09A
:101D90008BEC92E00E94C423CE018B579F4F0E9490
:101DA0003A2368E873E180E090E00E946C18CC541C
:101DB000DF4F0FB6F894DEBF0FBECDBFDF91CF91DE
:101DC0001F910F91FF90EF90DF90CF90BF90AF9059
:101DD0009F908F907F906F905F904F903F902F904B
:101DE000089521E001C0220F6A95EAF7DC011C96F4
:101DF0002C931C971A965C934E931997ED91FC9136
:101E00000484F585E02D60E00994DC01ED91FC91FE
:101E10000684F785E02D41E0099581E090E0089582
:101E200008950895FC0123812223B9F091819095B2
:101E300069236083828191E090935E0280938002A7
:101E400010925F021092810283EB93E00E94A60140
:101E50000E947D1E282F30E002C020E030E081E0AB
:101E600090E0232B11F080E090E00895EF92FF9234
:101E70000F931F93CF938C01FC01759684E0C0E013
:101E800060FF02C09081C92B669581503196811107
:101E9000F7CF413011F4F8014489F8018585C82B4A
:101EA000C42B7801FEE0EF0EF11CF80162896C2B67
:101EB000C7010E94120FF801628960956C23C70167
:101EC000CF911F910F91FF90EF900C94120F0F93F1
:101ED0001F93CF93DF93062F0F70423019F440E029
:101EE000602F10C0142F262FEC0130E0B90184E0E0
:101EF000759567958A95E1F7CE010E94360F412FBF
:101F0000602FCE01DF91CF911F910F910C94360F6E
:101F1000FC0184858823A9F02185328521153105AE
:101F200019F4611106C007C02130310521F4611197
:101F300002C0858701C015866585CF010E960C9479
:101F4000120F089580914E028823A9F1409100015B
:101F500050910101609102017091030127E234E088
:101F600080912706909128060E94411D811102C090
:101F700080E0089540914F025091500260915102CB
:101F800070915202411551056105710591F027E2EA
:101F900034E080912706909128060E94411D8823F5
:101FA00039F310924F021092500210925102109287
:101FB000520210924E0281E008953FB7F89480914A
:101FC000580290915902A0915A02B0915B0226B535
:101FD000A89B05C02F3F19F00196A11DB11D3FBF61
:101FE000BA2FA92F982F8827820F911DA11DB11DEF
:101FF000BC01CD0142E0660F771F881F991F4A95EB
:10200000D1F708952FB7F89460915402709155025A
:1020100080915602909157022FBF08951F920F9200
:102020000FB60F9211242F933F938F939F93AF93EB
:10203000BF938091540290915502A0915602B091A5
:1020400057023091530223E0230F2D3720F40196DD
:10205000A11DB11D05C026E8230F0296A11DB11DCB
:10206000209353028093540290935502A0935602FA
:10207000B09357028091580290915902A0915A0250
:10208000B0915B020196A11DB11D809358029093FF
:102090005902A0935A02B0935B02BF91AF919F91F6
:1020A0008F913F912F910F900FBE0F901F90189519
:1020B000FC01908190539A3008F090E08181805328
:1020C0002AE0929F800D11240895DC01ED91FC918E
:1020D0000684F785E02D40E009940F931F93CF937A
:1020E000DF93EC01423018F08C8188608C834F8341
:1020F0006887222329F0413019F48C8184608C8315
:1021000064E670E080E090E00E946C186C8164FDF1
:1021100031C0E881F9810684F785E02D42E063E073
:10212000CE0109958BE496E40197F1F7E881F981F6
:102130000684F785E02D42E063E0CE01099503E5D2
:1021400012E0C8010197F1F7E881F9810684F7856B
:10215000E02D42E063E0CE010995C8010197F1F757
:10216000E881F9810684F785E02D42E062E0CE0146
:10217000099517C06062CE010E9465108BE496E459
:102180000197F1F76C816062CE010E94651003E552
:1021900012E0C8010197F1F76C816062CE010E94E4
:1021A0006510C8010197F1F76C816062CE010E9451
:1021B00065108BEE90E00197F1F784E08D836CE081
:1021C000CE010E94651061E0CE010E9465108BE394
:1021D0009FE10197F1F782E08E8366E0CE010E94D5
:1021E0006510E881F9810484F585E02D6FEFCE015B
:1021F000DF91CF911F910F910994FF920F931F933D
:10220000CF93DF93EC01162F042FF22E8B85888B52
:102210000E948121888991E090935E0280938002E0
:1022200010925F02109281020E947D1E91E0811146
:1022300090E0998B992329F083EB93E00E945A0157
:102240008E878989882339F01F861C8260E0CE0141
:102250000E960E94120F2F2D402F612FCE01DF917D
:10226000CF911F910F91FF900C946D108F929F92C0
:10227000AF92BF92EF92FF920F931F93CF934B01B8
:102280005C01C42F8091000190910101A091020195
:10229000B091030188159905AA05BB0501F10E94BB
:1022A000A20F811102C080E020C087E2E82E84E006
:1022B000F82E00E012E020E030E0B501A4018091AA
:1022C0002706909128060E94AD1C882361F3809216
:1022D000000190920101A0920201B092030180914D
:1022E0004E02C82BC0934E0281E0CF911F910F91F7
:1022F000FF90EF90BF90AF909F908F9008954F9276
:102300005F926F927F928F929F92AF92BF92CF9285
:10231000DF92EF92FF920F931F93CF93DF93EC0125
:102320006A017B01280139014230510561057105BF
:1023300010F480E073C089859A85AB85BC850196D1
:10234000A11DB11D84179507A607B70790F38B88C9
:102350009C88AD88BE888F89803129F4BB27AF2D3A
:102360009E2D8D2D09C0DB01CA0147E0B695A795CA
:10237000979587954A95D1F7880E991EAA1EBB1E80
:102380008091000190910101A0910201B09103019F
:1023900088169906AA06BB0679F48F898031A1F4C4
:1023A000DD24EE24FF24C601880F991FFC01E95D9E
:1023B000FB4F5182408219C040E0C501B4010E9428
:1023C00036118111EACFB5CFE894C7F8DD24EE24A9
:1023D000FF24C601880F991F880F991FFC01E95D32
:1023E000FB4F408251826282738280914E028160F3
:1023F00080934E028A89823080F08D819E81AF81E8
:10240000B885880E991EAA1EBB1E80924F0290921C
:102410005002A0925102B092520281E0DF91CF911E
:102420001F910F91FF90EF90DF90CF90BF90AF90F2
:102430009F908F907F906F905F904F9008958F92B4
:102440009F92AF92BF92CF92DF92EF92FF920F9343
:102450001F93CF93DF93FC0181859285A385B4857B
:102460000196A11DB11D84179507A607B70710F4A3
:1024700080E05CC083899489A589B689C789C03109
:1024800029F4852E962EA72EBB2409C04A015B0194
:10249000C7E0B694A79497948794CA95D1F7E901B9
:1024A0006A017B018F01BC01CD01680D791D8A1D78
:1024B0009B1D8090000190900101A0900201B090BE
:1024C0000301681579058A059B0599F4F801878948
:1024D0008031A9F4B701A601552766277727440F55
:1024E000551FFA01E95DFB4F80819181A0E0B0E0CA
:1024F00018C040E00E9436118111E8CFB9CFB70172
:10250000A6014F77552766277727440F551F440F9D
:10251000551FFA01E95DFB4F80819181A281B38152
:10252000BF7088839983AA83BB8381E0DF91CF91B9
:102530001F910F91FF90EF90DF90CF90BF90AF90E1
:102540009F908F9008954F925F926F927F92AF927B
:10255000BF92CF92DF92EF92FF920F931F93CF9390
:10256000DF9300D000D0CDB7DEB78C0149835A830A
:102570006B837C835901C12CD12C7601412C82E0E4
:10258000582E612C712C49815A816B817C819E016E
:102590002F5F3F4FC8010E941F12882351F1D301C2
:1025A000C201F801058404C0880F991FAA1FBB1F30
:1025B0000A94D2F7C80ED91EEA1EFB1E49815A8121
:1025C0006B817C818789803129F088EF9FEFAFEFA5
:1025D000BFE004C088EF9FEFA0E0B0E048175907C4
:1025E0006A077B0780F2F501C082D182E282F38222
:1025F00081E00F900F900F900F90DF91CF911F917E
:102600000F91FF90EF90DF90CF90BF90AF907F90B1
:102610006F905F904F9008954F925F926F927F926C
:10262000AF92BF92CF92DF92EF92FF920F931F93E0
:10263000CF93DF93CDB7DEB72B970FB6F894DEBFFD
:102640000FBECDBF7C01CE0101966C01FC0190E272
:102650008BE08C0D91938E13FDCFDA0130E047E0D3
:102660009D91992339F19E3219F0E2E6F1E00AC01A
:102670004A3009F472C138E04AE0F2CF3196891746
:1026800009F46BC184918111F9CF431708F465C136
:102690008FED890F8E3508F060C181E0830FF60160
:1026A000E30FF11D3FE9390F3A3108F4905290835E
:1026B000382FD6CF8981803209F44FC1B22E8B01D9
:1026C000DB015B968D919C915C97F701948F838FD2
:1026D00016961D921D921D921C921997FB0112864F
:1026E000138614861586712CF80182859385A4853E
:1026F000B585438954896589768984179507A60726
:10270000B70708F061C025E0B695A795979587951E
:102710002A95D1F7F82FFF706F2ED80115968C915E
:10272000823008F41AC1C8010E94D90197FD15C171
:10273000F80182859385A485B5854F96A11DB11DAD
:1027400082879387A487B587F0E26F9EC00111242A
:10275000BC01695D7B4F6115710509F4FEC0DB01A9
:102760002C91222319F0253EC1F427C071100EC010
:10277000F701628A409100015091010160910201CC
:102780007091030146875787608B718BFC01E95D6F
:10279000FB4F8081811113C015C04BE050E0C60192
:1027A0000E941532892B09F09FCF8B2D80738033C7
:1027B00009F4D3C04B2D662DCCC07720C9F2772405
:1027C000739492CF772473948B2D8271823109F0A8
:1027D000C4C07720D1F0D7011E966D917D918D9167
:1027E0009C91519741E00E943611882309F4B5C0AD
:1027F000F7016289F0E26F9FB0011124695D7B4FA0
:102800006115710509F079C0A8C0D80115968C91A1
:10281000823009F4A2C0C8010E94DF1A882309F49B
:102820009CC0D8015B96ED91FC915C9716964D90FB
:102830005D906D907C901997B2E04B1A5108610839
:102840007108058404C0440C551C661C771C0A944E
:10285000D2F786859785A089B189480E591E6A1ED0
:102860007B1EA480E1E04E1A510861087108AA207D
:1028700009F10E94A20F882309F46FC0E7E2F4E097
:10288000119226E0E732F207D9F7D301C2018A0D8F
:10289000911DA11DB11D8093000190930101A09392
:1028A0000201B093030180914E02816080934E0239
:1028B000AA94DDCFD8015B96ED91FC915C9780E006
:1028C00092E0A0E0B0E0058404C0880F991FAA1F21
:1028D000BB1F0A94D2F7F801438954896589768928
:1028E000840F951FA61FB71F838B948BA58BB68B68
:1028F000D70152961C9267E274E080E2FB011192CC
:102900008A95E9F78BE0F601DB0101900D928A953B
:10291000E1F781E298E2DB0151969C938E93509708
:1029200020E038E01F963C932E931E9753969C937D
:102930008E93529759969C938E93589757963C93A3
:102940002E9356970E94A20F882339F04B2DF70142
:102950006289C7010E94CB1901C080E02B960FB697
:10296000F894DEBF0FBECDBFDF91CF911F910F91C5
:10297000FF90EF90DF90CF90BF90AF907F906F90DF
:102980005F904F900895CF93DF93EC018D81882362
:10299000A1F18C8187FF2DC06E857F8588899989FB
:1029A00041E00E943611882341F1EA8980E2E89FE4
:1029B000F0011124DF01A95DBB4F1097F1F08D816B
:1029C000823050F44B895C896D897E895C964D9389
:1029D0005D936D937C935F978F89988DA98DBA8D48
:1029E000E95DFB4F938F828FB58BA48B8C818F77A2
:1029F0008C83DF91CF910C94A20F80E0DF91CF9177
:102A000008952F923F924F925F926F927F928F9292
:102A10009F92AF92BF92CF92DF92EF92FF920F936D
:102A20001F93CF93DF9300D000D0CDB7DEB78C01DA
:102A30005B011A01DC0115968C9115978130C9F460
:102A400014968C9181FF15C082FF1BC0F801438949
:102A500054896589768982859385A485B58584178F
:102A60009507A607B70769F0C8010E940B198111E5
:102A700008C081E090E0F8019383828380E090E0D9
:102A800039C1610183C0D8015B968D919C915C979F
:102A9000FC01248121502A013B0139E0769467949E
:102AA000579447943A95D1F7722E74207A01F1E049
:102AB000FF22772009F476C080E092E08E199F090A
:102AC00046018C159D0508F44C01D8015B962D91AB
:102AD0003C915C9716968D919D910D90BC91A02D87
:102AE0000297A109B109F901058404C0880F991F53
:102AF000AA1FBB1F0A94D2F7468557856089718942
:102B0000840F951FA61FB71F9C01AD01270D311D16
:102B1000411D511D29013A01811432E0930609F04B
:102B200088C08091000190910101A0910201B091B3
:102B3000030184159505A605B70559F48FEF9FEF9E
:102B4000DC018093000190930101A0930201B093F6
:102B500003019501B301A2018091270690912806F7
:102B60000E94411D882309F484CF9EEFB91AC8182A
:102B7000D908F80182859385A485B585880D991DAE
:102B8000A11DB11D82879387A487B587D8011A96A6
:102B90004D915D916D917C911D97C114D10409F007
:102BA00072CF87C0E114F10409F086CF16964D91DB
:102BB0005D916D917C9119974115510561057105E4
:102BC00059F457968D919D910D90BC91A02D009731
:102BD000A105B10541F521C09E012F5F3F4F0E9425
:102BE0001F12882309F44BCF89819A81AB81BC8164
:102BF000F801238D348DF9012789203129F048EF20
:102C00005FEF6FEF7FE004C048EF5FEF60E070E0E0
:102C100084179507A607B70730F0C8010E94DF1A8E
:102C200081114ACF26CFF80186839783A087B18789
:102C300043CFE114F10429F5D8011A964D915D9125
:102C40006D917C911D9753968D919D910D90BC91A6
:102C5000A02D481759076A077B0798F00E94A20F1A
:102C6000882309F406CF409200015092010160923E
:102C700002017092030180914E02816080934E02A6
:102C800008C041E0C301B2010E943611882309F453
:102C9000F0CED501F701E95DFB4FCF01880D991DFD
:102CA000E817F90719F02D912193FACFA80CB91C58
:102CB0005ECF53968D919D910D90BC91A02D841760
:102CC0009507A607B70740F4F801438B548B658B33
:102CD000768B848180688483D80114968C9183FDDF
:102CE00002C0C10107C0C8010E94C314882309F4AF
:102CF000C0CEF7CF0F900F900F900F90DF91CF9134
:102D00001F910F91FF90EF90DF90CF90BF90AF9009
:102D10009F908F907F906F905F904F903F902F90FB
:102D20000895CF93DF931F92CDB7DEB7698341E05B
:102D300050E0BE016F5F7F4F0E9401150F90DF9141
:102D4000CF910895FC01538D448D252F30E0842FC1
:102D500090E0821B930B541710F0CF9608950197C3
:102D60000895FC01918D828D981761F0828DDF01AD
:102D7000A80FB11D5D968C91928D9F5F9F73928F6E
:102D800090E008958FEF9FEF0895FC01918D828D63
:102D9000981731F0828DE80FF11D858D90E0089530
:102DA0008FEF9FEF0895FC01918D228D892F90E088
:102DB000805C9F4F821B91098F73992708958BEC3C
:102DC00092E00E94D31621E0892B09F420E0822FA3
:102DD0000895FC01848DDF01A80FB11DA35ABF4FD8
:102DE0002C91848D90E001968F739927848FA6890A
:102DF000B7892C93A089B1898C9180648C93938D31
:102E0000848D981306C00288F389E02D80818F7D20
:102E100080830895EF92FF920F931F93CF93DF93D8
:102E2000EC0181E0888F9B8D8C8D981305C0E8891B
:102E3000F989808185FD24C0F62E0B8D10E00F5F8F
:102E40001F4F0F731127E02E8C8DE8120CC00FB6A8
:102E500007FCFACFE889F989808185FFF5CFCE019B
:102E60000E94E916F1CF8B8DFE01E80FF11DE35AA8
:102E7000FF4FF0820B8FEA89FB898081806207C057
:102E8000EE89FF896083E889F98980818064808385
:102E900081E090E0DF91CF911F910F91FF90EF9033
:102EA0000895CF93DF93EC01888D8823C9F0EA89D8
:102EB000FB89808185FD05C0A889B9898C9186FD33
:102EC0000FC00FB607FCF5CF808185FFF2CFA88930
:102ED000B9898C9185FFEDCFCE010E94E916E7CF2D
:102EE000DF91CF91089580E090E0892B29F00E9436
:102EF000DF1681110C94000008950E9410321F9279
:102F00000F920FB60F9211242F933F934F935F931D
:102F10006F937F938F939F93AF93BF93EF93FF93A1
:102F20008BEC92E00E94E916FF91EF91BF91AF9177
:102F30009F918F917F916F915F914F913F912F91D1
:102F40000F900FBE0F901F9018951F920F920FB603
:102F50000F9211242F938F939F93EF93FF93E09100
:102F6000DB02F091DC028081E091E102F091E2026B
:102F700082FD12C090818091E4028F5F8F73209157
:102F8000E502821751F0E091E402F0E0E553FD4FD5
:102F9000958F8093E40201C08081FF91EF919F9112
:102FA0008F912F910F900FBE0F901F901895833027
:102FB00081F028F4813099F08230A1F008958730B3
:102FC000A9F08830B9F08430D1F4809180008F7DF1
:102FD00003C0809180008F7780938000089584B52E
:102FE0008F7702C084B58F7D84BD08958091B00035
:102FF0008F7703C08091B0008F7D8093B0000895DB
:103000001F93CF93DF93282F30E0F901E854FE4F50
:103010008491F901EC55FE4FD491F901E057FE4F30
:10302000C491CC23C9F0162F81110E94D717EC2F21
:10303000F0E0EE0FFF1FE458FE4FA591B4918FB75B
:10304000F894111105C09C91ED2FE095E92302C081
:10305000EC91ED2BEC938FBFDF91CF911F910895F1
:10306000CF93DF9390E0FC01EC55FE4F2491FC01DF
:10307000E057FE4F8491882361F190E0880F991FFB
:10308000FC01EE58FE4FC591D491FC01E458FE4F6F
:10309000A591B491611109C09FB7F89488812095DA
:1030A00082238883EC912E230BC0623061F49FB79A
:1030B000F8943881822F809583238883EC912E2B7E
:1030C0002C939FBF06C08FB7F894E8812E2B2883DE
:1030D0008FBFDF91CF9108958F929F92AF92BF9251
:1030E000CF92DF92EF92FF926B017C010E94DD0F85
:1030F0004B015C01C114D104E104F104F1F00E9420
:10310000DD0FDC01CB0188199909AA09BB09883EAA
:103110009340A105B10570F321E0C21AD108E1087E
:10312000F10888EE880E83E0981EA11CB11CC11422
:10313000D104E104F10419F7DDCFFF90EF90DF90A7
:10314000CF90BF90AF909F908F900895DC015996DB
:10315000ED91FC915A973097B9F083899489A589AC
:10316000B6894285538564857585841B950BA60BAE
:10317000B70B811520E89207A105B10538F08FEF54
:103180009FE7A0E0B0E0089580E090E00895CF933D
:10319000DF931F92CDB7DEB76983DC01ED91FC911F
:1031A0000280F381E02D41E050E0BE016F5F7F4F70
:1031B00009950F90DF91CF910895FC01818D928D3B
:1031C000009711F00C94C3140895FC01818D928D29
:1031D000009711F00C94D9018FEF9FEF0895CF93D2
:1031E000DF93EC01898D9A8D009739F481E090E0AE
:1031F0009B838A8380E090E00BC0FC0113821282E3
:103200000E940115E98DFA8D22813381232B71F7FC
:10321000DF91CF9108958F929F92AF92BF92CF92FC
:10322000DF92EF92FF920F931F93CF93DF93EC0106
:103230008D81811102C080E077C00B891C892D89A6
:103240003E890417150726073707A8F36A017B0193
:10325000823029F4CA86DB86EC86FD860DC0C11457
:10326000D104E104F10451F41E821F8218861986EC
:103270001A861B861C861D8681E056C08A849B8424
:10328000AC84BD84EB8DFC8D258530E0275F3F4FFE
:10329000B501A4014150510961097109022E04C010
:1032A00076956795579547950A94D2F7D701C60149
:1032B0000197A109B10904C0B695A795979587957F
:1032C0002A95D2F784179507A607B70720F0892813
:1032D0008A288B2849F44F89588D698D7A8D4E83C1
:1032E0005F836887798704C0841B950BA60BB70B97
:1032F0004C015D018E010A5F1F4F81149104A104EE
:10330000B10409F4A7CF4E815F8168857985980162
:103310008B8D9C8D0E941F1291E0891A9108A10843
:10332000B1088111EACF87CFDF91CF911F910F9123
:10333000FF90EF90DF90CF90BF90AF909F908F90D5
:1033400008950F931F93CF93DF93FC01818D928D8E
:103350000097B9F0EF010E94D9018C010F3F8FEF68
:10336000180791F0898D9A8DFC01428553856485FB
:10337000758541505109610971090E940B19C801F5
:1033800005C080E090E002C08FEF9FEFDF91CF910A
:103390001F910F9108958F929F92AF92BF92CF92FB
:1033A000DF92EF92FF920F931F93CF93DF9300D0A2
:1033B00000D0CDB7DEB77C0180E2689F60011124A8
:1033C0009601295D3B4FD9011B969C91917121F08B
:1033D000842F827409F097C0142FF701628B8091BB
:1033E000000190910101A0910201B0910301868733
:1033F0009787A08BB18BF601E95DFB4F4489558916
:1034000060E070E0BA0155274427D70157964D93E5
:103410005D936D937C935A97828D938DA0E0B0E07D
:10342000482B592B6A2B7B2BD70157964D935D93D5
:103430006D937C935A97D9011B968C91887159F49E
:10344000848D958DA68DB78DF701838B948BA58B7D
:10345000B68B81E012C0803109F055C097012D5E16
:103460003F4FD7015B968D919C915C970E94A31270
:10347000882309F448C084E0F7018583812F8F7089
:10348000D70114968C931497F70116821782108631
:1034900011861A961D921D921D921C921D9716FF61
:1034A00034C015968C91813071F511FF2CC0F70155
:1034B0004389548965897689452B462B472B09F426
:1034C00061C040E050E0BA01C7010E940B19882397
:1034D000D1F0F7018788908CA18CB28CC38CD48CEE
:1034E00082E090E0A0E0B0E0F60180839183A283C7
:1034F000B3839E012F5F3F4FB501A401C6010E9417
:103500001F12811104C080E03DC081E03BC000E09B
:1035100010E09801B501A401C6010E947F11882323
:1035200091F389809A80AB80BC80D60157968C91AC
:10353000803129F088EF9FEFAFEFBFE004C088EF44
:103540009FEFA0E0B0E088169906AA06BB0688F2B5
:10355000D70157961D921D921D921C925A97F70102
:10356000138A148A158A168A848180688483C70125
:103570000E94C314882339F240E050E0BA01C70129
:103580000E940B190F900F900F900F90DF91CF9129
:103590001F910F91FF90EF90DF90CF90BF90AF9071
:1035A0009F908F900895CF93DF93EC010E94C314F6
:1035B000882311F01D8281E0DF91CF9108953F9221
:1035C0004F925F926F927F928F929F92AF92BF9233
:1035D000CF92DF92EF92FF920F931F93CF93DF93DF
:1035E000CDB7DEB72C970FB6F894DEBF0FBECDBFB8
:1035F0005C01DC015B968D909C905C971696CD905B
:10360000DD90ED90FC901997C114D104E104F10410
:1036100039F0BFEFCB1ADB0AEB0AFB0A312C07C0EB
:10362000F401C080D180E280F38033243394F4012C
:1036300081859285A385B4859C01AD012F5F3F4FA5
:103640004F4F5F4F29873A874B875C8726013701A9
:103650001D821E821F821886F40181859285A385B2
:10366000B4852D813E814F815885281739074A0737
:103670005B0708F063C089859A85AB85BC858C158E
:103680009D05AE05BF0550F482E0C82ED12CE12C7B
:10369000F12C92E0492E512C612C712C9E012F5F50
:1036A0003F4FB701A601C4010E941F12882309F4ED
:1036B00045C089819A81AB81BC81892B8A2B8B2B58
:1036C00041F0260137019FEF491A590A690A790A20
:1036D00005C0C414D504E604F70491F02D813E81A1
:1036E0004F8158852F5F3F4F4F4F5F4F2D833E8354
:1036F0004F8358873FEFC31AD30AE30AF30AACCFCC
:103700000FEF1FEF2FEF3FE0B301A201C4010E94B2
:103710007F11882399F0D50116964D915D916D9199
:103720007C911997411551056105710549F0930187
:103730008201C4010E947F11811102C080E02AC071
:10374000D50116964D925D926D927C921997332019
:1037500051F0D301C2010196A11DB11DF401808376
:103760009183A283B383F5018789908DA18DB28D5A
:10377000892B8A2B8B2B69F4D50157964D925D923C
:103780006D927C925A9714968C9114978068149637
:103790008C9381E02C960FB6F894DEBF0FBECDBFA0
:1037A000DF91CF911F910F91FF90EF90DF90CF901D
:1037B000BF90AF909F908F907F906F905F904F9051
:1037C0003F9008958FB7F89480915D028FBF089560
:1037D00061E0FC0184810E94001880915C028111EB
:1037E00010925C0208958EBD00000DB407FEFDCF5F
:1037F0008EB508958FEF0C94F31B0F931F93CF9307
:10380000DF93EB010E9402108B010E94FA1B8F3F95
:1038100049F00E940210601B710B6C177D07A8F322
:1038200080E001C081E0DF91CF911F910F91089559
:10383000CF93DF93EC018E81882389F08F81988567
:103840009C012F5F3F4F38872F838230924018F4BE
:103850000E94FA1BF3CFCE010E94E81B1E82DF916B
:10386000CF9108958CBD9DBD0895CF93DF93EC015A
:1038700080915C02811109C081E080935C0280919B
:103880006803909169030E94321C60E08C81DF9193
:10389000CF910C940018CF92DF92FF920F931F9359
:1038A000CF93DF9300D000D0CDB7DEB76C01F62EFA
:1038B00029833A834B835C830E94181CC6010E94B3
:1038C000351C6CE271E0C6010E94FD1B8F2D8064E7
:1038D0000E94F31B08E110E05C814B813A81298151
:1038E000DA01C901002E04C0B695A7959795879572
:1038F0000A94D2F729833A834B835C830E94F31B9B
:103900000850110929813A814B815C81083F8FEF72
:10391000180731F7FF2029F0E8E0FE1204C087E81D
:1039200003C085E901C08FEF0E94F31B10E00E94E5
:10393000FA1BF601828787FF04C01F3F11F01F5F4B
:10394000F6CF0F900F900F900F90DF91CF911F91B6
:103950000F91FF90DF90CF900895AF92BF92CF92DA
:10396000DF92EF92FF920F931F93CF93DF93EC01BF
:103970006901C801820F931F8130924008F070C026
:103980008E81882371F088819981AA81BB81481733
:1039900059076A077B0729F48F819885C816D906CD
:1039A000B0F5488359836A837B838B85833039F0F4
:1039B00089E0440F551F661F771F8A95D1F79A013A
:1039C000AB0161E1CE010E944B1C882319F083E01A
:1039D0008D8346C00E9402105B010E94FA1B8A87F9
:1039E0008F3F49F40E9402106A197B096D327140C1
:1039F000A0F38FE003C08E3F31F08DE08D83CE01C8
:103A00000E94E81B2DC018861F8281E08E838F8163
:103A100098858C159D0540F40E94FA1B8F8198852E
:103A2000019698878F83F3CF6701E00EF11ECE14C5
:103A3000DF0431F00E94FA1BF60181936F01F7CF8A
:103A40008F819885080F191F18870F838985882310
:103A500019F00115124048F0CE010E94181C05C053
:103A6000CE010E94E81B80E001C081E0DF91CF9190
:103A70001F910F91FF90EF90DF90CF90BF90AF908C
:103A80000895EF92FF920F931F93CF93DF93EC0172
:103A90007901411551056105710511F482E13CC0C0
:103AA0008B85833039F089E0440F551F661F771FDF
:103AB0008A95D1F79A01AB0168E1CE010E944B1CB7
:103AC000882311F084E028C08EEF0E94F31B870149
:103AD0008EEFF81AF80181918F010E94F31B0E15E9
:103AE0001F05C1F78FEF0E94F31B8FEF0E94F31B9E
:103AF0000E94FA1B8A878F71853031F081E18D83B6
:103B0000CE010E94E81B09C068E572E0CE010E9468
:103B1000FD1B811107C085E18D83CE010E94E81B4A
:103B200080E013C020E030E0A9016DE0CE010E94EA
:103B30004B1C811104C00E94FA1B882311F084E100
:103B4000EBCFCE010E94E81B81E0DF91CF911F9166
:103B50000F91FF90EF900895FC01DB0112968D917B
:103B60009C9113979383828383E391E09183808375
:103B700014968C911497848315968C911597858350
:103B800016964D915D916D917C911997468357835F
:103B9000608771871A964D915D916D917C911D970B
:103BA00042875387648775871E964D915D916D910D
:103BB0007C91519746875787608B718B52968C9179
:103BC0005297828B53964D915D916D917C91569752
:103BD000438B548B658B768B57964D915D916D9190
:103BE0007C915A97478B508F618F728F5B968D9126
:103BF0009C915C97948F838F0895EF92FF920F931F
:103C00001F93CF93DF93EC017B018A011B821A8201
:103C100088EE93E0A0E0B0E08C839D83AE83BF8309
:103C20008EE091E0998388838DE190E00E941930C5
:103C30009A8F898F009779F02DE1F701DC010190CF
:103C40000D922A95E1F74CE050E0B801CE010C96B8
:103C50000E943D32188EDF91CF911F910F91FF90FE
:103C6000EF9008959091A8029111FCCF613208F075
:103C700060E291E09093A8029093A7022FEF209327
:103C8000A6021092A502260F2093A4029093A302ED
:103C90009091A302880F892B8093A3028091A202A6
:103CA000813061F41092A2028091A3028093BB0044
:103CB0008091BC0083FDF8CF85EC01C085EE809338
:103CC000BC008091A8028130E1F38091A5028617A3
:103CD00010F46091A502A2E8B2E02BEA32E0F9010B
:103CE0008E2F821B861718F48D918193F9CF109235
:103CF000AA026093A902862F0895209181029091D3
:103D00008002213208F04AC08091A8028111FCCFC4
:103D100032E03093A80231E03093A7023FEF3093B6
:103D2000A6021092A5022093A402A0E6B2E042E807
:103D300052E0FA013E2F341B321718F43D913193B3
:103D4000F9CF1092A3022091A302990F922B909386
:103D5000A3029091A202913061F41092A20290917C
:103D6000A3029093BB009091BC0093FDF8CF95EC1B
:103D700001C095EE9093BC009091A8029230E1F3BF
:103D80009091A6029F3F79F08091A602803241F087
:103D90008091A602803331F084E005C081E003C049
:103DA00082E001C083E010925F02109281021092C3
:103DB0005E020895CF92DF92EF92FF920F931F93CE
:103DC000CF93DF93E82EC7E0D0E0D12C01E010E0E4
:103DD000DD0C60E08091D8030E940018B8010C2E21
:103DE00001C0660F0A94EAF76E218091D9030E9400
:103DF000001861E08091D8030E9400182091DA0336
:103E000030E0F901E854FE4F8491F901EC55FE4F82
:103E1000C490F901E057FE4FF490FF2071F081113A
:103E20000E94D717EF2DF0E0EE0FFF1FEA57FE4F6D
:103E3000A591B491EC91EC2169F4219708F0C8CFD9
:103E40008D2DDF91CF911F910F91FF90EF90DF901B
:103E5000CF9008958D2D8160D82EEFCFCF93C82FAE
:103E60008091D603813069F460E08091D7030E948D
:103E700000188C2F80680E94DA1E80E00E94DA1EF3
:103E80000EC08230A1F460E08091D7030E94001838
:103E90008C2F80680E94F31B80E00E94F31BC82FC8
:103EA00061E08091D7030E9400188C2F1DC0809183
:103EB000DB0391E090935E028093800210925F0298
:103EC000109281026C2F83EB93E00E94A6010E9466
:103ED0007D1E8091DB0361E070E090E00E94321E65
:103EE00083EB93E00E945A01CF9108954F925F9225
:103EF0006F927F928F929F92AF92BF92CF92DF92FA
:103F0000EF92FF92CF938AEF0E942E1FC82F8BEF64
:103F10000E942E1FC82ED12CE12CF12C84E0CC0C59
:103F2000DD1CEE1CFF1C8A95D1F74C2F50E060E0A1
:103F300070E09CE0440F551F661F771F9A95D1F7DC
:103F4000C42AD52AE62AF72A8CEF0E942E1F8295D2
:103F50008F70C82AE6EDF3E041885288612C712CFD
:103F6000D701C60124E0B595A795979587952A9521
:103F7000D1F7BC01CD0164197509860997099B0128
:103F8000AC010E947F2E9B01AC016CE055954795DA
:103F9000379527956A95D1F7A589B6890E94BD2ED8
:103FA0004B015C017EE0B594A794979487947A9531
:103FB000D1F7D701C601C3E0B595A7959795879529
:103FC000CA95D1F7440C551C661C771C9C01AD01A9
:103FD0002419350946095709A389B4890E94BD2EC1
:103FE000DC01CB013BE0B595A795979587953A9570
:103FF000D1F7A5019401280F391F4A1F5B1F22AB7F
:1040000033AB44AB55ABA5E0B0E00E94C22CDC0161
:10401000CB0180589F4FAF4FBF4F692F7A2F8B2F07
:10402000992787FD9A950E94A52B20E030E048EC67
:1040300052E40E94802DCF91FF90EF90DF90CF90BF
:10404000BF90AF909F908F907F906F905F904F90B8
:104050000895CF93DF93CDB7DEB728970FB6F894C6
:10406000DEBF0FBECDBF1D8290E49E8324E12F836F
:1040700024E5288719829A8390E19B8390E59C83AD
:1040800090911504691710F06FEF690F40911604B5
:10409000262F30E0FE01E20FF31F403121F494306F
:1040A00011F4918101C09581682F690F60688EE0DD
:1040B00094E028960FB6F894DEBF0FBECDBFDF9117
:1040C000CF910C9465108F929F92AF92BF920F93F5
:1040D0001F93CF93DF93CDB7DEB7A1970FB6F894B8
:1040E000DEBF0FBECDBF19A2423008F44AE08E01F8
:1040F0000F5D1F4F842E912CA12CB12CA501940192
:104100000E949B2EE62FB901CA0101501109EA3025
:1041100014F4E05D01C0E95CD801EC93232B242B5F
:10412000252B61F7B8018EE094E00E94C423A1968C
:104130000FB6F894DEBF0FBECDBFDF91CF911F91B8
:104140000F91BF90AF909F908F900895CF92DF9284
:10415000EF92FF920F931F93CF93DF936C017A013D
:104160008B01C0E0D0E0CE15DF0589F0D8016D915C
:104170008D01D601ED91FC910190F081E02DC601F9
:104180000995892B11F47E0102C02196ECCFC7015D
:10419000DF91CF911F910F91FF90EF90DF90CF9023
:1041A00008950F931F93CF93DF93EC01888199813A
:1041B000009729F02A813B812617370788F48B0165
:1041C0006F5F7F4F0E944631009761F0998388832B
:1041D0001B830A832C813D81232B11F4FC01108267
:1041E00081E001C080E0DF91CF911F910F91089590
:1041F000EF92FF920F931F93CF93DF93FC012481E3
:1042000035816115710511F480E019C04115510522
:10421000A9F07B01EC018A01020F131FB8010E9473
:10422000D120882389F3288139818C819D81B70130
:10423000820F931F0E9436321D830C8381E0DF9131
:10424000CF911F910F91FF90EF900895CF93DF933F
:10425000EC0188819981009711F00E94AE3019829B
:1042600018821D821C821B821A82DF91CF910895D1
:10427000CF93DF93D82FC62F8091D603813089F456
:1042800060E08091D7030E9400188D2F8F770E94E5
:10429000DA1E8C2F0E94DA1E61E08091D7030E9403
:1042A00000188091D603823099F460E08091D703A2
:1042B0000E9400188D2F8F770E94F31B8C2F0E9475
:1042C000F31B61E08091D703DF91CF910C9400182C
:1042D0008091DB0391E090935E02809380021092C4
:1042E0005F02109281026D2F83EB93E00E94A60182
:1042F0006C2F83EB93E00E94A601DF91CF910C9489
:104300007D1E1092AA021092A90210925F021092D2
:1043100081021092A80281E08093A7021092A2026B
:1043200061E082E10E94001861E083E10E940018D0
:10433000E9EBF0E080818E7F808380818D7F8083B8
:1043400088E48093B80085E48093BC0008958F9240
:104350009F92AF92BF92CF92DF92EF92FF92CF9354
:10436000DF93C82F8AE693E0909328068093270670
:10437000CC2369F1C53010F080E00DC140E060E071
:1043800070E0CB010E9436118823B1F320E1C29F77
:10439000C0011124895E9B4FFC01E254FE4F208135
:1043A0002F7751F73C964081518162817381443669
:1043B00051056105710500F33497C080D180E2801A
:1043C000F380C114D104E104F10421F4D5CFC12C50
:1043D000D12C760140E0C701B6010E943611882336
:1043E00059F280913204909133048115924021F664
:1043F000A0913704AA2309F4BFCF609135047091CE
:1044000036046115710509F4B7CF209134042223D5
:1044100009F4B2CFA093880320937A0380E030E0C0
:10442000E1E0F0E0C82FAF01082E02C0440F551F95
:104430000A94E2F72417350741F0982F8F5F9830E0
:1044400089F789E08093830397CF8093830320913A
:104450003D0430913E042115310519F040E050E053
:1044600008C020914B0430914C0440914D04509170
:104470004E0420937B0330937C0340937D03509341
:104480007E0346015701860E971EA11CB11C809227
:10449000890390928A03A0928B03B0928C03E091DF
:1044A0003804F0913904F0938F03E0938E03B0E069
:1044B0000E94C22C860E971EA81EB91E80929003E1
:1044C00090929103A0929203B092930385E0EE0F35
:1044D000FF1F8A95E1F7E150FE4FEF2FFF27E6958A
:1044E0008E0E9F1EA11CB11C8092840390928503A6
:1044F000A0928603B092870320913A0430913B0446
:104500002115310521F0A90160E070E008C040915B
:104510004704509148046091490470914A04D701BE
:10452000C60188199909AA09BB09840F951FA61FFE
:10453000B71F04C0B695A79597958795CA95D2F7EA
:1045400080937F0390938003A0938103B0938203B1
:10455000853F2FE09207A105B10510F48CE018C04B
:10456000853F9F4FA105B10510F480E111C08091F6
:10457000530490915404A0915504B0915604809333
:10458000900390939103A0939203B093930380E2DE
:1045900080938D0381E0DF91CF91FF90EF90DF90CA
:1045A000CF90BF90AF909F908F900895CF93DF935F
:1045B000EC016115710561F0FB0101900020E9F744
:1045C0003197AF01461B570B0E94F820811103C0A1
:1045D000CE010E942621CE01DF91CF910895CF9385
:1045E000DF93EC01FB0144815581608171810E9460
:1045F000F820811103C0CE010E942621CE01DF9157
:10460000CF910895EF92FF920F931F93CF93DF9373
:10461000EC017B018A01BA010E94D120811104C002
:10462000CE010E94262107C01D830C83B70188811B
:1046300099810E943632CE01DF91CF911F910F9167
:10464000FF90EF900895CF93DF93EC016115710512
:1046500059F0FB0101900020E9F73197AF01461BAB
:10466000570B0E94022302C00E942621CE01DF9137
:10467000CF910895FC01808191810C94AE30EF922E
:10468000FF920F931F93CF93DF93CDB7DEB7A19720
:104690000FB6F894DEBF0FBECDBF7C01CB01BA01CF
:1046A000F70111821082138212821582148242E075
:1046B000420F8E010F5F1F4F0E94E328BC01C7010C
:1046C0000E942323A1960FB6F894DEBF0FBECDBF84
:1046D000DF91CF911F910F91FF90EF9008950F936D
:1046E0001F93CF93DF93CDB7DEB729970FB6F8941A
:1046F000DEBF0FBECDBF8C01862FF8011182108264
:10470000138212821582148250E0BE016F5F7F4FC8
:1047100090E00E940329BE016F5F7F4FC8010E9495
:10472000232329960FB6F894DEBF0FBECDBFDF91CD
:10473000CF911F910F910895FB01DC0111961C92FE
:104740001E9213961C921E92129715961C921E9200
:1047500014978617970749F060817181611571057B
:1047600021F0448155810C9402230895DC01ED91E0
:10477000FC91DB0114964D915C9115976D917C91A4
:104780000280F381E02D09946115710579F0FB0138
:1047900001900020E9F73197AF01461B570BDC0170
:1047A000ED91FC910280F381E02D099480E090E08E
:1047B00008954F925F926F927F928F929F92AF92E5
:1047C000BF92CF92DF92EF92FF926B017C01B42EE9
:1047D0009B01AC010E947A2E882319F066EE71E0ED
:1047E00027C026013701E89477F82FEF3FEF4FE716
:1047F0005FE7C301B2010E947A2E81110DC02FEF35
:104800003FEF4FE75FE7C301B2010E949E2B1816EE
:104810001CF46AEE71E00CC02FEF3FEF4FE75FE44E
:10482000C701B6010E94752E181694F46EEE71E061
:104830008EE094E0FF90EF90DF90CF90BF90AF902C
:104840009F908F907F906F905F904F900C94C423B7
:104850002FEF3FEF4FE75FECC701B6010E949E2BA1
:1048600087FDE4CF20E030E0A901C701B6010E9436
:104870009E2B87FF11C0E0910E04F0910F04019070
:10488000F081E02D6DE28EE094E009954C01F7FA9D
:10489000F094F7F8F09402C0812C912CA12C60E0E8
:1048A00070E080E09FE3AB1441F020E030E040E2B4
:1048B00051E40E94802DA394F6CF9B01AC01C70167
:1048C000B6010E94142D2B013C010E94F22D6B01B8
:1048D0007C010E94A32B9B01AC01C301B2010E9489
:1048E000132D2B013C014AE0C701B6010E94632051
:1048F0007C01E80CF91CBB2069F0E0910E04F091FA
:104900000F040190F081E02D6EE28EE094E00995B5
:10491000E80EF91EDB2CDD2021F120E030E040E242
:1049200051E4C301B2010E94042C2B013C010E94FE
:10493000F22D4B01A12CB12C4AE0C501B4010E941B
:104940006320E80EF91EC501B4010E94A32B9B0150
:10495000AC01C301B2010E94132D2B013C01DA947A
:10496000DACFC701FF90EF90DF90CF90BF90AF906C
:104970009F908F907F906F905F904F9008950C94D0
:10498000C42385EC93E00E943A238BEC93E00C94D3
:104990003A23789484B5826084BD84B5816084BDF7
:1049A00085B5826085BD85B5816085BD80916E00CD
:1049B000816080936E0010928100809181008260FE
:1049C000809381008091810081608093810080913B
:1049D00080008160809380008091B100846080932A
:1049E000B1008091B00081608093B00080917A0026
:1049F000846080937A0080917A00826080937A004C
:104A000080917A00816080937A0080917A0080683A
:104A100080937A001092C100E091DB02F091DC02F9
:104A200082E08083E091D702F091D8021082E09179
:104A3000D902F091DA0280E180831092E302E091E2
:104A4000DF02F091E00286E08083E091DD02F091E8
:104A5000DE02808180618083E091DD02F091DE02E0
:104A6000808188608083E091DD02F091DE028081A8
:104A700080688083E091DD02F091DE0280818F7D8D
:104A80008083C8E0D0E061E082E00E943018219786
:104A9000D1F70E94E3020E948121DD24D394D092B9
:104AA0005E02D8E6D093800210925F0210928102DB
:104AB00060E083EB93E00E94A6010E947D1E61E00E
:104AC00070E088E690E00E94321E83EB93E00E9443
:104AD0005A0187FF7DC080EB91E00E945810C82FDB
:104AE0008BEA91E00E945810182F83EB91E00E940E
:104AF0005810082F86EB91E00E945810F82E89EB91
:104B000091E00E945810E82ED0925E02D09380026D
:104B100010925F021092810260E083EB93E00E94AA
:104B2000A601DAE08E2D6D2F0E948F2E482F880F60
:104B3000480F440F642F6E0D83EB93E00E94A60193
:104B40008F2D6D2F0E948F2E382F880F380F330F27
:104B5000632F6F0D83EB93E00E94A601802F6D2FD2
:104B60000E948F2E282F880F280F220F622F600F90
:104B700083EB93E00E94A60160E083EB93E00E9448
:104B8000A601812F6D2F0E948F2E982F880F980FCE
:104B9000990F692F610F83EB93E00E94A60169E0F2
:104BA00083EB93E00E94A6018C2F6D2F0E948F2E25
:104BB000682F660F680F660F6C0F83EB93E00E94FF
:104BC000A60160E083EB93E00E94A6010E947D1E97
:104BD0001092D60386E78093DB0383E08093DC03A7
:104BE00084E08093DD0385E08093E0038093DE031F
:104BF0008093DF0385EF93E09093E2038093E103DA
:104C00008FE090E09093E4038093E3038BE390E0E4
:104C10009093E6038093E5030E94812189E80E9436
:104C20002E1FC82F88E80E942E1F2C2F30E0322F15
:104C30002227280F311D3093E8032093E7038BE8E8
:104C40000E942E1FC82F8AE80E942E1F2C2F30E0B2
:104C5000322F2227280F311D3093EA032093E903D6
:104C60008DE80E942E1FC82F8CE80E942E1F2C2F2B
:104C700030E0322F2227280F311D3093EC03209390
:104C8000EB038FE80E942E1FC82F8EE80E942E1F74
:104C90002C2F30E0322F2227280F311D3093EE03C6
:104CA0002093ED0381E90E942E1FC82F80E90E9406
:104CB0002E1F2C2F30E0322F2227280F311D30934A
:104CC000F0032093EF0383E90E942E1FC82F82E98F
:104CD0000E942E1F2C2F30E0322F2227280F311D4B
:104CE0003093F2032093F10385E90E942E1FC82F11
:104CF00084E90E942E1F2C2F30E0322F2227280F0C
:104D0000311D3093F4032093F30387E90E942E1F93
:104D1000C82F86E90E942E1F2C2F30E0322F222729
:104D2000280F311D3093F6032093F50389E90E9483
:104D30002E1FC82F88E90E942E1F2C2F30E0322F03
:104D40002227280F311D3093F8032093F7038BE9B6
:104D50000E942E1FC82F8AE90E942E1F2C2F30E0A0
:104D6000322F2227280F311D3093FA032093F903A5
:104D70008DE90E942E1FC82F8CE90E942E1F2C2F18
:104D800030E0322F2227280F311D3093FC0320936F
:104D9000FB038FE90E942E1FC82F8EE90E942E1F51
:104DA0002C2F30E0322F2227280F311D3093FE03A5
:104DB0002093FD0381EA0E942E1F8093FF0382EE61
:104DC0000E942E1FC82F81EE0E942E1F2C2F30E034
:104DD000322F2227280F311D309301042093000425
:104DE00083EE0E942E1F8093020484EE0E942E1FE9
:104DF000C82F85EE0E942E1F8F70282F30E0C9012A
:104E000040E1C49F800D911D112490930404809370
:104E1000030486EE0E942E1FC82F85EE0E942E1FCF
:104E200082958F70282F30E0C90140E1C49F800D2A
:104E3000911D1124909306048093050487EE0E942F
:104E40002E1F809307046091DD0384E0689FB0010A
:104E500011246C7185EF0E9438216091E003677026
:104E600082EF0E9438212091DE0340E2249F9001CE
:104E700011246091DC036370622B9091DF0324E0C6
:104E8000929FC00111248C71682B84EF0E943821FD
:104E900080ED0E942E1F803639F481E090E09093DF
:104EA0000D0480930C0404C010920D0410920C04A5
:104EB00020E042E060E18EE094E00E94FD1060E0BE
:104EC00082E00E9429206CEB71E08EE094E00E9469
:104ED000BF2461E082E00E94292062EC71E08EE054
:104EE00094E00E94BF2460E08DE00E94292067ECDE
:104EF00071E08EE094E00E94BF2461E08DE00E94AA
:104F0000292069EC71E08EE094E00E94BF246BECF4
:104F100071E08BEC92E00E94BF246FED71E08BECAE
:104F200092E00E94BF2462EE71E08BEC92E00E945E
:104F3000C42366E971E08BEC92E00E94C4236AEF1F
:104F400070E085E090E00E9447040E9474040E9493
:104F50007317FBCFCF931092CE021092CD0288EE42
:104F600093E0A0E0B0E08093CF029093D002A093B2
:104F7000D102B093D20221E231E03093CC022093EF
:104F8000CB0225EC30E03093D8022093D70224ECFA
:104F900030E03093DA022093D90220EC30E03093F5
:104FA000DC022093DB0221EC30E03093DE02209320
:104FB000DD0222EC30E03093E0022093DF0226ECA9
:104FC00030E03093E2022093E1021092E40210926A
:104FD000E5021092E6021092E70220E520936803B2
:104FE0001092690310926F03109270031092730372
:104FF0001092750342E050E060E070E04093760369
:1050000050937703609378037093790310928D0324
:10501000109297031092960323E331E030939503A7
:1050200020939403109299031092B6031092B50343
:105030008093B7039093B803A093B903B093BA03D6
:105040008FE391E09093B4038093B3031092110423
:10505000109210048FE691E090930F0480930E0459
:1050600010921E048FEF80931D0410921C04109266
:105070001F048FE38093190410921A0410921B04EA
:10508000109218041092170484E08093200482E0A8
:105090008093210481E080932204C0E1C093230423
:1050A00080E28093240480E48093250480E8809348
:1050B000260440E050E063E08EE094E00E94F10EB0
:1050C0001092D6031092E2031092E1031092E403CF
:1050D0001092E3031092E6031092E50310920D0480
:1050E00010920C041092D5031092D1031092D303A6
:1050F0001092D2031092CC031092CB031092CE03E5
:105100001092CD031092D0031092CF0340E050E0F4
:1051100068E971E08BEC93E00E9402231092C603D1
:105120001092C5031092C8031092C7031092CA03CD
:105130001092C90340E050E068E971E085EC93E02B
:105140000E940223C093C4038CE18093C30386E0D2
:105150008093C20320E081E697E9E3E9FEEF31E0C6
:10516000422F437009F030E061E0620F432F50E0BE
:10517000DA01A359BE4F8A179B0738F09F01241B01
:10518000350B820F931F262FEACF2093BF0321E018
:10519000E22FF0E0E553FE4FE491332319F0223083
:1051A00009F4EF5FF0E041E0420F8E179F0720F017
:1051B0008E1B9F0B242FECCF2093C0038F5F809317
:1051C000C103CF910895EF920F931F93CF93DF9375
:1051D000E80147FD02C034E001C034E1E42F440F90
:1051E000FF0BF7FF03C0F195E195F109E32E022FC4
:1051F0002E2FAE010E942829CE01DF91CF911F9161
:105200000F91EF9008954532510520F4423010F08F
:105210000C940E29FB011082CB010895BB27FB01E2
:105220005527AA27880F991FAA1FA41710F0A41B9F
:1052300083955051B9F7A05DAA3308F0A95DA193F9
:10524000009779F7B111B1931192CB010C948E2B89
:105250004F925F926F927F929F92AF92BF92CF9246
:10526000DF92EF92FF920F931F93CF93DF93CDB70F
:10527000DEB729970FB6F894DEBF0FBECDBF6A0127
:10528000122FB02E2BE3201720F0FF24F394F00E02
:1052900002C0BCE3FB2E0F2D27E0AE014F5F5F4F36
:1052A0000E94B62AAC018981982F9970913031F013
:1052B000E1FC06C0E0FE06C090E205C09DE203C02E
:1052C0009BE201C090E0EE2DE07183FF3CC09111A4
:1052D00002C083E001C084E0811718F4212F281B4D
:1052E00001C020E0E1110BC0F601822F30E28823DB
:1052F00019F031938150FBCFC20ED11C20E09923CD
:1053000029F0D6019C93F60131966F01C6010396F0
:10531000E2FE0AC03EE4D6013C9341E411964C9370
:10532000119712963C9306C03EE6F601308341E6A3
:1053300041833283FC01322F40E2332309F442C01F
:1053400041933150FACF82FF44C0911102C083E0F3
:1053500001C084E0811718F4212F281B01C020E030
:10536000E1110BC0F601822F30E2882319F031934E
:105370008150FBCFC20ED11C20E0992329F0D60129
:105380009C93F60131966F01C6010396E2FE0BC0B5
:1053900039E4D6013C933EE411963C93119736E4F0
:1053A00012963C9307C039E6F60130833EE631831E
:1053B00036E63283FC01322F40E2332319F0419369
:1053C0003150FBCFFC01E20FF11D10828EEF9FEFF9
:1053D000B7C0F1E0911101C0F0E06F2F70E014163A
:1053E000150624F49A012F5F3F4F02C021E030E000
:1053F000260F371FBB2029F06B2D70E06F5F7F4FAA
:1054000002C060E070E0260F371F612F70E02617A2
:1054100037071CF4121B212F01C020E03E2D3871EC
:1054200059F4D601322F60E2332319F06D933150D5
:10543000FBCFC20ED11C20E0FF2331F0D6019C939C
:10544000B6016F5F7F4F6B01E1110BC0F601922F28
:1054500030E3992319F031939150FBCFC20ED11C48
:1054600020E09F2D940F3A81782F7071A72E84FF32
:1054700003C0313309F49150191624F4993018F00F
:1054800098E001C091E0E42F852F57FF02C0E0E0D3
:1054900080E06E2F782FE0E0F0E0AEE29A2E3A0145
:1054A000691A71082A01461A570A0B2D10E0119546
:1054B000019511096F3F8FEF780729F4D6019C926F
:1054C000C60101966C014617570784F066167706E9
:1054D0006CF47F01E40CF51CA1E0B0E0AC0FBD1F43
:1054E000EA0EFB1ED7011196BC9002C090E3B92EC4
:1054F000615071093196C60101967C0160177107F0
:1055000024F0D601BC926C01D5CF6417750741F425
:10551000363320F4353321F4A11002C081E3B82ED4
:10552000F601B082F701822F90E2882319F091935F
:105530008150FBCFF701E20FF11D108280E090E077
:1055400029960FB6F894DEBF0FBECDBFDF91CF9185
:105550001F910F91FF90EF90DF90CF90BF90AF9091
:105560009F907F906F905F904F900895283008F043
:1055700027E03327DA01990F311D87FD91600096EE
:105580006105710539F432602E5F3D9330E32A9551
:10559000E1F708959F3F30F080387105610509F00B
:1055A0003C5F3C5F3D93913008F08068911DDF9334
:1055B000CF931F930F93FF92EF92192F987F969599
:1055C000E92F96959695E90FFF27EE53FF4F992700
:1055D0003327EE24FF24A701E701059008940794E0
:1055E00028F4360FE71EF81E491F511D660F771F5E
:1055F000881F991F0694A1F70590079428F4E70ED9
:10560000F81E491F561FC11D770F881F991F661F5F
:105610000694A1F70590079428F4F80E491F561F29
:10562000C71FD11D880F991F661F771F0694A1F70A
:105630000590079420F4490F561FC71FD81F990FD4
:10564000661F771F881F0694A9F78491109517701D
:1056500041F0D695C79557954795F794E7941A95D5
:10566000C1F7E8E6F0E068941590159135916591E1
:10567000959105907FE27395E118F10A430B560B63
:10568000C90BD009C0F7E10CF11E431F561FC91FFB
:10569000D01D7EF4703311F48A95E6CFE894015062
:1056A00030F0080F0AF40027021708F4202F239582
:1056B000022F7A3328F079E37D932A95E9F710C019
:1056C0007D932A9589F60694979567953795179552
:1056D0001794E118F10A430B560BC90BD00998F047
:1056E00023957E9173957A3308F070E37C932013B1
:1056F000B8F77E9170617D9330F0839571E37D936F
:1057000070E32A95E1F71124EF90FF900F911F911C
:10571000CF91DF91992787FD90950895DC01FC01D9
:10572000672F71917723E1F7329704C07C916D93D5
:1057300070836291AE17BF07C8F308950E94E02BF3
:1057400008F481E00895E89409C097FB3EF4909531
:105750008095709561957F4F8F4F9F4F9923A9F04A
:10576000F92F96E9BB279395F695879577956795D9
:10577000B795F111F8CFFAF4BB0F11F460FF1BC01D
:105780006F5F7F4F8F4F9F4F16C0882311F096E9B0
:1057900011C0772321F09EE8872F762F05C066235E
:1057A00071F096E8862F70E060E02AF09A95660F17
:1057B000771F881FDAF7880F9695879597F90895D0
:1057C000990F0008550FAA0BE0E8FEEF1616170612
:1057D000E807F907C0F012161306E407F50798F07A
:1057E000621B730B840B950B39F40A2661F0232B93
:1057F000242B252B21F408950A2609F4A140A6950F
:105800008FEF811D811D08950E94172C0C94882C08
:105810000E947A2C38F00E94812C20F0952311F000
:105820000C94712C0C94772C11240C94BC2C0E9499
:10583000992C70F3959FC1F3950F50E0551F629F0F
:10584000F001729FBB27F00DB11D639FAA27F00DD9
:10585000B11DAA1F649F6627B00DA11D661F829F00
:105860002227B00DA11D621F739FB00DA11D621FE5
:10587000839FA00D611D221F749F3327A00D611D02
:10588000231F849F600D211D822F762F6A2F1124E4
:105890009F5750409AF0F1F088234AF0EE0FFF1F17
:1058A000BB1F661F771F881F91505040A9F79E3F6E
:1058B000510580F00C94712C0C94BC2C5F3FE4F3E8
:1058C000983ED4F3869577956795B795F795E795C4
:1058D0009F5FC1F7FE2B880F911D9695879597F9CD
:1058E000089597F99F6780E870E060E008959FEF62
:1058F00080EC089500240A94161617061806090667
:10590000089500240A941216130614060506089535
:10591000092E0394000C11F4882352F0BB0F40F4BD
:10592000BF2B11F460FF04C06F5F7F4F8F4F9F4FFD
:10593000089557FD9058440F551F59F05F3F71F07F
:105940004795880F97FB991F61F09F3F79F08795E6
:105950000895121613061406551FF2CF4695F1DF6F
:1059600008C0161617061806991FF1CF86957105FF
:10597000610508940895E894BB2766277727CB0133
:1059800097F908950E94042DA59F900DB49F900D46
:10599000A49F800D911D112408952F923F924F9244
:1059A0005F926F927F928F929F92AF92BF92CF92AF
:1059B000DF92EF92FF920F931F93CF93DF93CDB7B8
:1059C000DEB7CA1BDB0B0FB6F894DEBF0FBECDBF30
:1059D00009942A88398848885F846E847D848C8401
:1059E0009B84AA84B984C884DF80EE80FD800C810A
:1059F0001B81AA81B981CE0FD11D0FB6F894DEBFED
:105A00000FBECDBFED010895A29FB001B39FC001AD
:105A1000A39F700D811D1124911DB29F700D811DDA
:105A20001124911D08955058BB27AA270E942B2DA1
:105A30000C94882C0E947A2C38F00E94812C20F043
:105A400039F49F3F19F426F40C94772C0EF4E0956A
:105A5000E7FB0C94712CE92F0E94992C58F3BA178C
:105A6000620773078407950720F079F4A6F50C9474
:105A7000BB2C0EF4E0950B2EBA2FA02D0B01B90113
:105A800090010C01CA01A0011124FF27591B99F0B4
:105A9000593F50F4503E68F11A16F040A22F232FC0
:105AA000342F4427585FF3CF469537952795A79510
:105AB000F0405395C9F77EF41F16BA0B620B730BB7
:105AC000840BBAF09150A1F0FF0FBB1F661F771F28
:105AD000881FC2F70EC0BA0F621F731F841F48F4DD
