:100000000C9464000C948C000C948C000C948C0068
:100010000C948C000C948C000C948C000C948C0030
:100020000C948C000C948C000C948C000C948C0020
:100030000C948C000C948C000C948C000C948C0010
:100040000C94810B0C948C000C94330A0C94EB08E8
:100050000C948C000C948C000C948C000C948C00F0
:100060000C94F9060C948C001F1C1F1E1F1E1F1FD2
:100070001E1F1E1F000000080002010000030407ED
:100080000000000000000000000000002500280023
:100090002B0000000000240027002A0004040404B0
:1000A0000404040402020202020203030303030322
:1000B00001020408102040800102040810200102FF
:1000C00004081020F516B61211241FBECFEFD8E099
:1000D000DEBFCDBF25E0AEEAB1E001C01D92AE3A71
:1000E000B207E1F711E0A0E0B1E0EEEEF8E302C004
:1000F00005900D92AE3AB107D9F710E0C3E6D0E013
:1001000004C02197FE010E94581AC236D107C9F7D0
:100110000E94C8120C946A1C0C94000085ED809318
:10012000BC008091BC0084FDFCCF10928302089536
:100130004091F401262F30E0240F311D213231058A
:10014000DCF4209183022430C9F4FC0180E090E0CB
:10015000861758F43091F4012191DC01AE52BE4F64
:10016000A30FB11D2C930196F3CF8091F401680F7A
:100170006093F40180E0089581E0089582E008959D
:100180000895E0913C0280913B02E81730F4F0E0E2
:10019000E35CFD4F808190E008958FEF9FEF08951D
:1001A00090913C0280913B02981750F4E92FF0E0C7
:1001B000E35CFD4F208130E09F5F90933C0202C0E2
:1001C0002FEF3FEFC901089580913B0290E020910D
:1001D0003C02821B91090895CF92DF92EF92FF9229
:1001E0000F931F93CF93DF937C01262F972F8A01C4
:1001F0008091D101882391F0C62FD72F6E01C40EB4
:10020000D51ECC15DD0571F06991D701ED91FC91FA
:100210000190F081E02DC7010995F3CF642F822F63
:100220000E949800C801DF91CF911F910F91FF901C
:10023000EF90DF90CF900895CF93DF931F92CDB7CB
:10024000DEB769832091D1012223D1F02091D00122
:10025000203240F021E030E0FC013383228380E053
:1002600090E015C08091CF01E82FF0E0E155FE4FFE
:10027000998190838F5F8093CF018093D00105C0D7
:1002800061E0CE0101960E94980081E090E00F901D
:10029000DF91CF910895089580E090E008958FB7A1
:1002A000F89480911B028FBF089561E0FC01848166
:1002B0000E94EF0A80911A02811110921A02089589
:1002C0008EBD00000DB407FEFDCF8EB508958FEFF3
:1002D0000C9460010F931F93CF93DF93EB010E9467
:1002E000750B8B010E9467018F3F49F00E94750BCF
:1002F000601B710B6C177D07A8F380E001C081E0E3
:10030000DF91CF911F910F910895CF93DF93EC016F
:100310008E81882389F08F8198859C012F5F3F4FC4
:1003200038872F838230924018F40E946701F3CF00
:10033000CE010E9455011E82DF91CF9108958CBDA0
:100340009DBD0895CF93DF93EC0180911A02811136
:1003500009C081E080931A028091230590912405C1
:100360000E949F0160E08C81DF91CF910C94EF0A95
:10037000CF92DF92FF920F931F93CF93DF9300D022
:1003800000D0CDB7DEB76C01F62E29833A834B83BC
:100390005C830E948501C6010E94A2016CE271E0AB
:1003A000C6010E946A018F2D80640E94600108E1ED
:1003B00010E05C814B813A812981DA01C901002E6C
:1003C00004C0B695A795979587950A94D2F7298387
:1003D0003A834B835C830E94600108501109298194
:1003E0003A814B815C81083F8FEF180731F7FF207E
:1003F00029F0E8E0FE1204C087E803C085E901C0E7
:100400008FEF0E94600110E00E946701F601828771
:1004100087FF04C01F3F11F01F5FF6CF0F900F90B2
:100420000F900F90DF91CF911F910F91FF90DF9070
:10043000CF900895EF92FF920F931F93CF93DF9386
:10044000EC017901411551056105710511F482E155
:100450003CC08B85833039F089E0440F551F661FFF
:10046000771F8A95D1F79A01AB0168E1CE010E940E
:10047000B801882311F084E028C08EEF0E9460014B
:1004800087018EEFF81AF80181918F010E946001B7
:100490000E151F05C1F78FEF0E9460018FEF0E94BC
:1004A00060010E9467018A878F71853031F081E198
:1004B0008D83CE010E94550109C068E572E0CE012E
:1004C0000E946A01811107C085E18D83CE010E94DF
:1004D000550180E013C020E030E0A9016DE0CE01BD
:1004E0000E94B801811104C00E946701882311F0A5
:1004F00084E1EBCFCE010E94550181E0DF91CF91E5
:100500001F910F91FF90EF90089580912D02882305
:10051000A9F1409100015091010160910201709197
:10052000030124E832E080918404909185040E94C4
:100530001A02811102C080E0089540912E0250916C
:100540002F02609130027091310241155105610511
:10055000710591F024E832E0809184049091850443
:100560000E941A02882339F310922E0210922F0251
:10057000109230021092310210922D0281E0089503
:10058000BF92CF92DF92EF92FF920F931F93CF9380
:10059000DF936B017C01B42E8091000190910101E9
:1005A000A0910201B09103018C159D05AE05BF0518
:1005B00009F476C00E948502882309F478C0C091AE
:1005C0008404D09185048E81882369F08881998183
:1005D000AA81BB81C816D906EA06FB0621F48F81E1
:1005E0009885892BB1F1C882D982EA82FB828B85FA
:1005F000A7019601833039F089E0220F331F441F91
:10060000551F8A95D1F761E1CE010E94B801882378
:1006100019F083E08D8337C00E94750B8B010E9417
:1006200067018A878F3F49F40E94750B601B710B2D
:100630006D327140A0F38FE003C08E3F31F08DE04A
:100640008D83CE010E9455011EC018861F8281E055
:100650008E8304E812E00E946701F80181938F0104
:10066000F4E004381F07B9F78F8198859E5F98875B
:100670008F832985222319F08115924048F0CE01FD
:100680000E94850105C0CE010E94550180E00FC087
:10069000C0920001D0920101E0920201F0920301A8
:1006A00080912D02482F4B2940932D0281E0DF914C
:1006B000CF911F910F91FF90EF90DF90CF90BF905F
:1006C00008958F929F92AF92BF92CF92DF92EF9256
:1006D000FF920F931F93CF93DF93FC018185928547
:1006E000A385B4850196A11DB11D84179507A607A2
:1006F000B70710F480E05CC083899489A589B68926
:10070000C789C03129F4852E962EA72EBB2409C097
:100710004A015B01C7E0B694A79497948794CA9561
:10072000D1F7E9016A017B018F01BC01CD01680DA0
:10073000791D8A1D9B1D8090000190900101A09061
:100740000201B0900301681579058A059B0599F4AB
:10075000F80187898031A9F4B701A60155276627DA
:100760007727440F551FFA01EC57FD4F8081918187
:10077000A0E0B0E018C040E00E94C0028111E8CFC4
:10078000B9CFB701A6014F77552766277727440FC2
:10079000551F440F551FFA01EC57FD4F8081918181
:1007A000A281B381BF7088839983AA83BB8381E0D0
:1007B000DF91CF911F910F91FF90EF90DF90CF903D
:1007C000BF90AF909F908F9008953F924F925F920D
:1007D0006F927F928F929F92AF92BF92CF92DF9251
:1007E000EF92FF920F931F93CF93DF93CDB7DEB7B6
:1007F0002C970FB6F894DEBF0FBECDBF5C01DC01B5
:100800005B968D909C905C971696CD90DD90ED90C8
:10081000FC901997C114D104E104F10439F0BFEF41
:10082000CB1ADB0AEB0AFB0A312C07C0F401C080AB
:10083000D180E280F38033243394F4018185928562
:10084000A385B4859C01AD012F5F3F4F4F4F5F4F94
:1008500029873A874B875C87260137011D821E82D4
:100860001F821886F40181859285A385B4852D8128
:100870003E814F815885281739074A075B0708F0E2
:1008800063C089859A85AB85BC858C159D05AE05B1
:10089000BF0550F482E0C82ED12CE12CF12C92E05F
:1008A000492E512C612C712C9E012F5F3F4FB701B7
:1008B000A601C4010E946103882309F445C089810F
:1008C0009A81AB81BC81892B8A2B8B2B41F026012D
:1008D00037019FEF491A590A690A790A05C0C414F9
:1008E000D504E604F70491F02D813E814F815885AF
:1008F0002F5F3F4F4F4F5F4F2D833E834F8358876E
:100900003FEFC31AD30AE30AF30AACCF0FEF1FEF8E
:100910002FEF3FE0B301A201C4010E94170D88230D
:1009200099F0D50116964D915D916D917C91199735
:10093000411551056105710549F093018201C4011A
:100940000E94170D811102C080E02AC0D5011696C1
:100950004D925D926D927C921997332051F0D301A4
:10096000C2010196A11DB11DF40180839183A28370
:10097000B383F5018789908DA18DB28D892B8A2B48
:100980008B2B69F4D50157964D925D926D927C92B6
:100990005A9714968C911497806814968C9381E0E2
:1009A0002C960FB6F894DEBF0FBECDBFDF91CF916E
:1009B0001F910F91FF90EF90DF90CF90BF90AF907D
:1009C0009F908F907F906F905F904F903F90089591
:1009D0004F925F926F927F928F929F92AF92BF924F
:1009E000EF92FF920F931F93CF93DF9300D000D02D
:1009F0001F92CDB7DEB78C016D83DC0115968C910B
:100A00001597813009F057C014968C9181FF53C01F
:100A10005AC0038CF48DE02D258530E0275F3F4FD1
:100A20002A013B01B1E04B1A510861087108022EFE
:100A300004C076946794579447940A94D2F7D501EA
:100A4000C4010197A109B10904C0B695A79597956E
:100A500087952A95D2F784159505A605B70508F060
:100A600070C0F8014789508D618D728D4683578320
:100A7000608771872C013D017801E6E0EE0EF11CE4
:100A8000D801411451046104710409F464C016963C
:100A90004D915D916D917C91199797015B968D9128
:100AA0009C915C970E946103B1E04B1A5108610868
:100AB00071088111E5CF81E090E0F8019383828392
:100AC00080E090E04FC182FF0EC0F801428553855F
:100AD0006485758583889488A588B68848155905E6
:100AE0006A057B05F1F4D8011A964D915D916D91DF
:100AF0007C911D975B968D919C915C97FC01748015
:100B00007A944A015B0129E0B694A794979487945C
:100B10002A95D1F778207A01F1E0FF22772011F1B0
:100B200064C081149104A104B10409F072CF16824B
:100B3000178210861186F801128613861486158690
:100B4000D2CF452B462B472B09F48BCF841995091F
:100B5000A609B7098FCF1A968D929D92AD92BC923D
:100B60001D97C1CFE114F10409F03FC0F80146819F
:100B7000578160857185411551056105710549F4FD
:100B80008789908DA18DB28D0097A105B10541F5A2
:100B900021C09E012F5F3F4F0E946103882309F40B
:100BA0008FCF89819A81AB81BC81F801238D348DEF
:100BB000F9012789203129F048EF5FEF6FEF7FE0DF
:100BC00004C048EF5FEF60E070E084179507A60768
:100BD000B70730F0C8010E94E503811106C06BCF52
:100BE000F80186839783A087B187D8015B96ED9142
:100BF000FC915C9716968D909D90AD90BC90199746
:100C0000B2E08B1A9108A108B108058404C0880CD1
:100C1000991CAA1CBB1C0A94D2F786859785A089CB
:100C2000B189880E991EAA1EBB1E870C911CA11C9F
:100C3000B11CE114F10409F5F8014285538564857E
:100C4000758583899489A589B689481759076A07E4
:100C50007B0798F00E948502882309F42CCF8092AC
:100C6000000190920101A0920201B09203018091D3
:100C70002D02816080932D0208C041E0C501B401BE
:100C80000E94C002882309F416CFF701EC57FD4FEC
:100C90008D818083F80182859385A485B585019631
:100CA000A11DB11D82879387A487B5874389548985
:100CB00065897689481759076A077B0738F4838B5B
:100CC000948BA58BB68B848180688483D80114961D
:100CD0008C9183FD03C081E090E044C0F8019581D0
:100CE000992309F4E8CE87FF38C066857785808927
:100CF000918941E00E94C002882309F4DCCED8012A
:100D00005296EC91B0E2EB9F90011124D901AC57BF
:100D1000BD4F109709F4CFCEF8018581823050F491
:100D200043895489658976895C964D935D936D936B
:100D30007C935F97F8018789908DA18DB28DF90121
:100D4000EC57FD4F938F828FB58BA48BD8011496EF
:100D50008C9114978F7714968C930E948502811141
:100D6000BACFA9CE0F900F900F900F900F90DF91F8
:100D7000CF911F910F91FF90EF90BF90AF909F90F8
:100D80008F907F906F905F904F900895CF93CFB7E3
:100D9000F89480911902811124C0E6EAF0E0849170
:100DA000EAEBF0E09491E82FF0E0EE0FFF1FEE5633
:100DB000FF4FA591B491EC91E92321F461E08AE021
:100DC0000E94EF0A8AE00E943C0F8CB580618CBDC6
:100DD0008CB580648CBD8DE00E943C0F8BE00E943E
:100DE0003C0F809119028F5F80931902CFBFCF9182
:100DF00008951F920F920FB60F9211242F933F93D5
:100E00004F935F936F937F938F939F93AF93BF9312
:100E1000EF93FF938091B900887F803609F49CC0DE
:100E200068F5883209F45BC090F4803109F454C04D
:100E300038F4882309F4F6C0883009F44DC0F6C0B0
:100E4000883109F44CC0803209F45DC0EFC08034B1
:100E500009F468C048F4803309F455C0883309F0B8
:100E6000E5C080938102D8C0803509F44FC0883531
:100E700009F45DC0883409F0D9C0D6C0883909F4B6
:100E8000C7C0A8F4883709F467C038F4883609F475
:100E900063C0803709F460C0C9C0883809F4B8C09D
:100EA000803909F45FC0803809F0C0C05BC0803B66
:100EB00009F486C038F4803A09F466C0883A09F427
:100EC0007FC0B4C0803C09F4A7C0883C09F4A4C02A
:100ED000883B09F48AC0AAC080917E0210C090911C
:100EE000800280917F02981770F5E091800281E086
:100EF0008E0F80938002F0E0E35AFD4F8081809353
:100F0000BB0085EC86C0809381028EC0E091800298
:100F100081E08E0F809380028091BB00F0E0E35A65
:100F2000FD4F80839091800280917F026EC0E0919E
:100F3000800281E08E0F809380028091BB00F0E000
:100F4000E35AFD4F80838091820281116DC081E060
:100F500080937D0284EA61C083E0809383021092D3
:100F60001802CFCF80911802803208F051C0E09172
:100F7000180281E08E0F809318028091BB00F0E090
:100F8000E850FE4F8083BDCF85EC8093BC0010926B
:100F9000830280911802803230F4E0911802F0E070
:100FA000E850FE4F10826091180270E0E091F60167
:100FB000F091F70188EF91E009951092180236C080
:100FC00084E0809383021092F5011092F401E09185
:100FD000F201F091F30109958091F401811105C0AE
:100FE00081E08093F4011092D201E091F50181E05B
:100FF0008E0F8093F501F0E0EE52FE4F80818093DA
:10100000BB009091F5018091F401981708F479CF15
:1010100085E88093BC000AC085EC8093BC001092E8
:10102000830204C0109281020E948E00FF91EF9112
:10103000BF91AF919F918F917F916F915F914F91F0
:101040003F912F910F900FBE0F901F9018952091F8
:10105000D0019091AE01213208F04AC08091830204
:101060008111FCCF32E03093830231E03093820271
:101070003FEF309381021092800220937F02AFEA0B
:10108000B1E04DE552E0FA013E2F341B321718F45F
:101090003D913193F9CF10927E0220917E02990FFB
:1010A000922B90937E0290917D02913061F4109288
:1010B0007D0290917E029093BB009091BC0093FDC5
:1010C000F8CF95EC01C095EE9093BC00909183020F
:1010D0009230E1F3909181029F3F79F080918102FB
:1010E000803241F080918102803331F084E005C08C
:1010F00081E003C082E001C083E01092CF01109232
:10110000D0011092D101089581E08093D1016093C4
:10111000AE011092CF011092D001089510923C02BE
:1011200010923B021092CF011092D00110928302D4
:1011300081E08093820210927D0261E082E10E9450
:10114000EF0A61E083E10E94EF0AE9EBF0E08081C1
:101150008E7F808380818D7F808380E28093B80042
:1011600085E48093BC000895CF92DF92EF92FF92C6
:101170000F931F93CF93DF938C01C1E0D0E06B01FD
:10118000770FEE08FF080C171D0794F061E082E06E
:101190000E94EF0AC701B6010E943B0B60E082E0AB
:1011A0000E94EF0AC701B6010E943B0B2196EBCFCC
:1011B000DF91CF911F910F91FF90EF90DF90CF9033
:1011C000089586E894E00E94420921E0892B09F401
:1011D00020E0822F08951F920F920FB60F921124D4
:1011E0002F933F934F935F936F937F938F939F932F
:1011F000AF93BF93EF93FF9386E894E00E94650A54
:10120000FF91EF91BF91AF919F918F917F916F91DE
:101210005F914F913F912F910F900FBE0F901F90B4
:101220001895FC01538D448D252F30E0842F90E0DC
:10123000821B930B541710F0CF96089501970895D1
:10124000FC01918D828D981761F0828DDF01A80FCE
:10125000B11D5D968C91928D9F5F9F73928F90E0F0
:1012600008958FEF9FEF0895FC01918D828D98175F
:1012700031F0828DE80FF11D858D90E008958FEF9C
:101280009FEF0895FC01918D228D892F90E0805C65
:101290009F4F821B91098F739927089580E090E0FA
:1012A000892B29F00E94E10881110C940000089517
:1012B0003FB7F8948091370290913802A09139029B
:1012C000B0913A0226B5A89B05C02F3F19F00196B0
:1012D000A11DB11D3FBFBA2FA92F982F8827820FBC
:1012E000911DA11DB11DBC01CD0143E0660F771F0B
:1012F000881F991F4A95D1F7089521E001C0220F58
:101300006A95EAF7DC011C962C931C971A965C935D
:101310004E931997ED91FC910484F585E02D60E0E2
:101320000994DC01ED91FC910684F785E02D41E004
:10133000099581E090E00895089508950E94551C54
:10134000CF93DF93FC0123812223B1F0EC01818153
:1013500080956823608362818CE995E00E9484080F
:1013600068818CE995E00E941C018CE995E00E945F
:101370002708282F30E002C020E030E081E090E034
:10138000232B11F080E090E0DF91CF910895EF9250
:10139000FF920F931F93CF938C01FC01759684E00D
:1013A000C0E060FF02C09081C92B669581503196E4
:1013B0008111F7CF413011F4F8014489F801858596
:1013C000C82BC42B7801FEE0EF0EF11CF8016289F6
:1013D0006C2BC7010E94A009F801628960956C23FB
:1013E000C701CF911F910F91FF90EF900C94A0092E
:1013F0000F931F93CF93DF93062F0F70423019F492
:1014000040E0602F10C0142F262FEC0130E0B9010E
:1014100084E0759567958A95E1F7CE010E94C7092A
:10142000412F602FCE01DF91CF911F910F910C942E
:10143000C709FC0184858823A9F0218532852115FF
:10144000310519F4611106C007C02130310521F4BE
:10145000611102C0858701C015866585CF010E9692
:101460000C94A00908951F920F920FB60F921124A9
:101470002F938F939F93EF93FF93E0919604F091B6
:1014800097048081E0919C04F0919D0482FD12C03C
:10149000908180919F048F5F8F732091A0048217A9
:1014A00051F0E0919F04F0E0EA57FB4F958F809355
:1014B0009F0401C08081FF91EF919F918F912F91A7
:1014C0000F900FBE0F901F901895FC01848DDF01C7
:1014D000A80FB11DA35ABF4F2C91848D90E00196A7
:1014E0008F739927848FA689B7892C93A089B18996
:1014F0008C9180648C93938D848D981306C00288A0
:10150000F389E02D80818F7D80830895EF92FF9293
:101510000F931F93CF93DF93EC0181E0888F9B8D16
:101520008C8D981305C0E889F989808185FD24C0D8
:10153000F62E0B8D10E00F5F1F4F0F731127E02E5B
:101540008C8DE8120CC00FB607FCFACFE889F98938
:10155000808185FFF5CFCE010E94650AF1CF8B8D8A
:10156000FE01E80FF11DE35AFF4FF0820B8FEA896D
:10157000FB898081806207C0EE89FF896083E889EA
:10158000F98980818064808381E090E0DF91CF9150
:101590001F910F91FF90EF900895CF93DF93EC018F
:1015A000888D8823C9F0EA89FB89808185FD05C083
:1015B000A889B9898C9186FD0FC00FB607FCF5CFBD
:1015C000808185FFF2CFA889B9898C9185FFEDCF05
:1015D000CE010E94650AE7CFDF91CF91089590E098
:1015E000FC01EC58FF4F3491FC01E055FF4F249172
:1015F000FC01E456FF4FE491EE2309F43BC0332392
:1016000039F1333091F038F43130A9F0323001F54E
:1016100084B58F7D12C0373091F03830A1F034306E
:10162000B9F4809180008F7D03C0809180008F7716
:10163000809380000DC084B58F7784BD09C08091F0
:10164000B0008F7703C08091B0008F7D8093B00091
:10165000F0E0EE0FFF1FE857FF4FA591B4918FB751
:10166000F894EC91611103C020952E2301C02E2B1C
:101670002C938FBF08958F929F92AF92BF92CF927B
:10168000DF92EF92FF926B017C010E9458094B019F
:101690005C01C114D104E104F104F1F00E94580985
:1016A000DC01CB0188199909AA09BB09883E93403E
:1016B000A105B10570F321E0C21AD108E108F108D3
:1016C00088EE880E83E0981EA11CB11CC114D104C1
:1016D000E104F10419F7DDCFFF90EF90DF90CF9098
:1016E000BF90AF909F908F9008952FB7F89460911E
:1016F00033027091340280913502909136022FBFEF
:1017000008951F920F920FB60F9211242F933F93BB
:101710008F939F93AF93BF93809133029091340244
:10172000A0913502B09136023091320226E0230FAB
:101730002D3720F40296A11DB11D05C029E8230F05
:101740000396A11DB11D2093320280933302909322
:101750003402A0933502B093360280913702909103
:101760003802A0913902B0913A020196A11DB11D33
:101770008093370290933802A0933902B0933A02D3
:10178000BF91AF919F918F913F912F910F900FBE7D
:101790000F901F901895DC01ED91FC910684F78560
:1017A000E02D40E009940F931F93CF93DF93EC015A
:1017B000423018F08C8188608C834F8368872223A5
:1017C00029F0413019F48C8184608C8364E670E0E8
:1017D00080E090E00E943B0B6C8164FD31C0E881A9
:1017E000F9810684F785E02D42E063E0CE0109959A
:1017F00084E293E20197F1F7E881F9810684F785A5
:10180000E02D42E063E0CE01099508E211E0C80155
:101810000197F1F7E881F9810684F785E02D42E030
:1018200063E0CE010995C8010197F1F7E881F981DC
:101830000684F785E02D42E062E0CE01099517C0ED
:101840006062CE010E94CB0B84E293E20197F1F734
:101850006C816062CE010E94CB0B08E211E0C801EE
:101860000197F1F76C816062CE010E94CB0BC80139
:101870000197F1F76C816062CE010E94CB0B84E787
:1018800090E00197F1F784E08D836CE0CE010E9437
:10189000CB0B61E0CE010E94CB0B8CE99FE001975E
:1018A000F1F782E08E8366E0CE010E94CB0BE881E7
:1018B000F9810484F585E02D6FEFCE01DF91CF91A2
:1018C0001F910F910994FF920F931F93CF93DF9372
:1018D000EC01162F042FF22E8B85888B8CE995E076
:1018E0000E948E0868898CE995E00E9484088CE942
:1018F00095E00E94270891E0811190E0998B99234F
:1019000029F08CE995E00E94D0008E878989882390
:1019100039F01F861C8260E0CE010E960E94A0095D
:101920002F2D402F612FCE01DF91CF911F910F916D
:10193000FF900C94D30B50E0E8E6F0E021E02E1B82
:10194000322F3E0F361728F43491430F511D319634
:10195000F7CF633038F09C0123703327232B11F429
:101960004F5F5F4F2DE631E0829FB001839F700D86
:10197000929F700D1124615071099C012D5F3F4FA2
:101980003695279536952795CB01820F931F840FA7
:10199000951F0895EF92FF920F931F93CF93DF93BC
:1019A000EC0188814A81698190E00E949B0C9C0136
:1019B000A8E1B0E00E94EF182B817B018C01E20EC0
:1019C000F11C011D111DA8019701ACE3B0E00E94BC
:1019D000AD182C817B018C01E20EF11C011D111D43
:1019E000A80197010E94AD182D81620F711D811D04
:1019F000911DDF91CF911F910F91FF90EF9008956E
:101A00009C01F9012F5F3F4F90819F7E9032C9F377
:101A100080E0219190ED920F9A3040F4880F982F3A
:101A2000990F990F890F8053820FF3CF08954F922A
:101A30005F926F927F928F929F92AF92BF92CF925E
:101A4000DF92EF92FF920F931F93CF93DF93EC01FE
:101A50006A017B0128013901423051056105710598
:101A600010F480E073C089859A85AB85BC850196AA
:101A7000A11DB11D84179507A607B70790F38B88A2
:101A80009C88AD88BE888F89803129F4BB27AF2D13
:101A90009E2D8D2D09C0DB01CA0147E0B695A795A3
:101AA000979587954A95D1F7880E991EAA1EBB1E59
:101AB0008091000190910101A0910201B091030178
:101AC00088169906AA06BB0679F48F898031A1F49D
:101AD000DD24EE24FF24C601880F991FFC01EC577A
:101AE000FD4F5182408219C040E0C501B4010E94FF
:101AF000C0028111EACFB5CFE894C7F8DD24EE2407
:101B0000FF24C601880F991F880F991FFC01EC570D
:101B1000FD4F408251826282738280912D028160EA
:101B200080932D028A89823080F08D819E81AF81E1
:101B3000B885880E991EAA1EBB1E80922E02909216
:101B40002F02A0923002B092310281E0DF91CF915A
:101B50001F910F91FF90EF90DF90CF90BF90AF90CB
:101B60009F908F907F906F905F904F9008958F928D
:101B70009F92AF92BF920F931F93CF93DF93CDB7F6
:101B8000DEB7A1970FB6F894DEBF0FBECDBF19A286
:101B9000423008F44AE08E010F5D1F4F842E912CD5
:101BA000A12CB12CA50194010E94361AE62FB9018F
:101BB000CA0101501109EA3014F4E05D01C0E95C8A
:101BC000D801EC93232B242B252B61F7B80183E854
:101BD00095E00E94A112A1960FB6F894DEBF0FBE49
:101BE000CDBFDF91CF911F910F91BF90AF909F908C
:101BF0008F900895CF93DF93BC0186E894E00E9414
:101C0000A112EC016FE971E086E894E00E94A11254
:101C10008C0F9D1FDF91CF9108958F929F92AF926D
:101C2000BF92CF92DF92EF92FF92CF93DF93C82FB4
:101C300085E295E09093850480938404CC2369F138
:101C4000C53010F080E00DC140E060E070E0CB01F5
:101C50000E94C0028823B1F320E1C29FC001112479
:101C60008C589D4FFC01E254FE4F20812F7751F795
:101C70003C964081518162817381443651056105F2
:101C8000710500F33497C080D180E280F380C114E5
:101C9000D104E104F10421F4D5CFC12CD12C76017B
:101CA00040E0C701B6010E94C002882359F280912A
:101CB0008F02909190028115924021F6A09194029A
:101CC000AA2309F4BFCF609192027091930261152B
:101CD000710509F4B7CF20919102222309F4B2CF04
:101CE000A09343052093350580E030E0E1E0F0E08B
:101CF000C82FAF01082E02C0440F551F0A94E2F707
:101D00002417350741F0982F8F5F983089F789E0C5
:101D100080933E0597CF80933E0520919A023091A3
:101D20009B022115310519F040E050E008C02091D8
:101D3000A8023091A9024091AA025091AB022093CF
:101D400036053093370540933805509339054601E1
:101D50005701860E971EA11CB11C809244059092DB
:101D60004505A0924605B0924705E0919502F09195
:101D70009602F0934A05E0934905B0E00E94AD1841
:101D8000860E971EA81EB91E80924B0590924C0598
:101D9000A0924D05B0924E0585E0EE0FFF1F8A958B
:101DA000E1F7E150FE4FEF2FFF27E6958E0E9F1EC5
:101DB000A11CB11C80923F0590924005A092410564
:101DC000B092420520919702309198022115310579
:101DD00021F0A90160E070E008C04091A402509198
:101DE000A5026091A6027091A702D701C6018819C9
:101DF0009909AA09BB09840F951FA61FB71F04C024
:101E0000B695A79597958795CA95D2F780933A0589
:101E100090933B05A0933C05B0933D05853F2FE093
:101E20009207A105B10510F48CE018C0853F9F4FC3
:101E3000A105B10510F480E111C08091B00290912C
:101E4000B102A091B202B091B30280934B0590937E
:101E50004C05A0934D05B0934E0580E28093480554
:101E600081E0DF91CF91FF90EF90DF90CF90BF9016
:101E7000AF909F908F90089590E0FC01E055FF4F48
:101E80002491FC01E456FF4F8491882399F090E05F
:101E9000880F991FFC01EE56FF4FA591B491FC01EC
:101EA000E857FF4F859194918FB7F894EC91E22B0E
:101EB000EC938FBF0895CF93DF93CDB7DEB728970C
:101EC0000FB6F894DEBF0FBECDBF1D8290E49E8397
:101ED00024E12F8324E5288719829A8390E19B834C
:101EE00090E59C8390918A05691710F06FEF690F58
:101EF00040918B05262F30E0FE01E20FF31F4031A9
:101F000021F4943011F4918101C09581682F690FFB
:101F1000606883E895E028960FB6F894DEBF0FBEA0
:101F2000CDBFDF91CF910C94CB0B4F925F926F920C
:101F30007F928F929F92AF92BF92CF92DF92EF9259
:101F4000FF926B017C01B42E9B01AC010E94111A1F
:101F5000882319F062EA71E027C026013701E8946E
:101F600077F82FEF3FEF4FE75FE7C301B2010E9421
:101F7000111A81110DC02FEF3FEF4FE75FE7C3014B
:101F8000B2010E94891718161CF466EA71E00CC0B1
:101F90002FEF3FEF4FE75FE4C701B6010E940C1A35
:101FA000181694F46AEA71E083E895E0FF90EF90E8
:101FB000DF90CF90BF90AF909F908F907F906F9069
:101FC0005F904F900C94A1122FEF3FEF4FE75FEC23
:101FD000C701B6010E94891787FDE4CF20E030E0F9
:101FE000A901C701B6010E94891787FF11C0E091BE
:101FF0008305F09184050190F081E02D6DE283E886
:1020000095E009954C01F7FAF094F7F8F09402C0C6
:10201000812C912CA12C60E070E080E09FE3AB1458
:1020200041F020E030E040E251E40E946B19A394BB
:10203000F6CF9B01AC01C701B6010E94FF182B012E
:102040003C010E94DD196B017C010E948E179B01EF
:10205000AC01C301B2010E94FE182B013C014AE011
:10206000C701B6010E94B70D7C01E80CF91CBB202A
:1020700069F0E0918305F09184050190F081E02DF5
:102080006EE283E895E00995E80EF91EDB2CDD2071
:1020900021F120E030E040E251E4C301B2010E94AE
:1020A000EF172B013C010E94DD194B01A12CB12C33
:1020B0004AE0C501B4010E94B70DE80EF91EC50142
:1020C000B4010E948E179B01AC01C301B2010E94B2
:1020D000FE182B013C01DA94DACFC701FF90EF9094
:1020E000DF90CF90BF90AF909F908F907F906F9038
:1020F0005F904F900895909183029111FCCF91E0F1
:1021000090938302909382022FEF2093810210928A
:102110008002260F20937F0290937E0290917E0290
:10212000880F892B80937E0280917D02813061F43B
:1021300010927D0280917E028093BB008091BC0052
:1021400083FDF8CF85EC01C085EE8093BC008091C3
:1021500083028130E1F380918002861710F4609150
:102160008002ADE5B2E02DE332E0F9018E2F821B53
:10217000861718F48D918193F9CF862F0895CF9308
:10218000DF93EC0162E080E40E947B1010923C023D
:1021900080933B028CE995E00E94D00088838CE913
:1021A00095E00E94D000898381E090E0DF91CF919B
:1021B0000895CF93DF93EC0160E48CE995E00E94F1
:1021C000840868818CE995E00E941C018CE995E007
:1021D000DF91CF910C942708CF92DF92EF92FF927C
:1021E0000F931F93CF93DF936C017A018B01C0E0B3
:1021F000D0E0CE15DF0589F0D8016D918D01D601B3
:10220000ED91FC910190F081E02DC6010995892B9B
:1022100011F47E0102C02196ECCFC701DF91CF916E
:102220001F910F91FF90EF90DF90CF900895CF9383
:10223000C82F68E68091A8059091A9050E9484089E
:102240008091A8059091A905DC01ED91FC91019088
:10225000F081E02D6C2F09958091A8059091A9053A
:102260000E94270861E088E60E947B1010923C02E1
:1022700080933B028091A8059091A905DC01ED9126
:10228000FC910284F385E02D0995CF910895CF93B9
:10229000DF93D82FC62F68E68091A8059091A905F5
:1022A0000E9484088091A8059091A905DC01ED9118
:1022B000FC910190F081E02D6D2F09958091A8058A
:1022C0009091A905DC01ED91FC910190F081E02D48
:1022D0006C2F09958091A8059091A905DF91CF9168
:1022E0000C942708CF92DF92FF920F931F93CF9306
:1022F000DF93EC018FE00E941711682F6F778FE05A
:102300000E94471168E68091A8059091A9050E9456
:1023100084088091A8059091A905DC01ED91FC91BC
:102320000190F081E02D60E00995A091A805B091A1
:10233000A9052D81ED91FC9111971AE0822F612F53
:102340000E94161A982F880F980F990F692F620F05
:102350000190F081E02DCD010995A091A805B091E3
:10236000A9052C81ED91FC911197822F612F0E947C
:10237000161A982F880F980F990F692F620F0190E6
:10238000F081E02DCD010995A091A805B091A90596
:102390002B81ED91FC911197822F612F0E94161ACB
:1023A000982F880F980F990F692F620F0190F08175
:1023B000E02DCD010995888190E09C012053384F94
:1023C00010E3120F143628F01CEC120F20E8F22E46
:1023D00001C0F12CE091A805F091A9050190F081D0
:1023E000E02DC080D1804A8169810E949B0C0696B5
:1023F00067E070E00E94221A682F8091A8059091F2
:10240000A905F6010995A091A805B091A9053A8101
:10241000ED91FC9111970AE0832F602F0E94161A0C
:10242000982F880F980F990F692F630F0190F081F3
:10243000E02DCD0109952981A091A805B091A905AC
:10244000ED91FC911197822F602F0E94161A982F00
:10245000880F980F990F290F6F2D622B0190F08133
:10246000E02DCD010995A091A805B091A905ED91A8
:10247000FC911197812F602F0E94161A682F880FE8
:10248000680F660F610F0190F081E02DCD01099575
:102490008091A8059091A905DF91CF911F910F918F
:1024A000FF90DF90CF900C942708EF92FF920F934C
:1024B0001F93CF93DF93EC01198218821B821A823B
:1024C0001D821C8261157105A9F17B01FB01019040
:1024D0000020E9F731978F01061B170BB8016F5FDA
:1024E0007F4F80E090E00E948B1B009759F099830A
:1024F00088831B830A832C813D81232B81F4FC017B
:1025000010820DC088819981009711F00E94F31A02
:10251000198218821D821C821B821A820BC01D83A5
:102520000C83B701DF91CF911F910F91FF90EF9036
:102530000C94631CDF91CF911F910F91FF90EF904E
:1025400008956115710579F0FB0101900020E9F70C
:102550003197AF01461B570BDC01ED91FC910280D6
:10256000F381E02D099480E090E0089580916E055C
:1025700090916F050E94F31A8091740590917505F2
:102580000E94F31A80917B0590917C050C94F31ABC
:10259000CF93DF93CDB7DEB761970FB6F894DEBF68
:1025A0000FBECDBF789484B5826084BD84B5816050
:1025B00084BD85B5826085BD85B5816085BD80910E
:1025C0006E00816080936E00109281008091810086
:1025D000826080938100809181008160809381007E
:1025E000809180008160809380008091B100846040
:1025F0008093B1008091B00081608093B0008091A1
:102600007A00846080937A0080917A00826080935F
:102610007A0080917A008E7F80937A0080917A0090
:10262000806880937A001092C100E0919604F09146
:10263000970412E01083E0919204F09193041082C9
:10264000E0919404F091950488E0808310929E04B8
:10265000E0919A04F0919B0486E08083E0919804D5
:10266000F0919904808180618083E0919804F091D9
:102670009904808188608083E0919804F0919904A6
:10268000808180688083E0919804F0919904808132
:102690008F7D80830E94C6068CE995E00E948E089B
:1026A0001093B8001092300510922E0510922B0551
:1026B00010922A058AE0809329050E94750B8B01F0
:1026C000809129050E943C0F61E0809129050E94BC
:1026D000EF0A0E94C60682E58093230581E080937D
:1026E000240580912305909124050E949F012AE0F2
:1026F000F22E8FEF0E946001FA94F110FACF85E27A
:1027000095E00E94A20120E030E0A90160E085E2AE
:1027100095E00E94B801F82E80932F0541E08417C0
:1027200049F00E94750B601B710B613D774058F3B7
:1027300081E056C02AEA31E040E050E068E085E2FE
:1027400095E00E94B80182FF03C0F092300510C0EE
:1027500094E0F92E0E94670180932F05FA94F110FE
:10276000F9CF8A3A11F082E03BC082E080933005D5
:1027700080913005823021F0C12CD12C760105C02A
:10278000C12CD12CE12C80E4F82E20E030E0A9010E
:1027900067E385E295E00E94B801A701960169E22E
:1027A00085E295E00E94B80180932F05882349F0C7
:1027B0000E94750B601B710B613D774030F388E020
:1027C0000FC080913005823001F520E030E0A90192
:1027D0006AE385E295E00E94B801882341F086E033
:1027E00080932A0585E295E00E945501FBC20E9474
:1027F0006701807C803C19F483E0809330050E945F
:1028000067010E9467010E94670185E295E00E94CE
:10281000550180E58093230581E0809324050E9483
:102820000D0E882329F080915405882341F0DAC2E7
:1028300080E00E940D0E882309F4D4C2F4CF809169
:102840004805803109F582E08093540510926605B1
:1028500010926705109268051092690580914905EC
:1028600090914A05A0E0B0E015E0880F991FAA1FDB
:10287000BB1F1A95D1F78093620590936305A093CF
:102880006405B09365055DC0803209F0ABC283E09A
:102890008093540580914B0590914C05A0914D0576
:1028A000B0914E058093660590936705A0936805E7
:1028B000B09369058D879E87AF87B88BC12CD12CCB
:1028C0007601812CF2E09F2EA12CB12C4D855E85E6
:1028D0006F8578899E01235F3F4F81E395E00E94D9
:1028E0006103882309F47EC2D501C40100903E052E
:1028F00004C0880F991FAA1FBB1F0A94D2F7C80EE5
:10290000D91EEA1EFB1E4D855E856F8578898091F4
:102910004805803129F088EF9FEFAFEFBFE004C09A
:1029200088EF9FEFA0E0B0E0481759076A077B07E0
:1029300068F2C0926205D0926305E0926405F0925D
:10294000650581E395E090936B0580936A0581E0CE
:102950008093530510925505109256051092570515
:10296000109258051092590510925A0510925B0565
:1029700010925C0510925D0510925E0510925F0545
:1029800010926005109261058EE491E00E94FA0DAC
:102990008091A8059091A9050E948E088DE591E08F
:1029A0000E94000D8F8389E0888788E591E00E946E
:1029B000000D898780E691E00E94000D8A8783E6FA
:1029C00091E00E94000D8B8786E691E00E94000D49
:1029D0008C878FE00E94171187FF08C089E691E07D
:1029E0000E94FA0DCE0107960E9472118EE00E949D
:1029F000171187FF0CC082E791E00E94FA0D8EE06C
:102A00000E941711682F6F778EE00E94471168E6C9
:102A10008091A8059091A9050E9484088091A8053D
:102A20009091A905DC01ED91FC910190F081E02DE0
:102A300060E009958091A8059091A9050E9427085A
:102A400067E088E60E947B1010923C0280933B0274
:102A50008091A8059091A905DC01ED91FC9102847B
:102A6000F385E02D09958F77982F92959F700AEF47
:102A7000F82E909FF00C11248091A8059091A90543
:102A8000DC01ED91FC910284F385E02D09959C0118
:102A90003327E4E035952795EA95E1F7E82E029F84
:102AA000E00C11248091A8059091A905DC01ED911D
:102AB000FC910284F385E02D099586FF0CC0182F48
:102AC0001F71912F92959F70909F100D112485FF7B
:102AD0000DC0145F0BC09C01332774E0359527951A
:102AE0007A95E1F7182F029F100D11248091A80507
:102AF0009091A905DC01ED91FC910284F385E02D14
:102B000009958091A8059091A905DC01ED91FC91B2
:102B10000284F385E02D09959C01332744E0359527
:102B200027954A95E1F75AEFC52ED82EC29ED00CB4
:102B300011248091A8059091A905DC01ED91FC91EB
:102B40000284F385E02D0995082F8091A8059091C6
:102B5000A905DC01ED91FC910284F385E02D099536
:102B60009C01332764E0359527956A95E1F7B82FE6
:102B7000C29EB00D11242B2F30E0C9018053984F15
:102B800007FF02C08C599F4F0F77805D8983802F8C
:102B900082958F7026E0829F001911240A83DB82C0
:102BA0001C83ED82FE82CE0101960E94CA0C6B014D
:102BB0007C01CE0107960E94CA0CC616D706E8060D
:102BC000F90640F48EE791E00E94FA0DCE010796D7
:102BD0000E9472118FE00E941711682F677F8FE0AB
:102BE0000E9447118EE00E9417118C7B682F646051
:102BF0008EE00E9447118CE995E00E948E0860E407
:102C00008CE995E00E9484088CE995E00E942708F1
:102C1000811103C081E080931C0220E042E060E16A
:102C200083E895E00E94630C60E082E00E945B0F05
:102C300069E871E083E895E00E94A11261E082E01A
:102C40000E945B0F6FE871E083E895E00E94A1129B
:102C500060E08DE00E945B0F64E971E083E895E03D
:102C60000E94A11261E08DE00E945B0F66E971E0B5
:102C700083E895E00E94A1126AEF70E085E090E0A1
:102C80000E94B40813EE05EE0E94750B60932902B2
:102C900070932A0280932B0290932C02198BCE0101
:102CA00041960E94D910CE0101960E94BF10298141
:102CB000822F90E0A0E0B0E04427582F692F7A2FB0
:102CC0008A819A01AB01282BA4EAB4E40E94AD18D2
:102CD000BC016D547241072E000C880B990B0E94A9
:102CE000901720E030E048EC52E40E946B196B0131
:102CF0007C016093250270932602809327029093B3
:102D000028020F83CE0107960E94D910CE010196AA
:102D10000E94BF102981822F90E0A0E0B0E04427FC
:102D2000582F692F7A2F8A819A01AB01282BADE7A2
:102D3000B0E00E94AD18BC016650710980E090E0DF
:102D40000E948E174B015C01609321027093220256
:102D5000809323029093240260E088E00E945B0F3E
:102D600041E0C701B6010E94950F61E088E00E9432
:102D70005B0F40E0C501B4010E94950F62E370E073
:102D800081E090E00E94B4088091290290912A028B
:102D9000A0912B02B0912C0240911D0250911E0275
:102DA00060911F02709120026C017D01C41AD50A46
:102DB000E60AF70A20E1C21627E2D206E104F1048E
:102DC00040F080931D0290931E02A0931F02B093C7
:102DD000200268EB7BE080E090E00E943B0B0E94C9
:102DE0004E0952CF88E991E0D1CD0F931F93E6E8C9
:102DF000F4E01382128248EE53E060E070E0448316
:102E00005583668377838EE091E09183808385ECA0
:102E100090E09587848784EC90E09787868780ECA4
:102E200090E0918B808B81EC90E0938B828B82EC95
:102E300090E0958B848B86EC90E0978B868B118E3F
:102E4000128E138E148EE3E2F5E080E5808381E03C
:102E50008183E5E2F5E0158216821186138602E091
:102E600010E020E030E0048715872687378713A21B
:102E700015A614A620E231E033A722A717A6ECE995
:102E8000F5E01382128244835583668377832CE2B4
:102E900031E031832083F093A905E093A805E3E8AE
:102EA000F5E0138212822EE331E031832083108A11
:102EB0009FEF97871686118A9FE39387148615865E
:102EC0001286118694E0928B92E0938B848B80E142
:102ED000858B80E2868B80E4878B80E8808F40E062
:102EE00050E063E0CF010E947D0961EA71E08BE769
:102EF00095E00E94551261EA71E084E795E00E9436
:102F0000551261EA71E08EE695E01F910F910C94E5
:102F100055120E94CB1708F481E00895E89409C087
:102F200097FB3EF490958095709561957F4F8F4FFC
:102F30009F4F9923A9F0F92F96E9BB279395F69512
:102F4000879577956795B795F111F8CFFAF4BB0F90
:102F500011F460FF1BC06F5F7F4F8F4F9F4F16C0F4
:102F6000882311F096E911C0772321F09EE8872F7E
:102F7000762F05C0662371F096E8862F70E060E03A
:102F80002AF09A95660F771F881FDAF7880F9695B3
:102F9000879597F90895990F0008550FAA0BE0E857
:102FA000FEEF16161706E807F907C0F0121613060B
:102FB000E407F50798F0621B730B840B950B39F44B
:102FC0000A2661F0232B242B252B21F408950A26B1
:102FD00009F4A140A6958FEF811D811D08950E94DF
:102FE00002180C9473180E94651838F00E946C182F
:102FF00020F0952311F00C945C180C9462181124A5
:103000000C94A7180E94841870F3959FC1F3950F34
:1030100050E0551F629FF001729FBB27F00DB11D5C
:10302000639FAA27F00DB11DAA1F649F6627B00DEC
:10303000A11D661F829F2227B00DA11D621F739FD5
:10304000B00DA11D621F839FA00D611D221F749FE3
:103050003327A00D611D231F849F600D211D822F2A
:10306000762F6A2F11249F5750409AF0F1F0882351
:103070004AF0EE0FFF1FBB1F661F771F881F91507E
:103080005040A9F79E3F510580F00C945C180C94B9
:10309000A7185F3FE4F3983ED4F38695779567953C
:1030A000B795F795E7959F5FC1F7FE2B880F911DA8
:1030B0009695879597F9089597F99F6780E870E04E
:1030C00060E008959FEF80EC089500240A9416169E
:1030D000170618060906089500240A941216130606
:1030E000140605060895092E0394000C11F4882394
:1030F00052F0BB0F40F4BF2B11F460FF04C06F5FB0
:103100007F4F8F4F9F4F089557FD9058440F551F85
:1031100059F05F3F71F04795880F97FB991F61F059
:103120009F3F79F087950895121613061406551FD0
:10313000F2CF4695F1DF08C0161617061806991F3C
:10314000F1CF86957105610508940895E894BB2731
:1031500066277727CB0197F908950E94EF18A59F5E
:10316000900DB49F900DA49F800D911D1124089582
:103170002F923F924F925F926F927F928F929F9287
:10318000AF92BF92CF92DF92EF92FF920F931F9375
:10319000CF93DF93CDB7DEB7CA1BDB0B0FB6F89426
:1031A000DEBF0FBECDBF09942A88398848885F8466
:1031B0006E847D848C849B84AA84B984C884DF80D7
:1031C000EE80FD800C811B81AA81B981CE0FD11DBB
:1031D0000FB6F894DEBF0FBECDBFED010895A29FDC
:1031E000B001B39FC001A39F700D811D1124911DDB
:1031F000B29F700D811D1124911D08955058BB2759
:10320000AA270E9416190C9473180E94651838F0AA
:103210000E946C1820F039F49F3F19F426F40C94A6
:1032200062180EF4E095E7FB0C945C18E92F0E94FD
:10323000841858F3BA17620773078407950720F0BC
:1032400079F4A6F50C94A6180EF4E0950B2EBA2F7F
:10325000A02D0B01B90190010C01CA01A00111249C
:10326000FF27591B99F0593F50F4503E68F11A1648
:10327000F040A22F232F342F4427585FF3CF4695D9
:1032800037952795A795F0405395C9F77EF41F16FB
:10329000BA0B620B730B840BBAF09150A1F0FF0FC5
:1032A000BB1F661F771F881FC2F70EC0BA0F621FB1
:1032B000731F841F48F4879577956795B795F795A1
:1032C0009E3F08F0B0CF9395880F08F09927EE0F36
:1032D0009795879508950E947F190C9473180E9402
:1032E0006C1858F00E94651840F029F45F3F29F0EF
:1032F0000C945C1851110C94A7180C9462180E943D
:10330000841868F39923B1F3552391F3951B550B5A
:10331000BB27AA2762177307840738F09F5F5F4FA8
:10332000220F331F441FAA1FA9F335D00E2E3AF0E7
:10333000E0E832D091505040E695001CCAF72BD0FF
:10334000FE2F29D0660F771F881FBB1F2617370750
:103350004807AB07B0E809F0BB0B802DBF01FF2782
:1033600093585F4F3AF09E3F510578F00C945C18EB
:103370000C94A7185F3FE4F3983ED4F386957795B5
:103380006795B795F7959F5FC9F7880F911D96953B
:10339000879597F90895E1E0660F771F881FBB1F97
:1033A000621773078407BA0720F0621B730B840B44
:1033B000BA0BEE1F88F7E09508950E948C1888F0EC
:1033C0009F5798F0B92F9927B751B0F0E1F0660FE9
:1033D000771F881F991F1AF0BA95C9F714C0B1302A
:1033E00091F00E94A618B1E008950C94A618672FDA
:1033F000782F8827B85F39F0B93FCCF38695779559
:103400006795B395D9F73EF4909580957095619541
:103410007F4F8F4F9F4F08950E94CB1708F48FEF77
:1034200008950E94CB17880B990B0895991B79E09A
:1034300004C0991F961708F0961B881F7A95C9F744
:1034400080950895AA1BBB1B51E107C0AA1FBB1F93
:10345000A617B70710F0A61BB70B881F991F5A9520
:10346000A9F780959095BC01CD010895A1E21A2E8F
:10347000AA1BBB1BFD010DC0AA1FBB1FEE1FFF1F18
:10348000A217B307E407F50720F0A21BB30BE40B68
:10349000F50B661F771F881F991F1A9469F76095AF
:1034A0007095809590959B01AC01BD01CF01089569
:1034B000EE0FFF1F0590F491E02D0994CF93DF9359
:1034C0008230910510F482E090E0E091AC05F0913B
:1034D000AD0520E030E0C0E0D0E0309711F1408150
:1034E000518148175907C0F04817590761F4828184
:1034F0009381209719F09B838A832BC09093AD050D
:103500008093AC0526C02115310519F042175307E9
:1035100018F49A01BE01DF01EF010280F381E02D72
:10352000DCCF2115310509F1281B390B2430310579
:1035300090F412968D919C9113976115710521F06D
:10354000FB019383828304C09093AD058093AC0507
:10355000FD01329644C0FD01E20FF31F8193919368
:10356000225031092D933C933AC02091AA05309105
:10357000AB05232B41F420910601309107013093D4
:10358000AB052093AA052091040130910501211576
:10359000310541F42DB73EB7409108015091090122
:1035A000241B350BE091AA05F091AB05E217F30758
:1035B000A0F42E1B3F0B2817390778F0AC014E5FA3
:1035C0005F4F2417350748F04E0F5F1F5093AB0530
:1035D0004093AA058193919302C0E0E0F0E0CF010F
:1035E000DF91CF9108950F931F93CF93DF930097AF
:1035F00009F48CC0FC013297138212820091AC0551
:103600001091AD050115110581F420813181820FE2
:10361000931F2091AA053091AB052817390779F53A
:10362000F093AB05E093AA0571C0D80140E050E0EB
:10363000AE17BF0750F412962D913C911397AD0130
:103640002115310509F1D901F3CF9D01DA01338349
:10365000228360817181860F971F8217930769F417
:10366000EC0128813981260F371F2E5F3F4F3183B0
:1036700020838A819B8193838283452B29F4F09355
:10368000AD05E093AC0542C01396FC93EE93129700
:10369000ED01499159919E01240F351FE217F3075F
:1036A00071F480819181840F951F029611969C93ED
:1036B0008E938281938113969C938E931297E0E070
:1036C000F0E0D80112968D919C911397009719F014
:1036D000F8018C01F6CF8D919C9198012E5F3F4FA0
:1036E000820F931F2091AA053091AB052817390747
:1036F00069F4309729F41092AD051092AC0502C020
:10370000138212821093AB050093AA05DF91CF912B
:103710001F910F910895A0E0B0E0E1E9FBE10C9466
:10372000BC18EC01009721F4CB010E945E1AB8C0CE
:10373000FC01E60FF71F9C0122503109E217F30745
:1037400008F4ACC0D9010D911C9111970617170709
:10375000B0F00530110508F49FC0C8010497861722
:10376000970708F499C002501109061B170B019323
:1037700011936D937C93CF010E94F31A8DC05B016E
:10378000A01AB10A4C01800E911EA091AC05B09117
:10379000AD0540E050E0E12CF12C109709F44AC04F
:1037A000A815B905D1F56D907C901197630182E061
:1037B000C80ED11CCA14DB0480F1A3014A195B09AD
:1037C0006A0182E0C80ED11C1296BC901297139623
:1037D000AC91B5E0CB16D10440F0B282A383518303
:1037E0004083D9016D937C930AC00E5F1F4FC301C4
:1037F000800F911FF90191838083EB2DFA2FE11443
:10380000F10431F0D7011396FC93EE93129744C064
:10381000F093AD05E093AC053FC08D919C9111975D
:103820004817590708F4AC017D0112960D90BC9120
:10383000A02DB3CF8091AA059091AB05881599056D
:10384000E1F446175707C8F48091040190910501EF
:10385000009741F48DB79EB740910801509109013E
:10386000841B950BE817F907C8F4F093AB05E093B8
:10387000AA05F901718360830FC0CB010E945E1A13
:103880007C01009759F0A801BE010E945A1CCE018C
:103890000E94F31AC70104C0CE0102C080E090E08C
:1038A000CDB7DEB7EEE00C94D81881E090E0F89444
:1038B0000C946A1CFB01DC0102C001900D92415086
:1038C0005040D8F70895FB01DC0101900D920020D3
:1038D000E1F7089510E0C3E6D0E004C0FE010E94C5
:0E38E000581A2196C436D107C9F7F894FFCFC5
:1038EE00FFFFFFFF0000AE05800000000000860A0B
:1038FE00EC101109CD0A420920093409000000001C
:10390E00E804EC104C014B01000000001C01EC001F
:10391E004C01C000E400D000C1000000000091097D
:10392E00EC104C014B01630C7D09190AF809534444
:10393E00204F4B005365702032302032303137002B
:10394E0031363A32313A333000525443206C6F7371
:10395E0074005254432052756E206E6F770055706E
:10396E0064617465205254430054656D703A00488A
:10397E00756D3A00630025005344204B4F21000D16
:0E398E000A006E616E00696E66006F7666005C
:00000001FF
