:100000000C94EE000C9416010C9416010C945E04F2
:100010000C945E040C945E040C9416010C9416016E
:100020000C9416010C9416010C9416010C941601F4
:100030000C9416010C9416010C9416010C941601E4
:100040000C94F01D0C9416010C94B9130C9493139A
:100050000C9416010C9416010C9416010C941601C4
:100060000C940E050C94160100407A10F35A00A06F
:10007000724E18090010A5D4E80000E87648170071
:1000800000E40B54020000CA9A3B000000E1F505B1
:10009000000080969800000040420F000000A086FB
:1000A00001000000102700000000E803000000002D
:1000B0006400000000000A000000000001000000D1
:1000C00000002C76D888DC674F0823DFC1DFAE59EB
:1000D000E1B1B796E5E3E453C63AE651997696E87E
:1000E000E6C28426EB898C9B62ED407C6FFCEFBC02
:1000F0009C9F40F2BAA56FA5F490055A2AF75C932D
:100100006B6CF9676DC11BFCE0E40D47FEF520E662
:10011000B500D0ED902E0300943577050080841E45
:10012000080000204E0A000000C80C333333330FA0
:10013000986E12831141EF8D2114893BE65516CF3D
:10014000FEE6DB18D1844B381BF77C1D901DA4BB49
:10015000E424203284725E228100C9F124ECA1E5FE
:100160003D27000000080002010000030407000012
:100170000000000000007C3C3E5E2B3D3F2F5B5D9D
:100180003B2C2A225C001F1C1F1E1F1E1F1F1E1F30
:100190001E1F00000000240027002A0000000000AD
:1001A000250028002B000000000023002600290065
:1001B000040404040404040402020202020203030D
:1001C0000303030301020408102040800102040815
:1001D00010200102040810201725C62211241FBE7A
:1001E000CFEFD8E0DEBFCDBF26E0A6E5B2E001C08C
:1001F0001D92AA3BB207E1F712E0A0E0B1E0E8E807
:10020000FCE502C005900D92A635B107D9F710E0C4
:10021000CDEED0E004C02197FE010E94F62BCC3E2B
:10022000D107C9F70E94ED220C94372E0C940000E0
:10023000DC015996ED91FC915A973097B9F083897A
:100240009489A589B6894285538564857585841B03
:10025000950BA60BB70B811520E89207A105B105F8
:1002600038F08FEF9FE7A0E0B0E0089580E090E0E5
:100270000895CF93DF931F92CDB7DEB76983DC017A
:10028000ED91FC910280F381E02D41E050E0BE0150
:100290006F5F7F4F09950F90DF91CF910895209167
:1002A0005D0330915E032817390771F490915B0369
:1002B00080915C03981741F0E0915B03F0E0EE520F
:1002C000FD4F808190E008958FEF9FEF089508958E
:1002D0001F93CF93DF93DC015C962D913C915D974A
:1002E0002115310539F481E090E013969C938E93AB
:1002F00012973DC05196ED91FC91529750969C916A
:100300005097892F80951FB75E964C915E9741FB61
:10031000772770F941FD6095F8944081772311F0BB
:10032000492B01C048234083E9012197F1F748E0B8
:10033000508160FF02C0592B01C058235083E9014E
:100340002197F1F76695415099F7772321F0908135
:100350008923808303C08081982B90831FBF5C9684
:100360008D919C915D970197F1F721E030E0C901F3
:10037000DF91CF911F91089520915D0330915E032D
:100380002817390771F480915C0320915B0390E09A
:10039000805C9F4F821B910960E470E00E94C02B3B
:1003A000089580E090E0089520915D0330915E0310
:1003B00028173907B9F490915B0380915C03981773
:1003C00089F0E0915B03F0E0EE52FD4F80812091D7
:1003D0005B0330E02F5F3F4F2F73332720935B0386
:1003E00090E008958FEF9FEF089585ED8093BC0016
:1003F0008091BC0084FDFCCF10925A030895409177
:10040000AC02262F30E0240F311D21323105DCF4FF
:1004100020915A032430C9F4FC0180E090E0861753
:1004200058F43091AC022191DC01A657BD4FA30FC7
:10043000B11D2C930196F3CF8091AC02680F6093AD
:10044000AC0280E0089581E0089582E00895089567
:10045000E091130380911203E81730F4F0E0EC5EB2
:10046000FC4F808190E008958FEF9FEF0895909169
:10047000130380911203981750F4E92FF0E0EC5E1B
:10048000FC4F208130E09F5F9093130302C02FEF59
:100490003FEFC90108958091120390E0209113036A
:1004A000821B91090895CF92DF92EF92FF920F93F2
:1004B0001F93CF93DF937C01262F972F8A01809182
:1004C0008902882391F0C62FD72F6E01C40ED51E46
:1004D000CC15DD0571F06991D701ED91FC9101908A
:1004E000F081E02DC7010995F3CF642F822F0E9480
:1004F000FF01C801DF91CF911F910F91FF90EF9005
:10050000DF90CF900895CF93DF931F92CDB7DEB7E2
:100510006983209189022223D1F020918802203220
:1005200040F021E030E0FC013383228380E090E062
:1005300015C080918702E82FF0E0E959FD4F9981BD
:1005400090838F5F809387028093880205C061E06B
:10055000CE0101960E94FF0181E090E00F90DF91B3
:10056000CF910895089580E090E00895FC01818D79
:10057000928D009711F00C943A150895CF93DF9364
:10058000EC01898D9A8D009739F481E090E09B838E
:100590008A8380E090E00BC0FC01138212820E94EB
:1005A000A31AE98DFA8D22813381232B71F7DF9114
:1005B000CF910895EF92FF920F931F93CF93DF9304
:1005C000EC017B018A011B821A8288EE93E0A0E095
:1005D000B0E08C839D83AE83BF838EE091E09983EE
:1005E00088838DE190E00E94FC2B9A8F898F009781
:1005F00079F02DE1F701DC0101900D922A95E1F7E8
:100600004CE050E0B801CE010C960E94282E188EC6
:10061000DF91CF911F910F91FF90EF900895CF93AD
:10062000DF93EC0161E08FE00E94E50C4C815D817D
:10063000688179818FE896E0DF91CF910C943F102B
:100640002F923F924F925F926F927F928F929F92E2
:10065000AF92BF92CF92DF92EF92FF920F931F93D0
:10066000CF93DF9300D0CDB7DEB7FC01858188231F
:1006700009F4D9C0848180FFD6C021E02A83438950
:1006800054896589768982859385A485B5854817BF
:1006900059076A077B0709F41A826F013A81832F91
:1006A00090E0DE0111964D013F01B6E06B0E711C2A
:1006B000892B09F47DC0D6011A964D915D916D91FB
:1006C0007C911D975A01B1E0BB22F60125811A01E8
:1006D0002B0189E056944794379427948A95D1F753
:1006E000838D948D223061F4FC01828D938DA48DD5
:1006F000B58DBC01CD01620D731D841D951D45C0D6
:10070000DC0114961C9111501221A114B104D1F4F2
:10071000111118C0452B462B472B51F4F601878940
:10072000908DA18DB28D86839783A087B1870AC0F3
:10073000468157816085718593010E94AA20882394
:1007400009F471C0F601238D348D86819781A085CF
:10075000B1850297A109B109AC01BD01F901058478
:1007600004C0440F551F661F771F0A94D2F7868571
:100770009785A089B189840F951FA61FB71FBC015B
:10078000CD01610F711D811D911DD60114962C9113
:1007900026FF14C000910001109101012091020177
:1007A00030910301601771078207930751F506C066
:1007B000FA81FF23C1F1898190E037C040E00E94B7
:1007C000C11F882381F1F501EF58FC4FD401CF01FF
:1007D0000196E817F90719F021912D93FACFEFEF61
:1007E0008E1A9E0AF60182859385A485B5850196A9
:1007F000A11DB11D82879387A487B58780E090E013
:1008000057CF740101E010E09501AB01BC0180916C
:100810007105909172050E94A419882321F0BFEF01
:100820008B1A9B0ADFCF8FEF9FEF0F900F90DF9116
:10083000CF911F910F91FF90EF90DF90CF90BF90DD
:10084000AF909F908F907F906F905F904F903F9070
:100850002F900895FC01818D928D009711F00C94DA
:1008600020038FEF9FEF08950F931F93CF93DF9394
:10087000FC01818D928D0097B9F0EF010E94200359
:100880008C010F3F8FEF180791F0898D9A8DFC0135
:100890004285538564857585415051096109710907
:1008A0000E947815C80105C080E090E002C08FEF7B
:1008B0009FEFDF91CF911F910F9108951F920F929B
:1008C0000FB60F9211242F933F934F935F936F9323
:1008D0007F938F939F93AF93BF93EF93FF93E09199
:1008E0005D03F0915E03309709F451C0968DA685A3
:1008F000B785858591FF04C09C91892329F447C061
:100900009C91892309F043C0A389B4899C9185896E
:10091000809589238C93868997890197F1F7608D5B
:10092000718DA685B785558538E020E0CB0101970C
:10093000F1F7822F90E095958795282F4C914523CC
:1009400009F02068315091F7868D81FD20958091C6
:100950005C0390E001968F73992730915B03381701
:1009600049F0A0915C03B0E0AE52BD4F2C93809350
:100970005C0303C0868D8160868F828D938D019785
:10098000F1F7A389B4899C918589892B8C93FF9178
:10099000EF91BF91AF919F918F917F916F915F91F7
:1009A0004F913F912F910F900FBE0F901F90189570
:1009B000CF93CFB7F8948091D102811127C0EAEB91
:1009C000F1E08491EEECF1E09491E82FF0E0EE0F8D
:1009D000FF1FEE56FE4FA591B491EC91E92321F44F
:1009E00061E08AE00E94EB1361E08AE00E946E1DE4
:1009F0008CB580618CBD8CB580648CBD61E08DE070
:100A00000E946E1D61E08BE00E946E1D8091D102FC
:100A10008F5F8093D102CFBFCF9108951F920F9225
:100A20000FB60F9211242F933F934F935F936F93C1
:100A30007F938F939F93AF93BF93EF93FF93809197
:100A4000B900887F803609F49CC068F5883209F4C3
:100A50005BC090F4803109F454C038F4882309F461
:100A6000F6C0883009F44DC0F6C0883109F44CC096
:100A7000803209F45DC0EFC0803409F468C048F4E6
:100A8000803309F455C0883309F0E5C080935803DA
:100A9000D8C0803509F44FC0883509F45DC088346A
:100AA00009F0D9C0D6C0883909F4C7C0A8F488377E
:100AB00009F467C038F4883609F463C0803709F454
:100AC00060C0C9C0883809F4B8C0803909F45FC073
:100AD000803809F0C0C05BC0803B09F486C038F4A0
:100AE000803A09F466C0883A09F47FC0B4C0803CFB
:100AF00009F4A7C0883C09F4A4C0883B09F48AC063
:100B0000AAC08091550310C090915703809156035D
:100B1000981770F5E091570381E08E0F809357038B
:100B2000F0E0EC5CFC4F80818093BB0085EC86C0DC
:100B3000809358038EC0E091570381E08E0F80931D
:100B400057038091BB00F0E0EC5CFC4F80839091F8
:100B50005703809156036EC0E091570381E08E0FDA
:100B6000809357038091BB00F0E0EC5CFC4F8083E6
:100B70008091590381116DC081E08093540384EA10
:100B800061C083E080935A031092D002CFCF80914E
:100B9000D002803208F051C0E091D00281E08E0F87
:100BA0008093D0028091BB00F0E0E055FD4F808340
:100BB000BDCF85EC8093BC0010925A038091D00287
:100BC000803230F4E091D002F0E0E055FD4F108229
:100BD0006091D00270E0E091AE02F091AF0280EB44
:100BE00092E009951092D00236C084E080935A03B7
:100BF0001092AD021092AC02E091AA02F091AB0209
:100C000009958091AC02811105C081E08093AC020E
:100C100010928A02E091AD0281E08E0F8093AD02C6
:100C2000F0E0E657FD4F80818093BB009091AD02CC
:100C30008091AC02981708F479CF85E88093BC00C6
:100C40000AC085EC8093BC0010925A0304C0109235
:100C500058030E94F501FF91EF91BF91AF919F91D1
:100C60008F917F916F915F914F913F912F910F9055
:100C70000FBE0F901F9018952091880290916602E8
:100C8000213208F04AC080915A038111FCCF32E032
:100C900030935A0331E0309359033FEF30935803B8
:100CA0001092570320935603A7E6B2E044E353E0C3
:100CB000FA013E2F341B321718F43D913193F9CFCE
:100CC0001092550320915503990F922B9093550341
:100CD00090915403913061F4109254039091550314
:100CE0009093BB009091BC0093FDF8CF95EC01C0B0
:100CF00095EE9093BC0090915A039230E1F390915D
:100D000058039F3F79F080915803803241F08091E1
:100D10005803803331F084E005C081E003C082E0F5
:100D200001C083E01092870210928802109289021B
:100D3000089581E080938902609366021092870291
:100D400010928802089510921303109212031092C9
:100D500087021092880210925A0381E0809359030F
:100D60001092540361E082E10E94EB1361E083E1A1
:100D70000E94EB13E9EBF0E080818E7F808380811D
:100D80008D7F808388E48093B80085E48093BC00E5
:100D90000895CF92DF92EF92FF920F931F93CF931C
:100DA000DF938C01C1E0D0E06B01770FEE08FF0804
:100DB0000C171D0794F061E082E00E94EB13C7015D
:100DC000B6010E94AA1D60E082E00E94EB13C701F9
:100DD000B6010E94AA1D2196EBCFDF91CF911F9102
:100DE0000F91FF90EF90DF90CF9008952F923F9258
:100DF0004F925F926F927F928F929F92AF92BF922B
:100E0000CF92DF92EF92FF920F931F93CF93DF93D6
:100E1000CDB7DEB7CA5AD1090FB6F894DEBF0FBE00
:100E2000CDBF0E94E41D60936202709363028093C1
:100E300064029093650283EECE55DF4F8883C25AD9
:100E4000D040CE018E559F4F0E94390DCE010196A4
:100E50000E941F0D2981822F90E0A0E0B0E044277E
:100E6000582F692F7A2F8A819A01AB01282BA4EA87
:100E7000B4E40E94372ABC016D547241072E000C65
:100E8000880B990B0E941A2920E030E048EC52E4CC
:100E90000E94F52A6B017C0160935E0270935F02F1
:100EA000809360029093610285EECF55DF4F888377
:100EB000C15AD040CE018F559F4F0E94390DCE01AF
:100EC00001960E941F0D2981822F90E0A0E0B0E0E2
:100ED0004427582F692F7A2F8A819A01AB01282B3A
:100EE000ADE7B0E00E94372ABC016650710980E08E
:100EF00090E00E9418294B015C0160935A027093A4
:100F00005B0280935C0290935D0260E088E00E9447
:100F1000E50C21E0B701A6018FE896E00E9474126B
:100F200061E088E00E94E50C20E0B501A4018FE8B3
:100F300096E00E94741262E370E081E090E00E940B
:100F4000C90687E696E00E94BC01892B09F464C0BB
:100F500060E971E083E795E00E945E1367EF71E05E
:100F6000CE0101960E945F120E94730F97FD0CC084
:100F70008AA31BA241E050E0BE016E5D7F4FCE010F
:100F800001960E94E50FF0CF6DE971E0CE018296E7
:100F90000E945F12BE016E5D7F4FCE0101960E94DE
:100FA000AD0F182FCE0182960E942D1211110EC086
:100FB00066E072E0CE0182960E945F12CE018296B8
:100FC0000E940F03CE0182960E942D1261EA71E009
:100FD000CE0182960E945F12BE016E5D7F4FCE01F0
:100FE00001960E94AD0F182FCE0182960E942D12FD
:100FF00011110EC065EA71E0CE0182960E945F1267
:10100000CE0182960E940F03CE0182960E942D127D
:10101000CE0101960E942D1280916202909163028E
:10102000A0916402B091650240915602509157021E
:101030006091580270915902841B950BA60BB70B57
:1010400080319742A105B10508F41BC360915E028F
:1010500070915F0280916002909161021BA21AA2BE
:101060001DA21CA21FA21EA28E010F5F1F4F22E015
:1010700044E00E9458267E0132E2E30EF11CBC01DE
:10108000C7010E94FF1167EA71E0C8010E945F1268
:10109000B701C8010E942C10CB56DF4F198218826D
:1010A000C559D040C956DF4F19821882C759D04060
:1010B000C756DF4F19821882C959D040BC01CE01F2
:1010C0008B569F4F0E941612C8010E942D12C70115
:1010D0000E942D1260915A0270915B0280915C0215
:1010E00090915D021BA21AA21DA21CA21FA21EA209
:1010F00022E044E00E945826BC01C7010E94FF1173
:1011000069EA71E0C8010E945F12B701C8010E943C
:101110002C10C157DF4F19821882CF58D040CF56BC
:10112000DF4F19821882C159D040CD56DF4F198246
:101130001882C359D040BC01CE0181579F4F0E94F5
:101140001612C8010E942D12C7010E942D126BEACF
:1011500071E083E795E00E945E136BEB71E083E73B
:1011600095E00E949113BE016B567F4F83E795E097
:101170000E94721369EC71E083E795E00E9491137D
:10118000BE0161577F4F83E795E00E947213BE0155
:101190006B567F4F87E696E00E94721360ED77E012
:1011A00080E090E00E94AA1DBE0161577F4F87E654
:1011B00096E00E9472138091620290916302A09166
:1011C0006402B09165028093560290935702A093F7
:1011D0005802B09359020E944C0D29833A834B83E5
:1011E0005C836D837E830E944C0DC757DF4F28833D
:1011F000C958D040C657DF4F3883CA58D040C5576A
:10120000DF4F4883CB58D040C457DF4F5883CC586A
:10121000D040C357DF4F6883CD58D040C257DF4F0F
:101220007883CE58D0404AE0672FCE018D579F4F2C
:101230000E9432124AE0C357DF4F6881CD58D04038
:10124000CE0183589F4F0E9432124AE0C457DF4FAD
:101250006881CC58D040CE0189589F4F0E943212ED
:10126000C757DF4F8881C958D04090E06E01ACE588
:10127000CA0ED11CF60111821082138212821582CD
:1012800014824AE0B8018053984F0E948326B80127
:10129000C6010E94FF114AE0C657DF4F6881CA5855
:1012A000D040CE01CF960E9432124AE0C557DF4FA0
:1012B0006881CB58D040C8010E9432121BA21AA2EA
:1012C0001DA21CA21FA21EA2B801C7010E941612D5
:1012D00064ED71E0C7010E941310BE01615C7F4F95
:1012E0000E942C1064ED71E00E941310B6010E9460
:1012F0002C1067EC71E00E941310BE0169587F4FFB
:101300000E942C106CE472E00E941310BE0163581E
:101310007F4F0E942C106CE472E00E941310BE01FB
:101320006D577F4F0E942C10C556DF4F19821882CF
:10133000CB59D040C356DF4F19821882CD59D040C7
:10134000C156DF4F19821882CF59D040BC01CE015F
:1013500085569F4F0E941612C7010E942D12C80188
:101360000E942D12CE01CF960E942D12C6010E941E
:101370002D12CE0189589F4F0E942D12CE01835805
:101380009F4F0E942D12CE018D579F4F0E942D120C
:1013900080915A0290915B02A0915C02B0915D0233
:1013A000CB55DF4F88839983AA83BB83C55AD0402E
:1013B00040905E0250905F02609060027090610207
:1013C00080918D060E94A50BA0918706B09188069A
:1013D000CD55DF4FB983A883C35AD0406CE376E084
:1013E000C7010E94441C1C821B8282E391E09A8305
:1013F00089831E82CD55DF4F08811981C35AD040A1
:10140000FE0131965F01170146016FE270E0C801ED
:101410000E94162E0097F1F1D8012C912F3219F469
:101420000F5F1F4FF2CF801B8D3008F08CE0C82E6D
:10143000D12CA601B801C4010E94282EF401EC0DA4
:10144000FD1D1082C5010E94CD18F50185818823FC
:1014500071F023961FAE1EAE239782E391E0219692
:101460009FAF8EAF219725961FAE259727C021E00D
:10147000A401B101C5010E941617882351F30C0D78
:101480001D1DC1010E94CD18922D832D1501A92E7D
:10149000B82EBBCF9801CD55DF4F88819981C35AB3
:1014A000D040281B390BC755DF4F39832883C95AD1
:1014B000D040B101CE01CF960E94441CCD55DF4FE4
:1014C00008811981C35AD040C755DF4FA881B9811F
:1014D000C95AD0400A0F1B1FF801808181110AC030
:1014E000BE01615C7F4FCE0101960E94441C44ED19
:1014F00051E04EC01DA21CA282E391E09BA38AA3EF
:101500001FA225968FAD259781111CC0A0961FAEF6
:101510001EAEA09788EE93E0A0E0B0E0A4968CAF5A
:101520009DAFAEAFBFAFA4978EE091E06E969FAF38
:101530008EAF6E97E7961FAE1EAEE797A9961FAEC9
:10154000A9972EC0825023E1A801823040F46CE3B9
:1015500076E0C7010E94161781110DC0D7CFBE01DA
:10156000615C7F4FC7010E941617882379F2CE0174
:10157000CF960E94CD184DA95EA96FA978ADC7017D
:101580000E947815B701CE0101960E94441CA80163
:10159000BE016F5F7F4FCE01845A9F4F0E94DA02D7
:1015A000E796EEADFFADE797309709F455C085811A
:1015B000882309F451C066ED71E083E795E00E944D
:1015C0005E13C156DF4F48815981CF59D040C5566F
:1015D000DF4F68817981CB59D040CE01845A9F4F2B
:1015E0000E94BE0261EE71E0CE01845A9F4F0E94BC
:1015F000911322E0B301A201CE01845A9F4F0E94B1
:10160000741261EE71E0CE01845A9F4F0E949113D3
:1016100022E0CB55DF4F488159816A817B81C55AD1
:10162000D040CE01845A9F4F0E94741261EE71E047
:10163000CE01845A9F4F0E945E13E7968EAD9FADF8
:10164000E797009779F00E94CD18E7968EAD9FAD91
:10165000E7970E94912C06C063EE71E083E795E066
:101660000E945E13CE0185569F4F0E942D12CE011F
:1016700081579F4F0E942D12CE018B569F4F0E9483
:101680002D1268EB7BE080E090E00E94AA1DC65519
:10169000DF4F0FB6F894DEBF0FBECDBFDF91CF9105
:1016A0001F910F91FF90EF90DF90CF90BF90AF9080
:1016B0009F908F907F906F905F904F903F902F9072
:1016C000089590915A039111FCCF91E090935A03A1
:1016D000909359032FEF2093580310925703260F2E
:1016E000209356039093550390915503880F892BAF
:1016F0008093550380915403813061F41092540318
:10170000809155038093BB008091BC0083FDF8CF8E
:1017100085EC01C085EE8093BC0080915A03813036
:10172000E1F380915703861710F460915703A4E307
:10173000B3E024E133E0F9018E2F821B861718F401
:101740008D918193F9CF862F0895CF92DF92EF92FA
:10175000FF921F93CF93DF9310921D0610921B06EA
:101760001092180610921706809316060E94E41D28
:101770006B017C0161E0809116060E946E1D61E0A4
:10178000809116060E94EB130E94D80482E5809394
:1017900010061092110680911006909111060E9479
:1017A0002919DAE08FEF0E94EA18D150D9F7E60143
:1017B00082E196E00E942C1920E030E0A90160E06F
:1017C00082E196E00E944219182F80931C06813016
:1017D00049F00E94E41D6C1B7D0B613D774060F376
:1017E00081E054C02AEA31E040E050E068E082E164
:1017F00096E00E94421982FF03C010931D060EC09E
:1018000014E00E94F11880931C061150D1F78A3A17
:1018100011F082E03BC082E080931D0680911D069E
:10182000823021F0C12CD12C760105C0C12CD12CE5
:10183000E12C30E4F32E20E030E0A90167E382E1FF
:1018400096E00E944219A701960169E282E196E0C2
:101850000E94421980931C06882349F00E94E41DCF
:101860006C1B7D0B613D774030F388E00FC08091A9
:101870001D06823001F520E030E0A9016AE382E133
:1018800096E00E944219882341F086E08093170673
:1018900082E196E00E94DF188FC00E94F118807CE0
:1018A000803C19F483E080931D060E94F1180E9489
:1018B000F1180E94F11882E196E00E94DF1880E59D
:1018C000809310061092110681E00E9497218823D0
:1018D00029F080914106882341F06EC080E00E948B
:1018E0009721882309F469C0F4CF809135068031AF
:1018F00009F582E080934106109253061092540637
:101900001092550610925606809136069091370631
:10191000A0E0B0E025E0880F991FAA1FBB1F2A9501
:10192000D1F780934F0690935006A0935106B09341
:1019300052061EC0803209F03FC083E0809341060A
:10194000409138065091390660913A0670913B06F5
:101950004093530650935406609355067093560671
:101960002FE436E08EE196E00E942E21882321F1BB
:101970008EE196E0909358068093570681E080931D
:1019800040061092420610924306109244061092AE
:10199000450610924606109247061092480610928D
:1019A000490610924A0610924B0610924C0610926D
:1019B0004D0610924E0601C080E0DF91CF911F913D
:1019C000FF90EF90DF90CF900895CF93DF93CDB746
:1019D000DEB728970FB6F894DEBF0FBECDBF1D82CD
:1019E00090E49E8324E12F8324E5288719829A833B
:1019F00090E19B8390E59C8390919606691710F087
:101A00006FEF690F40919706262F30E0FE01E20F3D
:101A1000F31F403121F4943011F4918101C095817C
:101A2000682F690F60688FE896E028960FB6F894E3
:101A3000DEBF0FBECDBFDF91CF910C943A1ECF9386
:101A4000DF93EC0162E080E40E94610B10921303CB
:101A50008093120388EA96E00E943702888388EA1E
:101A600096E00E943702898381E090E0DF91CF9178
:101A70000895CF93DF93EC0160E488EA96E00E943A
:101A80009906688188EA96E00E94830288EA96E0D7
:101A9000DF91CF910C943C06EF92FF920F931F932E
:101AA000CF93DF93CDB7DEB728970FB6F894DEBF9C
:101AB0000FBECDBF68E68091B4069091B5060E9436
:101AC00099068091B4069091B506DC01ED91FC91E8
:101AD0000190F081E02D60E009958091B40690912D
:101AE000B5060E943C0667E088E60E94610B1092F2
:101AF0001303809312038091B4069091B506DC0124
:101B0000ED91FC910284F385E02D09958F77982F54
:101B100092959F701AEF082F919F000D11248091CC
:101B2000B4069091B506DC01ED91FC910284F38539
:101B3000E02D09959C01332764E0359527956A953A
:101B4000E1F7F82E129FF00C11248091B4069091C9
:101B5000B506DC01ED91FC910284F385E02D099539
:101B600086FF0CC0582F5F71952F92959F70919FA3
:101B7000500D112485FF0DC0545F0BC09C0133270D
:101B800054E0359527955A95E1F7582F129F500D3F
:101B900011248091B4069091B506DC01ED91FC9181
:101BA0000284F385E02D588709958091B4069091C1
:101BB000B506DC01ED91FC910284F385E02D0995D9
:101BC0009C01332794E0359527959A95E1F73AEFF4
:101BD000E32E482FE29E400D11248091B40690918F
:101BE000B506DC01ED91FC910284F385E02D4F8375
:101BF0000995182F8091B4069091B506DC01ED91FE
:101C0000FC910284F385E02D09959C01332744E083
:101C1000359527954A95E1F7E82FE29EE00D1124CE
:101C2000F0E09F012053384F4F81588517FF02C0C5
:101C30002C593F4F1F77205D812F82958F70312F58
:101C4000B6E08B9F301911246F2D702F80E090E04B
:101C500028960FB6F894DEBF0FBECDBFDF91CF91AF
:101C60001F910F91FF90EF900895CF93C82F68E6D2
:101C70008091B4069091B5060E9499068091B406B1
:101C80009091B506DC01ED91FC910190F081E02D81
:101C90006C2F09958091B4069091B5060E943C0680
:101CA00061E088E60E94610B109213038093120397
:101CB0008091B4069091B506DC01ED91FC9102840F
:101CC000F385E02D0995CF910895CF93DF93D82F19
:101CD000C62F68E68091B4069091B5060E949906D9
:101CE0008091B4069091B506DC01ED91FC910190D4
:101CF000F081E02D6D2F09958091B4069091B50685
:101D0000DC01ED91FC910190F081E02D6C2F0995A3
:101D10008091B4069091B506DF91CF910C943C066A
:101D2000CF92DF92FF920F931F93CF93DF93EC013B
:101D30008FE00E94350E682F6F778FE00E94650E4E
:101D400068E68091B4069091B5060E94990680914C
:101D5000B4069091B506DC01ED91FC910190F08103
:101D6000E02D60E00995A091B406B091B5062D81F3
:101D7000ED91FC9111971AE0822F612F0E94A02B08
:101D8000982F880F980F990F692F620F0190F0819B
:101D9000E02DCD010995A091B406B091B5062C8136
:101DA000ED91FC911197822F612F0E94A02B982F0B
:101DB000880F980F990F692F620F0190F081E02D25
:101DC000CD010995A091B406B091B5062B81ED9196
:101DD000FC911197822F612F0E94A02B982F880FC2
:101DE000980F990F692F620F0190F081E02DCD01BE
:101DF0000995888190E09C012053384F10E3120F21
:101E0000143628F01CEC120F20E8F22E01C0F12C41
:101E1000E091B406F091B5060190F081E02DC0800C
:101E2000D1804A8169810E940A1F069667E070E0AE
:101E30000E94AC2B682F8091B4069091B506F601F4
:101E40000995A091B406B091B5063A81ED91FC9147
:101E500011970AE0832F602F0E94A02B982F880FE4
:101E6000980F990F692F630F0190F081E02DCD013C
:101E700009952981A091B406B091B506ED91FC9128
:101E80001197822F602F0E94A02B982F880F980FF8
:101E9000990F290F6F2D622B0190F081E02DCD015C
:101EA0000995A091B406B091B506ED91FC911197FA
:101EB000812F602F0E94A02B682F880F680F660F5C
:101EC000610F0190F081E02DCD0109958091B4065C
:101ED0009091B506DF91CF911F910F91FF90DF9008
:101EE000CF900C943C060F931F930E94E41D6093C7
:101EF0006F06709370068093710690937206E0915E
:101F00006706F09168060284F385E02D87E696E087
:101F1000099597FF1FC00E94E41D00916F06109164
:101F200070062091710630917206DC01CB01801B96
:101F3000910BA20BB30B00916B0610916C062091D4
:101F40006D0630916E0680179107A207B307B8F2AD
:101F50008FEF9FEF1F910F910895EF92FF920F93D4
:101F60001F93CF93DF938617970729F1FC012481F4
:101F70003581FB014481558124173507F1F4232B6A
:101F8000D1F0DC01CD91DC91008111818991882310
:101F900091F0082E000C990B0E94F82D7C01F8019D
:101FA00081918F01082E000C990B0E94F82DE816E4
:101FB000F90661F302C081E001C080E0DF91CF91BA
:101FC0001F910F91FF90EF900895EF92FF920F9362
:101FD0001F93CF93DF93FC01248135816115710537
:101FE00011F480E019C041155105A9F07B01EC0105
:101FF0008A01020F131FB8010E94A511882389F3DB
:10200000288139818C819D81B701820F931F0E94A5
:10201000212E1D830C8381E0DF91CF911F910F91C1
:10202000FF90EF900895CF93DF93EC016115710558
:1020300061F0FB0101900020E9F73197AF01461BE9
:10204000570B0E94E50F811103C0CE010E94CC11F5
:10205000CE01DF91CF910895CF93DF93EC01FB0187
:1020600044815581608171810E94E50F811103C017
:10207000CE010E94CC11CE01DF91CF910895CF9275
:10208000DF92EF92FF920F931F93CF93DF936C0138
:102090007A018B01C0E0D0E0CE15DF0589F0D801D0
:1020A0006D918D01D601ED91FC910190F081E02DB3
:1020B000C6010995892B11F47E0102C02196ECCF4F
:1020C000C701DF91CF911F910F91FF90EF90DF90AB
:1020D000CF900895FC01538D448D252F30E0842F3F
:1020E00090E0821B930B541710F0CF960895019740
:1020F0000895FC01918D828D981761F0828DDF012A
:10210000A80FB11D5D968C91928D9F5F9F73928FEA
:1021100090E008958FEF9FEF0895FC01918D828DDF
:10212000981731F0828DE80FF11D858D90E00895AC
:102130008FEF9FEF0895FC01918D228D892F90E004
:10214000805C9F4F821B91098F739927089583E7C5
:1021500095E00E949B1021E0892B09F420E0822F5A
:102160000895FC01848DDF01A80FB11DA35ABF4F54
:102170002C91848D90E001968F739927848FA68986
:10218000B7892C93A089B1898C9180648C93938DAD
:10219000848D981306C00288F389E02D80818F7D9D
:1021A00080830895EF92FF920F931F93CF93DF9355
:1021B000EC0181E0888F9B8D8C8D981305C0E88998
:1021C000F989808185FD24C0F62E0B8D10E00F5F0C
:1021D0001F4F0F731127E02E8C8DE8120CC00FB625
:1021E00007FCFACFE889F989808185FFF5CFCE0118
:1021F0000E94B110F1CF8B8DFE01E80FF11DE35A63
:10220000FF4FF0820B8FEA89FB898081806207C0D3
:10221000EE89FF896083E889F98980818064808301
:1022200081E090E0DF91CF911F910F91FF90EF90AF
:102230000895CF93DF93EC01888D8823C9F0EA8954
:10224000FB89808185FD05C0A889B9898C9186FDAF
:102250000FC00FB607FCF5CF808185FFF2CFA889AC
:10226000B9898C9185FFEDCFCE010E94B110E7CFE7
:10227000DF91CF91089580E090E0892B29F00E94B2
:10228000A71081110C94000008956115710579F073
:10229000FB0101900020E9F73197AF01461B570B76
:1022A000DC01ED91FC910280F381E02D099480E046
:1022B00090E008954F925F926F927F92EF92FF921B
:1022C0000F931F93CF93DF93CDB7DEB7A1970FB6D0
:1022D000F894DEBF0FBECDBF7C01FA01CB0119A27D
:1022E000223008F42AE08E010F5D1F4F422E512C40
:1022F000612C712CBF01A30192010E94D42BF90122
:10230000CA01015011096A3014F4605D01C0695CB2
:10231000D8016C93232B242B252B61F7B801C7011F
:102320000E944511A1960FB6F894DEBF0FBECDBF37
:10233000DF91CF911F910F91FF90EF907F906F9061
:102340005F904F9008950E94F32D0F931F93CF93AA
:10235000DF93EC0188819981009729F02A813B81E4
:102360002617370788F48B016F5F7F4F0E94292D56
:10237000009761F0998388831B830A832C813D81B8
:10238000232B11F4FC01108281E001C080E0DF9179
:10239000CF911F910F910895CF93DF93EC01888126
:1023A0009981009711F00E94912C198218821D8248
:1023B0001C821B821A82DF91CF910895EF92FF92C7
:1023C0000F931F93CF93DF93EC017B018A01BA0136
:1023D0000E94A511811104C0CE010E94CC1107C03A
:1023E0001D830C83B701888199810E94212ECE0123
:1023F000DF91CF911F910F91FF90EF900895CF93B0
:10240000DF93EC016115710559F0FB01019000208B
:10241000E9F73197AF01461B570B0E94DE1102C04E
:102420000E94CC11CE01DF91CF910895CF93DF931D
:10243000EC01FB018617970761F0608171816115DE
:10244000710529F0448155810E94DE1102C00E946D
:10245000CC11CE01DF91CF910895FC018081918153
:102460000C94912C0F931F93CF93DF93CDB7DEB7CE
:1024700029970FB6F894DEBF0FBECDBF8C01862F13
:10248000F80111821082138212821582148250E0A8
:10249000BE016F5F7F4F90E00E947826BE016F5FA4
:1024A0007F4FC8010E94FF1129960FB6F894DEBF36
:1024B0000FBECDBFDF91CF911F910F910895FC0109
:1024C00011821082138212821582148261157105A5
:1024D00051F0FB0101900020E9F73197AF01461B55
:1024E000570B0C94DE1108954F925F926F927F927A
:1024F0008F929F92AF92BF92CF92DF92EF92FF9214
:10250000CF93DF93EC016A017B01B22E9A01AB01FC
:10251000C701B6010E949B2B882319F069EE71E078
:1025200027C026013701E89477F82FEF3FEF4FE7F8
:102530005FE7C301B2010E949B2B81110DC02FEFF9
:102540003FEF4FE75FE7C301B2010E94132918165E
:102550001CF46DEE71E00CC02FEF3FEF4FE75FE42E
:10256000C701B6010E94962B18169CF461EF71E02A
:10257000CE01DF91CF91FF90EF90DF90CF90BF9091
:10258000AF909F908F907F906F905F904F900C9442
:1025900045112FEF3FEF4FE75FECC701B6010E94F7
:1025A000132987FDE3CF20E030E0A901C701B60180
:1025B0000E94132987FF0EC0E881F9810190F08104
:1025C000E02D6DE2CE0109954C01F7FAF094F7F891
:1025D000F09402C0812C912CA12C60E070E080E08E
:1025E0009FE3AB1441F020E030E040E251E40E9470
:1025F000F52AA394F6CF9B01AC01C701B6010E9456
:10260000892A2B013C010E94672B6B017C010E94EF
:1026100018299B01AC01C301B2010E94882A2B0139
:102620003C012AE0B701A601CE010E945A117C01AB
:10263000E80CF91CBB2051F0E881F9810190F08190
:10264000E02D6EE2CE010995E80EF91EDB2CDD20AF
:1026500029F120E030E040E251E4C301B2010E94E0
:1026600079292B013C010E94672B4B01A12CB12C35
:102670002AE0B501A401CE010E945A11E80EF91E0C
:10268000C501B4010E9418299B01AC01C301B2012C
:102690000E94882A2B013C01DA94D9CFC701DF912F
:1026A000CF91FF90EF90DF90CF90BF90AF909F9031
:1026B0008F907F906F905F904F9008950F931F932E
:1026C000CF93DF93EC010E9445118C0165EF71E01F
:1026D000CE010E944511800F911FDF91CF911F9174
:1026E0000F9108950F931F93CF93DF93EC01E8812F
:1026F000F981DB0114964D915C9115976D917C9158
:102700000280F381E02D09958C0165EF71E0CE0127
:102710000E944511800F911FDF91CF911F910F9162
:1027200008950C9445111F920F920FB60F92112429
:102730002F933F934F935F936F937F938F939F93C9
:10274000AF93BF93EF93FF9383E795E00E94B1109F
:10275000FF91EF91BF91AF919F918F917F916F9179
:102760005F914F913F912F910F900FBE0F901F904F
:1027700018951F920F920FB60F9211242F938F93DB
:102780009F93EF93FF93E0918305F09184058081FF
:10279000E0918905F0918A0582FD12C090818091B7
:1027A0008C058F5F8F7320918D05821751F0E0911A
:1027B0008C05F0E0ED58FA4F958F80938C0501C0A1
:1027C0008081FF91EF919F918F912F910F900FBE7C
:1027D0000F901F90189590E0FC01EE59FE4F349138
:1027E000FC01EC53FE4F2491FC01E055FE4FE491B7
:1027F000EE2309F43BC0332339F1333091F038F440
:102800003130A9F0323001F584B58F7D12C03730F8
:1028100091F03830A1F03430B9F4809180008F7D90
:1028200003C0809180008F77809380000DC084B5B5
:102830008F7784BD09C08091B0008F7703C08091ED
:10284000B0008F7D8093B000F0E0EE0FFF1FE456E4
:10285000FE4FA591B4918FB7F894EC91611103C02C
:1028600020952E2301C02E2B2C938FBF08953F92CD
:102870004F925F926F927F928F929F92AF92BF9290
:10288000CF92DF92EF92FF920F931F93CF93DF933C
:10289000CDB7DEB72C970FB6F894DEBF0FBECDBF15
:1028A0005C01DC015B968D909C905C971696CD90B8
:1028B000DD90ED90FC901997C114D104E104F1046E
:1028C00039F0BFEFCB1ADB0AEB0AFB0A312C07C049
:1028D000F401C080D180E280F38033243394F4018A
:1028E00081859285A385B4859C01AD012F5F3F4F03
:1028F0004F4F5F4F29873A874B875C872601370107
:102900001D821E821F821886F40181859285A3850F
:10291000B4852D813E814F815885281739074A0794
:102920005B0708F063C089859A85AB85BC858C15EB
:102930009D05AE05BF0550F482E0C82ED12CE12CD8
:10294000F12C92E0492E512C612C712C9E012F5FAD
:102950003F4FB701A601C4010E94AA20882309F4B1
:1029600045C089819A81AB81BC81892B8A2B8B2BB5
:1029700041F0260137019FEF491A590A690A790A7D
:1029800005C0C414D504E604F70491F02D813E81FE
:102990004F8158852F5F3F4F4F4F5F4F2D833E83B1
:1029A0004F8358873FEFC31AD30AE30AF30AACCF29
:1029B0000FEF1FEF2FEF3FE0B301A201C4010E9410
:1029C0000A20882399F0D50116964D915D916D915D
:1029D0007C911997411551056105710549F09301E5
:1029E0008201C4010E940A20811102C080E02AC035
:1029F000D50116964D925D926D927C921997332077
:102A000051F0D301C2010196A11DB11DF4018083D3
:102A10009183A283B383F5018789908DA18DB28DB7
:102A2000892B8A2B8B2B69F4D50157964D925D9299
:102A30006D927C925A9714968C9114978068149694
:102A40008C9381E02C960FB6F894DEBF0FBECDBFFD
:102A5000DF91CF911F910F91FF90EF90DF90CF907A
:102A6000BF90AF909F908F907F906F905F904F90AE
:102A70003F900895CF93DF93EC018D818823A1F1DE
:102A80008C8187FF2DC06E857F858889998941E07B
:102A90000E94C11F882341F1EA8980E2E89FF0018A
:102AA0001124DF01AF58BC4F1097F1F08D818230B7
:102AB00050F44B895C896D897E895C964D935D935A
:102AC0006D937C935F978F89988DA98DBA8DEF5800
:102AD000FC4F938F828FB58BA48B8C818F778C83E7
:102AE000DF91CF910C94861F80E0DF91CF91089504
:102AF0008F929F92AF92BF92CF92DF92EF92FF920E
:102B00000F931F93CF93DF93EC018D81811102C04E
:102B100080E077C00B891C892D893E890417150731
:102B200026073707A8F36A017B01823029F4CA8699
:102B3000DB86EC86FD860DC0C114D104E104F104EE
:102B400051F41E821F82188619861A861B861C86DF
:102B50001D8681E056C08A849B84AC84BD84EB8D45
:102B6000FC8D258530E0275F3F4FB501A401415022
:102B7000510961097109022E04C076956795579530
:102B800047950A94D2F7D701C6010197A109B10967
:102B900004C0B695A795979587952A95D2F784177F
:102BA0009507A607B70720F089288A288B2849F4BB
:102BB0004F89588D698D7A8D4E835F8368877987B9
:102BC00004C0841B950BA60BB70B4C015D018E0155
:102BD0000A5F1F4F81149104A104B10409F4A7CF27
:102BE0004E815F816885798598018B8D9C8D0E94CF
:102BF000AA2091E0891A9108A108B1088111EACFB1
:102C000087CFDF91CF911F910F91FF90EF90DF90D1
:102C1000CF90BF90AF909F908F9008958F929F928A
:102C2000AF92BF92CF92DF92EF92FF920F931F93DA
:102C3000CF93DF9300D000D0CDB7DEB77C0180E228
:102C4000689F6001112496012F583C4FD9011B96B3
:102C50009C91917121F0842F827409F097C0142FF8
:102C6000F701628B8091000190910101A091020116
:102C7000B091030186879787A08BB18BF601EF583F
:102C8000FC4F4489558960E070E0BA01552744271C
:102C9000D70157964D935D936D937C935A97828D90
:102CA000938DA0E0B0E0482B592B6A2B7B2BD701EA
:102CB00057964D935D936D937C935A97D9011B96CC
:102CC0008C91887159F4848D958DA68DB78DF701FF
:102CD000838B948BA58BB68B81E012C0803109F079
:102CE00055C097012D5E3F4FD7015B968D919C910A
:102CF0005C970E942E21882309F448C084E0F701E4
:102D00008583812F8F70D70114968C931497F701C8
:102D100016821782108611861A961D921D921D9298
:102D20001C921D9716FF34C015968C91813071F559
:102D300011FF2CC0F7014389548965897689452B99
:102D4000462B472B09F461C040E050E0BA01C701AF
:102D50000E9478158823D1F0F7018788908CA18C88
:102D6000B28CC38CD48C82E090E0A0E0B0E0F6019D
:102D700080839183A283B3839E012F5F3F4FB50170
:102D8000A401C6010E94AA20811104C080E03DC0B8
:102D900081E03BC000E010E09801B501A401C6014C
:102DA0000E940A20882391F389809A80AB80BC809E
:102DB000D60157968C91803129F088EF9FEFAFEFC5
:102DC000BFE004C088EF9FEFA0E0B0E0881699064E
:102DD000AA06BB0688F2D70157961D921D921D9236
:102DE0001C925A97F701138A148A158A168A8481CD
:102DF00080688483C7010E943A15882339F240E035
:102E000050E0BA01C7010E9478150F900F900F9003
:102E10000F90DF91CF911F910F91FF90EF90DF9076
:102E2000CF90BF90AF909F908F9008954F925F92F8
:102E30006F927F92AF92BF92CF92DF92EF92FF920A
:102E40000F931F93CF93DF93CDB7DEB72B970FB6BA
:102E5000F894DEBF0FBECDBF7C01CE0101966C01A0
:102E6000FC0190E28BE08C0D91938E13FDCFDA0183
:102E700030E047E09D91992339F19E3219F0E6E761
:102E8000F1E00AC04A3009F472C138E04AE0F2CFFA
:102E90003196891709F46BC184918111F9CF4317D9
:102EA00008F465C18FED890F8E3508F060C181E0AF
:102EB000830FF601E30FF11D3FE9390F3A3108F4B2
:102EC00090529083382FD6CF8981803209F44FC138
:102ED000B22E8B01DB015B968D919C915C97F70183
:102EE000948F838F16961D921D921D921C92199796
:102EF000FB011286138614861586712CF8018285D3
:102F00009385A485B5854389548965897689841715
:102F10009507A607B70708F061C025E0B695A79505
:102F2000979587952A95D1F7F82FFF706F2ED801C6
:102F300015968C91823008F41AC1C8010E942003B2
:102F400097FD15C1F80182859385A485B5854F96B7
:102F5000A11DB11D82879387A487B587F0E26F9E7C
:102F6000C0011124BC016F587C4F6115710509F433
:102F7000FEC0DB012C91222319F0253EC1F427C0AD
:102F800071100EC0F701628A409100015091010159
:102F9000609102017091030146875787608B718BA6
:102FA000FC01EF58FC4F8081811113C015C04BE02C
:102FB00050E0C6010E94002E892B09F09FCF8B2D77
:102FC0008073803309F4D3C04B2D662DCCC077209D
:102FD000C9F27724739492CF772473948B2D8271E6
:102FE000823109F0C4C07720D1F0D7011E966D91CF
:102FF0007D918D919C91519741E00E94C11F882342
:1030000009F4B5C0F7016289F0E26F9FB0011124A5
:103010006F587C4F6115710509F079C0A8C0D801BF
:1030200015968C91823009F4A2C0C8010E94371411
:10303000882309F49CC0D8015B96ED91FC915C97C4
:1030400016964D905D906D907C901997B2E04B1A5A
:10305000510861087108058404C0440C551C661CA5
:10306000771C0A94D2F786859785A089B189480E86
:10307000591E6A1E7B1EA480E1E04E1A51086108A9
:103080007108AA2009F10E94861F882309F46FC0E5
:10309000E1E7F3E0119225E0E137F207D9F7D30138
:1030A000C2018A0D911DA11DB11D80930001909355
:1030B0000101A0930201B093030180916303816039
:1030C00080936303AA94DDCFD8015B96ED91FC91C8
:1030D0005C9780E092E0A0E0B0E0058404C0880F37
:1030E000991FAA1FBB1F0A94D2F7F801438954897C
:1030F00065897689840F951FA61FB71F838B948BD4
:10310000A58BB68BD70152961C9261E773E080E2E3
:10311000FB0111928A95E9F78BE0F601DB01019042
:103120000D928A95E1F781E298E2DB0151969C933A
:103130008E93509720E038E01F963C932E931E9775
:1031400053969C938E93529759969C938E9358972F
:1031500057963C932E9356970E94861F882339F0EA
:103160004B2DF7016289C7010E940E1601C080E055
:103170002B960FB6F894DEBF0FBECDBFDF91CF9177
:103180001F910F91FF90EF90DF90CF90BF90AF9085
:103190007F906F905F904F900895CF93DF93EC01F5
:1031A0000E943A15882311F01D8281E0DF91CF91B2
:1031B00008958FB7F894809162038FBF089561E0FE
:1031C000FC0184810E94EB138091610381111092B4
:1031D000610308958EBD00000DB407FEFDCF8EB5CE
:1031E00008958FEF0C94EA180F931F93CF93DF93FA
:1031F000EB010E94E41D8B010E94F1188F3F49F002
:103200000E94E41D601B710B6C177D07A8F380E022
:1032100001C081E0DF91CF911F910F910895CF936D
:10322000DF93EC018E81882389F08F8198859C0142
:103230002F5F3F4F38872F838230924018F40E94CF
:10324000F118F3CFCE010E94DF181E82DF91CF91DB
:1032500008958CBD9DBD0895CF93DF93EC018091BF
:103260006103811109C081E08093610380911006A0
:10327000909111060E94291960E08C81DF91CF9115
:103280000C94EB13CF92DF92FF920F931F93CF9387
:10329000DF9300D000D0CDB7DEB76C01F62E2983C6
:1032A0003A834B835C830E940F19C6010E942C193C
:1032B0006CE271E0C6010E94F4188F2D80640E94B8
:1032C000EA1808E110E05C814B813A812981DA013A
:1032D000C901002E04C0B695A795979587950A94C5
:1032E000D2F729833A834B835C830E94EA18085003
:1032F000110929813A814B815C81083F8FEF1807C2
:1033000031F7FF2029F0E8E0FE1204C087E803C08F
:1033100085E901C08FEF0E94EA1810E00E94F118C1
:10332000F601828787FF04C01F3F11F01F5FF6CFB1
:103330000F900F900F900F90DF91CF911F910F91F1
:10334000FF90DF90CF900895AF92BF92CF92DF921F
:10335000EF92FF920F931F93CF93DF93EC016901DC
:10336000C801820F931F8130924008F070C08E8197
:10337000882371F088819981AA81BB8148175907F8
:103380006A077B0729F48F819885C816D906B0F59E
:10339000488359836A837B838B85833039F089E046
:1033A000440F551F661F771F8A95D1F79A01AB010D
:1033B00061E1CE010E944219882319F083E08D83D8
:1033C00046C00E94E41D5B010E94F1188A878F3F6E
:1033D00049F40E94E41D6A197B096D327140A0F323
:1033E0008FE003C08E3F31F08DE08D83CE010E94CF
:1033F000DF182DC018861F8281E08E838F8198850B
:103400008C159D0540F40E94F1188F8198850196D6
:1034100098878F83F3CF6701E00EF11ECE14DF048F
:1034200031F00E94F118F60181936F01F7CF8F817F
:103430009885080F191F18870F838985882319F02D
:103440000115124048F0CE010E940F1905C0CE01AF
:103450000E94DF1880E001C081E0DF91CF911F91D1
:103460000F91FF90EF90DF90CF90BF90AF900895B5
:10347000EF92FF920F931F93CF93DF93EC017901AB
:10348000411551056105710511F482E13CC08B8540
:10349000833039F089E0440F551F661F771F8A95E6
:1034A000D1F79A01AB0168E1CE010E94421988234D
:1034B00011F084E028C08EEF0E94EA1887018EEF99
:1034C000F81AF80181918F010E94EA180E151F0564
:1034D000C1F78FEF0E94EA188FEF0E94EA180E944E
:1034E000F1188A878F71853031F081E18D83CE01AB
:1034F0000E94DF1809C068E572E0CE010E94F4184E
:10350000811107C085E18D83CE010E94DF1880E024
:1035100013C020E030E0A9016DE0CE010E94421905
:10352000811104C00E94F118882311F084E1EBCFCF
:10353000CE010E94DF1881E0DF91CF911F910F91A2
:10354000FF90EF9008952F923F924F925F926F926B
:103550007F928F929F92AF92BF92CF92DF92EF9223
:10356000FF920F931F93CF93DF9300D000D0CDB77E
:10357000DEB78C015B011A01DC0115968C91159761
:103580008130C9F414968C9181FF15C082FF1BC055
:10359000F801438954896589768982859385A48554
:1035A000B58584179507A607B70769F0C8010E947B
:1035B0007815811108C081E090E0F801938382833F
:1035C00080E090E039C1610183C0D8015B968D91A4
:1035D0009C915C97FC01248121502A013B0139E038
:1035E00076946794579447943A95D1F7722E742045
:1035F0007A01F1E0FF22772009F476C080E092E0C2
:103600008E199F0946018C159D0508F44C01D801BF
:103610005B962D913C915C9716968D919D910D90A6
:10362000BC91A02D0297A109B109F901058404C03C
:10363000880F991FAA1FBB1F0A94D2F7468557858A
:1036400060897189840F951FA61FB71F9C01AD016A
:10365000270D311D411D511D29013A01811432E010
:10366000930609F088C08091000190910101A0911A
:103670000201B091030184159505A605B70559F41B
:103680008FEF9FEFDC018093000190930101A093E5
:103690000201B09303019501B301A201809171056C
:1036A000909172050E94381A882309F484CF9EEF06
:1036B000B91AC818D908F80182859385A485B585FB
:1036C000880D991DA11DB11D82879387A487B58799
:1036D000D8011A964D915D916D917C911D97C11401
:1036E000D10409F072CF87C0E114F10409F086CF4C
:1036F00016964D915D916D917C91199741155105EB
:103700006105710559F457968D919D910D90BC916D
:10371000A02D0097A105B10541F521C09E012F5FA5
:103720003F4F0E94AA20882309F44BCF89819A81B8
:10373000AB81BC81F801238D348DF90127892031BB
:1037400029F048EF5FEF6FEF7FE004C048EF5FEFD5
:1037500060E070E084179507A607B70730F0C8014E
:103760000E94371481114ACF26CFF80186839783B0
:10377000A087B18743CFE114F10429F5D8011A9647
:103780004D915D916D917C911D9753968D919D9179
:103790000D90BC91A02D481759076A077B0798F038
:1037A0000E94861F882309F406CF409200015092A0
:1037B00001016092020170920301809163038160B4
:1037C0008093630308C041E0C301B2010E94C11F9E
:1037D000882309F4F0CED501F701EF58FC4FCF0153
:1037E000880D991DE817F90719F02D912193FACF4B
:1037F000A80CB91C5ECF53968D919D910D90BC91F4
:10380000A02D84179507A607B70740F4F801438B4E
:10381000548B658B768B848180688483D801149661
:103820008C9183FD02C0C10107C0C8010E943A15F6
:10383000882309F4C0CEF7CF0F900F900F900F9010
:10384000DF91CF911F910F91FF90EF90DF90CF907C
:10385000BF90AF909F908F907F906F905F904F90B0
:103860003F902F900895CF93DF931F92CDB7DEB78F
:10387000698341E050E0BE016F5F7F4F0E94A31A51
:103880000F90DF91CF910895FC01DB0112968D918D
:103890009C9113979383828382E391E09183808349
:1038A00014968C911497848315968C911597858323
:1038B00016964D915D916D917C9119974683578332
:1038C000608771871A964D915D916D917C911D97DE
:1038D00042875387648775871E964D915D916D91E0
:1038E0007C91519746875787608B718B52968C914C
:1038F0005297828B53964D915D916D917C91569725
:10390000438B548B658B768B57964D915D916D9162
:103910007C915A97478B508F618F728F5B968D91F8
:103920009C915C97948F838F08953FB7F894809112
:103930006D0390916E03A0916F03B091700326B553
:10394000A89B05C02F3F19F00196A11DB11D3FBFD7
:10395000BA2FA92F982F8827820F911DA11DB11D65
:10396000BC01CD0142E0660F771F881F991F4A9561
:10397000D1F7089521E001C0220F6A95EAF7DC0132
:103980001C962C931C971A965C934E931997ED9165
:10399000FC910484F585E02D60E00994DC01ED9153
:1039A000FC910684F785E02D41E0099581E090E0E7
:1039B000089508950895CF93DF93FC012381222376
:1039C000B1F0EC018181809568236083628188EA8F
:1039D00096E00E949906688188EA96E00E94830238
:1039E00088EA96E00E943C06282F30E002C020E0E2
:1039F00030E081E090E0232B11F080E090E0DF9157
:103A0000CF910895EF92FF920F931F93CF938C0164
:103A1000FC01759684E0C0E060FF02C09081C92B74
:103A20006695815031968111F7CF413011F4F8013C
:103A30004489F8018585C82BC42B7801FEE0EF0E80
:103A4000F11CF80162896C2BC7010E94DB1CF80194
:103A5000628960956C23C701CF911F910F91FF90F0
:103A6000EF900C94DB1C0F931F93CF93DF93062FE3
:103A70000F70423019F440E0602F10C0142F262F31
:103A8000EC0130E0B90184E0759567958A95E1F71E
:103A9000CE010E94021D412F602FCE01DF91CF91F8
:103AA0001F910F910C94021DFC0184858823A9F0BD
:103AB000218532852115310519F4611106C007C031
:103AC0002130310521F4611102C0858701C01586BE
:103AD0006585CF010E960C94DB1C0895CF93DF9380
:103AE00090E0FC01EC53FE4F2491FC01E055FE4FA9
:103AF0008491882361F190E0880F991FFC01EE56B4
:103B0000FE4FC591D491FC01E456FE4FA591B491AE
:103B1000611109C09FB7F89488812095822388831A
:103B2000EC912E230BC0623061F49FB7F89438817A
:103B3000822F809583238883EC912E2B2C939FBF1B
:103B400006C08FB7F894E8812E2B28838FBFDF91B2
:103B5000CF9108958F929F92AF92BF92CF92DF92B2
:103B6000EF92FF926B017C010E94951C4B015C015E
:103B7000C114D104E104F104F1F00E94951CDC01B0
:103B8000CB0188199909AA09BB09883E9340A10570
:103B9000B10570F321E0C21AD108E108F10888EEFE
:103BA000880E83E0981EA11CB11CC114D104E1044D
:103BB000F10419F7DDCFFF90EF90DF90CF90BF9029
:103BC000AF909F908F9008952FB7F89460916903FC
:103BD00070916A0380916B0390916C032FBF0895DD
:103BE0001F920F920FB60F9211242F933F938F9332
:103BF0009F93AF93BF938091690390916A03A091C3
:103C00006B03B0916C033091680323E0230F2D37D1
:103C100020F40196A11DB11D05C026E8230F0296D0
:103C2000A11DB11D209368038093690390936A03DB
:103C3000A0936B03B0936C0380916D0390916E031E
:103C4000A0916F03B09170030196A11DB11D8093E7
:103C50006D0390936E03A0936F03B0937003BF91B5
:103C6000AF919F918F913F912F910F900FBE0F9029
:103C70001F901895DC01ED91FC910684F785E02DED
:103C800040E009940F931F93CF93DF93EC014230F0
:103C900018F08C8188608C834F836887222329F0F9
:103CA000413019F48C8184608C8364E670E080E09C
:103CB00090E00E94AA1D6C8164FD31C0E881F98109
:103CC0000684F785E02D42E063E0CE0109958BE4A0
:103CD00096E40197F1F7E881F9810684F785E02DF4
:103CE00042E063E0CE01099503E512E0C8010197C7
:103CF000F1F7E881F9810684F785E02D42E063E081
:103D0000CE010995C8010197F1F7E881F981068490
:103D1000F785E02D42E062E0CE01099517C06062B0
:103D2000CE010E943A1E8BE496E40197F1F76C8174
:103D30006062CE010E943A1E03E512E0C8010197BD
:103D4000F1F76C816062CE010E943A1EC8010197B2
:103D5000F1F76C816062CE010E943A1E8BEE90E01A
:103D60000197F1F784E08D836CE0CE010E943A1E4A
:103D700061E0CE010E943A1E8BE39FE10197F1F7CB
:103D800082E08E8366E0CE010E943A1EE881F981CE
:103D90000484F585E02D6FEFCE01DF91CF911F9167
:103DA0000F910994FF920F931F93CF93DF93EC0130
:103DB000162F042FF22E8B85888B88EA96E00E94BE
:103DC000A306688988EA96E00E94990688EA96E048
:103DD0000E943C0691E0811190E0998B992329F093
:103DE00088EA96E00E9437028E878989882339F015
:103DF0001F861C8260E0CE010E960E94DB1C2F2DD8
:103E0000402F612FCE01DF91CF911F910F91FF9035
:103E10000C94421E50E0E6E8F1E021E02E1B322F28
:103E20003E0F361728F43491430F511D3196F7CFCA
:103E3000633038F09C0123703327232B11F44F5F3C
:103E40005F4F2DE631E0829FB001839F700D929FFE
:103E5000700D1124615071099C012D5F3F4F369503
:103E6000279536952795CB01820F931F840F951FB9
:103E70000895EF92FF920F931F93CF93DF93EC017E
:103E800088814A81698190E00E940A1F9C01A8E113
:103E9000B0E00E94792A2B817B018C01E20EF11C9B
:103EA000011D111DA8019701ACE3B0E00E94372A63
:103EB0002C817B018C01E20EF11C011D111DA8015A
:103EC00097010E94372A2D81620F711D811D911D5E
:103ED000DF91CF911F910F91FF90EF9008959C017A
:103EE000F9012F5F3F4F90819F7E9032C9F380E0B0
:103EF000219190ED920F9A3040F4880F982F990FEE
:103F0000990F890F8053820FF3CF08958091630337
:103F10008823A9F1409100015091010160910201B3
:103F20007091030121E733E0809171059091720552
:103F30000E94381A811102C080E008954091640304
:103F400050916503609166037091670341155105B7
:103F50006105710591F021E733E080917105909141
:103F600072050E94381A882339F310926403109264
:103F7000650310926603109267031092630381E059
:103F800008958F929F92AF92BF92EF92FF920F93FC
:103F90001F93CF934B015C01C42F8091000190913E
:103FA0000101A0910201B091030188159905AA05AC
:103FB000BB0501F10E94861F811102C080E020C074
:103FC00081E7E82E83E0F82E00E012E020E030E008
:103FD000B501A40180917105909172050E94A41908
:103FE000882361F38092000190920101A092020166
:103FF000B092030180916303C82BC093630381E0F7
:10400000CF911F910F91FF90EF90BF90AF909F9035
:104010008F9008954F925F926F927F928F929F92AE
:10402000AF92BF92CF92DF92EF92FF920F931F93C6
:10403000CF93DF93EC016A017B0128013901423003
:1040400051056105710510F480E073C089859A857A
:10405000AB85BC850196A11DB11D84179507A607E8
:10406000B70790F38B889C88AD88BE888F89803194
:1040700029F4BB27AF2D9E2D8D2D09C0DB01CA0170
:1040800047E0B695A795979587954A95D1F7880EFD
:10409000991EAA1EBB1E8091000190910101A09162
:1040A0000201B091030188169906AA06BB0679F4AD
:1040B0008F898031A1F4DD24EE24FF24C601880F0E
:1040C000991FFC01EF58FC4F5182408219C040E01B
:1040D000C501B4010E94C11F8111EACFB5CFE89498
:1040E000C7F8DD24EE24FF24C601880F991F880F2E
:1040F000991FFC01EF58FC4F40825182628273820B
:10410000809163038160809363038A89823080F0A9
:104110008D819E81AF81B885880E991EAA1EBB1E17
:104120008092640390926503A0926603B092670345
:1041300081E0DF91CF911F910F91FF90EF90DF9081
:10414000CF90BF90AF909F908F907F906F905F9037
:104150004F9008958F929F92AF92BF92CF92DF922D
:10416000EF92FF920F931F93CF93DF93FC01818512
:104170009285A385B4850196A11DB11D841795076D
:10418000A607B70710F480E05CC083899489A589ED
:10419000B689C789C03129F4852E962EA72EBB2457
:1041A00009C04A015B01C7E0B694A794979487942D
:1041B000CA95D1F7E9016A017B018F01BC01CD01EC
:1041C000680D791D8A1D9B1D809000019090010152
:1041D000A0900201B0900301681579058A059B053E
:1041E00099F4F80187898031A9F4B701A601552710
:1041F00066277727440F551FFA01EF58FC4F80813F
:104200009181A0E0B0E018C040E00E94C11F811180
:10421000E8CFB9CFB701A6014F7755276627772793
:10422000440F551F440F551FFA01EF58FC4F808172
:104230009181A281B381BF7088839983AA83BB8354
:1042400081E0DF91CF911F910F91FF90EF90DF9070
:10425000CF90BF90AF909F908F9008954F925F92B4
:104260006F927F92AF92BF92CF92DF92EF92FF92C6
:104270000F931F93CF93DF9300D000D0CDB7DEB75D
:104280008C0149835A836B837C835901C12CD12CC7
:104290007601412C82E0582E612C712C49815A8183
:1042A0006B817C819E012F5F3F4FC8010E94AA2035
:1042B000882351F1D301C201F801058404C0880F9D
:1042C000991FAA1FBB1F0A94D2F7C80ED91EEA1E57
:1042D000FB1E49815A816B817C818789803129F05D
:1042E00088EF9FEFAFEFBFE004C088EF9FEFA0E043
:1042F000B0E0481759076A077B0780F2F501C082D2
:10430000D182E282F38281E00F900F900F900F90A4
:10431000DF91CF911F910F91FF90EF90DF90CF90A1
:10432000BF90AF907F906F905F904F9008958F9265
:104330009F92AF92BF92CF92DF92EF92FF92CF9374
:10434000DF93C82F82E196E0909372058093710508
:10435000CC2369F1C53010F080E00DC140E060E091
:1043600070E0CB010E94C11F8823B1F320E1C29FFE
:10437000C00111248F599C4FFC01E254FE4F208153
:104380002F7751F73C964081518162817381443689
:1043900051056105710500F33497C080D180E2803A
:1043A000F380C114D104E104F10421F4D5CFC12C70
:1043B000D12C760140E0C701B6010E94C11F8823BD
:1043C00059F280917C0390917D038115924021F6F2
:1043D000A0918103AA2309F4BFCF60917F0370915C
:1043E00080036115710509F4B7CF20917E03222364
:1043F00009F4B2CFA09330062093220680E030E08B
:10440000E1E0F0E0C82FAF01082E02C0440F551FB5
:104410000A94E2F72417350741F0982F8F5F983000
:1044200089F789E080932B0697CF80932B06209104
:104430008703309188032115310519F040E050E0E1
:1044400008C02091950330919603409197035091B5
:104450009803209323063093240640932506509317
:10446000260646015701860E971EA11CB11C80929C
:10447000310690923206A0923306B0923406E09153
:104480008203F0918303F0933706E0933606B0E0A1
:104490000E94372A860E971EA81EB91E80923806E3
:1044A00090923906A0923A06B0923B0685E0EE0F54
:1044B000FF1F8A95E1F7E150FE4FEF2FFF27E695AA
:1044C0008E0E9F1EA11CB11C80922C0690922D0670
:1044D000A0922E06B0922F0620918403309185037E
:1044E0002115310521F0A90160E070E008C040917C
:1044F0009103509192036091930370919403D701BB
:10450000C60188199909AA09BB09840F951FA61F1E
:10451000B71F04C0B695A79597958795CA95D2F70A
:104520008093270690932806A0932906B0932A0625
:10453000853F2FE09207A105B10510F48CE018C06B
:10454000853F9F4FA105B10510F480E111C0809116
:104550009D0390919E03A0919F03B091A00380932F
:10456000380690933906A0933A06B0933B0680E252
:104570008093350681E0DF91CF91FF90EF90DF903F
:10458000CF90BF90AF909F908F9008958BE596E06D
:104590000E942D1281E696E00E942D1280E591E0A6
:1045A000909368068093670680915D0390915E0307
:1045B0008756964071F4E0917A06F0917B069081DF
:1045C00080917C0680958923808310925E031092EF
:1045D0005D0387E896E00C942D12CF93DF93CDB75F
:1045E000DEB72C970FB6F894DEBF0FBECDBF789420
:1045F00084B5826084BD84B5816084BD85B58260E8
:1046000085BD85B5816085BD80916E008160809398
:104610006E00109281008091810082608093810001
:104620008091810081608093810080918000816011
:10463000809380008091B10084608093B10080916C
:10464000B00081608093B00080917A008460809394
:104650007A0080917A00826080937A0080917A005B
:10466000816080937A0080917A00806880937A00DC
:104670001092C1001092820610928106109280065C
:1046800010927F0610927E0610927D068FE190E0D8
:10469000909384068093830690917306963108F078
:1046A00057C021E030E030937E0620937D062DE157
:1046B00030E03093800620937F062DE030E0309389
:1046C00082062093810620916800983050F031E0F6
:1046D0009E3008F430E081E001C0880F3A95EAF797
:1046E00001C084E0822B80936800983038F09E30BF
:1046F00040F0963148F020E030E008C02DE630E090
:1047000005C02BE630E002C02CE630E030937B069B
:1047100020937A06983030F481E001C0880F9A9592
:10472000EAF70EC0292F30E09E3018F428503109E6
:1047300002C02E50310981E001C0880F2A95EAF7A6
:1047400080937C0680918306909184060197F1F70F
:104750008091810690918206892B49F1E0915D0359
:10476000F0915E0386E0E736F80709F1309739F0FB
:10477000A389B4899C918589809589238C938091A4
:1047800085068E7F8093850610925C0310925B03F2
:1047900087E696E090935E0380935D03E0917A064E
:1047A000F0917B06908180917C06892B80836AE062
:1047B00070E080E090E00E94AA1DE0918305F091F6
:1047C000840582E08083E0917F05F091800510826E
:1047D000E0918105F091820580E1808310928B0544
:1047E000E0918705F091880586E08083E09185055A
:1047F000F0918605808180618083E0918505F0914C
:104800008605808188608083E0918505F09186052A
:10481000808180688083E0918505F09186058081A4
:104820008F7D80836AE070E080E090E00E94AA1DA6
:104830000E94D80488EA96E00E94A30668EF71E01F
:10484000CE0101960E945F12BE016F5F7F4F87E825
:1048500096E00E9416128AE090E090938E06809374
:104860008D060E94A50B811103C061E072E002C0B9
:1048700068E072E083E795E00E945E13CE01019646
:104880000E942D128091B4069091B5060E94A30655
:1048900087E192E00E946F1F8F8389E0888782E121
:1048A00092E00E946F1F89878AE192E00E946F1F49
:1048B0008A878DE192E00E946F1F8B8780E292E0F1
:1048C0000E946F1F8C878FE00E94350E87FF0AC001
:1048D00063E272E083E795E00E945E13CE010796E3
:1048E0000E94900E8EE00E94350E87FF0EC06CE293
:1048F00072E083E795E00E945E138EE00E94350E21
:10490000682F6F778EE00E94650E0E944C0D298300
:104910003A834B835C836D837E83CE0101960E9434
:10492000391F6B017C01CE0107960E94391FC61604
:10493000D706E806F90650F468E372E083E795E0ED
:104940000E945E13CE0107960E94900E8FE00E9497
:10495000350E682F677F8FE00E94650E8EE00E9403
:10496000350E8C7B682F64608EE00E94650E88EAAD
:1049700096E00E94A30660E488EA96E00E94990609
:1049800088EA96E00E943C06811103C081E0809392
:10499000600320E042E060E18FE896E00E94D21ED2
:1049A00060E082E00E94E50C63E472E08FE896E04C
:1049B0000E94911361E082E00E94E50C69E472E0DC
:1049C0008FE896E00E94911360E08DE00E94E50C74
:1049D0006EE472E08FE896E00E94911361E08DE052
:1049E0000E94E50C60E572E08FE896E00E9491136A
:1049F00060E08FE00E94E50C62E572E08FE896E0EF
:104A00000E94911361E08FE00E94E50C64E572E082
:104A10008FE896E00E9491136AEF70E085E090E0E5
:104A20000E94C9060E94F6060E943B11FBCFCF925E
:104A3000DF92EF92FF92CF93109276051092750558
:104A400098EEC92E93E0D92EE12CF12CC092770577
:104A5000D0927805E0927905F0927A0580E291E0B3
:104A6000909374058093730585EC90E09093800596
:104A700080937F0584EC90E090938205809381057C
:104A800080EC90E0909384058093830581EC90E026
:104A9000909386058093850582EC90E0909388053D
:104AA0008093870586EC90E090938A058093890532
:104AB00010928C0510928D0510928E0510928F0524
:104AC00080E580931006109211061092170610923E
:104AD000180610921B0610921D0682E090E0A0E0DE
:104AE000B0E080931E0690931F06A0932006B0931B
:104AF00021061092350610923F0610923E0682E380
:104B000091E090933D0680933C06109241061092EE
:104B1000AB061092AA06C092AC06D092AD06E09207
:104B2000AE06F092AF068EE391E09093A9068093D3
:104B3000A80688EA96E09093B5068093B406109292
:104B400092061092910680E891E0909390068093EF
:104B50008F0610929F068FEF80939E0610929D06FF
:104B60001092A0068FE380939A0610929B061092F3
:104B70009C06109299061092980684E08093A106F4
:104B800082E08093A206C1E0C093A30680E18093F7
:104B9000A40680E28093A50680E48093A60680E8C0
:104BA0008093A70640E050E063E08FE896E00E9423
:104BB000BA1C67EF71E087E896E00E945F121092DE
:104BC0006A0610926906C0926B06D0926C06E0925B
:104BD0006D06F0926E0680E591E0909368068093F2
:104BE000670610927E0610927D0610928006109243
:104BF0007F0610928206109281061092840610920F
:104C00008306809185068E7F8D7F809385068695AD
:104C10008170682F6C2785E00E94EB1361E085E0CE
:104C20000E946E1DE9ECF1E0E491E0937706E5EB7C
:104C3000F1E0E491F0E0EE0FFF1FE456FE4F8591A6
:104C40009491909379068093780660E086E00E94C4
:104C50006E1D8091850681FD04C061E086E00E94A2
:104C6000EB1386E080937306EAECF1E0E491E093C5
:104C70007406E6EBF1E0E491F0E0EE0FFF1FEA5579
:104C8000FE4F85919491909376068093750667EF19
:104C900071E081E696E00E945F1267EF71E08BE5BC
:104CA00096E0CF91FF90EF90DF90CF900C945F1241
:104CB000EF920F931F93CF93DF93E80147FD02C05C
:104CC00034E001C034E1E42F440FFF0BF7FF03C0D1
:104CD000F195E195F109E32E022F2E2FAE010E94EE
:104CE0009D26CE01DF91CF911F910F91EF900895F6
:104CF0004532510520F4423010F00C948326FB011C
:104D00001082CB010895BB27FB015527AA27880FE6
:104D1000991FAA1FA41710F0A41B83955051B9F72F
:104D2000A05DAA3308F0A95DA193009779F7B111AE
:104D3000B1931192CB010C9403294F925F926F9221
:104D40007F929F92AF92BF92CF92DF92EF92FF92AB
:104D50000F931F93CF93DF93CDB7DEB729970FB68D
:104D6000F894DEBF0FBECDBF6A01122FB02E2BE329
:104D7000201720F0FF24F394F00E02C0BCE3FB2EBA
:104D80000F2D27E0AE014F5F5F4F0E942B28AC0133
:104D90008981982F9970913031F0E1FC06C0E0FED6
:104DA00006C090E205C09DE203C09BE201C090E016
:104DB000EE2DE07183FF3CC0911102C083E001C081
:104DC00084E0811718F4212F281B01C020E0E11195
:104DD0000BC0F601822F30E2882319F03193815005
:104DE000FBCFC20ED11C20E0992329F0D6019C9361
:104DF000F60131966F01C6010396E2FE0AC03EE459
:104E0000D6013C9341E411964C93119712963C9332
:104E100006C03EE6F601308341E641833283FC0161
:104E2000322F40E2332309F442C041933150FACF8C
:104E300082FF44C0911102C083E001C084E0811769
:104E400018F4212F281B01C020E0E1110BC0F6014E
:104E5000822F30E2882319F031938150FBCFC20EAC
:104E6000D11C20E0992329F0D6019C93F6013196BC
:104E70006F01C6010396E2FE0BC039E4D6013C93F4
:104E80003EE411963C93119736E412963C9307C08A
:104E900039E6F60130833EE6318336E63283FC01A3
:104EA000322F40E2332319F041933150FBCFFC0104
:104EB000E20FF11D10828EEF9FEFB7C0F1E091116C
:104EC00001C0F0E06F2F70E01416150624F49A016B
:104ED0002F5F3F4F02C021E030E0260F371FBB207D
:104EE00029F06B2D70E06F5F7F4F02C060E070E0D3
:104EF000260F371F612F70E0261737071CF4121B8F
:104F0000212F01C020E03E2D387159F4D601322FF7
:104F100060E2332319F06D933150FBCFC20ED11CE8
:104F200020E0FF2331F0D6019C93B6016F5F7F4FE5
:104F30006B01E1110BC0F601922F30E3992319F0B8
:104F400031939150FBCFC20ED11C20E09F2D940FC6
:104F50003A81782F7071A72E84FF03C0313309F492
:104F60009150191624F4993018F098E001C091E09E
:104F7000E42F852F57FF02C0E0E080E06E2F782FEE
:104F8000E0E0F0E0AEE29A2E3A01691A71082A01D7
:104F9000461A570A0B2D10E01195019511096F3F24
:104FA0008FEF780729F4D6019C92C60101966C0117
:104FB0004617570784F0661677066CF47F01E40CF9
:104FC000F51CA1E0B0E0AC0FBD1FEA0EFB1ED7013F
:104FD0001196BC9002C090E3B92E615071093196D0
:104FE000C60101967C016017710724F0D601BC92BE
:104FF0006C01D5CF6417750741F4363320F435338F
:1050000021F4A11002C081E3B82EF601B082F701AD
:10501000822F90E2882319F091938150FBCFF70102
:10502000E20FF11D108280E090E029960FB6F8940F
:10503000DEBF0FBECDBFDF91CF911F910F91FF90CB
:10504000EF90DF90CF90BF90AF909F907F906F9048
:105050005F904F900895283008F027E03327DA0159
:10506000990F311D87FD916000966105710539F436
:1050700032602E5F3D9330E32A95E1F708959F3F1C
:1050800030F080387105610509F03C5F3C5F3D936D
:10509000913008F08068911DDF93CF931F930F9399
:1050A000FF92EF92192F987F9695E92F96959695F6
:1050B000E90FFF27EE53FF4F99273327EE24FF24F4
:1050C000A701E70105900894079428F4360FE71E1E
:1050D000F81E491F511D660F771F881F991F0694E0
:1050E000A1F70590079428F4E70EF81E491F561FF4
:1050F000C11D770F881F991F661F0694A1F70590A1
:10510000079428F4F80E491F561FC71FD11D880F9A
:10511000991F661F771F0694A1F70590079420F446
:10512000490F561FC71FD81F990F661F771F881F6B
:105130000694A9F784911095177041F0D695C795FC
:1051400057954795F794E7941A95C1F7E8E6F0E08C
:1051500068941590159135916591959105907FE230
:105160007395E118F10A430B560BC90BD009C0F730
:10517000E10CF11E431F561FC91FD01D7EF4703372
:1051800011F48A95E6CFE894015030F0080F0AF444
:105190000027021708F4202F2395022F7A3328F0D6
:1051A00079E37D932A95E9F710C07D932A9589F6D6
:1051B000069497956795379517951794E118F10A16
:1051C000430B560BC90BD00998F023957E9173952C
:1051D0007A3308F070E37C932013B8F77E91706106
:1051E0007D9330F0839571E37D9370E32A95E1F729
:1051F0001124EF90FF900F911F91CF91DF9199278C
:1052000087FD90950895DC01FC01672F719177234C
:10521000E1F7329704C07C916D9370836291AE1771
:10522000BF07C8F308950E94552908F481E0089546
:10523000E89409C097FB3EF4909580957095619530
:105240007F4F8F4F9F4F9923A9F0F92F96E9BB27E6
:105250009395F695879577956795B795F111F8CF62
:10526000FAF4BB0F11F460FF1BC06F5F7F4F8F4FCD
:105270009F4F16C0882311F096E911C0772321F0C3
:105280009EE8872F762F05C0662371F096E8862F5B
:1052900070E060E02AF09A95660F771F881FDAF7B2
:1052A000880F9695879597F90895990F0008550FDF
:1052B000AA0BE0E8FEEF16161706E807F907C0F09C
:1052C00012161306E407F50798F0621B730B840BA4
:1052D000950B39F40A2661F0232B242B252B21F47E
:1052E00008950A2609F4A140A6958FEF811D811D1E
:1052F00008950E948C290C94FD290E94EF2938F012
:105300000E94F62920F0952311F00C94E6290C94C4
:10531000EC2911240C94312A0E940E2A70F3959FD7
:10532000C1F3950F50E0551F629FF001729FBB279C
:10533000F00DB11D639FAA27F00DB11DAA1F649F38
:105340006627B00DA11D661F829F2227B00DA11DEB
:10535000621F739FB00DA11D621F839FA00D611D71
:10536000221F749F3327A00D611D231F849F600D92
:10537000211D822F762F6A2F11249F5750409AF0BB
:10538000F1F088234AF0EE0FFF1FBB1F661F771F47
:10539000881F91505040A9F79E3F510580F00C9412
:1053A000E6290C94312A5F3FE4F3983ED4F38695C6
:1053B00077956795B795F795E7959F5FC1F7FE2BB2
:1053C000880F911D9695879597F9089597F99F678E
:1053D00080E870E060E008959FEF80EC089500247D
:1053E0000A941616170618060906089500240A944A
:1053F00012161306140605060895092E0394000CD0
:1054000011F4882352F0BB0F40F4BF2B11F460FF5E
:1054100004C06F5F7F4F8F4F9F4F089557FD905887
:10542000440F551F59F05F3F71F04795880F97FB68
:10543000991F61F09F3F79F0879508951216130622
:105440001406551FF2CF4695F1DF08C01616170651
:105450001806991FF1CF8695710561050894089586
:10546000E894BB2766277727CB0197F908950E9418
:10547000792AA59F900DB49F900DA49F800D911D3A
:10548000112408952F923F924F925F926F927F92D4
:105490008F929F92AF92BF92CF92DF92EF92FF9244
:1054A0000F931F93CF93DF93CDB7DEB7CA1BDB0BF0
:1054B0000FB6F894DEBF0FBECDBF09942A88398895
:1054C00048885F846E847D848C849B84AA84B9849C
:1054D000C884DF80EE80FD800C811B81AA81B981A8
:1054E000CE0FD11D0FB6F894DEBF0FBECDBFED01BC
:1054F0000895A29FB001B39FC001A39F700D811DAD
:105500001124911DB29F700D811D1124911D0895CC
:105510005058BB27AA270E94A02A0C94FD290E945C
:10552000EF2938F00E94F62920F039F49F3F19F452
:1055300026F40C94EC290EF4E095E7FB0C94E62994
:10554000E92F0E940E2A58F3BA17620773078407DF
:10555000950720F079F4A6F50C94302A0EF4E09526
:105560000B2EBA2FA02D0B01B90190010C01CA011D
:10557000A0011124FF27591B99F0593F50F4503EC8
:1055800068F11A16F040A22F232F342F4427585FBA
:10559000F3CF469537952795A795F0405395C9F7D2
:1055A0007EF41F16BA0B620B730B840BBAF091508A
:1055B000A1F0FF0FBB1F661F771F881FC2F70EC029
:1055C000BA0F621F731F841F48F4879577956795FC
:1055D000B795F7959E3F08F0B0CF9395880F08F0E8
:1055E0009927EE0F9795879508950E94092B0C94A3
:1055F000FD290E94F62958F00E94EF2940F029F475
:105600005F3F29F00C94E62951110C94312A0C9437
:10561000EC290E940E2A68F39923B1F3552391F3E4
:10562000951B550BBB27AA2762177307840738F011
:105630009F5F5F4F220F331F441FAA1FA9F335D06E
:105640000E2E3AF0E0E832D091505040E695001C22
:10565000CAF72BD0FE2F29D0660F771F881FBB1FDC
:10566000261737074807AB07B0E809F0BB0B802DBA
:10567000BF01FF2793585F4F3AF09E3F510578F0E6
:105680000C94E6290C94312A5F3FE4F3983ED4F35E
:10569000869577956795B795F7959F5FC9F7880FBA
:1056A000911D9695879597F90895E1E0660F771F0C
:1056B000881FBB1F621773078407BA0720F0621B9D
:1056C000730B840BBA0BEE1F88F7E09508950E94C8
:1056D000162A88F09F5798F0B92F9927B751B0F044
:1056E000E1F0660F771F881F991F1AF0BA95C9F766
:1056F00014C0B13091F00E94302AB1E008950C94AA
:10570000302A672F782F8827B85F39F0B93FCCF35C
:10571000869577956795B395D9F73EF490958095E2
:10572000709561957F4F8F4F9F4F08950E94552927
:1057300008F48FEF08950E945529880B990B08955E
:10574000991B79E004C0991F961708F0961B881FD3
:105750007A95C9F780950895AA1BBB1B51E107C034
:10576000AA1FBB1FA617B70710F0A61BB70B881FF1
:10577000991F5A95A9F780959095BC01CD01089580
:1057800097FB072E16F4009407D077FD09D00E94EE
:10579000AC2B07FC05D03EF4909581959F4F089562
:1057A000709561957F4F0895A1E21A2EAA1BBB1B2D
:1057B000FD010DC0AA1FBB1FEE1FFF1FA217B307DD
:1057C000E407F50720F0A21BB30BE40BF50B661FF3
:1057D000771F881F991F1A9469F7609570958095B7
:1057E00090959B01AC01BD01CF010895EE0FFF1F05
:1057F0000590F491E02D0994CF93DF9382309105C9
:1058000010F482E090E0E091B806F091B90620E053
:1058100030E0C0E0D0E0309711F14081518148176D
:105820005907C0F04817590761F482819381209786
:1058300019F09B838A832BC09093B9068093B80696
:1058400026C02115310519F04217530718F49A01A3
:10585000BE01DF01EF010280F381E02DDCCF2115D5
:10586000310509F1281B390B2430310590F41296CB
:105870008D919C9113976115710521F0FB01938324
:10588000828304C09093B9068093B806FD013296D6
:1058900044C0FD01E20FF31F81939193225031091F
:1058A0002D933C933AC02091B6063091B706232B36
:1058B00041F420910601309107013093B7062093FF
:1058C000B60620910401309105012115310541F4FE
:1058D0002DB73EB74091080150910901241B350BAB
:1058E000E091B606F091B706E217F307A0F42E1B7D
:1058F0003F0B2817390778F0AC014E5F5F4F241734
:10590000350748F04E0F5F1F5093B7064093B60619
:105910008193919302C0E0E0F0E0CF01DF91CF915D
:1059200008950F931F93CF93DF93009709F48CC0D2
:10593000FC013297138212820091B8061091B906C9
:105940000115110581F420813181820F931F20916F
:10595000B6063091B7062817390779F5F093B706E0
:10596000E093B60671C0D80140E050E0AE17BF0723
:1059700050F412962D913C911397AD0121153105EC
:1059800009F1D901F3CF9D01DA01338322836081CC
:105990007181860F971F8217930769F4EC012881A4
:1059A0003981260F371F2E5F3F4F318320838A8135
:1059B0009B8193838283452B29F4F093B906E0936E
:1059C000B80642C01396FC93EE931297ED014991ED
:1059D00059919E01240F351FE217F30771F480815E
:1059E0009181840F951F029611969C938E938281CC
:1059F000938113969C938E931297E0E0F0E0D80188
:105A000012968D919C911397009719F0F8018C01D3
:105A1000F6CF8D919C9198012E5F3F4F820F931F7F
:105A20002091B6063091B7062817390769F43097E8
:105A300029F41092B9061092B80602C0138212829D
:105A40001093B7060093B606DF91CF911F910F9187
:105A50000895A0E0B0E0EFE2FDE20C94462AEC01EC
:105A6000009721F4CB010E94FC2BB8C0FC01E60F8B
:105A7000F71F9C0122503109E217F30708F4ACC06C
:105A8000D9010D911C91119706171707B0F0053039
:105A9000110508F49FC0C80104978617970708F4FA
:105AA00099C002501109061B170B019311936D93B6
:105AB0007C93CF010E94912C8DC05B01A01AB10A8A
:105AC0004C01800E911EA091B806B091B90640E03D
:105AD00050E0E12CF12C109709F44AC0A815B90543
