:100000000C94E0000C9408010C9408010C94E50C8D
:100010000C94E50C0C94E50C0C9408010C9408016C
:100020000C9408010C9408010C9408010C9408012C
:100030000C9408010C9408010C9408010C9408011C
:100040000C948C030C9408010C941B090C94F50877
:100050000C9408010C9408010C9408010C940801FC
:100060000C945F0D0C94080100407A10F35A00A024
:10007000724E18090010A5D4E80000E87648170071
:1000800000E40B54020000CA9A3B000000E1F505B1
:10009000000080969800000040420F000000A086FB
:1000A00001000000102700000000E803000000002D
:1000B0006400000000000A000000000001000000D1
:1000C00000002C76D888DC674F0823DFC1DFAE59EB
:1000D000E1B1B796E5E3E453C63AE651997696E87E
:1000E000E6C28426EB898C9B62ED407C6FFCEFBC02
:1000F0009C9F40F2BAA56FA5F490055A2AF75C932D
:100100006B6CF9676DC11BFCE0E40D47FEF520E662
:10011000B500D0ED902E0300943577050080841E45
:10012000080000204E0A000000C80C333333330FA0
:10013000986E12831141EF8D2114893BE65516CF3D
:10014000FEE6DB18D1844B381BF77C1D901DA4BB49
:10015000E424203284725E228100C9F124ECA1E5FE
:100160003D27000000080002010000030407000012
:1001700000000000000000000000240027002A000A
:1001800000000000250028002B00000000002300D4
:1001900026002900040404040404040402020202E8
:1001A000020203030303030301020408102040803A
:1001B0000102040810200102040810200116DD15B8
:1001C00011241FBECFEFD8E0DEBFCDBF25E0A2E9EE
:1001D000B1E001C01D92AC3EB207E1F711E0A0E032
:1001E000B1E0EAEEFDE302C005900D92A239B1073D
:1001F000D9F710E0CFEDD0E004C02197FE010E94B6
:10020000CE1CCE3DD107C9F70E9482120C94E81E85
:100210000C9400003FB7F89480919E0390919F0347
:10022000A091A003B091A10326B5A89B05C02F3FC4
:1002300019F00196A11DB11D3FBFBA2FA92F982F0C
:100240008827820F911DA11DB11DBC01CD0142E087
:10025000660F771F881F991F4A95D1F7089521E0EF
:1002600001C0220F6A95EAF7DC011C962C931C97BB
:100270001A965C934E931997ED91FC910484F58541
:10028000E02D60E00994DC01ED91FC910684F78596
:10029000E02D41E0099581E090E0089508950895EA
:1002A000FC0123812223B9F0918190956923608319
:1002B000828191E090934004809362041092410403
:1002C0001092630481E995E00E94810A0E94AD10BA
:1002D000282F30E002C020E030E081E090E0232BC6
:1002E00011F080E090E00895EF92FF920F931F933A
:1002F000CF938C01FC01759684E0C0E060FF02C0E2
:100300009081C92B6695815031968111F7CF41308C
:1003100011F4F8014489F8018585C82BC42B7801B4
:10032000FEE0EF0EF11CF80162896C2BC7010E9400
:100330005001F801628960956C23C701CF911F912C
:100340000F91FF90EF900C9450010F931F93CF9358
:10035000DF93062F0F70423019F440E0602F10C079
:10036000142F262FEC0130E0B90184E075956795D4
:100370008A95E1F7CE010E947401412F602FCE01D2
:10038000DF91CF911F910F910C947401FC01848532
:100390008823A9F0218532852115310519F46111D1
:1003A00006C007C02130310521F4611102C08587E4
:1003B00001C015866585CF010E960C9450010895F5
:1003C000CF93DF9380919401882399F1C09192019A
:1003D000D09193014091000150910101609102017F
:1003E0007091030129E931E0CE010E947A0C81115C
:1003F00002C080E01FC0409195015091960160912C
:10040000970170919801411551056105710579F0C9
:1004100029E931E0CE010E947A0C882351F3109231
:1004200095011092960110929701109298011092E6
:10043000940181E0DF91CF91089590E0FC01EE59A5
:10044000FE4F3491FC01E855FE4F2491FC01EC561F
:10045000FE4FE491EE2309F43BC0332339F13330EE
:1004600091F038F43130A9F0323001F584B58F7D48
:1004700012C0373091F03830A1F03430B9F48091A7
:1004800080008F7D03C0809180008F7780938000F3
:100490000DC084B58F7784BD09C08091B0008F777F
:1004A00003C08091B0008F7D8093B000F0E0EE0F2C
:1004B000FF1FE058FE4FA591B4918FB7F894EC91CF
:1004C000611103C020952E2301C02E2B2C938FBFCA
:1004D0000895CF93DF9390E0FC01E855FE4F2491FF
:1004E000FC01EC56FE4F8491882361F190E0880F67
:1004F000991FFC01EA58FE4FC591D491FC01E058C8
:10050000FE4FA591B491611109C09FB7F8948881FD
:10051000209582238883EC912E230BC0623061F4F6
:100520009FB7F8943881822F809583238883EC913C
:100530002E2B2C939FBF06C08FB7F894E8812E2BEB
:1005400028838FBFDF91CF9108958F929F92AF92B2
:10055000BF92CF92DF92EF92FF926B017C010E94DB
:100560000A014B015C01C114D104E104F104F1F072
:100570000E940A01DC01CB0188199909AA09BB096B
:10058000883E9340A105B10570F321E0C21AD1085D
:10059000E108F10888EE880E83E0981EA11CB11CCA
:1005A000C114D104E104F10419F7DDCFFF90EF90FD
:1005B000DF90CF90BF90AF909F908F9008952FB70E
:1005C000F89460919A0370919B0380919C039091A1
:1005D0009D032FBF0895BF92CF92DF92EF92FF92BB
:1005E0000F931F93CF93DF936B017C01B42E809107
:1005F000000190910101A0910201B09103018C15BD
:100600009D05AE05BF0509F476C00E94E001882370
:1006100009F478C0C0919201D09193018E81882312
:1006200069F088819981AA81BB81C816D906EA063A
:10063000FB0621F48F819885892BB1F1C882D9827C
:10064000EA82FB828B85A7019601833039F089E02D
:10065000220F331F441F551F8A95D1F761E1CE0148
:100660000E94010C882319F083E08D8337C00E941B
:10067000DF028B010E94C90B8A878F3F49F40E94D9
:10068000DF02601B710B6D327140A0F38FE003C07D
:100690008E3F31F08DE08D83CE010E94BE0B1EC0D7
:1006A00018861F8281E08E8309E911E00E94C90B40
:1006B000F80181938F01F3E009391F07B9F78F81A2
:1006C00098859E5F98878F832985222319F081154D
:1006D000924048F0CE010E94E70B05C0CE010E9477
:1006E000BE0B80E00FC0C0920001D0920101E092E9
:1006F0000201F092030180919401482F4B2940930D
:10070000940181E0DF91CF911F910F91FF90EF90C5
:10071000DF90CF90BF9008951F920F920FB60F9267
:1007200011242F933F938F939F93AF93BF93809107
:100730009A0390919B03A0919C03B0919D033091EB
:10074000990323E0230F2D3720F40196A11DB11D3D
:1007500005C026E8230F0296A11DB11D2093990321
:1007600080939A0390939B03A0939C03B0939D0363
:1007700080919E0390919F03A091A003B091A1034B
:100780000196A11DB11D80939E0390939F03A0939A
:10079000A003B093A103BF91AF919F918F913F911F
:1007A0002F910F900FBE0F901F901895DC01ED91C7
:1007B000FC910684F785E02D40E009940F931F9388
:1007C000CF93DF93EC01423018F08C8188608C83EA
:1007D0004F836887222329F0413019F48C8184608B
:1007E0008C8364E670E080E090E00E94A5026C815A
:1007F00064FD31C0E881F9810684F785E02D42E08F
:1008000063E0CE0109958BE496E40197F1F7E88166
:10081000F9810684F785E02D42E063E0CE01099579
:1008200003E512E0C8010197F1F7E881F981068438
:10083000F785E02D42E063E0CE010995C8010197FC
:10084000F1F7E881F9810684F785E02D42E062E066
:10085000CE01099517C06062CE010E94D6038BE4D9
:1008600096E40197F1F76C816062CE010E94D60395
:1008700003E512E0C8010197F1F76C816062CE01D7
:100880000E94D603C8010197F1F76C816062CE0126
:100890000E94D6038BEE90E00197F1F784E08D8300
:1008A0006CE0CE010E94D60361E0CE010E94D60327
:1008B0008BE39FE10197F1F782E08E8366E0CE0142
:1008C0000E94D603E881F9810484F585E02D6FEF5D
:1008D000CE01DF91CF911F910F910994FF920F9359
:1008E0001F93CF93DF93EC01162F042FF22E8B85ED
:1008F000888B0E941C11888991E09093400480931A
:10090000620410924104109263040E94AD1091E0C1
:10091000811190E0998B992329F081E995E00E945B
:10092000350A8E878989882339F01F861C8260E00A
:10093000CE010E960E9450012F2D402F612FCE0127
:10094000DF91CF911F910F91FF900C94DE034F9296
:100950005F926F927F928F929F92AF92BF92CF924F
:10096000DF92EF92FF920F931F93CF93DF93EC01EF
:100970006A017B0128013901423051056105710589
:1009800010F480E073C089859A85AB85BC8501969B
:10099000A11DB11D84179507A607B70790F38B8893
:1009A0009C88AD88BE888F89803129F4BB27AF2D04
:1009B0009E2D8D2D09C0DB01CA0147E0B695A79594
:1009C000979587954A95D1F7880E991EAA1EBB1E4A
:1009D0008091000190910101A0910201B091030169
:1009E00088169906AA06BB0679F48F898031A1F48E
:1009F000DD24EE24FF24C601880F991FFC01E75671
:100A0000FE4F5182408219C040E0C501B4010E94EE
:100A1000EB028111EACFB5CFE894C7F8DD24EE24CC
:100A2000FF24C601880F991F880F991FFC01E75604
:100A3000FE4F408251826282738280919401816074
:100A4000809394018A89823080F08D819E81AF816C
:100A5000B885880E991EAA1EBB1E809295019092A1
:100A60009601A0929701B092980181E0DF91CF9119
:100A70001F910F91FF90EF90DF90CF90BF90AF90BC
:100A80009F908F907F906F905F904F9008958F927E
:100A90009F92AF92BF92CF92DF92EF92FF920F930D
:100AA0001F93CF93DF93FC0181859285A385B48545
:100AB0000196A11DB11D84179507A607B70710F46D
:100AC00080E05CC083899489A589B689C789C031D3
:100AD00029F4852E962EA72EBB2409C04A015B015E
:100AE000C7E0B694A79497948794CA95D1F7E90183
:100AF0006A017B018F01BC01CD01680D791D8A1D42
:100B00009B1D8090000190900101A0900201B09087
:100B10000301681579058A059B0599F4F801878911
:100B20008031A9F4B701A601552766277727440F1E
:100B3000551FFA01E756FE4F80819181A0E0B0E099
:100B400018C040E00E94EB028111E8CFB9CFB70195
:100B5000A6014F77552766277727440F551F440F67
:100B6000551FFA01E756FE4F80819181A281B38122
:100B7000BF7088839983AA83BB8381E0DF91CF9183
:100B80001F910F91FF90EF90DF90CF90BF90AF90AB
:100B90009F908F9008954F925F926F927F928F9265
:100BA0009F92AF92BF92EF92FF920F931F93CF93BA
:100BB000DF9300D000D01F92CDB7DEB78C016D83DC
:100BC000DC0115968C911597813009F057C0149669
:100BD0008C9181FF53C05AC0038CF48DE02D258584
:100BE00030E0275F3F4F2A013B01B1E04B1A51082B
:100BF00061087108022E04C0769467945794479454
:100C00000A94D2F7D501C4010197A109B10904C022
:100C1000B695A795979587952A95D2F7841595054A
:100C2000A605B70508F070C0F8014789508D618DA1
:100C3000728D46835783608771872C013D0178014F
:100C4000E6E0EE0EF11CD801411451046104710478
:100C500009F464C016964D915D916D917C91199740
:100C600097015B968D919C915C970E944705B1E03E
:100C70004B1A5108610871088111E5CF81E090E0BD
:100C8000F8019383828380E090E04FC182FF0EC021
:100C9000F801428553856485758583889488A58885
:100CA000B688481559056A057B05F1F4D8011A96EE
:100CB0004D915D916D917C911D975B968D919C916D
:100CC0005C97FC0174807A944A015B0129E0B69438
:100CD000A794979487942A95D1F778207A01F1E028
:100CE000FF22772011F164C081149104A104B104A2
:100CF00009F072CF1682178210861186F8011286CB
:100D0000138614861586D2CF452B462B472B09F424
:100D10008BCF84199509A609B7098FCF1A968D92A2
:100D20009D92AD92BC921D97C1CFE114F10409F0E0
:100D30003FC0F80146815781608571854115510595
:100D40006105710549F48789908DA18DB28D009759
:100D5000A105B10541F521C09E012F5F3F4F0E94C3
:100D60004705882309F48FCF89819A81AB81BC81A3
:100D7000F801238D348DF9012789203129F048EFBE
:100D80005FEF6FEF7FE004C048EF5FEF60E070E07F
:100D900084179507A607B70730F0C8010E94BB0A61
:100DA000811106C06BCFF80186839783A087B18736
:100DB000D8015B96ED91FC915C9716968D909D9075
:100DC000AD90BC901997B2E08B1A9108A108B108B8
:100DD000058404C0880C991CAA1CBB1C0A94D2F779
:100DE00086859785A089B189880E991EAA1EBB1E8B
:100DF000870C911CA11CB11CE114F10409F5F80148
:100E0000428553856485758583899489A589B689CA
:100E1000481759076A077B0798F00E94E00188236A
:100E200009F42CCF8092000190920101A09202015E
:100E3000B09203018091940181608093940108C075
:100E400041E0C501B4010E94EB02882309F416CFEA
:100E5000F701E756FE4F8D818083F80182859385E7
:100E6000A485B5850196A11DB11D82879387A487AE
:100E7000B5874389548965897689481759076A0770
:100E80007B0738F4838B948BA58BB68B8481806829
:100E90008483D80114968C9183FD03C081E090E097
:100EA00044C0F8019581992309F4E8CE87FF38C042
:100EB000668577858089918941E00E94EB028823CD
:100EC00009F4DCCED8015296EC91B0E2EB9F900190
:100ED0001124D901A756BE4F109709F4CFCEF801BF
:100EE0008581823050F443895489658976895C967E
:100EF0004D935D936D937C935F97F8018789908DF7
:100F0000A18DB28DF901E756FE4F938F828FB58B7D
:100F1000A48BD80114968C9114978F7714968C9388
:100F20000E94E0018111BACFA9CE0F900F900F90CF
:100F30000F900F90DF91CF911F910F91FF90EF9045
:100F4000BF90AF909F908F907F906F905F904F90E9
:100F50000895CF92DF92EF92FF920F931F93CF935A
:100F6000DF936C017A018B01C0E0D0E0CE15DF0584
:100F700089F0D8016D918D01D601ED91FC91019020
:100F8000F081E02DC6010995892B11F47E0102C084
:100F90002196ECCFC701DF91CF911F910F91FF9068
:100FA000EF90DF90CF900895FC01538D448D252F55
:100FB00030E0842F90E0821B930B541710F0CF96F3
:100FC000089501970895FC01918D828D981761F025
:100FD000828DDF01A80FB11D5D968C91928D9F5F70
:100FE0009F73928F90E008958FEF9FEF0895FC011B
:100FF000918D828D981731F0828DE80FF11D858DCE
:1010000090E008958FEF9FEF0895FC01918D228D60
:10101000892F90E0805C9F4F821B91098F739927E5
:1010200008958DEA94E00E94050821E0892B09F4D7
:1010300020E0822F0895FC01848DDF01A80FB11DEF
:10104000A35ABF4F2C91848D90E001968F739927FE
:10105000848FA689B7892C93A089B1898C918064EB
:101060008C93938D848D981306C00288F389E02DAC
:1010700080818F7D80830895EF92FF920F931F935D
:10108000CF93DF93EC0181E0888F9B8D8C8D98133B
:1010900005C0E889F989808185FD24C0F62E0B8D75
:1010A00010E00F5F1F4F0F731127E02E8C8DE81299
:1010B0000CC00FB607FCFACFE889F989808185FF5B
:1010C000F5CFCE010E941B08F1CF8B8DFE01E80FFA
:1010D000F11DE35AFF4FF0820B8FEA89FB89808173
:1010E000806207C0EE89FF896083E889F989808181
:1010F0008064808381E090E0DF91CF911F910F9118
:10110000FF90EF900895CF93DF93EC01888D8823B3
:10111000C9F0EA89FB89808185FD05C0A889B98964
:101120008C9186FD0FC00FB607FCF5CF808185FF3F
:10113000F2CFA889B9898C9185FFEDCFCE010E94AD
:101140001B08E7CFDF91CF91089580E090E0892BD5
:1011500029F00E94110881110C9400000895FB01F0
:10116000DC0111961C921E9213961C921E921297ED
:1011700015961C921E9214978617970749F0608166
:1011800071816115710521F0448155810C941E1205
:1011900008950E94CB1EFC011182108213821282DC
:1011A000158214826115710551F0FB010190002038
:1011B000E9F73197AF01461B570B0C941E120895A7
:1011C0006115710579F0FB0101900020E9F7319775
:1011D000AF01461B570BDC01ED91FC910280F381BE
:1011E000E02D099480E090E008951F920F920FB6D1
:1011F0000F9211242F933F934F935F936F937F939D
:101200008F939F93AF93BF93EF93FF938DEA94E0F7
:101210000E941B08FF91EF91BF91AF919F918F9119
:101220007F916F915F914F913F912F910F900FBEE2
:101230000F901F9018951F920F920FB60F921124C6
:101240002F938F939F93EF93FF93E091BD04F091C1
:10125000BE048081E091C304F091C40482FD12C0F9
:1012600090818091C6048F5F8F732091C70482178D
:1012700051F0E091C604F0E0E355FB4F958F809369
:10128000C60401C08081FF91EF919F918F912F91B2
:101290000F900FBE0F901F9018952091A4033091CE
:1012A000A5032817390771F49091A2038091A30335
:1012B000981741F0E091A203F0E0E150FC4F8081EB
:1012C00090E008958FEF9FEF089508951F93CF93B7
:1012D000DF93DC015C962D913C915D9721153105E2
:1012E00039F481E090E013969C938E9312973DC061
:1012F0005196ED91FC91529750969C915097892F61
:1013000080951FB75E964C915E9741FB772770F9E9
:1013100041FD6095F8944081772311F0492B01C07D
:1013200048234083E9012197F1F748E0508160FFAD
:1013300002C0592B01C058235083E9012197F1F7CE
:101340006695415099F7772321F090818923808316
:1013500003C08081982B90831FBF5C968D919C91D8
:101360005D970197F1F721E030E0C901DF91CF915E
:101370001F9108952091A4033091A50328173907E0
:1013800071F48091A3032091A20390E0805C9F4FB1
:10139000821B910960E470E00E94841C089580E043
:1013A00090E008952091A4033091A50328173907F0
:1013B000B9F49091A2038091A303981789F0E0916A
:1013C000A203F0E0E150FC4F80812091A20330E0C5
:1013D0002F5F3F4F2F7333272093A20390E0089590
:1013E0008FEF9FEF089585ED8093BC008091BC0046
:1013F00084FDFCCF10928A0408954091DA03262FD1
:1014000030E0240F311D21323105DCF420918A04B3
:101410002430C9F4FC0180E090E0861758F4309144
:10142000DA032191DC01A854BC4FA30FB11D2C930A
:101430000196F3CF8091DA03680F6093DA0380E0BE
:10144000089581E0089582E008950895E0918C0464
:1014500080918B04E81730F4F0E0E357FB4F808174
:1014600090E008958FEF9FEF089590918C04809104
:101470008B04981750F4E92FF0E0E357FB4F2081DD
:1014800030E09F5F90938C0402C02FEF3FEFC901C3
:10149000089580918B0490E020918C04821B910927
:1014A0000895CF92DF92EF92FF920F931F93CF9305
:1014B000DF937C01262F972F8A0180914004882397
:1014C00091F0C62FD72F6E01C40ED51ECC15DD05A9
:1014D00071F06991D701ED91FC910190F081E02DBF
:1014E000C7010995F3CF642F822F0E94FD09C8011F
:1014F000DF91CF911F910F91FF90EF90DF90CF90F0
:101500000895CF93DF931F92CDB7DEB76983209103
:1015100040042223D1F020916304203240F021E0E6
:1015200030E0FC013383228380E090E015C080919D
:101530004104E82FF0E0EE5BFB4F998190838F5FD1
:10154000809341048093630405C061E0CE0101965D
:101550000E94FD0981E090E00F90DF91CF91089506
:10156000089580E090E008958EBD00000DB407FE60
:10157000FDCF8EB508953F924F925F926F927F920A
:101580008F929F92AF92BF92CF92DF92EF92FF9293
:101590000F931F93CF93DF93CDB7DEB72C970FB682
:1015A000F894DEBF0FBECDBF5C01DC015B968D9071
:1015B0009C905C971696CD90DD90ED90FC901997DD
:1015C000C114D104E104F10439F0BFEFCB1ADB0AF6
:1015D000EB0AFB0A312C07C0F401C080D180E28005
:1015E000F38033243394F40181859285A385B485F7
:1015F0009C01AD012F5F3F4F4F4F5F4F29873A87C7
:101600004B875C87260137011D821E821F82188648
:10161000F40181859285A385B4852D813E814F811A
:101620005885281739074A075B0708F063C0898582
:101630009A85AB85BC858C159D05AE05BF0550F41C
:1016400082E0C82ED12CE12CF12C92E0492E512CB5
:10165000612C712C9E012F5F3F4FB701A601C40181
:101660000E944705882309F445C089819A81AB818E
:10167000BC81892B8A2B8B2B41F0260137019FEFF0
:10168000491A590A690A790A05C0C414D504E6043E
:10169000F70491F02D813E814F8158852F5F3F4F98
:1016A0004F4F5F4F2D833E834F8358873FEFC31AC1
:1016B000D30AE30AF30AACCF0FEF1FEF2FEF3FE09F
:1016C000B301A201C4010E94A704882399F0D501A7
:1016D00016964D915D916D917C911997411551052B
:1016E0006105710549F093018201C4010E94A704BC
:1016F000811102C080E02AC0D50116964D925D92FC
:101700006D927C921997332051F0D301C20101965A
:10171000A11DB11DF40180839183A283B383F501E0
:101720008789908DA18DB28D892B8A2B8B2B69F4A3
:10173000D50157964D925D926D927C925A97149670
:101740008C911497806814968C9381E02C960FB638
:10175000F894DEBF0FBECDBFDF91CF911F910F91E7
:10176000FF90EF90DF90CF90BF90AF909F908F90C1
:101770007F906F905F904F903F90089561E0FC01E3
:1017800084810E941D0280913F04811110923F04C8
:1017900008958FEF0C94B40A0F931F93CF93DF93A8
:1017A000EB010E94DF028B010E94C90B8F3F49F0C1
:1017B0000E94DF02601B710B6C177D07A8F380E0AD
:1017C00001C081E0DF91CF911F910F910895CF93D8
:1017D000DF93EC018E81882389F08F8198859C01AD
:1017E0002F5F3F4F38872F838230924018F40E943A
:1017F000C90BF3CFCE010E94BE0B1E82DF91CF91A9
:101800000895CF92DF92FF920F931F93CF93DF93B0
:1018100000D000D0CDB7DEB76C01F62E29833A8315
:101820004B835C830E94E70B80913F0429813A81BE
:101830004B815C81811109C081E080933F049091CC
:101840004A0580914B059CBD8DBD60E0F601848109
:1018500029833A834B835C830E941D026CE271E012
:10186000C6010E94CC0B8F2D80640E94B40A08E14F
:1018700010E05C814B813A812981DA01C901002E97
:1018800004C0B695A795979587950A94D2F72983B2
:101890003A834B835C830E94B40A08501109298162
:1018A0003A814B815C81083FFFEF1F0731F7FF2032
:1018B00029F088E0F81204C087E803C085E901C078
:1018C0008FEF0E94B40A10E00E94C90BF6018287D4
:1018D00087FF04C01F3F11F01F5FF6CF0F900F90DE
:1018E0000F900F90DF91CF911F910F91FF90DF909C
:1018F000CF900895EF92FF920F931F93CF93DF93B2
:10190000EC017901411551056105710511F482E180
:101910003CC08B85833039F089E0440F551F661F2A
:10192000771F8A95D1F79A01AB0168E1CE010E9439
:10193000010C882311F084E028C08EEF0E94B40AC5
:1019400087018EEFF81AF80181918F010E94B40A85
:101950000E151F05C1F78FEF0E94B40A8FEF0E948A
:10196000B40A0E94C90B8A878F71853031F081E1FA
:101970008D83CE010E94BE0B09C068E572E0CE01E6
:101980000E94CC0B811107C085E18D83CE010E949E
:10199000BE0B80E013C020E030E0A9016DE0CE0175
:1019A0000E94010C811104C00E94C90B882311F010
:1019B00084E1EBCFCE010E94BE0B81E0DF91CF919D
:1019C0001F910F91FF90EF9008951F920F920FB605
:1019D0000F9211242F933F934F935F936F937F93B5
:1019E0008F939F93AF93BF93EF93FF93E091A403E3
:1019F000F091A503309709F451C0968DA685B7855F
:101A0000858591FF04C09C91892329F447C09C914E
:101A1000892309F043C0A389B4899C918589809565
:101A200089238C93868997890197F1F7608D718D51
:101A3000A685B785558538E020E0CB010197F1F701
:101A4000822F90E095958795282F4C91452309F09A
:101A50002068315091F7868D81FD20958091A303F8
:101A600090E001968F7399273091A203381749F0BF
:101A7000A091A303B0E0A150BC4F2C938093A3038B
:101A800003C0868D8160868F828D938D0197F1F7DB
:101A9000A389B4899C918589892B8C93FF91EF91BF
:101AA000BF91AF919F918F917F916F915F914F9176
:101AB0003F912F910F900FBE0F901F9018951F927E
:101AC0000F920FB60F9211242F933F934F935F9372
:101AD0006F937F938F939F93AF93BF93EF93FF93F6
:101AE0008091B900887F803609F49CC068F58832FF
:101AF00009F45BC090F4803109F454C038F48823B1
:101B000009F4F6C0883009F44DC0F6C0883109F4F4
:101B10004CC0803209F45DC0EFC0803409F468C065
:101B200048F4803309F455C0883309F0E5C0809348
:101B30008804D8C0803509F44FC0883509F45DC0E9
:101B4000883409F0D9C0D6C0883909F4C7C0A8F4D0
:101B5000883709F467C038F4883609F463C08037E1
:101B600009F460C0C9C0883809F4B8C0803909F4E4
:101B70005FC0803809F0C0C05BC0803B09F486C0FC
:101B800038F4803A09F466C0883A09F47FC0B4C0DA
:101B9000803C09F4A7C0883C09F4A4C0883B09F440
:101BA0008AC0AAC08091850410C09091870480915A
:101BB0008604981770F5E091870481E08E0F80937A
:101BC0008704F0E0EC59FB4F80818093BB0085ECEB
:101BD00086C0809388048EC0E091870481E08E0FD8
:101BE000809387048091BB00F0E0EC59FB4F808329
:101BF00090918704809186046EC0E091870481E013
:101C00008E0F809387048091BB00F0E0EC59FB4F6E
:101C100080838091890481116DC081E08093840468
:101C200084EA61C083E080938A041092FE03CFCFE0
:101C30008091FE03803208F051C0E091FE0381E004
:101C40008E0F8093FE038091BB00F0E0E252FC4FC8
:101C50008083BDCF85EC8093BC0010928A04809174
:101C6000FE03803230F4E091FE03F0E0E252FC4FDC
:101C700010826091FE0370E0E091DC03F091DD03DF
:101C80008EED93E009951092FE0336C084E08093B8
:101C90008A041092DB031092DA03E091D803F091EA
:101CA000D90309958091DA03811105C081E0809301
:101CB000DA031092B803E091DB0381E08E0F80938A
:101CC000DB03F0E0E854FC4F80818093BB009091EF
:101CD000DB038091DA03981708F479CF85E88093C5
:101CE000BC000AC085EC8093BC0010928A0404C03A
:101CF000109288040E94F309FF91EF91BF91AF9178
:101D00009F918F917F916F915F914F913F912F9113
:101D10000F900FBE0F901F901895CF93DF93EC019B
:101D200061E08FE00E941B104C815D8168817981A8
:101D300088E795E0DF91CF910C94A907CF92DF92CD
:101D4000EF92FF920F931F93CF93DF938C01C1E02B
:101D5000D0E06B01770FEE08FF080C171D0794F019
:101D600061E082E00E941D02C701B6010E94A50247
:101D700060E082E00E941D02C701B6010E94A50238
:101D80002196EBCFDF91CF911F910F91FF90EF90B4
:101D9000DF90CF9008958F929F92AF92BF920F9352
:101DA0001F93CF93DF93CDB7DEB7A1970FB6F8940B
:101DB000DEBF0FBECDBF19A2423008F44AE08E014B
:101DC0000F5D1F4F842E912CA12CB12CA5019401E5
:101DD0000E94981CE62FB901CA0101501109EA308E
:101DE00014F4E05D01C0E95CD801EC93232B242BB3
:101DF000252B61F7B80188E795E00E94E008A196DD
:101E00000FB6F894DEBF0FBECDBFDF91CF911F910B
:101E10000F91BF90AF909F908F9008950F931F9355
:101E2000CF93DF93EC0188819981009729F02A8173
:101E30003B812617370788F48B016F5F7F4F0E9425
:101E4000011E009761F0998388831B830A832C818C
:101E50003D81232B11F4FC01108281E001C080E060
:101E6000DF91CF911F910F9108954F925F926F92E2
:101E70007F928F929F92AF92BF92CF92DF92EF921A
:101E8000FF926B017C01B42E9B01AC010E947F1C70
:101E9000882319F063E871E027C026013701E89430
:101EA00077F82FEF3FEF4FE75FE7C301B2010E94E2
:101EB0007F1C81110DC02FEF3FEF4FE75FE7C3019C
:101EC000B2010E94F71918161CF467E871E00CC003
:101ED0002FEF3FEF4FE75FE4C701B6010E947A1C86
:101EE000181694F46BE871E088E795E0FF90EF90A6
:101EF000DF90CF90BF90AF909F908F907F906F902A
:101F00005F904F900C94E0082FEF3FEF4FE75FECAE
:101F1000C701B6010E94F71987FDE4CF20E030E049
:101F2000A901C701B6010E94F71987FF11C0E0910E
:101F30007805F09179050190F081E02D6DE288E758
:101F400095E009954C01F7FAF094F7F8F09402C087
:101F5000812C912CA12C60E070E080E09FE3AB1419
:101F600041F020E030E040E251E40E94D91BA3940C
:101F7000F6CF9B01AC01C701B6010E946D1B2B017E
:101F80003C010E944B1C6B017C010E94FC199B01CF
:101F9000AC01C301B2010E946C1B2B013C014AE061
:101FA000C701B6010E94CB0E7C01E80CF91CBB20D6
:101FB00069F0E0917805F09179050190F081E02DCC
:101FC0006EE288E795E00995E80EF91EDB2CDD202E
:101FD00021F120E030E040E251E4C301B2010E946F
:101FE0005D1A2B013C010E944B1C4B01A12CB12C12
:101FF0004AE0C501B4010E94CB0EE80EF91EC501EE
:10200000B4010E94FC199B01AC01C301B2010E9402
:102010006C1B2B013C01DA94DACFC701FF90EF90E3
:10202000DF90CF90BF90AF909F908F907F906F90F8
:102030005F904F900895CF93DF93CDB7DEB7289789
:102040000FB6F894DEBF0FBECDBF1D8290E49E8315
:1020500024E12F8324E5288719829A8390E19B83CA
:1020600090E59C8390917F05691710F06FEF690FE1
:1020700040918005262F30E0FE01E20FF31F403132
:1020800021F4943011F4918101C09581682F690F7A
:10209000606888E795E028960FB6F894DEBF0FBE1B
:1020A000CDBFDF91CF910C94D603CF93DF93EC019A
:1020B00080918A048111FCCF91E090938A049093DF
:1020C00089048FEF8093880410928704909386048C
:1020D00090938504909185049068909385048091F5
:1020E0008404813061F4109284048091850480938B
:1020F000BB008091BC0083FDF8CF85EC01C085EE6C
:102100008093BC0080918A048130E1F38091870440
:10211000823018F49091870401C092E0A4E6B4E004
:102120002DE834E0F9018E2F821B891718F48D9168
:102130008193F9CF10928C0490938B0481E995E000
:102140000E94350A888381E995E00E94350A8983D7
:1021500081E090E0DF91CF91089520916304909108
:102160006204213208F04AC080918A048111FCCFB8
:1021700032E030938A0431E0309389043FEF3093AA
:1021800088041092870420938604A2E4B4E044E615
:1021900054E0FA013E2F341B321718F43D9131936D
:1021A000F9CF1092850420918504990F922B90937A
:1021B000850490918404913061F41092840490918C
:1021C00085049093BB009091BC0093FDF8CF95ECF3
:1021D00001C095EE9093BC0090918A049230E1F397
:1021E000909188049F3F79F080918804803241F07B
:1021F00080918804803331F084E005C081E003C021
:1022000082E001C083E010924104109263041092B6
:102210004004089521E02093400420E420936204C8
:102220001092410410926304FC01608181E995E001
:102230000E94810A0C94AD1010928C0410928B04B1
:10224000109241041092630410928A0481E08093FA
:1022500089041092840461E082E10E941D0261E021
:1022600083E10E941D02E9EBF0E080818E7F808394
:1022700080818D7F808388E48093B80085E480939B
:10228000BC000895CF93DF93FC01448155816081A8
:10229000718188E595E00E94A907EC016FE871E083
:1022A00088E595E00E94E0088C0F9D1FDF91CF919B
:1022B00008950F931F930E94DF026093600570934F
:1022C00061058093620590936305E0915805F09154
:1022D00059050284F385E02D88E595E0099597FF7F
:1022E0001FC00E94DF0200916005109161052091DE
:1022F000620530916305DC01CB01801B910BA20BC1
:10230000B30B00915C0510915D0520915E05309145
:102310005F0580179107A207B307B8F28FEF9FEF11
:102320001F910F910895EF92FF920F931F93CF93F8
:10233000DF938617970729F1FC0124813581FB0182
:102340004481558124173507F1F4232BD1F0DC01AA
:10235000CD91DC91008111818991882391F0082E23
:10236000000C990B0E94D01E7C01F80181918F0115
:10237000082E000C990B0E94D01EE816F90661F396
:1023800002C081E001C080E0DF91CF911F910F91E9
:10239000FF90EF900895EF92FF920F931F93CF93CA
:1023A000DF93FC01248135816115710511F480E012
:1023B00019C041155105A9F07B01EC018A01020FFA
:1023C000131FB8010E940E0F882389F328813981D9
:1023D0008C819D81B701820F931F0E94E11E1D8396
:1023E0000C8381E0DF91CF911F910F91FF90EF90CF
:1023F0000895CF93DF93EC0188819981009711F0C4
:102400000E94691D198218821D821C821B821A82F9
:10241000DF91CF910895CF93DF93EC01FB014481CD
:102420005581608171810E94CB11811103C0CE0161
:102430000E94F911CE01DF91CF910895EF92FF92A2
:102440000F931F93CF93DF93EC017B018A01BA01B5
:102450000E940E0F811104C0CE010E94F91107C025
:102460001D830C83B701888199810E94E11ECE01F2
:10247000DF91CF911F910F91FF90EF900895FC0194
:10248000808191810C94691DEF92FF920F931F93AD
:10249000CF93DF93CDB7DEB7A1970FB6F894DEBF29
:1024A0000FBECDBF7C01CB01BA01F70111821082B2
:1024B000138212821582148242E0420F8E010F5F56
:1024C0001F4F0E943C17009769F0FC01019000200B
:1024D000E9F73197AF01481B590BBC01C7010E94B6
:1024E0001E1203C0C7010E94F911A1960FB6F894FD
:1024F000DEBF0FBECDBFDF91CF911F910F91FF9037
:10250000EF900895CF93DF93CDB7DEB7AC970FB6BA
:10251000F894DEBF0FBECDBF789484B5826084BDD1
:1025200084B5816084BD85B5826085BD85B58160D7
:1025300085BD80916E00816080936E001092810055
:102540008091810082608093810080918100816010
:1025500080938100809180008160809380008091D1
:10256000B10084608093B1008091B000816080935D
:10257000B00080917A00846080937A0080917A0024
:10258000826080937A0080917A00816080937A00E3
:1025900080917A00806880937A001092C100109236
:1025A00073051092720510927105109270051092C9
:1025B0006F0510926E058FE190E090937505809302
:1025C000740590916405963108F057C021E030E021
:1025D00030936F0520936E052DE130E03093710547
:1025E000209370052DE030E0309373052093720541
:1025F00020916800983050F031E09E3008F430E0CF
:1026000081E001C0880F3A95EAF701C084E0822B8F
:1026100080936800983038F09E3040F0963148F052
:1026200020E030E008C02DE630E005C02BE630E0C9
:1026300002C02CE630E030936C0520936B05983097
:1026400030F481E001C0880F9A95EAF70EC0292F77
:1026500030E09E3018F42850310902C02E50310964
:1026600081E001C0880F2A95EAF780936D0580917B
:102670007405909175050197F1F78091720590911D
:102680007305892B49F1E091A403F091A50325E09E
:10269000E835F20709F1309739F0A389B4899C91A4
:1026A0008589809589238C93809176058E7F809390
:1026B00076051092A3031092A20388E595E090930B
:1026C000A5038093A403E0916B05F0916C059081C4
:1026D00080916D05892B80836AE070E080E090E056
:1026E0000E94A5021FB7F8948091A603811127C00C
:1026F000EEE9F1E08491E2EBF1E09491E82FF0E073
:10270000EE0FFF1FEA58FE4FA591B491EC91E9231B
:1027100021F461E08AE00E941D0261E08AE00E94EB
:1027200069028CB580618CBD8CB580648CBD61E024
:102730008DE00E94690261E08BE00E946902809155
:10274000A6038F5F8093A6031FBF0E941C110E94E7
:102750001C1111E01093400480E4809362041092F5
:102760004104109263040E94AD10811102C01093C5
:10277000A70320E042E060E188E795E00E946E0454
:1027800060E080E00E941B1060E671E088E795E061
:102790000E94E00861E080E00E941B1066E671E0A4
:1027A00088E795E00E94E00860E08BE00E941B1043
:1027B0006BE671E088E795E00E94E00861E08BE05D
:1027C0000E941B106DE671E088E795E00E94E0082A
:1027D00060E08FE00E941B106FE671E088E795E0F3
:1027E0000E94E00861E08FE00E941B1061E771E049
:1027F00088E795E00E94E0086AEF70E085E090E0ED
:102800000E949E0E43EEE42E8E010F5F1F4F55EE89
:10281000D52E6AE3F62E0E94DF026093B403709314
:10282000B5038093B6039093B703ECA6CE018C96C4
:102830000E940A11C8010E9455102981822F90E040
:10284000A0E0B0E04427582F692F7A2F8A819A019F
:10285000AB01282BA4EAB4E40E941B1BBC016D54FD
:102860007241072E000C880B990B0E94FE1920E084
:1028700030E048EC52E40E94D91B20E030E0A9018E
:102880000E946D1B4B015C016093B0037093B10318
:102890008093B2039093B303DBA6CE018B960E9484
:1028A0000A11C8010E9455102981822F90E0A0E0F2
:1028B000B0E04427582F692F7A2F8A819A01AB0103
:1028C000282BADE7B0E00E941B1BBC0166507109CC
:1028D00080E090E00E94FC1920E030E0A9010E9415
:1028E0006D1B2B013C016093AC037093AD0380938F
:1028F000AE039093AF0360E086E00E941B1041E0BE
:10290000C501B4010E94350F61E086E00E941B10F2
:1029100040E0C301B2010E94350F62E370E081E044
:1029200090E00E949E0E88E595E00E94BA09892BEE
:1029300009F44EC061E971E0CE0143960E94CB08D4
:102940000E94591197FD0AC089831A8241E050E024
:10295000B801CE0143960E94CB11F2CF63E771E03C
:10296000C8010E94CB08B801CE0143960E94931182
:10297000B82EC8010E943F12B1100BC067E771E08A
:10298000C8010E94CB08C8010E948D0EC8010E9498
:102990003F1269E771E0C8010E94CB08B801CE017F
:1029A00043960E949311B82EC8010E943F12B110A5
:1029B0000BC06DE771E0C8010E94CB08C8010E94FE
:1029C0008D0EC8010E943F12CE0143960E943F1215
:1029D0008091B4039091B503A091B603B091B70371
:1029E0004091A8035091A9036091AA037091AB0391
:1029F000841B950BA60BB70B803C944DA140B105F1
:102A000008F4D2C04091B0035091B1036091B20379
:102A10007091B30322E0CE0143960E9444121A8EB5
:102A2000198E1C8E1B8E1E8E1D8E4AE0B80182E010
:102A300090E00E945C17F80101900020E9F73197BF
:102A4000AF01401B510BB801CE0149960E941E12E6
:102A50006FE771E0C8010E94CB08BE01675E7F4F3F
:102A6000C8010E940B125C01FF8E18A241E050E0E9
:102A7000BE01615E7F4F0E94CB11811103C0C50171
:102A80000E94F911BE016D5E7F4FC5010E940B12BD
:102A9000BC01CE0185960E94AF08C8010E943F127A
:102AA000CE0149960E943F12CE0143960E943F12EA
:102AB0004091AC035091AD036091AE037091AF03B0
:102AC00022E0CE0143960E9444121A8E198E1C8E6B
:102AD0001B8E1E8E1D8E4AE0B80182E090E00E949F
:102AE0005C17F80101900020E9F73197AF01401B16
:102AF000510BB801CE0149960E941E1261E871E0A7
:102B0000C8010E94CB08BE01675E7F4FC8010E94CA
:102B10000B125C01FF8E18A241E050E0BE01615E25
:102B20007F4F0E94CB11811103C0C5010E94F91192
:102B3000BE016D5E7F4FC5010E940B12BC01CE012C
:102B40004F960E94AF08C8010E943F12CE014996DD
:102B50000E943F12CE0143960E943F12CE018596FD
:102B60000E94421160ED77E080E090E00E94A502B3
:102B7000CE014F960E9442118091B4039091B5030B
:102B8000A091B603B091B7038093A8039093A903D3
:102B9000A093AA03B093AB03CE014F960E943F12BD
:102BA000CE0185960E943F1268EB7BE080E090E0CA
:102BB0000E94A5020E94A5082ECE8CE495E00E94FA
:102BC0003F1282E595E00E943F128EE391E09093E0
:102BD0005905809358058091A4039091A5038855C9
:102BE000954071F4E0916B05F0916C0590818091B6
:102BF0006D058095892380831092A5031092A4030C
:102C00000895CF92DF92EF92FF92CF931092B0048B
:102C10001092AF0498EEC92E93E0D92EE12CF12C3E
:102C2000C092B104D092B204E092B304F092B40422
:102C30008EE091E09093AE048093AD0485EC90E03B
:102C40009093BA048093B90484EC90E09093BC0410
:102C50008093BB0480EC90E09093BE048093BD040D
:102C600081EC90E09093C0048093BF0482EC90E0EC
:102C70009093C2048093C10486EC90E09093C404C6
:102C80008093C3041092C6041092C7041092C80423
:102C90001092C90480E580934A0510924B0510926A
:102CA000A4051092A5051092A8051092AA0582E02D
:102CB00090E0A0E0B0E08093AB059093AC05A093CA
:102CC000AD05B093AE051092C2051092CC051092DE
:102CD000CB0580E291E09093CA058093C9051092DC
:102CE000CE051092940510929305C0929505D0924E
:102CF0009605E0929705F09298058CE291E090930A
:102D000092058093910581E995E090939E058093CB
:102D10009D0510927B0510927A0580E591E09093D5
:102D2000790580937805109288058FEF8093870549
:102D300010928605109289058FE380938305109287
:102D4000840510928505109282051092810584E019
:102D500080938A0582E080938B05C1E0C0938C0547
:102D600080E180938D0580E280938E0580E48093DE
:102D70008F0580E88093900540E050E063E088E7AD
:102D800095E00E942F0110925B0510925A05C092A7
:102D90005C05D0925D05E0925E05F0925F058EE3E2
:102DA00091E0909359058093580510926F05109209
:102DB0006E051092710510927005109273051092B5
:102DC00072051092750510927405809176058E7FBC
:102DD0008D7F8093760586958170682F6C2785E0BE
:102DE0000E941D0261E085E00E946902EDEAF1E0C7
:102DF000E491E0936805E9E9F1E0E491F0E0EE0F99
:102E0000FF1FE058FE4F8591949190936A0580933F
:102E1000690560E086E00E9469028091760581FD87
:102E200004C061E086E00E941D0286E08093640594
:102E3000EEEAF1E0E491E0936505EAE9F1E0E4917E
:102E4000F0E0EE0FFF1FE657FE4F859194919093AF
:102E500067058093660561E971E082E595E00E946F
:102E6000CB0861E971E08CE495E0CF91FF90EF90A1
:102E7000DF90CF900C94CB08EF920F931F93CF93DA
:102E8000DF93E80147FD02C034E001C034E1E42FE4
:102E9000440FFF0BF7FF03C0F195E195F109E32E15
:102EA000022F2E2FAE010E948117CE01DF91CF910C
:102EB0001F910F91EF900895BB274A3031F4992369
:102EC00022F4BDE2909581959F4F0C946817BB2723
:102ED000FB015527AA27880F991FAA1FA41710F0D6
:102EE000A41B83955051B9F7A05DAA3308F0A95DE2
:102EF000A193009779F7B111B1931192CB010C9482
:102F0000E7194F925F926F927F929F92AF92BF921A
:102F1000CF92DF92EF92FF920F931F93CF93DF93A5
:102F2000CDB7DEB729970FB6F894DEBF0FBECDBF81
:102F30006A01122FB02E2BE3201720F0FF24F39408
:102F4000F00E02C0BCE3FB2E0F2D27E0AE014F5F59
:102F50005F4F0E940F19AC018981982F99709130B1
:102F600031F0E1FC06C0E0FE06C090E205C09DE243
:102F700003C09BE201C090E0EE2DE07183FF3CC0F6
:102F8000911102C083E001C084E0811718F4212F61
:102F9000281B01C020E0E1110BC0F601822F30E2B6
:102FA000882319F031938150FBCFC20ED11C20E051
:102FB000992329F0D6019C93F60131966F01C60141
:102FC0000396E2FE0AC03EE4D6013C9341E411962A
:102FD0004C93119712963C9306C03EE6F60130835F
:102FE00041E641833283FC01322F40E2332309F46E
:102FF00042C041933150FACF82FF44C0911102C0C8
:1030000083E001C084E0811718F4212F281B01C040
:1030100020E0E1110BC0F601822F30E2882319F085
:1030200031938150FBCFC20ED11C20E0992329F0AF
:10303000D6019C93F60131966F01C6010396E2FE1C
:103040000BC039E4D6013C933EE411963C931197B2
:1030500036E412963C9307C039E6F60130833EE62B
:10306000318336E63283FC01322F40E2332319F0FC
:1030700041933150FBCFFC01E20FF11D10828EEF26
:103080009FEFB7C0F1E0911101C0F0E06F2F70E049
:103090001416150624F49A012F5F3F4F02C021E059
:1030A00030E0260F371FBB2029F06B2D70E06F5FDB
:1030B0007F4F02C060E070E0260F371F612F70E085
:1030C000261737071CF4121B212F01C020E03E2DCC
:1030D000387159F4D601322F60E2332319F06D9321
:1030E0003150FBCFC20ED11C20E0FF2331F0D601BE
:1030F0009C93B6016F5F7F4F6B01E1110BC0F6012E
:10310000922F30E3992319F031939150FBCFC20EE7
:10311000D11C20E09F2D940F3A81782F7071A72E3B
:1031200084FF03C0313309F49150191624F4993007
:1031300018F098E001C091E0E42F852F57FF02C0FE
:10314000E0E080E06E2F782FE0E0F0E0AEE29A2E33
:103150003A01691A71082A01461A570A0B2D10E024
:103160001195019511096F3F8FEF780729F4D6016A
:103170009C92C60101966C014617570784F06616AB
:1031800077066CF47F01E40CF51CA1E0B0E0AC0F15
:10319000BD1FEA0EFB1ED7011196BC9002C090E342
:1031A000B92E615071093196C60101967C016017F4
:1031B000710724F0D601BC926C01D5CF6417750756
:1031C00041F4363320F4353321F4A11002C081E3F9
:1031D000B82EF601B082F701822F90E2882319F011
:1031E00091938150FBCFF701E20FF11D108280E037
:1031F00090E029960FB6F894DEBF0FBECDBFDF91E9
:10320000CF911F910F91FF90EF90DF90CF90BF90E3
:10321000AF909F907F906F905F904F90089528306F
:1032200008F027E03327DA01990F311D87FD9160FF
:1032300000966105710539F432602E5F3D9330E3ED
:103240002A95E1F708959F3F30F0803871056105B8
:1032500009F03C5F3C5F3D93913008F08068911D20
:10326000DF93CF931F930F93FF92EF92192F987FC5
:103270009695E92F96959695E90FFF27EE53FF4F08
:1032800099273327EE24FF24A701E701059008942E
:10329000079428F4360FE71EF81E491F511D660FCC
:1032A000771F881F991F0694A1F70590079428F4AB
:1032B000E70EF81E491F561FC11D770F881F991F63
:1032C000661F0694A1F70590079428F4F80E491F8D
:1032D000561FC71FD11D880F991F661F771F0694A1
:1032E000A1F70590079420F4490F561FC71FD81F58
:1032F000990F661F771F881F0694A9F78491109570
:10330000177041F0D695C79557954795F794E79470
:103310001A95C1F7E8E6F0E068941590159135919B
:103320006591959105907FE27395E118F10A430B41
:10333000560BC90BD009C0F7E10CF11E431F561FF5
:10334000C91FD01D7EF4703311F48A95E6CFE8943E
:10335000015030F0080F0AF40027021708F4202F5C
:103360002395022F7A3328F079E37D932A95E9F7A4
:1033700010C07D932A9589F60694979567953795A1
:1033800017951794E118F10A430B560BC90BD00996
:1033900098F023957E9173957A3308F070E37C93CF
:1033A0002013B8F77E9170617D9330F0839571E3BF
:1033B0007D9370E32A95E1F71124EF90FF900F9130
:1033C0001F91CF91DF91992787FD90950895DC019A
:1033D000FC01672F71917723E1F7329704C07C914C
:1033E0006D9370836291AE17BF07C8F308950E9472
:1033F000391A08F481E00895E89409C097FB3EF477
:1034000090958095709561957F4F8F4F9F4F992331
:10341000A9F0F92F96E9BB279395F69587957795AF
:103420006795B795F111F8CFFAF4BB0F11F460FF6F
:103430001BC06F5F7F4F8F4F9F4F16C0882311F0C7
:1034400096E911C0772321F09EE8872F762F05C0DB
:10345000662371F096E8862F70E060E02AF09A9576
:10346000660F771F881FDAF7880F9695879597F96B
:103470000895990F0008550FAA0BE0E8FEEF161605
:103480001706E807F907C0F012161306E407F50758
:1034900098F0621B730B840B950B39F40A2661F0CC
:1034A000232B242B252B21F408950A2609F4A1406F
:1034B000A6958FEF811D811D08950E94701A0C94AE
:1034C000E11A0E94D31A38F00E94DA1A20F09523EC
:1034D00011F00C94CA1A0C94D01A11240C94151BD8
:1034E0000E94F21A70F3959FC1F3950F50E0551F9B
:1034F000629FF001729FBB27F00DB11D639FAA2749
:10350000F00DB11DAA1F649F6627B00DA11D661F97
:10351000829F2227B00DA11D621F739FB00DA11DB8
:10352000621F839FA00D611D221F749F3327A00D72
:10353000611D231F849F600D211D822F762F6A2F0E
:1035400011249F5750409AF0F1F088234AF0EE0F73
:10355000FF1FBB1F661F771F881F91505040A9F7A0
:103560009E3F510580F00C94CA1A0C94151B5F3FC6
:10357000E4F3983ED4F3869577956795B795F795DC
:10358000E7959F5FC1F7FE2B880F911D9695879554
:1035900097F9089597F99F6780E870E060E00895D3
:1035A0009FEF80EC089500240A941616170618065B
:1035B0000906089500240A94121613061406050637
:1035C0000895092E0394000C11F4882352F0BB0FC8
:1035D00040F4BF2B11F460FF04C06F5F7F4F8F4F2B
:1035E0009F4F089557FD9058440F551F59F05F3F66
:1035F00071F04795880F97FB991F61F09F3F79F015
:1036000087950895121613061406551FF2CF469596
:10361000F1DF08C0161617061806991FF1CF869518
:103620007105610508940895E894BB2766277727FC
:10363000CB0197F908950E945D1BA59F900DB49F43
:10364000900DA49F800D911D112408952F923F92FB
:103650004F925F926F927F928F929F92AF92BF92A2
:10366000CF92DF92EF92FF920F931F93CF93DF934E
:10367000CDB7DEB7CA1BDB0B0FB6F894DEBF0FBEAB
:10368000CDBF09942A88398848885F846E847D84F8
:103690008C849B84AA84B984C884DF80EE80FD80FA
:1036A0000C811B81AA81B981CE0FD11D0FB6F89470
:1036B000DEBF0FBECDBFED010895A29FB001B39F45
:1036C000C001A39F700D811D1124911DB29F700D2B
:1036D000811D1124911D08955058BB27AA270E94CF
:1036E000841B0C94E11A0E94D31A38F00E94DA1A53
:1036F00020F039F49F3F19F426F40C94D01A0EF4FC
:10370000E095E7FB0C94CA1AE92F0E94F21A58F3CD
:10371000BA17620773078407950720F079F4A6F5B6
:103720000C94141B0EF4E0950B2EBA2FA02D0B0158
:10373000B90190010C01CA01A0011124FF27591BF6
:1037400099F0593F50F4503E68F11A16F040A22FFC
:10375000232F342F4427585FF3CF4695379527956D
:10376000A795F0405395C9F77EF41F16BA0B620B6C
:10377000730B840BBAF09150A1F0FF0FBB1F661FB3
:10378000771F881FC2F70EC0BA0F621F731F841FF6
:1037900048F4879577956795B795F7959E3F08F01C
:1037A000B0CF9395880F08F09927EE0F97958795DE
:1037B00008950E94ED1B0C94E11A0E94DA1A58F049
:1037C0000E94D31A40F029F45F3F29F00C94CA1AE2
:1037D00051110C94151B0C94D01A0E94F21A68F324
:1037E0009923B1F3552391F3951B550BBB27AA27BA
:1037F00062177307840738F09F5F5F4F220F331FF4
:10380000441FAA1FA9F335D00E2E3AF0E0E832D0BB
:1038100091505040E695001CCAF72BD0FE2F29D0BE
:10382000660F771F881FBB1F261737074807AB0790
:10383000B0E809F0BB0B802DBF01FF2793585F4F05
:103840003AF09E3F510578F00C94CA1A0C94151B5F
:103850005F3FE4F3983ED4F3869577956795B795E7
:10386000F7959F5FC9F7880F911D9695879597F9F2
:103870000895E1E0660F771F881FBB1F621773076B
:103880008407BA0720F0621B730B840BBA0BEE1F80
:1038900088F7E09508950E94FA1A88F09F5798F0EB
:1038A000B92F9927B751B0F0E1F0660F771F881F45
:1038B000991F1AF0BA95C9F714C0B13091F00E945F
:1038C000141BB1E008950C94141B672F782F8827E0
:1038D000B85F39F0B93FCCF3869577956795B39586
:1038E000D9F73EF490958095709561957F4F8F4FF5
:1038F0009F4F08950E94391A08F48FEF08950E948F
:10390000391A880B990B089597FB072E16F400942B
:1039100007D077FD09D00E94BA1C07FC05D03EF401
:10392000909581959F4F0895709561957F4F08956B
:10393000A1E21A2EAA1BBB1BFD010DC0AA1FBB1FB3
:10394000EE1FFF1FA217B307E407F50720F0A21B25
:10395000B30BE40BF50B661F771F881F991F1A9492
:1039600069F760957095809590959B01AC01BD01BC
:10397000CF010895AA1BBB1B51E107C0AA1FBB1FA3
:10398000A617B70710F0A61BB70B881F991F5A95EB
:10399000A9F780959095BC01CD010895EE0FFF1F0A
:1039A0000590F491E02D0994CF93DF938230910537
:1039B00010F482E090E0E091EA05F091EB0520E060
:1039C00030E0C0E0D0E0309711F1408151814817DC
:1039D0005907C0F04817590761F4828193812097F5
:1039E00019F09B838A832BC09093EB058093EA05A3
:1039F00026C02115310519F04217530718F49A0112
:103A0000BE01DF01EF010280F381E02DDCCF211543
:103A1000310509F1281B390B2430310590F4129639
:103A20008D919C9113976115710521F0FB01938392
:103A3000828304C09093EB058093EA05FD013296E2
:103A400044C0FD01E20FF31F81939193225031098D
:103A50002D933C933AC02091E8053091E905232B42
:103A600041F420910601309107013093E90520933C
:103A7000E80520910401309105012115310541F43B
:103A80002DB73EB74091080150910901241B350B19
:103A9000E091E805F091E905E217F307A0F42E1B89
:103AA0003F0B2817390778F0AC014E5F5F4F2417A2
:103AB000350748F04E0F5F1F5093E9054093E80526
:103AC0008193919302C0E0E0F0E0CF01DF91CF91CC
:103AD00008950F931F93CF93DF93009709F48CC041
:103AE000FC013297138212820091EA051091EB05D6
:103AF0000115110581F420813181820F931F2091DE
:103B0000E8053091E9052817390779F5F093E905BB
:103B1000E093E80571C0D80140E050E0AE17BF0760
:103B200050F412962D913C911397AD01211531055A
:103B300009F1D901F3CF9D01DA013383228360813A
:103B40007181860F971F8217930769F4EC01288112
:103B50003981260F371F2E5F3F4F318320838A81A3
:103B60009B8193838283452B29F4F093EB05E093AB
:103B7000EA0542C01396FC93EE931297ED0149912A
:103B800059919E01240F351FE217F30771F48081CC
:103B90009181840F951F029611969C938E9382813A
:103BA000938113969C938E931297E0E0F0E0D801F6
:103BB00012968D919C911397009719F0F8018C0142
:103BC000F6CF8D919C9198012E5F3F4F820F931FEE
:103BD0002091E8053091E9052817390769F43097F5
:103BE00029F41092EB051092EA0502C013821282AA
:103BF0001093E9050093E805DF91CF911F910F9194
:103C00000895A0E0B0E0E7E0FEE10C942A1BEC018F
:103C1000009721F4CB010E94D41CB8C0FC01E60F30
:103C2000F71F9C0122503109E217F30708F4ACC0DA
:103C3000D9010D911C91119706171707B0F00530A7
:103C4000110508F49FC0C80104978617970708F468
:103C500099C002501109061B170B019311936D9324
:103C60007C93CF010E94691D8DC05B01A01AB10A2F
:103C70004C01800E911EA091EA05B091EB0540E049
:103C800050E0E12CF12C109709F44AC0A815B905B1
:103C9000D1F56D907C901197630182E0C80ED11C24
:103CA000CA14DB0480F1A3014A195B096A0182E0AE
:103CB000C80ED11C1296BC9012971396AC91B5E029
:103CC000CB16D10440F0B282A38351834083D90143
:103CD0006D937C930AC00E5F1F4FC301800F911F2D
:103CE000F90191838083EB2DFA2FE114F10431F077
:103CF000D7011396FC93EE93129744C0F093EB0513
:103D0000E093EA053FC08D919C91119748175907A0
:103D100008F4AC017D0112960D90BC91A02DB3CF9B
:103D20008091E8059091E90588159905E1F4461719
:103D30005707C8F48091040190910501009741F460
:103D40008DB79EB74091080150910901841B950BD6
:103D5000E817F907C8F4F093E905E093E805F901DD
:103D6000718360830FC0CB010E94D41C7C0100973B
:103D700059F0A801BE010E94D81ECE010E94691D03
:103D8000C70104C0CE0102C080E090E0CDB7DEB72D
:103D9000EEE00C94461B81E090E0F8940C94E81E51
:103DA0009111089581548A5108F4805E855A0895CE
:103DB000FB01DC0102C001900D9241505040D8F748
:103DC0000895FB01DC0101900D920020E1F70895B8
:103DD00010E0CFEDD0E004C0FE010E94CE1C219681
:0A3DE000C03ED107C9F7F894FFCFE9
:103DEA00FFFFFFFF0000EC058000000000003C0818
:103DFA00A907D40783080508E307F70700000000AE
:103E0A00CB05A907B10AB00A00000000810A510ACD
:103E1A00B10A250A490A350A260A0000000066097D
:103E2A00A907B10A6509BA09D2094D0900000000BB
:103E3A004301A907B10AB00A6E042F01C601A50100
:103E4A0054656D703A0048756D3A00630025005755
:103E5A00005F00574B4F002100574F4B002A005478
:103E6A000048006E616E00696E66006F7666000D2E
:023E7A000A003C
:107800000C94343C0C94513C0C94513C0C94513CE1
:107810000C94513C0C94513C0C94513C0C94513CB4
:107820000C94513C0C94513C0C94513C0C94513CA4
:107830000C94513C0C94513C0C94513C0C94513C94
:107840000C94513C0C94513C0C94513C0C94513C84
:107850000C94513C0C94513C0C94513C0C94513C74
:107860000C94513C0C94513C11241FBECFEFD8E036
:10787000DEBFCDBF11E0A0E0B1E0ECE9FFE702C060
:1078800005900D92A230B107D9F712E0A2E0B1E065
:1078900001C01D92AD30B107E1F70E942D3D0C945F
:1078A000CC3F0C94003C982F959595959595959582
:1078B000905D8F708A307CF0282F295A8091C0000B
:1078C00085FFFCCF9093C6008091C00085FFFCCF60
:1078D0002093C6000895282F205DF0CF982F809127
:1078E000C00085FFFCCF9093C6000895EF92FF92F1
:1078F0000F931F93EE24FF2487018091C00087FD22
:1079000017C00894E11CF11C011D111D81E4E8164B
:1079100082E4F8068FE0080780E0180770F3E09132
:107920000401F091050109958091C00087FFE9CF1E
:107930008091C6001F910F91FF90EF9008950E94D3
:10794000763C982F8091C00085FFFCCF9093C600B5
:1079500091362CF490330CF09053892F089597555D
:10796000892F08951F930E949F3C182F0E949F3CCF
:107970001295107F810F1F9108951F93182F882350
:1079800021F00E94763C1150E1F71F9108951F935A
:10799000182F0E94763C803249F0809103018F5F5E
:1079A000809303018530C1F01F9108958091C0003C
:1079B00085FFFCCF84E18093C6008091C00085FFE5
:1079C000FCCF1093C6008091C00085FFFCCF80E102
:1079D0008093C6001F910895E0910401F091050184
:1079E00009951F9108950E94763C803241F0809164
:1079F00003018F5F80930301853081F008958091AA
:107A0000C00085FFFCCF84E18093C6008091C00058
:107A100085FFFCCF80E18093C6000895E0910401CA
:107A2000F09105010995089540E951E08823A1F0FE
:107A30002D9A28EE33E0FA013197F1F721503040CA
:107A4000D1F72D9828EE33E0FA013197F1F7215064
:107A50003040D1F7815061F708953F924F925F9285
:107A60006F927F928F929F92AF92BF92CF92DF924E
:107A7000EF92FF920F931F93CF93DF93000080E16B
:107A80008093C4001092C50088E18093C10086E015
:107A90008093C2005098589A259A81E00E94143D24
:107AA00024E1F22E9EE1E92E85E9D82E0FE0C02ECA
:107AB00010E1B12EAA24A394B1E49B2EA6E58A2E50
:107AC000F2E57F2EE0E26E2E79E4572E63E5462E36
:107AD00050E5352E0E94763C8033B1F18133B9F107
:107AE000803409F46FC0813409F476C0823409F41B
:107AF00085C0853409F488C0803531F1823521F1A3
:107B0000813511F1853509F485C0863509F48DC0BC
:107B1000843609F496C0843709F403C1853709F423
:107B200072C1863709F466C0809103018F5F80932C
:107B30000301853079F6E0910401F0910501099582
:107B40000E94763C803351F60E94F33CC3CF0E94E2
:107B5000763C803249F78091C00085FFFCCFF092DF
:107B6000C6008091C00085FFFCCF9092C600809136
:107B7000C00085FFFCCF8092C6008091C00085FFC9
:107B8000FCCF7092C6008091C00085FFFCCF609250
:107B9000C6008091C00085FFFCCF5092C600809146
:107BA000C00085FFFCCF4092C6008091C00085FFD9
:107BB000FCCF3092C6008091C00085FFFCCFB09210
:107BC000C60088CF0E94763C863808F4BDCF0E945C
:107BD000763C0E94F33C7ECF0E94763C803809F4CC
:107BE0009CC0813809F40BC1823809F43CC1883942
:107BF00009F48FC080E00E94C73C6CCF84E10E94F2
:107C0000BD3C0E94F33C66CF85E00E94BD3C0E94D3
:107C1000F33C60CF0E94763C809306010E94763C44
:107C2000809307010E94F33C55CF0E94763C80333D
:107C300009F41DC183E00E94BD3C80E00E94C73C66
:107C400049CF0E94763C809309020E94763C809343
:107C5000080280910C028E7F80930C020E94763C79
:107C6000853409F415C18091080290910902892B8D
:107C700089F000E010E00E94763CF801E85FFE4FDA
:107C800080830F5F1F4F80910802909109020817AF
:107C9000190788F30E94763C803209F045CF809125
:107CA0000C0280FF01C16091060170910701660F0F
:107CB000771F7093070160930601A0910802B091AD
:107CC00009021097C9F0E8E0F1E09B01AD014E0F09
:107CD0005F1FF999FECF32BD21BD819180BDFA9A17
:107CE000F99A2F5F3F4FE417F50799F76A0F7B1F4B
:107CF00070930701609306018091C00085FFFCCF5F
:107D0000F092C6008091C00085FFFCCFB092C60003
:107D1000E1CE83E00E94C73CDDCE82E00E94C73CFA
:107D2000D9CE0E94763C809309020E94763C8093D3
:107D300008028091060190910701880F991F909386
:107D40000701809306010E94763C853409F4A6C0A1
:107D500080910C028E7F80930C020E94763C8032D0
:107D600009F0B8CE8091C00085FFFCCFF092C6002C
:107D7000609108027091090261157105B9F140E046
:107D800050E080910C02A82FA170B82FB27011C0E2
:107D9000BB2309F45CC0E0910601F0910701319624
:107DA000F0930701E09306014F5F5F4F46175707B7
:107DB000E8F4AA2369F3F999FECF209106013091E6
:107DC000070132BD21BDF89A90B58091C00085FFB2
:107DD000FCCF9093C6002F5F3F4F30930701209355
:107DE00006014F5F5F4F4617570718F38091C00099
:107DF00085FDE5CE8091C00085FFF8CFE0CE81E023
:107E00000E94C73C67CE0E94763C803209F08CCE3F
:107E10008091C00085FFFCCFF092C6008091C00029
:107E200085FFFCCFE092C6008091C00085FFFCCFAB
:107E3000D092C6008091C00085FFFCCFC092C600E2
:107E40008091C00085FFFCCFB092C60043CEE09188
:107E50000601F091070194918091C00085FFFCCF4D
:107E60009093C6009CCF80E10E94C73C33CE0E9415
:107E7000763C0E94763C182F0E94763C112309F430
:107E800083C0113009F484C08FE00E94C73C22CE29
:107E900080910C02816080930C02E5CE80910C02EF
:107EA000816080930C0259CF809107018823880F4D
:107EB000880B8A2180930B02809106019091070123
:107EC000880F991F90930701809306018091080203
:107ED00080FF09C080910802909109020196909359
:107EE000090280930802F894F999FECF1127E091D6
:107EF0000601F0910701C8E0D1E08091080290915D
:107F00000902103091F40091570001700130D9F34B
:107F100003E000935700E89500915700017001308D
:107F2000D9F301E100935700E89509901990009169
:107F3000570001700130D9F301E000935700E89534
:107F40001395103498F011270091570001700130FB
:107F5000D9F305E000935700E895009157000170B0
:107F60000130D9F301E100935700E895329602976A
:107F700009F0C7CF103011F00296E5CF112480919F
:107F8000C00085FFB9CEBCCE8EE10E94C73CA2CD19
:0C7F900085E90E94C73C9ECDF894FFCF0D
:027F9C00800063
:040000030000780081
:00000001FF