:100000000C94E0000C9408010C9408010C94191055
:100010000C9419100C9419100C9408010C940801FC
:100020000C9408010C9408010C9408010C9408012C
:100030000C9408010C9408010C9408010C9408011C
:100040000C94C7010C9408010C94FC090C94D6097B
:100050000C9408010C9408010C9408010C940801FC
:100060000C9493100C94080100407A10F35A00A0ED
:10007000724E18090010A5D4E80000E87648170071
:1000800000E40B54020000CA9A3B000000E1F505B1
:10009000000080969800000040420F000000A086FB
:1000A00001000000102700000000E803000000002D
:1000B0006400000000000A000000000001000000D1
:1000C00000002C76D888DC674F0823DFC1DFAE59EB
:1000D000E1B1B796E5E3E453C63AE651997696E87E
:1000E000E6C28426EB898C9B62ED407C6FFCEFBC02
:1000F0009C9F40F2BAA56FA5F490055A2AF75C932D
:100100006B6CF9676DC11BFCE0E40D47FEF520E662
:10011000B500D0ED902E0300943577050080841E45
:10012000080000204E0A000000C80C333333330FA0
:10013000986E12831141EF8D2114893BE65516CF3D
:10014000FEE6DB18D1844B381BF77C1D901DA4BB49
:10015000E424203284725E228100C9F124ECA1E5FE
:100160003D27000000080002010000030407000012
:1001700000000000000000000000240027002A000A
:1001800000000000250028002B00000000002300D4
:1001900026002900040404040404040402020202E8
:1001A000020203030303030301020408102040803A
:1001B0000102040810200102040810209A15D51627
:1001C00011241FBECFEFD8E0DEBFCDBF25E0A2E9EE
:1001D000B1E001C01D92AC3EB207E1F711E0A0E032
:1001E000B1E0E4E6FDE302C005900D92A239B1074B
:1001F000D9F710E0CFEDD0E004C02197FE010E94B6
:100200008B1CCE3DD107C9F70E9455120C94A51E38
:100210000C94000021E001C0220F6A95EAF7DC018E
:100220001C962C931C971A965C934E931997ED91FC
:10023000FC910484F585E02D60E00994DC01ED91EA
:10024000FC910684F785E02D41E0099581E090E07E
:10025000089508950895FC0123812223B9F0918126
:10026000909569236083828191E09093B803809395
:10027000DA031092B9031092DB0389E095E00E9443
:10028000DB0F0E94D20C282F30E002C020E030E0CB
:1002900081E090E0232B11F080E090E00895EF9250
:1002A000FF920F931F93CF938C01FC01759684E00E
:1002B000C0E060FF02C09081C92B669581503196E5
:1002C0008111F7CF413011F4F8014489F801858597
:1002D000C82BC42B7801FEE0EF0EF11CF8016289F7
:1002E0006C2BC7010E942B01F801628960956C2379
:1002F000C701CF911F910F91FF90EF900C942B01AC
:100300000F931F93CF93DF93062F0F70423019F492
:1003100040E0602F10C0142F262FEC0130E0B9010F
:1003200084E0759567958A95E1F7CE010E944F01AB
:10033000412F602FCE01DF91CF911F910F910C942F
:100340004F01FC0184858823A9F021853285211580
:10035000310519F4611106C007C02130310521F4BF
:10036000611102C0858701C015866585CF010E9693
:100370000C942B0108952FB7F89460919A03709113
:100380009B0380919C0390919D032FBF08951F9222
:100390000F920FB60F9211242F933F938F939F9339
:1003A000AF93BF9380919A0390919B03A0919C037C
:1003B000B0919D033091990323E0230F2D3720F452
:1003C0000196A11DB11D05C026E8230F0296A11DAF
:1003D000B11D2093990380939A0390939B03A0935C
:1003E0009C03B0939D0380919E0390919F03A091E5
:1003F000A003B091A1030196A11DB11D80939E039E
:1004000090939F03A093A003B093A103BF91AF91DA
:100410009F918F913F912F910F900FBE0F901F9042
:100420001895DC01ED91FC910684F785E02D40E004
:1004300009940F931F93CF93DF93EC01423018F090
:100440008C8188608C834F836887222329F0413018
:1004500019F48C8184608C8364E670E080E090E025
:100460000E94B60A6C8164FD31C0E881F98106847E
:10047000F785E02D42E063E0CE0109958BE496E438
:100480000197F1F7E881F9810684F785E02D42E0D4
:1004900063E0CE01099503E512E0C8010197F1F789
:1004A000E881F9810684F785E02D42E063E0CE0122
:1004B0000995C8010197F1F7E881F9810684F7856C
:1004C000E02D42E062E0CE01099517C06062CE01E6
:1004D0000E9411028BE496E40197F1F76C8160624F
:1004E000CE010E94110203E512E0C8010197F1F765
:1004F0006C816062CE010E941102C8010197F1F780
:100500006C816062CE010E9411028BEE90E0019737
:10051000F1F784E08D836CE0CE010E94110261E06E
:10052000CE010E9411028BE39FE10197F1F782E077
:100530008E8366E0CE010E941102E881F981048475
:10054000F585E02D6FEFCE01DF91CF911F910F91D7
:100550000994FF920F931F93CF93DF93EC01162F13
:10056000042FF22E8B85888B0E94410D888991E0A3
:100570009093B8038093DA031092B9031092DB03CF
:100580000E94D20C91E0811190E0998B992329F07F
:1005900089E095E00E948F0F8E878989882339F042
:1005A0001F861C8260E0CE010E960E942B012F2D2B
:1005B000402F612FCE01DF91CF911F910F91FF90BE
:1005C0000C9419020F931F93CF93DF93EB010E94BA
:1005D000BB018B010E94C8118F3F49F00E94BB01F3
:1005E000601B710B6C177D07A8F380E001C081E0F0
:1005F000DF91CF911F910F910895EF92FF920F938A
:100600001F93CF93DF93EC017901411551056105EB
:10061000710511F482E13CC08B85833039F089E0AB
:10062000440F551F661F771F8A95D1F79A01AB01BA
:1006300068E1CE010E94CB11882311F084E028C02C
:100640008EEF0E94C11187018EEFF81AF801819197
:100650008F010E94C1110E151F05C1F78FEF0E9477
:10066000C1118FEF0E94C1110E94C8118A878F713A
:10067000853031F081E18D83CE010E940E1009C0DA
:1006800068E572E0CE010E94E202811107C085E1B7
:100690008D83CE010E940E1080E013C020E030E078
:1006A000A9016DE0CE010E94CB11811104C00E940E
:1006B000C811882311F084E1EBCFCE010E940E1007
:1006C00081E0DF91CF911F910F91FF90EF900895FE
:1006D000CF93DF9380919401882399F1C091920187
:1006E000D09193014091000150910101609102016C
:1006F0007091030129E931E0CE010E94FD028111D0
:1007000002C080E01FC04091950150919601609118
:10071000970170919801411551056105710579F0B6
:1007200029E931E0CE010E94FD02882351F31092A5
:1007300095011092960110929701109298011092D3
:10074000940181E0DF91CF910895CF93DF93EC0185
:100750008E81882389F08F8198859C012F5F3F4F80
:1007600038872F838230924018F40E94C811F3CF4B
:10077000CE010E940E101E82DF91CF910895BF928C
:10078000CF92DF92EF92FF920F931F93CF93DF935D
:100790006B017C01B42E8091000190910101A09128
:1007A0000201B09103018C159D05AE05BF0509F44A
:1007B00076C00E946803882309F478C0C091920132
:1007C000D09193018E81882369F088819981AA81D3
:1007D000BB81C816D906EA06FB0621F48F819885ED
:1007E000892BB1F1C882D982EA82FB828B85A7016D
:1007F0009601833039F089E0220F331F441F551FC3
:100800008A95D1F761E1CE010E94CB11882319F0BE
:1008100083E08D8337C00E94BB018B010E94C81109
:100820008A878F3F49F40E94BB01601B710B6D32B8
:100830007140A0F38FE003C08E3F31F08DE08D83D7
:10084000CE010E940E101EC018861F8281E08E838A
:1008500009E911E00E94C811F80181938F01F3E0CA
:1008600009391F07B9F78F8198859E5F98878F8315
:100870002985222319F08115924048F0CE010E946B
:10088000A50305C0CE010E940E1080E00FC0C092EB
:100890000001D0920101E0920201F09203018091E7
:1008A0009401482F4B294093940181E0DF91CF912F
:1008B0001F910F91FF90EF90DF90CF90BF90089520
:1008C0004F925F926F927F928F929F92AF92BF9260
:1008D000CF92DF92EF92FF920F931F93CF93DF930C
:1008E000EC016A017B0128013901423051056105A3
:1008F000710510F480E073C089859A85AB85BC854D
:100900000196A11DB11D84179507A607B70790F39F
:100910008B889C88AD88BE888F89803129F4BB275D
:10092000AF2D9E2D8D2D09C0DB01CA0147E0B69584
:10093000A795979587954A95D1F7880E991EAA1E77
:10094000BB1E8091000190910101A0910201B09124
:10095000030188169906AA06BB0679F48F898031AF
:10096000A1F4DD24EE24FF24C601880F991FFC01A9
:10097000E756FE4F5182408219C040E0C501B401E4
:100980000E94BF038111EACFB5CFE894C7F8DD24F8
:10099000EE24FF24C601880F991F880F991FFC01C0
:1009A000E756FE4F408251826282738280919401A9
:1009B0008160809394018A89823080F08D819E814C
:1009C000AF81B885880E991EAA1EBB1E8092950124
:1009D00090929601A0929701B092980181E0DF91E8
:1009E000CF911F910F91FF90EF90DF90CF90BF902C
:1009F000AF909F908F907F906F905F904F900895F1
:100A00008F929F92AF92BF92CF92DF92EF92FF921E
:100A10000F931F93CF93DF93FC0181859285A3856C
:100A2000B4850196A11DB11D84179507A607B707C8
:100A300010F480E05CC083899489A589B689C78950
:100A4000C03129F4852E962EA72EBB2409C04A0159
:100A50005B01C7E0B694A79497948794CA95D1F7A1
:100A6000E9016A017B018F01BC01CD01680D791D8F
:100A70008A1D9B1D8090000190900101A0900201B1
:100A8000B0900301681579058A059B0599F4F80172
:100A900087898031A9F4B701A601552766277727F2
:100AA000440F551FFA01E756FE4F80819181A0E067
:100AB000B0E018C040E00E94BF038111E8CFB9CF79
:100AC000B701A6014F77552766277727440F551F93
:100AD000440F551FFA01E756FE4F80819181A28194
:100AE000B381BF7088839983AA83BB8381E0DF9140
:100AF000CF911F910F91FF90EF90DF90CF90BF901B
:100B0000AF909F908F9008953F924F925F926F9217
:100B10007F928F929F92AF92BF92CF92DF92EF928D
:100B2000FF920F931F93CF93DF93CDB7DEB72C9730
:100B30000FB6F894DEBF0FBECDBF5C01DC015B9643
:100B40008D909C905C971696CD90DD90ED90FC90EA
:100B50001997C114D104E104F10439F0BFEFCB1AA5
:100B6000DB0AEB0AFB0A312C07C0F401C080D180FC
:100B7000E280F38033243394F40181859285A38548
:100B8000B4859C01AD012F5F3F4F4F4F5F4F2987C9
:100B90003A874B875C87260137011D821E821F82A0
:100BA0001886F40181859285A385B4852D813E81C7
:100BB0004F815885281739074A075B0708F063C03B
:100BC00089859A85AB85BC858C159D05AE05BF05CD
:100BD00050F482E0C82ED12CE12CF12C92E0492E69
:100BE000512C612C712C9E012F5F3F4FB701A60144
:100BF000C4010E940005882309F445C089819A81B7
:100C0000AB81BC81892B8A2B8B2B41F026013701CC
:100C10009FEF491A590A690A790A05C0C414D50414
:100C2000E604F70491F02D813E814F8158852F5FB6
:100C30003F4F4F4F5F4F2D833E834F8358873FEF8A
:100C4000C31AD30AE30AF30AACCF0FEF1FEF2FEF5B
:100C50003FE0B301A201C4010E946004882399F01F
:100C6000D50116964D915D916D917C911997411525
:100C700051056105710549F093018201C4010E948B
:100C80006004811102C080E02AC0D50116964D9201
:100C90005D926D927C921997332051F0D301C2017D
:100CA0000196A11DB11DF40180839183A283B383BA
:100CB000F5018789908DA18DB28D892B8A2B8B2B85
:100CC00069F4D50157964D925D926D927C925A9738
:100CD00014968C911497806814968C9381E02C96CE
:100CE0000FB6F894DEBF0FBECDBFDF91CF911F913D
:100CF0000F91FF90EF90DF90CF90BF90AF909F90BB
:100D00008F907F906F905F904F903F9008954F929B
:100D10005F926F927F928F929F92AF92BF92EF926B
:100D2000FF920F931F93CF93DF9300D000D01F92B9
:100D3000CDB7DEB78C016D83DC0115968C911597CC
:100D4000813009F057C014968C9181FF53C05AC06E
:100D5000038CF48DE02D258530E0275F3F4F2A017D
:100D60003B01B1E04B1A510861087108022E04C022
:100D700076946794579447940A94D2F7D501C401A6
:100D80000197A109B10904C0B695A79597958795D4
:100D90002A95D2F784159505A605B70508F070C009
:100DA000F8014789508D618D728D46835783608726
:100DB00071872C013D017801E6E0EE0EF11CD801AF
:100DC000411451046104710409F464C016964D91F4
:100DD0005D916D917C91199797015B968D919C9196
:100DE0005C970E940005B1E04B1A51086108710838
:100DF0008111E5CF81E090E0F8019383828380E068
:100E000090E04FC182FF0EC0F80142855385648592
:100E1000758583889488A588B688481559056A051C
:100E20007B05F1F4D8011A964D915D916D917C91FD
:100E30001D975B968D919C915C97FC0174807A94D0
:100E40004A015B0129E0B694A794979487942A9568
:100E5000D1F778207A01F1E0FF22772011F164C008
:100E600081149104A104B10409F072CF1682178293
:100E700010861186F8011286138614861586D2CF45
:100E8000452B462B472B09F48BCF84199509A609CE
:100E9000B7098FCF1A968D929D92AD92BC921D97F5
:100EA000C1CFE114F10409F03FC0F8014681578138
:100EB00060857185411551056105710549F4878982
:100EC000908DA18DB28D0097A105B10541F521C08E
:100ED0009E012F5F3F4F0E940005882309F48FCFAA
:100EE00089819A81AB81BC81F801238D348DF90110
:100EF0002789203129F048EF5FEF6FEF7FE004C0D2
:100F000048EF5FEF60E070E084179507A607B7072A
:100F100030F0C8010E948405811106C06BCFF80132
:100F200086839783A087B187D8015B96ED91FC916A
:100F30005C9716968D909D90AD90BC901997B2E0FD
:100F40008B1A9108A108B108058404C0880C991C6B
:100F5000AA1CBB1C0A94D2F786859785A089B18903
:100F6000880E991EAA1EBB1E870C911CA11CB11CC9
:100F7000E114F10409F5F80142855385648575850E
:100F800083899489A589B689481759076A077B0719
:100F900098F00E946803882309F42CCF8092000106
:100FA00090920101A0920201B092030180919401FC
:100FB00081608093940108C041E0C501B4010E94A2
:100FC000BF03882309F416CFF701E756FE4F8D8142
:100FD0008083F80182859385A485B5850196A11D3E
:100FE000B11D82879387A487B58743895489658912
:100FF0007689481759076A077B0738F4838B948BE7
:10100000A58BB68B848180688483D80114968C91DB
:1010100083FD03C081E090E044C0F80195819923ED
:1010200009F4E8CE87FF38C0668577858089918985
:1010300041E00E94BF03882309F4DCCED801529618
:10104000EC91B0E2EB9F90011124D901A756BE4F5D
:10105000109709F4CFCEF8018581823050F443898E
:101060005489658976895C964D935D936D937C93E5
:101070005F97F8018789908DA18DB28DF901E756B0
:10108000FE4F938F828FB58BA48BD80114968C91D1
:1010900014978F7714968C930E9468038111BACFAE
:1010A000A9CE0F900F900F900F900F90DF91CF91DE
:1010B0001F910F91FF90EF90BF90AF909F908F90F6
:1010C0007F906F905F904F900895CF92DF92EF9254
:1010D000FF920F931F93CF93DF936C017A018B01E3
:1010E000C0E0D0E0CE15DF0589F0D8016D918D010B
:1010F000D601ED91FC910190F081E02DC60109959A
:10110000892B11F47E0102C02196ECCFC701DF913B
:10111000CF911F910F91FF90EF90DF90CF900895A6
:10112000FC01538D448D252F30E0842F90E0821BED
:10113000930B541710F0CF96089501970895FC0172
:10114000918D828D981761F0828DDF01A80FB11DFE
:101150005D968C91928D9F5F9F73928F90E0089522
:101160008FEF9FEF0895FC01918D828D981731F0DC
:10117000828DE80FF11D858D90E008958FEF9FEF30
:101180000895FC01918D228D892F90E0805C9F4F06
:10119000821B91098F739927089585E294E00E943C
:1011A000C10821E0892B09F420E0822F0895FC0179
:1011B000848DDF01A80FB11DA35ABF4F2C91848DE0
:1011C00090E001968F739927848FA689B7892C9315
:1011D000A089B1898C9180648C93938D848D9813B0
:1011E00006C00288F389E02D80818F7D8083089579
:1011F000EF92FF920F931F93CF93DF93EC0181E067
:10120000888F9B8D8C8D981305C0E889F989808122
:1012100085FD24C0F62E0B8D10E00F5F1F4F0F735E
:101220001127E02E8C8DE8120CC00FB607FCFACF08
:10123000E889F989808185FFF5CFCE010E94D70822
:10124000F1CF8B8DFE01E80FF11DE35AFF4FF082C5
:101250000B8FEA89FB898081806207C0EE89FF8954
:101260006083E889F98980818064808381E090E0EF
:10127000DF91CF911F910F91FF90EF900895CF9341
:10128000DF93EC01888D8823C9F0EA89FB8980818E
:1012900085FD05C0A889B9898C9186FD0FC00FB660
:1012A00007FCF5CF808185FFF2CFA889B9898C91A1
:1012B00085FFEDCFCE010E94D708E7CFDF91CF9118
:1012C000089580E090E0892B29F00E94CD088111DB
:1012D0000C94000008953FB7F89480919E0390917C
:1012E0009F03A091A003B091A10326B5A89B05C0C0
:1012F0002F3F19F00196A11DB11D3FBFBA2FA92F95
:10130000982F8827820F911DA11DB11DBC01CD0111
:1013100042E0660F771F881F991F4A95D1F70895FD
:10132000FB01DC0111961C921E9213961C921E92D8
:10133000129715961C921E9214978617970749F0DC
:10134000608171816115710521F0448155810C9492
:10135000430E08950E94881EFC01118210821382A0
:101360001282158214826115710551F0FB01019002
:101370000020E9F73197AF01461B570B0C94430E41
:1013800008956115710579F0FB0101900020E9F7DE
:101390003197AF01461B570BDC01ED91FC910280A8
:1013A000F381E02D099480E090E008951F920F9260
:1013B0000FB60F9211242F933F934F935F936F9328
:1013C0007F938F939F93AF93BF93EF93FF9385E2A8
:1013D00094E00E94D708FF91EF91BF91AF919F9148
:1013E0008F917F916F915F914F913F912F910F90CE
:1013F0000FBE0F901F9018951F920F920FB60F926D
:1014000011242F938F939F93EF93FF93E0913504D3
:10141000F09136048081E0913B04F0913C0482FD20
:1014200012C0908180913E048F5F8F7320913F04A2
:10143000821751F0E0913E04F0E0EB5DFB4F958F99
:1014400080933E0401C08081FF91EF919F918F9125
:101450002F910F900FBE0F901F90189590E0FC01F8
:10146000EE59FE4F3491FC01E855FE4F2491FC01EA
:10147000EC56FE4FE491EE2309F43BC0332339F1DF
:10148000333091F038F43130A9F0323001F584B5C1
:101490008F7D12C0373091F03830A1F03430B9F47C
:1014A000809180008F7D03C0809180008F77809332
:1014B00080000DC084B58F7784BD09C08091B000D5
:1014C0008F7703C08091B0008F7D8093B000F0E0F3
:1014D000EE0FFF1FE058FE4FA591B4918FB7F8941F
:1014E000EC91611103C020952E2301C02E2B2C936B
:1014F0008FBF0895CF93DF9390E0FC01E855FE4F36
:101500002491FC01EC56FE4F8491882361F190E018
:10151000880F991FFC01EA58FE4FC591D491FC0138
:10152000E058FE4FA591B491611109C09FB7F8949E
:101530008881209582238883EC912E230BC0623012
:1015400061F49FB7F8943881822F80958323888334
:10155000EC912E2B2C939FBF06C08FB7F894E88197
:101560002E2B28838FBFDF91CF9108958F929F926A
:10157000AF92BF92CF92DF92EF92FF926B017C010C
:101580000E946B094B015C01C114D104E104F10418
:10159000F1F00E946B09DC01CB0188199909AA09B5
:1015A000BB09883E9340A105B10570F321E0C21A42
:1015B000D108E108F10888EE880E83E0981EA11C8E
:1015C000B11CC114D104E104F10419F7DDCFFF907F
:1015D000EF90DF90CF90BF90AF909F908F90089545
:1015E0008F929F92AF92BF920F931F93CF93DF93EF
:1015F000CDB7DEB7A1970FB6F894DEBF0FBECDBF53
:1016000019A2423008F44AE08E010F5D1F4F842E6C
:10161000912CA12CB12CA50194010E94551CE62F00
:10162000B901CA0101501109EA3014F4E05D01C0AA
:10163000E95CD801EC93232B242B252B61F7B8010F
:1016400080EF94E00E94C109A1960FB6F894DEBF26
:101650000FBECDBFDF91CF911F910F91BF90AF9083
:101660009F908F9008950F931F93CF93DF93EC017A
:1016700088819981009729F02A813B8126173707B5
:1016800088F48B016F5F7F4F0E94BE1D009761F051
:10169000998388831B830A832C813D81232B11F43A
:1016A000FC01108281E001C080E0DF91CF911F91A9
:1016B0000F9108954F925F926F927F928F929F92B7
:1016C000AF92BF92CF92DF92EF92FF926B017C01BB
:1016D000B42E9B01AC010E943C1C882319F063E8E6
:1016E00071E027C026013701E89477F82FEF3FEF2C
:1016F0004FE75FE7C301B2010E943C1C81110DC09E
:101700002FEF3FEF4FE75FE7C301B2010E94B4192B
:1017100018161CF467E871E00CC02FEF3FEF4FE79D
:101720005FE4C701B6010E94371C181694F46BE8F9
:1017300071E080EF94E0FF90EF90DF90CF90BF904A
:10174000AF909F908F907F906F905F904F900C9490
:10175000C1092FEF3FEF4FE75FECC701B6010E94D1
:10176000B41987FDE4CF20E030E0A901C701B6013C
:101770000E94B41987FF11C0E091F004F091F104C8
:101780000190F081E02D6DE280EF94E009954C012D
:10179000F7FAF094F7F8F09402C0812C912CA12C68
:1017A00060E070E080E09FE3AB1441F020E030E0C7
:1017B00040E251E40E94961BA394F6CF9B01AC013A
:1017C000C701B6010E942A1B2B013C010E94081C84
:1017D0006B017C010E94B9199B01AC01C301B201EC
:1017E0000E94291B2B013C014AE0C701B6010E945F
:1017F000F00A7C01E80CF91CBB2069F0E091F004D0
:10180000F091F1040190F081E02D6EE280EF94E020
:101810000995E80EF91EDB2CDD2021F120E030E0F7
:1018200040E251E4C301B2010E941A1A2B013C01AB
:101830000E94081C4B01A12CB12C4AE0C501B40147
:101840000E94F00AE80EF91EC501B4010E94B91900
:101850009B01AC01C301B2010E94291B2B013C0179
:10186000DA94DACFC701FF90EF90DF90CF90BF906E
:10187000AF909F908F907F906F905F904F90089562
:10188000CF93DF93CDB7DEB728970FB6F894DEBFBE
:101890000FBECDBF1D8290E49E8324E12F8324E5FB
:1018A000288719829A8390E19B8390E59C8390918D
:1018B000F704691710F06FEF690F4091F804262FB5
:1018C00030E0FE01E20FF31F403121F4943011F4B7
:1018D000918101C09581682F690F606880EF94E065
:1018E00028960FB6F894DEBF0FBECDBFDF91CF9123
:1018F0000C941102CF93DF93EC01809102048111CB
:10190000FCCF91E090930204909301048FEF8093B9
:1019100000041092FF039093FE039093FD039091B7
:10192000FD0390689093FD038091FC03813061F486
:101930001092FC038091FD038093BB008091BC005A
:1019400083FDF8CF85EC01C085EE8093BC008091CB
:1019500002048130E1F38091FF03823018F490910A
:10196000FF0301C092E0ACEDB3E025E034E0F90103
:101970008E2F821B891718F48D918193F9CF1092C5
:1019800004049093030489E095E00E948F0F8883FC
:1019900089E095E00E948F0F898381E090E0DF91DC
:1019A000CF9108952091DB039091DA03213208F062
:1019B0004AC0809102048111FCCF32E030930204CE
:1019C00031E0309301043FEF309300041092FF03A5
:1019D0002093FE03AAEBB3E04CED53E0FA013E2F57
:1019E000341B321718F43D913193F9CF1092FD0357
:1019F0002091FD03990F922B9093FD039091FC038E
:101A0000913061F41092FC039091FD039093BB0020
:101A10009091BC0093FDF8CF95EC01C095EE9093AA
:101A2000BC00909102049230E1F3909100049F3F3A
:101A300079F080910004803241F08091000480337D
:101A400031F084E005C081E003C082E001C083E0A2
:101A50001092B9031092DB031092B803089521E0AD
:101A60002093B80320E42093DA031092B903109274
:101A7000DB03FC01608189E095E00E94DB0F0C94A0
:101A8000D20C10920404109203041092B903109225
:101A9000DB031092020481E0809301041092FC03A6
:101AA00061E082E10E942E0A61E083E10E942E0A39
:101AB000E9EBF0E080818E7F808380818D7F808361
:101AC00088E48093B80085E48093BC000895CF93A8
:101AD000DF93FC01448155816081718180ED94E048
:101AE0000E946508EC016FE871E080ED94E00E94CF
:101AF000C1098C0F9D1FDF91CF9108950F931F9304
:101B00000E94BB016093D8047093D9048093DA04D7
:101B10009093DB04E091D004F091D1040284F3852A
:101B2000E02D80ED94E0099597FF1FC00E94BB0156
:101B30000091D8041091D9042091DA043091DB048B
:101B4000DC01CB01801B910BA20BB30B0091D404E1
:101B50001091D5042091D6043091D70480179107B5
:101B6000A207B307B8F28FEF9FEF1F910F9108956F
:101B7000EF92FF920F931F93CF93DF9386179707F0
:101B800029F1FC0124813581FB0144815581241711
:101B90003507F1F4232BD1F0DC01CD91DC910081EC
:101BA00011818991882391F0082E000C990B0E94D5
:101BB0008D1E7C01F80181918F01082E000C990B7C
:101BC0000E948D1EE816F90661F302C081E001C093
:101BD00080E0DF91CF911F910F91FF90EF900895DA
:101BE000EF92FF920F931F93CF93DF93FC01248119
:101BF00035816115710511F480E019C04115510559
:101C0000A9F07B01EC018A01020F131FB8010E94A9
:101C1000330B882389F3288139818C819D81B70119
:101C2000820F931F0E949E1E1D830C8381E0DF9113
:101C3000CF911F910F91FF90EF900895CF93DF9375
:101C4000EC0188819981009711F00E94261D19826C
:101C500018821D821C821B821A82DF91CF91089507
:101C6000CF93DF93EC01FB01448155816081718149
:101C70000E94F00D811103C0CE010E941E0ECE0104
:101C8000DF91CF910895EF92FF920F931F93CF931F
:101C9000DF93EC017B018A01BA010E94330B8111B1
:101CA00004C0CE010E941E0E07C01D830C83B70125
:101CB000888199810E949E1ECE01DF91CF911F9154
:101CC0000F91FF90EF900895FC01808191810C9419
:101CD000261DEF92FF920F931F93CF93DF93CDB703
:101CE000DEB7A1970FB6F894DEBF0FBECDBF7C0163
:101CF000CB01BA01F7011182108213821282158280
:101D0000148242E0420F8E010F5F1F4F0E94F916AE
:101D1000009769F0FC0101900020E9F73197AF01CD
:101D2000481B590BBC01C7010E94430E03C0C701E9
:101D30000E941E0EA1960FB6F894DEBF0FBECDBF57
:101D4000DF91CF911F910F91FF90EF900895209117
:101D5000A4033091A5032817390771F49091A203C9
:101D60008091A303981741F0E091A203F0E0E955B8
:101D7000FA4F808190E008958FEF9FEF08950895C6
:101D80001F93CF93DF93DC015C962D913C915D977F
:101D90002115310539F481E090E013969C938E93E0
:101DA00012973DC05196ED91FC91529750969C919F
:101DB0005097892F80951FB75E964C915E9741FB97
:101DC000772770F941FD6095F8944081772311F0F1
:101DD000492B01C048234083E9012197F1F748E0EE
:101DE000508160FF02C0592B01C058235083E90184
:101DF0002197F1F76695415099F7772321F090816B
:101E00008923808303C08081982B90831FBF5C96B9
:101E10008D919C915D970197F1F721E030E0C90128
:101E2000DF91CF911F9108952091A4033091A503D4
:101E30002817390771F48091A3032091A20390E041
:101E4000805C9F4F821B910960E470E00E94411CFE
:101E5000089580E090E008952091A4033091A503B7
:101E600028173907B9F49091A2038091A30398171A
:101E700089F0E091A203F0E0E955FA4F80812091CA
:101E8000A20330E02F5F3F4F2F7333272093A2032D
:101E900090E008958FEF9FEF089585ED8093BC004B
:101EA0008091BC0084FDFCCF109202040895409103
:101EB0008205262F30E0240F311D21323105DCF45C
:101EC000209102042430C9F4FC0180E090E08617E0
:101ED00058F4309182052191DC01A05ABA4FA30F2A
:101EE000B11D2C930196F3CF80918205680F60930A
:101EF000820580E0089581E0089582E008950895C4
:101F0000E091040480910304E81730F4F0E0EB5F03
:101F1000FB4F808190E008958FEF9FEF089590919F
:101F2000040480910304981750F4E92FF0E0EB5F6C
:101F3000FB4F208130E09F5F9093040402C02FEF9D
:101F40003FEFC90108958091030490E020910404BB
:101F5000821B91090895CF92DF92EF92FF920F9327
:101F60001F93CF93DF937C01262F972F8A018091B7
:101F7000B803882391F0C62FD72F6E01C40ED51E4B
:101F8000CC15DD0571F06991D701ED91FC910190BF
:101F9000F081E02DC7010995F3CF642F822F0E94B5
:101FA000570FC801DF91CF911F910F91FF90EF90D4
:101FB000DF90CF900895CF93DF931F92CDB7DEB718
:101FC00069832091B8032223D1F02091DB032032D2
:101FD00040F021E030E0FC013383228380E090E098
:101FE00015C08091B903E82FF0E0E654FC4F9981C9
:101FF00090838F5F8093B9038093DB0305C061E01A
:10200000CE0101960E94570F81E090E00F90DF9182
:10201000CF910895089580E090E0089561E0FC017B
:1020200084810E942E0A8091E70581111092E705B4
:1020300008951F920F920FB60F9211242F933F9382
:102040004F935F936F937F938F939F93AF93BF93C0
:10205000EF93FF93E091A403F091A503309709F467
:1020600051C0968DA685B785858591FF04C09C914A
:10207000892329F447C09C91892309F043C0A3898F
:10208000B4899C918589809589238C9386899789C9
:102090000197F1F7608D718DA685B785558538E07C
:1020A00020E0CB010197F1F7822F90E0959587957D
:1020B000282F4C91452309F02068315091F7868DE7
:1020C00081FD20958091A30390E001968F7399275D
:1020D0003091A203381749F0A091A303B0E0A955AD
:1020E000BA4F2C938093A30303C0868D8160868FA3
:1020F000828D938D0197F1F7A389B4899C9185898D
:10210000892B8C93FF91EF91BF91AF919F918F910C
:102110007F916F915F914F913F912F910F900FBEE3
:102120000F901F9018951F920F920FB60F921124C7
:102130002F933F934F935F936F937F938F939F93CF
:10214000AF93BF93EF93FF938091B900887F803660
:1021500009F49CC068F5883209F45BC090F48031C2
:1021600009F454C038F4882309F4F6C0883009F41F
:102170004DC0F6C0883109F44CC0803209F45DC00E
:10218000EFC0803409F468C048F4803309F455C0C6
:10219000883309F0E5C080930004D8C0803509F485
:1021A0004FC0883509F45DC0883409F0D9C0D6C065
:1021B000883909F4C7C0A8F4883709F467C038F42F
:1021C000883609F463C0803709F460C0C9C0883814
:1021D00009F4B8C0803909F45FC0803809F0C0C084
:1021E0005BC0803B09F486C038F4803A09F466C0CD
:1021F000883A09F47FC0B4C0803C09F4A7C0883C89
:1022000009F4A4C0883B09F48AC0AAC08091FD03E8
:1022100010C09091FF038091FE03981770F5E09134
:10222000FF0381E08E0F8093FF03F0E0E452FC4F48
:1022300080818093BB0085EC86C0809300048EC0B3
:10224000E091FF0381E08E0F8093FF038091BB003C
:10225000F0E0E452FC4F80839091FF038091FE03F5
:102260006EC0E091FF0381E08E0F8093FF038091A9
:10227000BB00F0E0E452FC4F8083809101048111A7
:102280006DC081E08093FC0384EA61C083E08093A9
:1022900002041092A605CFCF8091A605803208F0E7
:1022A00051C0E091A60581E08E0F8093A605809134
:1022B000BB00F0E0EA57FA4F8083BDCF85EC8093F6
:1022C000BC00109202048091A605803230F4E091A7
:1022D000A605F0E0EA57FA4F10826091A60570E07B
:1022E000E0918405F091850586E895E009951092C6
:1022F000A60536C084E080930204109283051092F4
:102300008205E0918005F091810509958091820513
:10231000811105C081E08093820510926005E091F3
:10232000830581E08E0F80938305F0E0E05AFA4F39
:1023300080818093BB0090918305809182059817DE
:1023400008F479CF85E88093BC000AC085EC8093BF
:10235000BC001092020404C0109200040E944D0FB1
:10236000FF91EF91BF91AF919F918F917F916F916D
:102370005F914F913F912F910F900FBE0F901F9043
:1023800018958EBD00000DB407FEFDCF8EB50895E3
:102390008FEF0C94C111CF92DF92FF920F931F9396
:1023A000CF93DF9300D000D0CDB7DEB76C01F62E0F
:1023B00029833A834B835C830E94A5038091E705C0
:1023C00029813A814B815C81811109C081E0809330
:1023D000E7059091C2048091C3049CBD8DBD60E06F
:1023E000F601848129833A834B835C830E942E0A01
:1023F0006CE271E0C6010E94E2028F2D80640E94AF
:10240000C11108E110E05C814B813A812981DA0138
:10241000C901002E04C0B695A795979587950A9493
:10242000D2F729833A834B835C830E94C111085001
:10243000110929813A814B815C81083FFFEF1F0719
:1024400031F7FF2029F088E0F81204C087E803C0C4
:1024500085E901C08FEF0E94C11110E00E94C811F0
:10246000F601828787FF04C01F3F11F01F5FF6CF80
:102470000F900F900F900F90DF91CF911F910F91C0
:10248000FF90DF90CF900895CF93DF93EC0161E050
:102490008FE00E94400C4C815D816881798180EFE2
:1024A00094E0DF91CF910C946508CF93DF93CDB783
:1024B000DEB7AC970FB6F894DEBF0FBECDBF7894F1
:1024C00084B5826084BD84B5816084BD85B5826039
:1024D00085BD85B5816085BD80916E0081608093EA
:1024E0006E00109281008091810082608093810053
:1024F0008091810081608093810080918000816063
:10250000809380008091B10084608093B1008091BD
:10251000B00081608093B00080917A0084608093E5
:102520007A0080917A00826080937A0080917A00AC
:10253000816080937A0080917A00806880937A002D
:102540001092C1001092EB041092EA041092E90478
:102550001092E8041092E7041092E6048FE190E0F4
:102560009093ED048093EC049091DC04963108F094
:1025700057C021E030E03093E7042093E6042DE1DA
:1025800030E03093E9042093E8042DE030E030930C
:10259000EB042093EA0420916800983050F031E079
:1025A0009E3008F430E081E001C0880F3A95EAF7E8
:1025B00001C084E0822B80936800983038F09E3010
:1025C00040F0963148F020E030E008C02DE630E0E1
:1025D00005C02BE630E002C02CE630E03093E40486
:1025E0002093E304983030F481E001C0880F9A957D
:1025F000EAF70EC0292F30E09E3018F42850310938
:1026000002C02E50310981E001C0880F2A95EAF7F7
:102610008093E5048091EC049091ED040197F1F72B
:102620008091EA049091EB04892B49F1E091A40395
:10263000F091A50324E0E03DF20709F1309739F06D
:10264000A389B4899C918589809589238C938091F5
:10265000EE048E7F8093EE041092A3031092A203E7
:1026600080ED94E09093A5038093A403E091E304AC
:10267000F091E40490818091E504892B80836AE0E5
:1026800070E080E090E00E94B60A1FB7F894809155
:10269000A603811127C0EEE9F1E08491E2EBF1E0BD
:1026A0009491E82FF0E0EE0FFF1FEA58FE4FA5913E
:1026B000B491EC91E92321F461E08AE00E942E0AB2
:1026C00061E08AE00E947A0A8CB580618CBD8CB58D
:1026D00080648CBD61E08DE00E947A0A61E08BE04D
:1026E0000E947A0A8091A6038F5F8093A6031FBF82
:1026F0000E94410D0E94410D11E01093B80380E447
:102700008093DA031092B9031092DB030E94D20C7B
:10271000811102C01093A70320E042E060E180EF46
:1027200094E00E94A90260E080E00E94400C60E614
:1027300071E080EF94E00E94C10961E080E00E94B6
:10274000400C66E671E080EF94E00E94C10960E011
:102750008BE00E94400C6BE671E080EF94E00E94F9
:10276000C10961E08BE00E94400C6DE671E080EFF2
:1027700094E00E94C10960E08FE00E94400C6FE687
:1027800071E080EF94E00E94C10961E08FE00E9457
:10279000400C61E771E080EF94E00E94C10943EED4
:1027A000E42E8E010F5F1F4F55EED52E6AE3F62EF5
:1027B0000E94BB016093B4037093B5038093B6038A
:1027C0009093B703ECA6CE018C960E942F0DC80102
:1027D0000E947A0C2981822F90E0A0E0B0E044278B
:1027E000582F692F7A2F8A819A01AB01282BA4EAEE
:1027F000B4E40E94D81ABC016D547241072E000C3B
:10280000880B990B0E94BB1920E030E048EC52E4A1
:102810000E94961B4B015C016093B0037093B1035F
:102820008093B2039093B303DBA6CE018B960E94F4
:102830002F0DC8010E947A0C2981822F90E0A0E020
:10284000B0E04427582F692F7A2F8A819A01AB0173
:10285000282BADE7B0E00E94D81ABC016650710980
:1028600080E090E00E94B9192B013C016093AC0319
:102870007093AD038093AE039093AF0360E086E066
:102880000E94400C41E0C501B4010E945A0B61E076
:1028900086E00E94400C40E0C301B2010E945A0B46
:1028A00080ED94E00E94140F892B09F44EC061E979
:1028B00071E0CE0143960E94AC090E947E0D97FD07
:1028C0000AC089831A8241E050E0B801CE014396E4
:1028D0000E94F00DF2CF63E771E0C8010E94AC09DD
:1028E000B801CE0143960E94B80DB82EC8010E94CF
:1028F000640EB1100BC067E771E0C8010E94AC091B
:10290000C8010E944412C8010E94640E69E771E088
:10291000C8010E94AC09B801CE0143960E94B80DCF
:10292000B82EC8010E94640EB1100BC06DE771E0B3
:10293000C8010E94AC09C8010E944412C8010E944B
:10294000640ECE0143960E94640E8091B403909170
:10295000B503A091B603B091B7034091A80350917D
:10296000A9036091AA037091AB03841B950BA60B7E
:10297000B70B803C944DA140B10508F4D2C0409102
:10298000B0035091B1036091B2037091B30322E0A0
:10299000CE0143960E94690E1A8E198E1C8E1B8ED4
:1029A0001E8E1D8E4AE0B80182E090E00E94191749
:1029B000F80101900020E9F73197AF01401B510B5E
:1029C000B801CE0149960E94430E6FE771E0C8013D
:1029D0000E94AC09BE01675E7F4FC8010E94300EA5
:1029E0005C01FF8E18A241E050E0BE01615E7F4FA6
:1029F0000E94F00D811103C0C5010E941E0EBE0190
:102A00006D5E7F4FC5010E94300EBC01CE018596E0
:102A10000E949009C8010E94640ECE0149960E944E
:102A2000640ECE0143960E94640E4091AC03509117
:102A3000AD036091AE037091AF0322E0CE014396E7
:102A40000E94690E1A8E198E1C8E1B8E1E8E1D8E74
:102A50004AE0B80182E090E00E941917F801019065
:102A60000020E9F73197AF01401B510BB801CE01AF
:102A700049960E94430E61E871E0C8010E94AC09CA
:102A8000BE01675E7F4FC8010E94300E5C01FF8E61
:102A900018A241E050E0BE01615E7F4F0E94F00D40
:102AA000811103C0C5010E941E0EBE016D5E7F4FE5
:102AB000C5010E94300EBC01CE014F960E949009C4
:102AC000C8010E94640ECE0149960E94640ECE0198
:102AD00043960E94640ECE0185960E94670D60EDBC
:102AE00077E080E090E00E94B60ACE014F960E9407
:102AF000670D8091B4039091B503A091B603B09196
:102B0000B7038093A8039093A903A093AA03B0935B
:102B1000AB03CE014F960E94640ECE0185960E94B3
:102B2000640E68EB7BE080E090E00E94B60A0E94B1
:102B300061093ECECF92DF92EF92FF92CF93109237
:102B400028041092270498EEC92E93E0D92EE12C88
:102B5000F12CC0922904D0922A04E0922B04F09226
:102B60002C048EE091E0909326048093250485EC5C
:102B700090E0909332048093310484EC90E0909341
:102B800034048093330480EC90E090933604809377
:102B9000350481EC90E0909338048093370482EC04
:102BA00090E090933A048093390486EC90E09093FF
:102BB0003C0480933B0410923E0410923F04109218
:102BC00040041092410480E58093C2041092C30433
:102BD00010921C0510921D051092200510922205DE
:102BE00082E090E0A0E0B0E080932305909324057C
:102BF000A0932505B093260510923A05109244053E
:102C00001092430580E291E0909342058093410544
:102C10001092460510920C0510920B05C0920D05FE
:102C2000D0920E05E0920F05F09210058CE291E033
:102C300090930A058093090589E095E09093160525
:102C4000809315051092F3041092F20480E591E050
:102C50009093F1048093F004109200058FEF80931D
:102C6000FF041092FE04109201058FE38093FB0491
:102C70001092FC041092FD041092FA041092F904D0
:102C800084E08093020582E080930305C1E0C09355
:102C9000040580E18093050580E28093060580E4C9
:102CA0008093070580E88093080540E050E063E0EA
:102CB00080EF94E00E940A011092D3041092D20493
:102CC000C092D404D092D504E092D604F092D704F6
:102CD0008EE391E09093D1048093D0041092E704A6
:102CE0001092E6041092E9041092E8041092EB04AA
:102CF0001092EA041092ED041092EC048091EE041C
:102D00008E7F8D7F8093EE0486958170682F6C276F
:102D100085E00E942E0A61E085E00E947A0AEDEAD1
:102D2000F1E0E491E093E004E9E9F1E0E491F0E01E
:102D3000EE0FFF1FE058FE4F859194919093E204AF
:102D40008093E10460E086E00E947A0A8091EE04BC
:102D500081FD04C061E086E00E942E0A86E0809337
:102D6000DC04EEEAF1E0E491E093DD04EAE9F1E06D
:102D7000E491F0E0EE0FFF1FE657FE4F859194912E
:102D80009093DF048093DE0461E971E08AEC94E0C3
:102D90000E94AC0961E971E084EC94E0CF91FF906E
:102DA000EF90DF90CF900C94AC0984EC94E00E94FB
:102DB000640E8AEC94E00E94640E8EE391E090939E
:102DC000D1048093D0048091A4039091A503805DE9
:102DD000944071F4E091E304F091E40490818091D7
:102DE000E5048095892380831092A5031092A403A3
:102DF0000895EF920F931F93CF93DF93E80147FD60
:102E000002C034E001C034E1E42F440FFF0BF7FFB0
:102E100003C0F195E195F109E32E022F2E2FAE01AB
:102E20000E943E17CE01DF91CF911F910F91EF903D
:102E30000895BB274A3031F4992322F4BDE29095DE
:102E400081959F4F0C942517BB27FB015527AA2777
:102E5000880F991FAA1FA41710F0A41B8395505127
:102E6000B9F7A05DAA3308F0A95DA193009779F79F
:102E7000B111B1931192CB010C94A4194F925F92AE
:102E80006F927F929F92AF92BF92CF92DF92EF921A
:102E9000FF920F931F93CF93DF93CDB7DEB72997A0
:102EA0000FB6F894DEBF0FBECDBF6A01122FB02E51
:102EB0002BE3201720F0FF24F394F00E02C0BCE3B4
:102EC000FB2E0F2D27E0AE014F5F5F4F0E94CC1805
:102ED000AC018981982F9970913031F0E1FC06C0E6
:102EE000E0FE06C090E205C09DE203C09BE201C087
:102EF00090E0EE2DE07183FF3CC0911102C083E0B1
:102F000001C084E0811718F4212F281B01C020E0A4
:102F1000E1110BC0F601822F30E2882319F03193C2
:102F20008150FBCFC20ED11C20E0992329F0D6019D
:102F30009C93F60131966F01C6010396E2FE0AC02A
:102F40003EE4D6013C9341E411964C9311971296BE
:102F50003C9306C03EE6F601308341E6418332836E
:102F6000FC01322F40E2332309F442C04193315037
:102F7000FACF82FF44C0911102C083E001C084E017
:102F8000811718F4212F281B01C020E0E1110BC08C
:102F9000F601822F30E2882319F031938150FBCF64
:102FA000C20ED11C20E0992329F0D6019C93F60192
:102FB00031966F01C6010396E2FE0BC039E4D601DB
:102FC0003C933EE411963C93119736E412963C9361
:102FD00007C039E6F60130833EE6318336E63283B8
:102FE000FC01322F40E2332319F041933150FBCFE3
:102FF000FC01E20FF11D10828EEF9FEFB7C0F1E0F0
:10300000911101C0F0E06F2F70E01416150624F442
:103010009A012F5F3F4F02C021E030E0260F371F9B
:10302000BB2029F06B2D70E06F5F7F4F02C060E026
:1030300070E0260F371F612F70E0261737071CF44A
:10304000121B212F01C020E03E2D387159F4D6010A
:10305000322F60E2332319F06D933150FBCFC20E53
:10306000D11C20E0FF2331F0D6019C93B6016F5FA5
:103070007F4F6B01E1110BC0F601922F30E39923D2
:1030800019F031939150FBCFC20ED11C20E09F2D3F
:10309000940F3A81782F7071A72E84FF03C03133CB
:1030A00009F49150191624F4993018F098E001C0F1
:1030B00091E0E42F852F57FF02C0E0E080E06E2F03
:1030C000782FE0E0F0E0AEE29A2E3A01691A71083A
:1030D0002A01461A570A0B2D10E011950195110986
:1030E0006F3F8FEF780729F4D6019C92C6010196B5
:1030F0006C014617570784F0661677066CF47F015B
:10310000E40CF51CA1E0B0E0AC0FBD1FEA0EFB1E05
:10311000D7011196BC9002C090E3B92E615071099D
:103120003196C60101967C016017710724F0D60123
:10313000BC926C01D5CF6417750741F4363320F487
:10314000353321F4A11002C081E3B82EF601B0821C
:10315000F701822F90E2882319F091938150FBCFE1
:10316000F701E20FF11D108280E090E029960FB682
:10317000F894DEBF0FBECDBFDF91CF911F910F91AD
:10318000FF90EF90DF90CF90BF90AF909F907F9097
:103190006F905F904F900895283008F027E0332714
:1031A000DA01990F311D87FD916000966105710567
:1031B00039F432602E5F3D9330E32A95E1F70895AC
:1031C0009F3F30F080387105610509F03C5F3C5F3E
:1031D0003D93913008F08068911DDF93CF931F934A
:1031E0000F93FF92EF92192F987F9695E92F96955E
:1031F0009695E90FFF27EE53FF4F99273327EE24CB
:10320000FF24A701E70105900894079428F4360FDE
:10321000E71EF81E491F511D660F771F881F991F53
:103220000694A1F70590079428F4E70EF81E491FAD
:10323000561FC11D770F881F991F661F0694A1F79F
:103240000590079428F4F80E491F561FC71FD11D7B
:10325000880F991F661F771F0694A1F705900794A2
:1032600020F4490F561FC71FD81F990F661F771FDD
:10327000881F0694A9F784911095177041F0D69590
:10328000C79557954795F794E7941A95C1F7E8E6DF
:10329000F0E06894159015913591659195910590A0
:1032A0007FE27395E118F10A430B560BC90BD00965
:1032B000C0F7E10CF11E431F561FC91FD01D7EF43D
:1032C000703311F48A95E6CFE894015030F0080F7E
:1032D0000AF40027021708F4202F2395022F7A33CF
:1032E00028F079E37D932A95E9F710C07D932A951C
:1032F00089F6069497956795379517951794E11871
:10330000F10A430B560BC90BD00998F023957E9117
:1033100073957A3308F070E37C932013B8F77E91AD
:1033200070617D9330F0839571E37D9370E32A950E
:10333000E1F71124EF90FF900F911F91CF91DF9152
:10334000992787FD90950895DC01FC01672F719105
:103350007723E1F7329704C07C916D93708362917B
:10336000AE17BF07C8F308950E94F61908F481E06C
:103370000895E89409C097FB3EF490958095709568
:1033800061957F4F8F4F9F4F9923A9F0F92F96E9B1
:10339000BB279395F695879577956795B795F11126
:1033A000F8CFFAF4BB0F11F460FF1BC06F5F7F4FC3
:1033B0008F4F9F4F16C0882311F096E911C07723D5
:1033C00021F09EE8872F762F05C0662371F096E8DE
:1033D000862F70E060E02AF09A95660F771F881FAD
:1033E000DAF7880F9695879597F90895990F000851
:1033F000550FAA0BE0E8FEEF16161706E807F907C7
:10340000C0F012161306E407F50798F0621B730B61
:10341000840B950B39F40A2661F0232B242B252BE2
:1034200021F408950A2609F4A140A6958FEF811D85
:10343000811D08950E942D1A0C949E1A0E94901AC4
:1034400038F00E94971A20F0952311F00C94871AF7
:103450000C948D1A11240C94D21A0E94AF1A70F396
:10346000959FC1F3950F50E0551F629FF001729F29
:10347000BB27F00DB11D639FAA27F00DB11DAA1F38
:10348000649F6627B00DA11D661F829F2227B00D85
:10349000A11D621F739FB00DA11D621F839FA00D10
:1034A000611D221F749F3327A00D611D231F849F60
:1034B000600D211D822F762F6A2F11249F575040B7
:1034C0009AF0F1F088234AF0EE0FFF1FBB1F661F32
:1034D000771F881F91505040A9F79E3F510580F0FB
:1034E0000C94871A0C94D21A5F3FE4F3983ED4F3FD
:1034F000869577956795B795F795E7959F5FC1F79F
:10350000FE2B880F911D9695879597F9089597F949
:103510009F6780E870E060E008959FEF80EC089579
:1035200000240A94161617061806090608950024A2
:103530000A9412161306140605060895092E03941C
:10354000000C11F4882352F0BB0F40F4BF2B11F490
:1035500060FF04C06F5F7F4F8F4F9F4F089557FDEF
:103560009058440F551F59F05F3F71F04795880FF1
:1035700097FB991F61F09F3F79F087950895121688
:1035800013061406551FF2CF4695F1DF08C0161634
:1035900017061806991FF1CF8695710561050894E5
:1035A0000895E894BB2766277727CB0197F90895FC
:1035B0000E941A1BA59F900DB49F900DA49F800D93
:1035C000911D112408952F923F924F925F926F9216
:1035D0007F928F929F92AF92BF92CF92DF92EF92A3
:1035E000FF920F931F93CF93DF93CDB7DEB7CA1B24
:1035F000DB0B0FB6F894DEBF0FBECDBF09942A884F
:10360000398848885F846E847D848C849B84AA84F6
:10361000B984C884DF80EE80FD800C811B81AA8183
:10362000B981CE0FD11D0FB6F894DEBF0FBECDBF4E
:10363000ED010895A29FB001B39FC001A39F700D3B
:10364000811D1124911DB29F700D811D1124911DAA
:1036500008955058BB27AA270E94411B0C949E1A1C
:103660000E94901A38F00E94971A20F039F49F3F78
:1036700019F426F40C948D1A0EF4E095E7FB0C94E3
:10368000871AE92F0E94AF1A58F3BA176207730717
:103690008407950720F079F4A6F50C94D11A0EF45E
:1036A000E0950B2EBA2FA02D0B01B90190010C0152
:1036B000CA01A0011124FF27591B99F0593F50F46A
:1036C000503E68F11A16F040A22F232F342F4427C2
:1036D000585FF3CF469537952795A795F0405395BA
:1036E000C9F77EF41F16BA0B620B730B840BBAF08A
:1036F0009150A1F0FF0FBB1F661F771F881FC2F7F5
:103700000EC0BA0F621F731F841F48F48795779508
:103710006795B795F7959E3F08F0B0CF9395880FC2
:1037200008F09927EE0F9795879508950E94AA1B98
:103730000C949E1A0E94971A58F00E94901A40F01A
:1037400029F45F3F29F00C94871A51110C94D21A76
:103750000C948D1A0E94AF1A68F39923B1F3552384
:1037600091F3951B550BBB27AA2762177307840794
:1037700038F09F5F5F4F220F331F441FAA1FA9F32A
:1037800035D00E2E3AF0E0E832D091505040E69518
:10379000001CCAF72BD0FE2F29D0660F771F881F79
:1037A000BB1F261737074807AB07B0E809F0BB0B6C
:1037B000802DBF01FF2793585F4F3AF09E3F510580
:1037C00078F00C94871A0C94D21A5F3FE4F3983E79
:1037D000D4F3869577956795B795F7959F5FC9F769
:1037E000880F911D9695879597F90895E1E0660FEA
:1037F000771F881FBB1F621773078407BA0720F063
:10380000621B730B840BBA0BEE1F88F7E0950895CB
:103810000E94B71A88F09F5798F0B92F9927B7518F
:10382000B0F0E1F0660F771F881F991F1AF0BA9564
:10383000C9F714C0B13091F00E94D11AB1E00895D7
:103840000C94D11A672F782F8827B85F39F0B93FC9
:10385000CCF3869577956795B395D9F73EF4909517
:103860008095709561957F4F8F4F9F4F08950E946F
:10387000F61908F48FEF08950E94F619880B990B3A
:10388000089597FB072E16F4009407D077FD09D012
:103890000E94771C07FC05D03EF4909581959F4FC0
:1038A0000895709561957F4F0895A1E21A2EAA1B85
:1038B000BB1BFD010DC0AA1FBB1FEE1FFF1FA217E0
:1038C000B307E407F50720F0A21BB30BE40BF50BDD
:1038D000661F771F881F991F1A9469F76095709566
:1038E000809590959B01AC01BD01CF010895AA1B65
:1038F000BB1B51E107C0AA1FBB1FA617B70710F0DB
:10390000A61BB70B881F991F5A95A9F7809590950C
:10391000BC01CD010895EE0FFF1F0590F491E02D3D
:103920000994CF93DF938230910510F482E090E008
:10393000E091EA05F091EB0520E030E0C0E0D0E056
:10394000309711F14081518148175907C0F048174D
:10395000590761F482819381209719F09B838A83B0
:103960002BC09093EB058093EA0526C02115310505
:1039700019F04217530718F49A01BE01DF01EF0155
:103980000280F381E02DDCCF2115310509F1281BE0
:10399000390B2430310590F412968D919C91139738
:1039A0006115710521F0FB019383828304C090931C
:1039B000EB058093EA05FD01329644C0FD01E20F5C
:1039C000F31F81939193225031092D933C933AC078
:1039D0002091E8053091E905232B41F4209106015F
:1039E000309107013093E9052093E8052091040107
:1039F000309105012115310541F42DB73EB74091B5
:103A0000080150910901241B350BE091E805F09164
:103A1000E905E217F307A0F42E1B3F0B281739071F
:103A200078F0AC014E5F5F4F2417350748F04E0F1A
:103A30005F1F5093E9054093E8058193919302C07D
:103A4000E0E0F0E0CF01DF91CF9108950F931F9355
:103A5000CF93DF93009709F48CC0FC013297138257
:103A600012820091EA051091EB050115110581F410
:103A700020813181820F931F2091E8053091E90563
:103A80002817390779F5F093E905E093E80571C047
:103A9000D80140E050E0AE17BF0750F412962D91C8
:103AA0003C911397AD012115310509F1D901F3CFEF
:103AB0009D01DA013383228360817181860F971F14
:103AC0008217930769F4EC0128813981260F371F8B
:103AD0002E5F3F4F318320838A819B819383828332
:103AE000452B29F4F093EB05E093EA0542C01396C9
:103AF000FC93EE931297ED01499159919E01240F89
:103B0000351FE217F30771F480819181840F951FAF
:103B1000029611969C938E938281938113969C9327
:103B20008E931297E0E0F0E0D80112968D919C916F
:103B30001397009719F0F8018C01F6CF8D919C91A5
:103B400098012E5F3F4F820F931F2091E80530911F
:103B5000E9052817390769F4309729F41092EB0525
:103B60001092EA0502C0138212821093E9050093B5
:103B7000E805DF91CF911F910F910895A0E0B0E08B
:103B8000E4ECFDE10C94E71AEC01009721F4CB0181
:103B90000E94911CB8C0FC01E60FF71F9C01225047
:103BA0003109E217F30708F4ACC0D9010D911C915B
:103BB000119706171707B0F00530110508F49FC0DC
:103BC000C80104978617970708F499C00250110995
:103BD000061B170B019311936D937C93CF010E94E9
:103BE000261D8DC05B01A01AB10A4C01800E911EEA
:103BF000A091EA05B091EB0540E050E0E12CF12CFA
:103C0000109709F44AC0A815B905D1F56D907C90BC
:103C10001197630182E0C80ED11CCA14DB0480F145
:103C2000A3014A195B096A0182E0C80ED11C1296F1
:103C3000BC9012971396AC91B5E0CB16D10440F02E
:103C4000B282A38351834083D9016D937C930AC0D0
:103C50000E5F1F4FC301800F911FF9019183808375
:103C6000EB2DFA2FE114F10431F0D7011396FC93F8
:103C7000EE93129744C0F093EB05E093EA053FC042
:103C80008D919C9111974817590708F4AC017D015B
:103C900012960D90BC91A02DB3CF8091E805909124
:103CA000E90588159905E1F446175707C8F480918E
:103CB000040190910501009741F48DB79EB74091A2
:103CC000080150910901841B950BE817F907C8F406
:103CD000F093E905E093E805F901718360830FC073
:103CE000CB010E94911C7C01009759F0A801BE01F4
:103CF0000E94951ECE010E94261DC70104C0CE0160
:103D000002C080E090E0CDB7DEB7EEE00C94031B7C
:103D100081E090E0F8940C94A51E911108958154CF
:103D20008A5108F4805E855A0895FB01DC0102C0C7
:103D300001900D9241505040D8F70895FB01DC01ED
:103D400001900D920020E1F7089510E0CFEDD0E052
:103D500004C0FE010E948B1C2196C03ED107C9F70A
:043D6000F894FFCF05
:103D6400FFFFFFFF0000EC05800000000000F808E2
:103D7400650890083F09C1089F08B30800000000C7
:103D8400870665080B100A1000000000DB0FAB0F5C
:103D94000B107F0FA30F8F0F800F00000000C00EC9
:103DA40065080B10BF0E140F2C0FA70E00000000A7
:103DB4001E0165080B100A10A9020A01A101800165
:103DC40054656D703A0048756D3A006300250057DC
:103DD400005F00574B4F002100574F4B002A0054FF
:103DE4000048006E616E00696E66006F7666000DB5
:023DF4000A00C3
:00000001FF
