:100000000C94EE000C9416010C9416010C94EA0169
:100010000C94EA010C94EA010C9416010C9416015C
:100020000C9416010C9416010C9416010C941601F4
:100030000C9416010C9416010C9416010C941601E4
:100040000C94AD1C0C9416010C94C31A0C949D1ABC
:100050000C9416010C9416010C9416010C941601C4
:100060000C949A020C94160100407A10F35A00A0E6
:10007000724E18090010A5D4E80000E87648170071
:1000800000E40B54020000CA9A3B000000E1F505B1
:10009000000080969800000040420F000000A086FB
:1000A00001000000102700000000E803000000002D
:1000B0006400000000000A000000000001000000D1
:1000C00000002C76D888DC674F0823DFC1DFAE59EB
:1000D000E1B1B796E5E3E453C63AE651997696E87E
:1000E000E6C28426EB898C9B62ED407C6FFCEFBC02
:1000F0009C9F40F2BAA56FA5F490055A2AF75C932D
:100100006B6CF9676DC11BFCE0E40D47FEF520E662
:10011000B500D0ED902E0300943577050080841E45
:10012000080000204E0A000000C80C333333330FA0
:10013000986E12831141EF8D2114893BE65516CF3D
:10014000FEE6DB18D1844B381BF77C1D901DA4BB49
:10015000E424203284725E228100C9F124ECA1E5FE
:100160003D27000000080002010000030407000012
:100170000000000000007C3C3E5E2B3D3F2F5B5D9D
:100180003B2C2A225C001F1C1F1E1F1E1F1F1E1F30
:100190001E1F00000000240027002A0000000000AD
:1001A000250028002B000000000023002600290065
:1001B000040404040404040402020202020203030D
:1001C0000303030301020408102040800102040815
:1001D00010200102040810206F253A2311241FBEAD
:1001E000CFEFD8E0DEBFCDBF26E0A2E3B2E001C092
:1001F0001D92AE38B207E1F712E0A0E0B1E0E2E410
:10020000FDE502C005900D92A233B107D9F710E0C9
:10021000CDEED0E004C02197FE010E94532CCC3ECD
:10022000D107C9F70E945E230C94942E0C94000011
:1002300085ED8093BC008091BC0084FDFCCF1092C2
:10024000F602089540918802262F30E0240F311DD8
:1002500021323105DCF42091F6022430C9F4FC018E
:1002600080E090E0861758F4309188022191DC01FB
:10027000AA59BD4FA30FB11D2C930196F3CF8091C6
:100280008802680F6093880280E0089581E00895F5
:1002900082E008950895E091AF028091AE02E817E0
:1002A00030F4F0E0E055FD4F808190E008958FEF4D
:1002B0009FEF08959091AF028091AE02981750F48D
:1002C000E92FF0E0E055FD4F208130E09F5F9093F3
:1002D000AF0202C02FEF3FEFC90108958091AE0237
:1002E00090E02091AF02821B91090895CF92DF9296
:1002F000EF92FF920F931F93CF93DF937C01262FF2
:10030000972F8A0180916502882391F0C62FD72FFD
:100310006E01C40ED51ECC15DD0571F06991D701B3
:10032000ED91FC910190F081E02DC7010995F3CF8B
:10033000642F822F0E942201C801DF91CF911F916B
:100340000F91FF90EF90DF90CF900895CF93DF93C0
:100350001F92CDB7DEB76983209165022223D1F0C9
:1003600020916402203240F021E030E0FC01338330
:10037000228380E090E015C080916302E82FF0E0D6
:10038000ED5BFD4F998190838F5F80936302809333
:10039000640205C061E0CE0101960E94220181E065
:1003A00090E00F90DF91CF910895089580E090E064
:1003B0000895CF93DF93EC0161E08FE00E94E90A9A
:1003C0004C815D816881798183E696E0DF91CF91F0
:1003D0000C9446171F920F920FB60F9211242F9371
:1003E0003F934F935F936F937F938F939F93AF93BD
:1003F000BF93EF93FF93E0913B03F0913C03309761
:1004000009F451C0968DA685B785858591FF04C0F6
:100410009C91892329F447C09C91892309F043C00A
:10042000A389B4899C918589809589238C93868939
:1004300097890197F1F7608D718DA685B7855585F0
:1004400038E020E0CB010197F1F7822F90E09595FD
:100450008795282F4C91452309F02068315091F75A
:10046000868D81FD209580913A0390E001968F73EF
:10047000992730913903381749F0A0913A03B0E039
:10048000A950BD4F2C9380933A0303C0868D8160A1
:10049000868F828D938D0197F1F7A389B4899C9102
:1004A0008589892B8C93FF91EF91BF91AF919F919B
:1004B0008F917F916F915F914F913F912F910F900D
:1004C0000FBE0F901F901895CF93CFB7F8948091DF
:1004D000AD02811127C0EAEBF1E08491EEECF1E08E
:1004E0009491E82FF0E0EE0FFF1FEE56FE4FA5911E
:1004F000B491EC91E92321F461E08AE00E94F51ABD
:1005000061E08AE00E942B1C8CB580618CBD8CB5AB
:1005100080648CBD61E08DE00E942B1C61E08BE06B
:100520000E942B1C8091AD028F5F8093AD02CFBFE4
:10053000CF9108951F920F920FB60F9211242F930F
:100540003F934F935F936F937F938F939F93AF935B
:10055000BF93EF93FF938091B900887F803609F4B1
:100560009CC068F5883209F45BC090F4803109F4CE
:1005700054C038F4882309F4F6C0883009F44DC01B
:10058000F6C0883109F44CC0803209F45DC0EFC078
:10059000803409F468C048F4803309F455C08833C6
:1005A00009F0E5C08093F402D8C0803509F44FC04B
:1005B000883509F45DC0883409F0D9C0D6C08839BF
:1005C00009F4C7C0A8F4883709F467C038F488363E
:1005D00009F463C0803709F460C0C9C0883809F4E1
:1005E000B8C0803909F45FC0803809F0C0C05BC072
:1005F000803B09F486C038F4803A09F466C0883A32
:1006000009F47FC0B4C0803C09F4A7C0883C09F459
:10061000A4C0883B09F48AC0AAC08091F10210C02E
:100620009091F3028091F202981770F5E091F30235
:1006300081E08E0F8093F302F0E0E053FD4F808164
:100640008093BB0085EC86C08093F4028EC0E0915D
:10065000F30281E08E0F8093F3028091BB00F0E003
:10066000E053FD4F80839091F3028091F2026EC0BF
:10067000E091F30281E08E0F8093F3028091BB0042
:10068000F0E0E053FD4F80838091F50281116DC051
:1006900081E08093F00284EA61C083E08093F602F7
:1006A0001092AC02CFCF8091AC02803208F051C0E2
:1006B000E091AC0281E08E0F8093AC028091BB0090
:1006C000F0E0E457FD4F8083BDCF85EC8093BC0004
:1006D0001092F6028091AC02803230F4E091AC02CC
:1006E000F0E0E457FD4F10826091AC0270E0E091C1
:1006F0008A02F0918B028CE892E009951092AC028C
:1007000036C084E08093F60210928902109288022B
:10071000E0918602F091870209958091880281110B
:1007200005C081E08093880210926602E091890200
:1007300081E08E0F80938902F0E0EA59FD4F8081BD
:100740008093BB009091890280918802981708F4E9
:1007500079CF85E88093BC000AC085EC8093BC000B
:100760001092F60204C01092F4020E941801FF9148
:10077000EF91BF91AF919F918F917F916F915F9119
:100780004F913F912F910F900FBE0F901F90189592
:100790002091640290914202213208F04AC0809177
:1007A000F6028111FCCF32E03093F60231E0309353
:1007B000F5023FEF3093F4021092F3022093F2021D
:1007C000A3E4B2E040ED52E0FA013E2F341B3217B1
:1007D00018F43D913193F9CF1092F1022091F1027A
:1007E000990F922B9093F1029091F002913061F465
:1007F0001092F0029091F1029093BB009091BC0096
:1008000093FDF8CF95EC01C095EE9093BC009091CC
:10081000F6029230E1F39091F4029F3F79F08091DB
:10082000F402803241F08091F402803331F084E0B0
:1008300005C081E003C082E001C083E01092630242
:100840001092640210926502089581E0809365021F
:100850006093420210926302109264020895109213
:10086000AF021092AE0210926302109264021092D4
:10087000F60281E08093F5021092F00261E082E1DD
:100880000E94F51A61E083E10E94F51AE9EBF0E0BD
:1008900080818E7F808380818D7F808380E28093C2
:1008A000B80085E48093BC0008958EBD00000DB4AF
:1008B00007FEFDCF8EB50895CF92DF92EF92FF92A3
:1008C0000F931F93CF93DF938C01C1E0D0E06B01B6
:1008D000770FEE08FF080C171D0794F061E082E027
:1008E0000E94F51AC701B6010E94671C60E082E011
:1008F0000E94F51AC701B6010E94671C2196EBCF32
:10090000DF91CF911F910F91FF90EF90DF90CF90EB
:1009100008952F923F924F925F926F927F928F92A3
:100920009F92AF92BF92CF92DF92EF92FF920F937E
:100930001F93CF93DF93CDB7DEB7CA5BD1090FB654
:10094000F894DEBF0FBECDBF0E94A11C60933E0293
:1009500070933F02809340029093410283EECC5407
:10096000DF4F8883C45BD040CE018C549F4F0E94E0
:100970003D0BCE0101960E94230B2981822F90E02E
:10098000A0E0B0E04427582F692F7A2F8A819A017E
:10099000AB01282BA4EAB4E40E94942ABC016D5454
:1009A0007241072E000C880B990B0E94772920E0DA
:1009B00030E048EC52E40E94522B6B017C016093C2
:1009C0003A0270933B0280933C0290933D0285EE85
:1009D000CD54DF4F8883C35BD040CE018D549F4FF1
:1009E0000E943D0BCE0101960E94230B2981822F8C
:1009F00090E0A0E0B0E04427582F692F7A2F8A8139
:100A00009A01AB01282BADE7B0E00E94942ABC010B
:100A10006650710980E090E00E9475294B015C01ED
:100A200060933602709337028093380290933902B4
:100A300060E086E00E94E90A21E0B701A60183E6B2
:100A400096E00E947E1961E086E00E94E90A20E0BB
:100A5000B501A40183E696E00E947E1962E370E08E
:100A600081E090E00E945C0483E496E00E94E70E3F
:100A7000892B09F45EC06AEC71E0CE0101960E94F8
:100A800069190E94770D97FD0CC08AA31BA241E053
:100A900050E0BE016E5D7F4FCE0101960E94E90DD0
:100AA000F0CF60E971E0CE0182960E946919BE0123
:100AB0006E5D7F4FCE0101960E94B10D182FCE01C1
:100AC00082960E941D1911110EC064E971E0CE01D9
:100AD00082960E946919CE0182960E94D901CE01A8
:100AE00082960E941D1966E971E0CE0182960E94ED
:100AF0006919BE016E5D7F4FCE0101960E94B10D56
:100B0000182FCE0182960E941D1911110EC06AE99C
:100B100071E0CE0182960E946919CE0182960E94F0
:100B2000D901CE0182960E941D19CE0101960E9424
:100B30001D1980913E0290913F02A0914002B09118
:100B4000410240913202509133026091340270911F
:100B50003502841B950BA60BB70B803C944DA1402E
:100B6000B10508F490C360913A0270913B02809104
:100B70003C0290913D0221961FAE1EAE2197239616
:100B80001FAE1EAE239725961FAE1EAE25978E0173
:100B90000F5F1F4F22E044E00E94AA26BC01CE0155
:100BA000CF960E9406191BA21AA21DA21CA21FA268
:100BB0001EA24AE0B80181E090E00E94CA267E01B0
:100BC00032E2E30EF11CB801C7010E9406196CE97C
:100BD00071E0C8010E946919B701C8010E94300E76
:100BE0008C018AE36D968FAF6D976E961FAE6E97F0
:100BF00041E050E0BE01645A7F4FC8010E94E90DF8
:100C0000811103C0C8010E94D318BE01615C7F4FEF
:100C1000C8010E94300EBC01CE018F559F4F0E942B
:100C20004F19CE0101960E941D19C7010E941D197E
:100C3000CE01CF960E941D19609136027091370245
:100C4000809138029091390221961FAE1EAE2197F5
:100C500023961FAE1EAE239725961FAE1EAE259778
:100C60008E010F5F1F4F22E044E00E94AA26BC01C4
:100C7000CE01CF960E9406191BA21AA21DA21CA289
:100C80001FA21EA24AE0B80181E090E00E94CA269D
:100C9000B801C7010E9406196EE971E0C8010E94FF
:100CA0006919B701C8010E94300E8C018AE36D9664
:100CB0008FAF6D976E961FAE6E9741E050E0BE010C
:100CC000645A7F4FC8010E94E90D811103C0C80119
:100CD0000E94D318BE01615C7F4FC8010E94300E94
:100CE000BC01CE0185569F4F0E944F19CE0101963F
:100CF0000E941D19C7010E941D19CE01CF960E94A6
:100D00001D19BE016F557F4F8FE495E00E947C1A3C
:100D1000BE0165567F4F8FE495E00E947C1ABE01AC
:100D20006F557F4F83E496E00E947C1A60ED77E078
:100D300080E090E00E94671CBE0165567F4F83E40F
:100D400096E00E947C1A80913E0290913F02A09111
:100D50004002B09141028093320290933302A093FB
:100D60003402B09335020E94500B29833A834B839F
:100D70005C836D837E8386E0FE013196DE01A157A0
:100D8000BF4F01900D928A95E1F7C157DF4F18814F
:100D9000CF58D040C057DF4F0881C059D0406AECCF
:100DA00071E0CE018B569F4F0E946919612F70E050
:100DB000600F711D6059764FCE018B569F4F0E9478
:100DC0000619BE016B567F4FCE0183559F4F0E947F
:100DD0004F190E94500BC757DF4F2883C958D04086
:100DE000C657DF4F3883CA58D040C557DF4F4883B6
:100DF000CB58D040C457DF4F5883CC58D040C3574E
:100E0000DF4F6883CD58D040C257DF4F7883CE582C
:100E1000D0404AE0672FCE018D579F4F0E94221984
:100E20004AE0C357DF4F6881CD58D040CE01835888
:100E30009F4F0E9422194AE0C457DF4F6881CC5867
:100E4000D040CE0189589F4F0E942219C757DF4FCB
:100E50008881C958D04090E06E961FAE1EAE6E9746
:100E6000A0961FAE1EAEA097A2961FAE1EAEA29772
:100E70004AE0BE016F5F7F4F8053984F0E94E0268B
:100E8000BE016F5F7F4FCE01845A9F4F0E940619AB
:100E90004AE0C657DF4F6881CA58D040CE01CF968E
:100EA0000E9422194AE0C557DF4F6881CB58D040D5
:100EB000CE0101960E942219BE016F5F7F4FC701CC
:100EC0000E944F1965EA71E0C7010E94170EBE012A
:100ED000615C7F4F0E94300E65EA71E00E94170E40
:100EE000BE01645A7F4F0E94300E67EA71E00E9493
:100EF000170EBE0169587F4F0E94300E67E272E004
:100F00000E94170EBE0163587F4F0E94300E67E2A9
:100F100072E00E94170EBE016D577F4F0E94300E87
:100F2000BC01CE0189559F4F0E944F19C7010E94F5
:100F30001D19CE0101960E941D19CE01CF960E9467
:100F40001D19CE01845A9F4F0E941D19CE01895848
:100F50009F4F0E941D19CE0183589F4F0E941D195B
:100F6000CE018D579F4F0E941D19809036029090A0
:100F70003702A0903802B090390240903A02509067
:100F80003B0260903C0270903D020E94A709C3554D
:100F9000DF4F88819981CD5AD040CB54DF4F998360
:100FA0008883C55BD04068E176E0C7010E94821566
:100FB0001C821B8282E391E09A8389831E82CB5438
:100FC000DF4F08811981C55BD040FE0131966F016A
:100FD00017016FE270E0C8010E94732E009709F4B8
:100FE00057C0F80120812F3219F40F5F1F4FF1CF46
:100FF000801B8D3008F08CE0282F30E0C954DF4F83
:1010000039832883C75BD040A901B801CE01845A37
:101010009F4F0E94852EECE5F0E0EC0FFD1FC954B8
:10102000DF4F88819981C75BD040E80FF91F10829C
:10103000C6010E940411F6018581882371F0239670
:101040001FAE1EAE239782E391E021969FAF8EAF35
:10105000219725961FAE25972FC021E0AE01445A57
:101060005F4FB101C6010E945420882341F3C95447
:10107000DF4F28813981C75BD040020F131FC101A8
:101080000E940411922D832D1601C92ED82EA1CFB6
:10109000C801CB54DF4FE881F981C55BD0408E1B7E
:1010A0009F0BC754DF4F99838883C95BD040B10140
:1010B000CE01CF960E948215CB54DF4F0881198153
:1010C000C55BD040C754DF4F28813981C95BD04010
:1010D000020F131FF801808181110AC0BE01615CFB
:1010E0007F4FCE0101960E94821545EA51E04EC025
:1010F0001DA21CA282E391E09BA38AA31FA22596B6
:101100008FAD259781111CC0A0961FAE1EAEA09773
:1011100088EE93E0A0E0B0E0A4968CAF9DAFAEAFB8
:10112000BFAFA4978EE091E06E969FAF8EAF6E97A3
:10113000E7961FAE1EAEE797A9961FAEA9972EC0E1
:10114000825023E1A801823040F468E176E0C701D3
:101150000E94542081110DC0D7CFBE01615C7F4F2A
:10116000C7010E945420882379F2CE01CF960E94B5
:1011700004114DA95EA96FA978ADC7010E94660F41
:10118000B701CE0101960E948215A801BE016F5FD2
:101190007F4FCE01845A9F4F0E94D315E796EEAD44
:1011A000FFADE797309709F44FC08581882309F494
:1011B0004BC069EA71E08FE495E00E94681AC5555A
:1011C000DF4F48815981CB5AD040C955DF4F6881E4
:1011D0007981C75AD040CE01845A9F4F0E9466152C
:1011E00064EB71E0CE01845A9F4F0E949B1A22E06B
:1011F000B301A201CE01845A9F4F0E947E1964EB75
:1012000071E0CE01845A9F4F0E949B1A22E0B501E3
:10121000A401CE01845A9F4F0E947E1964EB71E0B5
:10122000CE01845A9F4F0E94681AE7968EAD9FADFB
:10123000E797009779F00E940411E7968EAD9FAD75
:10124000E7970E94EE2C06C066EB71E08FE495E014
:101250000E94681ACE0189559F4F0E941D19CE0128
:1012600083559F4F0E941D19CE018B569F4F0E94A0
:101270001D19CE0185569F4F0E941D19CE018F5515
:101280009F4F0E941D1968EB7BE080E090E00E9478
:10129000671CC654DF4F0FB6F894DEBF0FBECDBF3C
:1012A000DF91CF911F910F91FF90EF90DF90CF9042
:1012B000BF90AF909F908F907F906F905F904F9076
:1012C0003F902F9008959091F6029111FCCF91E0FC
:1012D0009093F6029093F5022FEF2093F402109270
:1012E000F302260F2093F2029093F1029091F10203
:1012F000880F892B8093F1028091F002813061F494
:101300001092F0028091F1028093BB008091BC00AA
:1013100083FDF8CF85EC01C085EE8093BC00809101
:10132000F6028130E1F38091F302861710F46091A8
:10133000F302A0EDB2E020EB32E0F9018E2F821B28
:10134000861718F48D918193F9CF862F0895CF9247
:10135000DF92EF92FF921F93CF93DF931092F905E4
:101360001092F7051092F4051092F3058AE080932D
:10137000F2050E94A11C6B017C0161E08091F205E5
:101380000E942B1C61E08091F2050E94F51A0E94D8
:10139000640282E58093EC0581E08093ED05809105
:1013A000EC059091ED050E945C12DAE08FEF0E944F
:1013B0005504D150D9F7E6018EEE95E00E945F12F8
:1013C00020E030E0A90160E08EEE95E00E94751209
:1013D000182F8093F805813049F00E94A11C6C1BE6
:1013E0007D0B613D774060F381E054C02AEA31E033
:1013F00040E050E068E08EEE95E00E94751282FFBA
:1014000003C01093F9050EC014E00E9424128093CB
:10141000F8051150D1F78A3A11F082E03BC082E022
:101420008093F9058091F905823021F0C12CD12CEF
:10143000760105C0C12CD12CE12C30E4F32E20E044
:1014400030E0A90167E38EEE95E00E947512A701D6
:10145000960169E28EEE95E00E9475128093F80580
:10146000882349F00E94A11C6C1B7D0B613D7740D5
:1014700030F388E00FC08091F905823001F520E05B
:1014800030E0A9016AE38EEE95E00E947512882390
:1014900041F086E08093F3058EEE95E00E941912EC
:1014A0008FC00E942412807C803C19F483E08093DA
:1014B000F9050E9424120E9424120E9424128EEE2A
:1014C00095E00E94191280E58093EC0581E08093FD
:1014D000ED050E940B22882329F080911D068823A8
:1014E00041F06EC080E00E940B22882309F469C09D
:1014F000F4CF80911106803109F582E080931D06BA
:1015000010922F0610923006109231061092320679
:101510008091120690911306A0E0B0E025E0880FBC
:10152000991FAA1FBB1F2A95D1F780932B06909372
:101530002C06A0932D06B0932E061EC0803209F013
:101540003FC083E080931D0640911406509115061C
:10155000609116067091170640932F06509330063F
:1015600060933106709332062BE236E08AEF95E005
:101570000E94EB1F882321F18AEF95E090933406B7
:101580008093330681E080931C0610921E06109211
:101590001F06109220061092210610922206109229
:1015A0002306109224061092250610922606109209
:1015B0002706109228061092290610922A0601C0CA
:1015C00080E0DF91CF911F91FF90EF90DF90CF905F
:1015D0000895CF93DF93CDB7DEB728970FB6F89471
:1015E000DEBF0FBECDBF1D8290E49E8324E12F831A
:1015F00024E5288719829A8390E19B8390E59C8358
:1016000090916A06691710F06FEF690F40916B06B1
:10161000262F30E0FE01E20FF31F403121F4943019
:1016200011F4918101C09581682F690F606883E68C
:1016300096E028960FB6F894DEBF0FBECDBFDF91BF
:10164000CF910C94F71CCF93DF93EC0162E080E420
:101650000E9463091092AF028093AE028CE796E07D
:101660000E945A0188838CE796E00E945A01898380
:1016700081E090E0DF91CF910895CF93DF93EC016B
:1016800060E48CE796E00E94250468818CE796E090
:101690000E94A6018CE796E0DF91CF910C94C803DD
:1016A000EF92FF920F931F93CF93DF93CDB7DEB7E7
:1016B00028970FB6F894DEBF0FBECDBF68E68091C5
:1016C0008806909189060E94250480918806909151
:1016D0008906DC01ED91FC910190F081E02D60E044
:1016E000099580918806909189060E94C80367E059
:1016F00088E60E9463091092AF028093AE02809147
:10170000880690918906DC01ED91FC910284F385B5
:10171000E02D09958F77982F92959F701AEF082FDB
:10172000919F000D11248091880690918906DC011B
:10173000ED91FC910284F385E02D09959C013327FE
:1017400064E0359527956A95E1F7F82E129FF00C25
:1017500011248091880690918906DC01ED91FC911D
:101760000284F385E02D099586FF0CC0582F5F7128
:10177000952F92959F70919F500D112485FF0DC05C
:10178000545F0BC09C01332754E0359527955A953B
:10179000E1F7582F129F500D1124809188069091E7
:1017A0008906DC01ED91FC910284F385E02D5887D8
:1017B00009958091880690918906DC01ED91FC9154
:1017C0000284F385E02D09959C01332794E035953B
:1017D00027959A95E1F73AEFE32E482FE29E400DC8
:1017E00011248091880690918906DC01ED91FC918D
:1017F0000284F385E02D4F830995182F8091880688
:1018000090918906DC01ED91FC910284F385E02D35
:1018100009959C01332744E0359527954A95E1F7D2
:10182000E82FE29EE00D1124F0E09F012053384F95
:101830004F81588517FF02C02C593F4F1F77205DFD
:10184000812F82958F70312FB6E08B9F3019112434
:101850006F2D702F80E090E028960FB6F894DEBFD1
:101860000FBECDBFDF91CF911F910F91FF90EF90F1
:101870000895CF93C82F68E68091880690918906D5
:101880000E9425048091880690918906DC01ED91E3
:10189000FC910190F081E02D6C2F099580918806D4
:1018A000909189060E94C80361E088E60E9463095E
:1018B0001092AF028093AE028091880690918906C3
:1018C000DC01ED91FC910284F385E02D0995CF9127
:1018D0000895CF93DF93D82FC62F68E680918806AE
:1018E000909189060E94250480918806909189062E
:1018F000DC01ED91FC910190F081E02D6D2F0995B7
:101900008091880690918906DC01ED91FC9101900F
:10191000F081E02D6C2F09958091880690918906C1
:10192000DF91CF910C94C803CF92DF92FF920F9377
:101930001F93CF93DF93EC018FE00E94390C682F47
:101940006F778FE00E94690C68E68091880690911D
:1019500089060E9425048091880690918906DC0101
:10196000ED91FC910190F081E02D60E00995A0914E
:101970008806B09189062D81ED91FC9111971AE0AE
:10198000822F612F0E94FD2B982F880F980F990F9F
:10199000692F620F0190F081E02DCD010995A09192
:1019A0008806B09189062C81ED91FC911197822FC8
:1019B000612F0E94FD2B982F880F980F990F692F88
:1019C000620F0190F081E02DCD010995A09188066C
:1019D000B09189062B81ED91FC911197822F612F97
:1019E0000E94FD2B982F880F980F990F692F620F77
:1019F0000190F081E02DCD010995888190E09C0156
:101A00002053384F10E3120F143628F01CEC120F3D
:101A100020E8F22E01C0F12CE0918806F0918906B1
:101A20000190F081E02DC080D1804A8169810E94BF
:101A3000C71D069667E070E00E94092C682F809110
:101A4000880690918906F6010995A0918806B091C3
:101A500089063A81ED91FC9111970AE0832F602F5E
:101A60000E94FD2B982F880F980F990F692F630FF5
:101A70000190F081E02DCD0109952981A091880682
:101A8000B0918906ED91FC911197822F602F0E94F1
:101A9000FD2B982F880F980F990F290F6F2D622B10
:101AA0000190F081E02DCD010995A0918806B091BB
:101AB0008906ED91FC911197812F602F0E94FD2BDB
:101AC000682F880F680F660F610F0190F081E02D7D
:101AD000CD0109958091880690918906DF91CF917B
:101AE0001F910F91FF90DF90CF900C94C8030F933C
:101AF0001F930E94A11C60934B0670934C06809329
:101B00004D0690934E06E0914306F0914406028400
:101B1000F385E02D83E496E0099597FF1FC00E94AE
:101B2000A11C00914B0610914C0620914D0630915E
:101B30004E06DC01CB01801B910BA20BB30B009175
:101B40004706109148062091490630914A068017B1
:101B50009107A207B307B8F28FEF9FEF1F910F9184
:101B60000895EF92FF920F931F93CF93DF93861701
:101B7000970729F1FC0124813581FB0144815581BE
:101B800024173507F1F4232BD1F0DC01CD91DC9142
:101B9000008111818991882391F0082E000C990B06
:101BA0000E94552E7C01F80181918F01082E000CB6
:101BB000990B0E94552EE816F90661F302C081E0E8
:101BC00001C080E0DF91CF911F910F91FF90EF90C6
:101BD0000895EF92FF920F931F93CF93DF93FC0131
:101BE000248135816115710511F480E019C041151A
:101BF0005105A9F07B01EC018A01020F131FB80106
:101C00000E94AC18882389F3288139818C819D81B9
:101C1000B701820F931F0E947E2E1D830C8381E0EB
:101C2000DF91CF911F910F91FF90EF900895CF9387
:101C3000DF93EC016115710561F0FB01019000205B
:101C4000E9F73197AF01461B570B0E94E90D81114F
:101C500003C0CE010E94D318CE01DF91CF91089529
:101C6000CF93DF93EC01FB01448155816081718149
:101C70000E94E90D811103C0CE010E94D318CE014C
:101C8000DF91CF910895DC015996ED91FC915A971F
:101C90003097B9F083899489A589B689428553859F
:101CA00064857585841B950BA60BB70B811520E801
:101CB0009207A105B10538F08FEF9FE7A0E0B0E0F3
:101CC000089580E090E00895CF93DF931F92CDB701
:101CD000DEB76983DC01ED91FC910280F381E02D98
:101CE00041E050E0BE016F5F7F4F09950F90DF919B
:101CF000CF91089520913B0330913C032817390779
:101D000071F49091390380913A03981741F0E09172
:101D10003903F0E0E950FD4F808190E008958FEFA6
:101D20009FEF089508951F93CF93DF93DC015C9696
:101D30002D913C915D972115310539F481E090E0BA
:101D400013969C938E9312973DC05196ED91FC9102
:101D5000529750969C915097892F80951FB75E9609
:101D60004C915E9741FB772770F941FD6095F8949F
:101D70004081772311F0492B01C048234083E901BA
:101D80002197F1F748E0508160FF02C0592B01C054
:101D900058235083E9012197F1F76695415099F74F
:101DA000772321F090818923808303C08081982B41
:101DB00090831FBF5C968D919C915D970197F1F781
:101DC00021E030E0C901DF91CF911F91089520916A
:101DD0003B0330913C032817390771F480913A0393
:101DE0002091390390E0805C9F4F821B910960E451
:101DF00070E00E941D2C089580E090E008952091ED
:101E00003B0330913C0328173907B9F4909139030B
:101E100080913A03981789F0E0913903F0E0E95096
:101E2000FD4F80812091390330E02F5F3F4F2F73AA
:101E300033272093390390E008958FEF9FEF0895A3
:101E4000CF93DF93EC018D818823A1F18C8187FFF3
:101E50002DC06E857F858889998941E00E947E1E0C
:101E6000882341F1EA8980E2E89FF0011124DF0133
:101E7000A35BBC4F1097F1F08D81823050F44B89F9
:101E80005C896D897E895C964D935D936D937C939F
:101E90005F978F89988DA98DBA8DE35BFC4F938FE7
:101EA000828FB58BA48B8C818F778C83DF91CF91C0
:101EB0000C94431E80E0DF91CF910895FC01818D49
:101EC000928D009711F00C94200F08958F929F929D
:101ED000AF92BF92CF92DF92EF92FF920F931F9338
:101EE000CF93DF93EC018D81811102C080E077C038
:101EF0000B891C892D893E8904171507260737078A
:101F0000A8F36A017B01823029F4CA86DB86EC865D
:101F1000FD860DC0C114D104E104F10451F41E8208
:101F20001F82188619861A861B861C861D8681E0EC
:101F300056C08A849B84AC84BD84EB8DFC8D258542
:101F400030E0275F3F4FB501A401415051096109BD
:101F50007109022E04C076956795579547950A94A6
:101F6000D2F7D701C6010197A109B10904C0B695FE
:101F7000A795979587952A95D2F784179507A60771
:101F8000B70720F089288A288B2849F44F89588D73
:101F9000698D7A8D4E835F836887798704C0841B3F
:101FA000950BA60BB70B4C015D018E010A5F1F4F0D
:101FB00081149104A104B10409F4A7CF4E815F817B
:101FC0006885798598018B8D9C8D0E94671F91E0B3
:101FD000891A9108A108B1088111EACF87CFDF9152
:101FE000CF911F910F91FF90EF90DF90CF90BF9016
:101FF000AF909F908F9008958F929F92AF92BF92D3
:10200000CF92DF92EF92FF920F931F93CF93DF93C4
:1020100000D000D0CDB7DEB77C0180E2689F6001C0
:1020200011249601235B3C4FD9011B969C91917121
:1020300021F0842F827409F097C0142FF701628B6E
:102040008091000190910101A0910201B0910301E2
:1020500086879787A08BB18BF601E35BFC4F4489A1
:10206000558960E070E0BA0155274427D70157969B
:102070004D935D936D937C935A97828D938DA0E0E1
:10208000B0E0482B592B6A2B7B2BD70157964D93E9
:102090005D936D937C935A97D9011B968C918871AF
:1020A00059F4848D958DA68DB78DF701838B948B14
:1020B000A58BB68B81E012C0803109F055C0970125
:1020C0002D5E3F4FD7015B968D919C915C970E944E
:1020D000EB1F882309F448C084E0F7018583812F32
:1020E0008F70D70114968C931497F701168217827C
:1020F000108611861A961D921D921D921C921D9794
:1021000016FF34C015968C91813071F511FF2CC0EB
:10211000F7014389548965897689452B462B472BDE
:1021200009F461C040E050E0BA01C7010E94660FA7
:102130008823D1F0F7018788908CA18CB28CC38C56
:10214000D48C82E090E0A0E0B0E0F601808391833F
:10215000A283B3839E012F5F3F4FB501A401C60147
:102160000E94671F811104C080E03DC081E03BC038
:1021700000E010E09801B501A401C6010E94C71E4D
:10218000882391F389809A80AB80BC80D6015796D2
:102190008C91803129F088EF9FEFAFEFBFE004C052
:1021A00088EF9FEFA0E0B0E088169906AA06BB066C
:1021B00088F2D70157961D921D921D921C925A9734
:1021C000F701138A148A158A168A848180688483A9
:1021D000C7010E94200F882339F240E050E0BA0185
:1021E000C7010E94660F0F900F900F900F90DF9124
:1021F000CF911F910F91FF90EF90DF90CF90BF9004
:10220000AF909F908F900895CF93DF93EC010E9441
:10221000200F882311F01D8281E0DF91CF91089576
:102220003F924F925F926F927F928F929F92AF9266
:10223000BF92CF92DF92EF92FF920F931F93CF93B3
:10224000DF93CDB7DEB72C970FB6F894DEBF0FBE85
:10225000CDBF5C01DC015B968D909C905C971696DF
:10226000CD90DD90ED90FC901997C114D104E1045C
:10227000F10439F0BFEFCB1ADB0AEB0AFB0A312C71
:1022800007C0F401C080D180E280F380332433940E
:10229000F40181859285A385B4859C01AD012F5FF2
:1022A0003F4F4F4F5F4F29873A874B875C87260107
:1022B00037011D821E821F821886F4018185928556
:1022C000A385B4852D813E814F8158852817390714
:1022D0004A075B0708F063C089859A85AB85BC8592
:1022E0008C159D05AE05BF0550F482E0C82ED12C9B
:1022F000E12CF12C92E0492E512C612C712C9E0185
:102300002F5F3F4FB701A601C4010E94671F8823BA
:1023100009F445C089819A81AB81BC81892B8A2BC4
:102320008B2B41F0260137019FEF491A590A690AA0
:10233000790A05C0C414D504E604F70491F02D8190
:102340003E814F8158852F5F3F4F4F4F5F4F2D8309
:102350003E834F8358873FEFC31AD30AE30AF30A39
:10236000ACCF0FEF1FEF2FEF3FE0B301A201C4018D
:102370000E94C71E882399F0D50116964D915D9154
:102380006D917C911997411551056105710549F0D1
:1023900093018201C4010E94C71E811102C080E026
:1023A0002AC0D50116964D925D926D927C92199736
:1023B000332051F0D301C2010196A11DB11DF401DA
:1023C00080839183A283B383F5018789908DA18D4A
:1023D000B28D892B8A2B8B2B69F4D50157964D92A0
:1023E0005D926D927C925A9714968C9114978068A6
:1023F00014968C9381E02C960FB6F894DEBF0FBE36
:10240000CDBFDF91CF911F910F91FF90EF90DF90A3
:10241000CF90BF90AF909F908F907F906F905F9084
:102420004F903F9008958FB7F894809138038FBFF5
:10243000089561E0FC0184810E94F51A80913703C0
:1024400081111092370308958FEF0C9455040F9368
:102450001F93CF93DF93EB010E94A11C8B010E947D
:1024600024128F3F49F00E94A11C601B710B6C1756
:102470007D07A8F380E001C081E0DF91CF911F913B
:102480000F910895CF93DF93EC018E81882389F01B
:102490008F8198859C012F5F3F4F38872F83823033
:1024A000924018F40E942412F3CFCE010E94191218
:1024B0001E82DF91CF9108958CBD9DBD0895CF936D
:1024C000DF93EC0180913703811109C081E0809393
:1024D00037038091EC059091ED050E945C1260E05D
:1024E0008C81DF91CF910C94F51ACF92DF92FF92FD
:1024F0000F931F93CF93DF9300D000D0CDB7DEB7FB
:102500006C01F62E29833A834B835C830E9442122E
:10251000C6010E945F126CE271E0C6010E942712A0
:102520008F2D80640E94550408E110E05C814B818E
:102530003A812981DA01C901002E04C0B695A79518
:10254000979587950A94D2F729833A834B835C83C6
:102550000E9455040850110929813A814B815C8100
:10256000083F8FEF180731F7FF2029F0E8E0FE124F
:1025700004C087E803C085E901C08FEF0E945504BD
:1025800010E00E942412F601828787FF04C01F3FDB
:1025900011F01F5FF6CF0F900F900F900F90DF910B
:1025A000CF911F910F91FF90DF90CF900895AF9240
:1025B000BF92CF92DF92EF92FF920F931F93CF9330
:1025C000DF93EC016901C801820F931F81309240B3
:1025D00008F070C08E81882371F088819981AA816A
:1025E000BB81481759076A077B0729F48F819885B3
:1025F000C816D906B0F5488359836A837B838B85D7
:10260000833039F089E0440F551F661F771F8A9584
:10261000D1F79A01AB0161E1CE010E9475128823C6
:1026200019F083E08D8346C00E94A11C5B010E94CB
:1026300024128A878F3F49F40E94A11C6A197B09E2
:102640006D327140A0F38FE003C08E3F31F08DE01A
:102650008D83CE010E9419122DC018861F8281E041
:102660008E838F8198858C159D0540F40E942412DD
:102670008F819885019698878F83F3CF6701E00E4D
:10268000F11ECE14DF0431F00E942412F601819372
:102690006F01F7CF8F819885080F191F18870F8357
:1026A0008985882319F00115124048F0CE010E9457
:1026B000421205C0CE010E94191280E001C081E0E3
:1026C000DF91CF911F910F91FF90EF90DF90CF900E
:1026D000BF90AF900895EF92FF920F931F93CF9307
:1026E000DF93EC017901411551056105710511F484
:1026F00082E13CC08B85833039F089E0440F551F5F
:10270000661F771F8A95D1F79A01AB0168E1CE0168
:102710000E947512882311F084E028C08EEF0E9479
:10272000550487018EEFF81AF80181918F010E94FC
:1027300055040E151F05C1F78FEF0E9455048FEF4A
:102740000E9455040E9424128A878F71853031F0CF
:1027500081E18D83CE010E94191209C068E572E003
:10276000CE010E942712811107C085E18D83CE0121
:102770000E94191280E013C020E030E0A9016DE052
:10278000CE010E947512811104C00E942412882378
:1027900011F084E1EBCFCE010E94191281E0DF91AC
:1027A000CF911F910F91FF90EF9008952F923F923C
:1027B0004F925F926F927F928F929F92AF92BF9251
:1027C000CF92DF92EF92FF920F931F93CF93DF93FD
:1027D00000D000D0CDB7DEB78C015B011A01DC015F
:1027E00015968C9115978130C9F414968C9181FFC0
:1027F00015C082FF1BC0F801438954896589768919
:1028000082859385A485B58584179507A607B707A4
:1028100069F0C8010E94660F811108C081E090E054
:10282000F8019383828380E090E039C1610183C025
:10283000D8015B968D919C915C97FC01248121507D
:102840002A013B0139E076946794579447943A956E
:10285000D1F7722E74207A01F1E0FF22772009F47B
:1028600076C080E092E08E199F0946018C159D0587
:1028700008F44C01D8015B962D913C915C9716961B
:102880008D919D910D90BC91A02D0297A109B10948
:10289000F901058404C0880F991FAA1FBB1F0A9461
:1028A000D2F74685578560897189840F951FA61FC9
:1028B000B71F9C01AD01270D311D411D511D29017F
:1028C0003A01811432E0930609F088C0809100013A
:1028D00090910101A0910201B09103018415950529
:1028E000A605B70559F48FEF9FEFDC018093000137
:1028F00090930101A0930201B09303019501B301EC
:10290000A20180914D0590914E050E946B13882382
:1029100009F484CF9EEFB91AC818D908F801828546
:102920009385A485B585880D991DA11DB11D82874C
:102930009387A487B587D8011A964D915D916D91C3
:102940007C911D97C114D10409F072CF87C0E114A6
:10295000F10409F086CF16964D915D916D917C91B1
:102960001997411551056105710559F457968D91D7
:102970009D910D90BC91A02D0097A105B10541F549
:1029800021C09E012F5F3F4F0E94671F882309F4DB
:102990004BCF89819A81AB81BC81F801238D348D25
:1029A000F9012789203129F048EF5FEF6FEF7FE0D1
:1029B00004C048EF5FEF60E070E084179507A6075A
:1029C000B70730F0C8010E94101181114ACF26CFFD
:1029D000F80186839783A087B18743CFE114F10480
:1029E00029F5D8011A964D915D916D917C911D97B5
:1029F00053968D919D910D90BC91A02D481759072C
:102A00006A077B0798F00E94431E882309F406CFCB
:102A10004092000150920101609202017092030104
:102A200080913F03816080933F0308C041E0C30170
:102A3000B2010E947E1E882309F4F0CED501F70171
:102A4000E35BFC4FCF01880D991DE817F90719F0DA
:102A50002D912193FACFA80CB91C5ECF53968D917E
:102A60009D910D90BC91A02D84179507A607B707DF
:102A700040F4F801438B548B658B768B848180689E
:102A80008483D80114968C9183FD02C0C10107C0D4
:102A9000C8010E94200F882309F4C0CEF7CF0F9001
:102AA0000F900F900F90DF91CF911F910F91FF909A
:102AB000EF90DF90CF90BF90AF909F908F907F90DE
:102AC0006F905F904F903F902F900895CF93DF933A
:102AD000EC01898D9A8D009739F481E090E09B8319
:102AE0008A8380E090E00BC0FC01138212820E9476
:102AF000D613E98DFA8D22813381232B71F7DF9173
:102B0000CF910895FC01DB0112968D919C91139752
:102B10009383828382E391E09183808314968C91E6
:102B20001497848315968C911597858316964D91ED
:102B30005D916D917C91199746835783608771876A
:102B40001A964D915D916D917C911D9742875387A7
:102B5000648775871E964D915D916D917C9151971B
:102B600046875787608B718B52968C915297828BD8
:102B700053964D915D916D917C915697438B548BFB
:102B8000658B768B57964D915D916D917C915A979F
:102B9000478B508F618F728F5B968D919C915C9764
:102BA000948F838F0895EF92FF920F931F93CF938B
:102BB000DF93EC017B018A011B821A8288EE93E08D
:102BC000A0E0B0E08C839D83AE83BF838EE091E074
:102BD000998388838DE190E00E94592C9A8F898F88
:102BE000009779F02DE1F701DC0101900D922A9513
:102BF000E1F74CE050E0B801CE010C960E94852E22
:102C0000188EDF91CF911F910F91FF90EF90089553
:102C10002F923F924F925F926F927F928F929F92EC
:102C2000AF92BF92CF92DF92EF92FF920F931F93DA
:102C3000CF93DF9300D0CDB7DEB7FC018581882329
:102C400009F4D9C0848180FFD6C021E02A8343895A
:102C500054896589768982859385A485B5854817C9
:102C600059076A077B0709F41A826F013A81832F9B
:102C700090E0DE0111964D013F01B6E06B0E711C34
:102C8000892B09F47DC0D6011A964D915D916D9105
:102C90007C911D975A01B1E0BB22F60125811A01F2
:102CA0002B0189E056944794379427948A95D1F75D
:102CB000838D948D223061F4FC01828D938DA48DDF
:102CC000B58DBC01CD01620D731D841D951D45C0E0
:102CD000DC0114961C9111501221A114B104D1F4FD
:102CE000111118C0452B462B472B51F4F60187894B
:102CF000908DA18DB28D86839783A087B1870AC0FE
:102D0000468157816085718593010E94671F8823E2
:102D100009F471C0F601238D348D86819781A085D9
:102D2000B1850297A109B109AC01BD01F901058482
:102D300004C0440F551F661F771F0A94D2F786857B
:102D40009785A089B189840F951FA61FB71FBC0165
:102D5000CD01610F711D811D911DD60114962C911D
:102D600026FF14C000910001109101012091020181
:102D700030910301601771078207930751F506C070
:102D8000FA81FF23C1F1898190E037C040E00E94C1
:102D90007E1E882381F1F501E35BFC4FD401CF0156
:102DA0000196E817F90719F021912D93FACFEFEF6B
:102DB0008E1A9E0AF60182859385A485B5850196B3
:102DC000A11DB11D82879387A487B58780E090E01D
:102DD00057CF740101E010E09501AB01BC01809177
:102DE0004D0590914E050E94D712882321F0BFEF28
:102DF0008B1A9B0ADFCF8FEF9FEF0F900F90DF9121
:102E0000CF911F910F91FF90EF90DF90CF90BF90E7
:102E1000AF909F908F907F906F905F904F903F907A
:102E20002F900895FC01818D928D009711F00C94E4
:102E300008168FEF9FEF08950F931F93CF93DF93A3
:102E4000FC01818D928D0097B9F0EF010E94081668
:102E50008C010F3F8FEF180791F0898D9A8DFC013F
:102E60004285538564857585415051096109710911
:102E70000E94660FC80105C080E090E002C08FEF9D
:102E80009FEFDF91CF911F910F910895CF92DF9225
:102E9000EF92FF920F931F93CF93DF936C017A0110
:102EA0008B01C0E0D0E0CE15DF0589F0D8016D912F
:102EB0008D01D601ED91FC910190F081E02DC601CC
:102EC0000995892B11F47E0102C02196ECCFC70130
:102ED000DF91CF911F910F91FF90EF90DF90CF90F6
:102EE0000895FC01538D448D252F30E0842F90E010
:102EF000821B930B541710F0CF96089501970895F5
:102F0000FC01918D828D981761F0828DDF01A80FF1
:102F1000B11D5D968C91928D9F5F9F73928F90E013
:102F200008958FEF9FEF0895FC01918D828D981782
:102F300031F0828DE80FF11D858D90E008958FEFBF
:102F40009FEF0895FC01918D228D892F90E0805C88
:102F50009F4F821B91098F73992708958FE495E005
:102F60000E94A21721E0892B09F420E0822F089506
:102F7000FC01848DDF01A80FB11DA35ABF4F2C9116
:102F8000848D90E001968F739927848FA689B789E5
:102F90002C93A089B1898C9180648C93938D848DBE
:102FA000981306C00288F389E02D80818F7D80838D
:102FB0000895EF92FF920F931F93CF93DF93EC014D
:102FC00081E0888F9B8D8C8D981305C0E889F989E5
:102FD000808185FD24C0F62E0B8D10E00F5F1F4F02
:102FE0000F731127E02E8C8DE8120CC00FB607FC72
:102FF000FACFE889F989808185FFF5CFCE010E945B
:10300000B817F1CF8B8DFE01E80FF11DE35AFF4F8A
:10301000F0820B8FEA89FB898081806207C0EE898C
:10302000FF896083E889F98980818064808381E0F9
:1030300090E0DF91CF911F910F91FF90EF90089555
:10304000CF93DF93EC01888D8823C9F0EA89FB894F
:10305000808185FD05C0A889B9898C9186FD0FC046
:103060000FB607FCF5CF808185FFF2CFA889B9891B
:103070008C9185FFEDCFCE010E94B817E7CFDF918D
:10308000CF91089580E090E0892B29F00E94AE173F
:1030900081110C94000008956115710579F0FB0110
:1030A00001900020E9F73197AF01461B570BDC0177
:1030B000ED91FC910280F381E02D099480E090E095
:1030C00008954F925F926F927F92EF92FF920F93CB
:1030D0001F93CF93DF93CDB7DEB7A1970FB6F894C8
:1030E000DEBF0FBECDBF7C01FA01CB0119A2223099
:1030F00008F42AE08E010F5D1F4F422E512C612CE7
:10310000712CBF01A30192010E94312CF901CA0167
:10311000015011096A3014F4605D01C0695CD80186
:103120006C93232B242B252B61F7B801C7010E9438
:103130004C18A1960FB6F894DEBF0FBECDBFDF913D
:10314000CF911F910F91FF90EF907F906F905F90C4
:103150004F9008950E94502E0F931F93CF93DF93AB
:10316000EC0188819981009729F02A813B812617FB
:10317000370788F48B016F5F7F4F0E94862D009781
:1031800061F0998388831B830A832C813D81232BE3
:1031900011F4FC01108281E001C080E0DF91CF9149
:1031A0001F910F910895CF93DF93EC01888199814E
:1031B000009711F00E94EE2C198218821D821C8249
:1031C0001B821A82DF91CF910895EF92FF920F93A5
:1031D0001F93CF93DF93EC017B018A01BA010E9418
:1031E000AC18811104C0CE010E94D31807C01D8302
:1031F0000C83B701888199810E947E2ECE01DF91D8
:10320000CF911F910F91FF90EF900895CF93DF938F
:10321000EC016115710559F0FB0101900020E9F7FF
:103220003197AF01461B570B0E94E51802C00E9460
:10323000D318CE01DF91CF910895FC018081918157
:103240000C94EE2C0F931F93CF93DF93CDB7DEB783
:1032500029970FB6F894DEBF0FBECDBF8C01862F25
:10326000F80111821082138212821582148250E0BA
:10327000BE016F5F7F4F90E00E94D526BE016F5F59
:103280007F4FC8010E94061929960FB6F894DEBF39
:103290000FBECDBFDF91CF911F910F910895FB011C
:1032A000DC0111961C921E9213961C921E9212978C
:1032B00015961C921E9214978617970749F0608105
:1032C00071816115710521F0448155810C94E518D7
:1032D0000895FC01118210821382128215821482D9
:1032E0006115710551F0FB0101900020E9F731975C
:1032F000AF01461B570B0C94E51808954F925F924F
:103300006F927F928F929F92AF92BF92CF92DF92F5
:10331000EF92FF92CF93DF93EC016A017B01B22E13
:103320009A01AB01C701B6010E94F82B882319F05E
:103330006CEB71E027C026013701E89477F82FEF96
:103340003FEF4FE75FE7C301B2010E94F82B811105
:103350000DC02FEF3FEF4FE75FE7C301B2010E94BF
:10336000702918161CF460EC71E00CC02FEF3FEFD1
:103370004FE75FE4C701B6010E94F32B18169CF4D7
:1033800064EC71E0CE01DF91CF91FF90EF90DF9080
:10339000CF90BF90AF909F908F907F906F905F90F5
:1033A0004F900C944C182FEF3FEF4FE75FECC701A5
:1033B000B6010E94702987FDE3CF20E030E0A9012B
:1033C000C701B6010E94702987FF0EC0E881F9810C
:1033D0000190F081E02D6DE2CE0109954C01F7FAE4
:1033E000F094F7F8F09402C0812C912CA12C60E0AD
:1033F00070E080E09FE3AB1441F020E030E040E279
:1034000051E40E94522BA394F6CF9B01AC01C7015B
:10341000B6010E94E62A2B013C010E94C42B6B01DD
:103420007C010E9475299B01AC01C301B2010E947D
:10343000E52A2B013C012AE0B701A601CE010E943A
:1034400061187C01E80CF91CBB2051F0E881F9817E
:103450000190F081E02D6EE2CE010995E80EF91E93
:10346000DB2CDD2029F120E030E040E251E4C30113
:10347000B2010E94D6292B013C010E94C42B4B01B2
:10348000A12CB12C2AE0B501A401CE010E94611843
:10349000E80EF91EC501B4010E9475299B01AC011B
:1034A000C301B2010E94E52A2B013C01DA94D9CF75
:1034B000C701DF91CF91FF90EF90DF90CF90BF9049
:1034C000AF909F908F907F906F905F904F900895F6
:1034D0000F931F93CF93DF93EC010E944C188C0144
:1034E00068EC71E0CE010E944C18800F911FDF91B3
:1034F000CF911F910F9108950F931F93CF93DF9357
:10350000EC01E881F981DB0114964D915C911597EE
:103510006D917C910280F381E02D09958C0168EC1E
:1035200071E0CE010E944C18800F911FDF91CF9166
:103530001F910F9108950C944C181F920F920FB683
:103540000F9211242F933F934F935F936F937F9329
:103550008F939F93AF93BF93EF93FF938FE495E087
:103560000E94B817FF91EF91BF91AF919F918F91FA
:103570007F916F915F914F913F912F910F900FBE6F
:103580000F901F9018951F920F920FB60F92112453
:103590002F938F939F93EF93FF93E0915F05F091AB
:1035A00060058081E0916505F091660582FD12C09D
:1035B0009081809168058F5F8F73209169058217D4
:1035C00051F0E0916805F0E0E15BFA4F958F809350
:1035D000680501C08081FF91EF919F918F912F919C
:1035E0000F900FBE0F901F90189590E0FC01EE59C0
:1035F000FE4F3491FC01EC53FE4F2491FC01E05549
:10360000FE4FE491EE2309F43BC0332339F133300C
:1036100091F038F43130A9F0323001F584B58F7D66
:1036200012C0373091F03830A1F03430B9F48091C5
:1036300080008F7D03C0809180008F778093800011
:103640000DC084B58F7784BD09C08091B0008F779D
:1036500003C08091B0008F7D8093B000F0E0EE0F4A
:10366000FF1FE456FE4FA591B4918FB7F894EC91EB
:10367000611103C020952E2301C02E2B2C938FBFE8
:1036800008953FB7F8948091490390914A03A0911F
:103690004B03B0914C0326B5A89B05C02F3F19F0F2
:1036A0000196A11DB11D3FBFBA2FA92F982F8827C2
:1036B000820F911DA11DB11DBC01CD0143E0660F1C
:1036C000771F881F991F4A95D1F7089521E001C0FF
:1036D000220F6A95EAF7DC011C962C931C971A9628
:1036E0005C934E931997ED91FC910484F585E02D40
:1036F00060E00994DC01ED91FC910684F785E02DF2
:1037000041E0099581E090E0089508950895CF93F0
:10371000DF93FC0123812223B1F0EC0181818095AC
:103720006823608362818CE796E00E9425046881AB
:103730008CE796E00E94A6018CE796E00E94C80301
:10374000282F30E002C020E030E081E090E0232B21
:1037500011F080E090E0DF91CF910895EF92FF9219
:103760000F931F93CF938C01FC01759684E0C0E00A
:1037700060FF02C09081C92B6695815031968111FE
:10378000F7CF413011F4F8014489F8018585C82B41
:10379000C42B7801FEE0EF0EF11CF80162896C2B5E
:1037A000C7010E94871BF801628960956C23C701DD
:1037B000CF911F910F91FF90EF900C94871B0F9367
:1037C0001F93CF93DF93062F0F70423019F440E020
:1037D000602F10C0142F262FEC0130E0B90184E0D7
:1037E000759567958A95E1F7CE010E94AE1B412F32
:1037F000602FCE01DF91CF911F910F910C94AE1BE2
:10380000FC0184858823A9F02185328521153105A5
:1038100019F4611106C007C02130310521F461118E
:1038200002C0858701C015866585CF010E960C9470
:10383000871B0895CF93DF931F92CDB7DEB76983BF
:1038400041E050E0BE016F5F7F4F0E94D6130F90A2
:10385000DF91CF910895CF93DF9390E0FC01EC537B
:10386000FE4F2491FC01E055FE4F8491882361F1C5
:1038700090E0880F991FFC01EE56FE4FC591D49140
:10388000FC01E456FE4FA591B491611109C09FB7A8
:10389000F8948881209582238883EC912E230BC095
:1038A000623061F49FB7F8943881822F809583232A
:1038B0008883EC912E2B2C939FBF06C08FB7F89472
:1038C000E8812E2B28838FBFDF91CF9108958F92AF
:1038D0009F92AF92BF92CF92DF92EF92FF926B01D5
:1038E0007C010E94411B4B015C01C114D104E10425
:1038F000F104F1F00E94411BDC01CB018819990908
:10390000AA09BB09883E9340A105B10570F321E0E7
:10391000C21AD108E108F10888EE880E83E0981EEB
:10392000A11CB11CC114D104E104F10419F7DDCFCD
:10393000FF90EF90DF90CF90BF90AF909F908F90CF
:1039400008952FB7F89460914503709146038091D4
:103950004703909148032FBF08951F920F920FB60F
:103960000F9211242F933F938F939F93AF93BF9305
:103970008091450390914603A0914703B09148037D
:103980003091440326E0230F2D3720F40296A11D29
:10399000B11D05C029E8230F0396A11DB11D209379
:1039A00044038093450390934603A0934703B09349
:1039B00048038091490390914A03A0914B03B09131
:1039C0004C030196A11DB11D8093490390934A03B6
:1039D000A0934B03B0934C03BF91AF919F918F91F4
:1039E0003F912F910F900FBE0F901F901895DC0103
:1039F000ED91FC910684F785E02D40E009940F934A
:103A00001F93CF93DF93EC01423018F08C818860D4
:103A10008C834F836887222329F0413019F48C81ED
:103A200084608C8364E670E080E090E00E94671C14
:103A30006C8164FD31C0E881F9810684F785E02D51
:103A400042E063E0CE01099584E293E20197F1F749
:103A5000E881F9810684F785E02D42E063E0CE013C
:103A6000099508E211E0C8010197F1F7E881F981B1
:103A70000684F785E02D42E063E0CE010995C80198
:103A80000197F1F7E881F9810684F785E02D42E09E
:103A900062E0CE01099517C06062CE010E94F71C5A
:103AA00084E293E20197F1F76C816062CE010E949B
:103AB000F71C08E211E0C8010197F1F76C81606220
:103AC000CE010E94F71CC8010197F1F76C8160627A
:103AD000CE010E94F71C84E790E00197F1F784E0A3
:103AE0008D836CE0CE010E94F71C61E0CE010E9444
:103AF000F71C8CE99FE00197F1F782E08E8366E086
:103B0000CE010E94F71CE881F9810484F585E02D3F
:103B10006FEFCE01DF91CF911F910F910994FF922A
:103B20000F931F93CF93DF93EC01162F042FF22EE8
:103B30008B85888B8CE796E00E942F0468898CE740
:103B400096E00E9425048CE796E00E94C80391E06D
:103B5000811190E0998B992329F08CE796E00E94DF
:103B60005A018E878989882339F01F861C8260E07C
:103B7000CE010E960E94871B2F2D402F612FCE0164
:103B8000DF91CF911F910F91FF900C94FF1C50E09B
:103B9000E6E8F1E021E02E1B322F3E0F361728F425
:103BA0003491430F511D3196F7CF633038F09C01AB
:103BB00023703327232B11F44F5F5F4F2DE631E045
:103BC000829FB001839F700D929F700D11246150F0
:103BD00071099C012D5F3F4F3695279536952795A6
:103BE000CB01820F931F840F951F0895EF92FF92D0
:103BF0000F931F93CF93DF93EC0188814A816981F2
:103C000090E00E94C71D9C01A8E1B0E00E94D62A66
:103C10002B817B018C01E20EF11C011D111DA801FD
:103C20009701ACE3B0E00E94942A2C817B018C01C7
:103C3000E20EF11C011D111DA80197010E94942A9A
:103C40002D81620F711D811D911DDF91CF911F91FB
:103C50000F91FF90EF9008959C01F9012F5F3F4F66
:103C600090819F7E9032C9F380E0219190ED920F78
:103C70009A3040F4880F982F990F990F890F80532D
:103C8000820FF3CF089580913F038823A9F14091DB
:103C900000015091010160910201709103012DE436
:103CA00033E080914D0590914E050E946B13811178
:103CB00002C080E00895409140035091410360911B
:103CC000420370914303411551056105710591F05F
:103CD0002DE433E080914D0590914E050E946B13C9
:103CE000882339F31092400310924103109242034B
:103CF0001092430310923F0381E008958F929F92A8
:103D0000AF92BF92EF92FF920F931F93CF934B010D
:103D10005C01C42F8091000190910101A0910201EA
:103D2000B091030188159905AA05BB0501F10E9410
:103D3000431E811102C080E020C08DE4E82E83E0A4
:103D4000F82E00E012E020E030E0B501A4018091FF
:103D50004D0590914E050E94D712882361F3809201
:103D6000000190920101A0920201B09203018091A2
:103D70003F03C82BC0933F0381E0CF911F910F9168
:103D8000FF90EF90BF90AF909F908F9008954F92CB
:103D90005F926F927F928F929F92AF92BF92CF92DB
:103DA000DF92EF92FF920F931F93CF93DF93EC017B
:103DB0006A017B0128013901423051056105710515
:103DC00010F480E073C089859A85AB85BC85019627
:103DD000A11DB11D84179507A607B70790F38B881F
:103DE0009C88AD88BE888F89803129F4BB27AF2D90
:103DF0009E2D8D2D09C0DB01CA0147E0B695A79520
:103E0000979587954A95D1F7880E991EAA1EBB1ED5
:103E10008091000190910101A0910201B0910301F4
:103E200088169906AA06BB0679F48F898031A1F419
:103E3000DD24EE24FF24C601880F991FFC01E35BFB
:103E4000FC4F5182408219C040E0C501B4010E947C
:103E50007E1E8111EACFB5CFE894C7F8DD24EE24A9
:103E6000FF24C601880F991F880F991FFC01E35B8F
:103E7000FC4F408251826282738280913F03816055
:103E800080933F038A89823080F08D819E81AF814B
:103E9000B885880E991EAA1EBB1E80924003909280
:103EA0004103A0924203B092430381E0DF91CF919E
:103EB0001F910F91FF90EF90DF90CF90BF90AF9048
:103EC0009F908F907F906F905F904F9008958F920A
:103ED0009F92AF92BF92CF92DF92EF92FF920F9399
:103EE0001F93CF93DF93FC0181859285A385B485D1
:103EF0000196A11DB11D84179507A607B70710F4F9
:103F000080E05CC083899489A589B689C789C0315E
:103F100029F4852E962EA72EBB2409C04A015B01E9
:103F2000C7E0B694A79497948794CA95D1F7E9010E
:103F30006A017B018F01BC01CD01680D791D8A1DCD
:103F40009B1D8090000190900101A0900201B09013
:103F50000301681579058A059B0599F4F80187899D
:103F60008031A9F4B701A601552766277727440FAA
:103F7000551FFA01E35BFC4F80819181A0E0B0E026
:103F800018C040E00E947E1E8111E8CFB9CFB70172
:103F9000A6014F77552766277727440F551F440FF3
:103FA000551FFA01E35BFC4F80819181A281B381AF
:103FB000BF7088839983AA83BB8381E0DF91CF910F
:103FC0001F910F91FF90EF90DF90CF90BF90AF9037
:103FD0009F908F9008954F925F926F927F92AF92D1
:103FE000BF92CF92DF92EF92FF920F931F93CF93E6
:103FF000DF9300D000D0CDB7DEB78C0149835A8360
:104000006B837C835901C12CD12C7601412C82E039
:10401000582E612C712C49815A816B817C819E01C3
:104020002F5F3F4FC8010E94671F882351F1D301C2
:10403000C201F801058404C0880F991FAA1FBB1F85
:104040000A94D2F7C80ED91EEA1EFB1E49815A8176
:104050006B817C818789803129F088EF9FEFAFEFFA
:10406000BFE004C088EF9FEFA0E0B0E04817590719
:104070006A077B0780F2F501C082D182E282F38277
:1040800081E00F900F900F900F90DF91CF911F91D3
:104090000F91FF90EF90DF90CF90BF90AF907F9007
:1040A0006F905F904F9008954F925F926F927F92C2
:1040B000AF92BF92CF92DF92EF92FF920F931F9336
:1040C000CF93DF93CDB7DEB72B970FB6F894DEBF53
:1040D0000FBECDBF7C01CE0101966C01FC0190E2C8
:1040E0008BE08C0D91938E13FDCFDA0130E047E029
:1040F0009D91992339F19E3219F0E6E7F1E00AC06B
:104100004A3009F472C138E04AE0F2CF319689179B
:1041100009F46BC184918111F9CF431708F465C18B
:104120008FED890F8E3508F060C181E0830FF601B5
:10413000E30FF11D3FE9390F3A3108F490529083B3
:10414000382FD6CF8981803209F44FC1B22E8B012E
:10415000DB015B968D919C915C97F701948F838F27
:1041600016961D921D921D921C921997FB011286A4
:10417000138614861586712CF80182859385A48593
:10418000B585438954896589768984179507A6077B
:10419000B70708F061C025E0B695A7959795879574
:1041A0002A95D1F7F82FFF706F2ED80115968C91B4
:1041B000823008F41AC1C8010E94081697FD15C183
:1041C000F80182859385A485B5854F96A11DB11D03
:1041D00082879387A487B587F0E26F9EC001112480
:1041E000BC01635B7C4F6115710509F4FEC0DB0106
:1041F0002C91222319F0253EC1F427C071100EC066
:10420000F701628A40910001509101016091020121
:104210007091030146875787608B718BFC01E35BCC
:10422000FC4F8081811113C015C04BE050E0C601E6
:104230000E945D2E892B09F09FCF8B2D80738033D8
:1042400009F4D3C04B2D662DCCC07720C9F277245A
:10425000739492CF772473948B2D8271823109F0FD
:10426000C4C07720D1F0D7011E966D917D918D91BC
:104270009C91519741E00E947E1E882309F4B5C0AD
:10428000F7016289F0E26F9FB0011124635B7C4FFC
:104290006115710509F079C0A8C0D80115968C91F7
:1042A000823009F4A2C0C8010E941011882309F4C9
:1042B0009CC0D8015B96ED91FC915C9716964D9051
:1042C0005D906D907C901997B2E04B1A510861088F
:1042D0007108058404C0440C551C661C771C0A94A4
:1042E000D2F786859785A089B189480E591E6A1E26
:1042F0007B1EA480E1E04E1A510861087108AA20D3
:1043000009F10E94431E882309F46FC0EDE4F3E035
:10431000119225E0ED34F207D9F7D301C2018A0DDD
:10432000911DA11DB11D8093000190930101A093E7
:104330000201B093030180913F03816080933F03AA
:10434000AA94DDCFD8015B96ED91FC915C9780E05B
:1043500092E0A0E0B0E0058404C0880F991FAA1F76
:10436000BB1F0A94D2F7F80143895489658976897D
:10437000840F951FA61FB71F838B948BA58BB68BBD
:10438000D70152961C926DE473E080E2FB0111921A
:104390008A95E9F78BE0F601DB0101900D928A9591
:1043A000E1F781E298E2DB0151969C938E9350975E
:1043B00020E038E01F963C932E931E9753969C93D3
:1043C0008E93529759969C938E93589757963C93F9
:1043D0002E9356970E94431E882339F04B2DF701E8
:1043E0006289C7010E94FC0F01C080E02B960FB6C6
:1043F000F894DEBF0FBECDBFDF91CF911F910F911B
:10440000FF90EF90DF90CF90BF90AF907F906F9034
:104410005F904F9008958F929F92AF92BF92CF92EC
:10442000DF92EF92FF92CF93DF93C82F8EEE95E04D
:1044300090934E0580934D05CC2369F1C53010F063
:1044400080E00DC140E060E070E0CB010E947E1E84
:104450008823B1F320E1C29FC0011124835C9C4FEB
:10446000FC01E254FE4F20812F7751F73C964081AA
:10447000518162817381443651056105710500F3F4
:104480003497C080D180E280F380C114D104E1046C
:10449000F10421F4D5CFC12CD12C760140E0C70125
:1044A000B6010E947E1E882359F280915803909194
:1044B00059038115924021F6A0915D03AA2309F4C6
:1044C000BFCF60915B0370915C036115710509F4C6
:1044D000B7CF20915A03222309F4B2CFA0930C0640
:1044E0002093FE0580E030E0E1E0F0E0C82FAF016E
:1044F000082E02C0440F551F0A94E2F7241735070F
:1045000041F0982F8F5F983089F789E080930706F4
:1045100097CF8093070620916303309164032115A0
:10452000310519F040E050E008C02091710330914E
:10453000720340917303509174032093FF053093ED
:104540000006409301065093020646015701860E6D
:10455000971EA11CB11C80920D0690920E06A0928F
:104560000F06B0921006E0915E03F0915F03F093A6
:104570001306E0931206B0E00E94942A860E971E5E
:10458000A81EB91E8092140690921506A0921606D7
:10459000B092170685E0EE0FFF1F8A95E1F7E15014
:1045A000FE4FEF2FFF27E6958E0E9F1EA11CB11C1C
:1045B0008092080690920906A0920A06B0920B0615
:1045C00020916003309161032115310521F0A9018B
:1045D00060E070E008C040916D0350916E036091FF
:1045E0006F0370917003D701C60188199909AA0950
:1045F000BB09840F951FA61FB71F04C0B695A795CA
:1046000097958795CA95D2F78093030690930406F1
:10461000A0930506B0930606853F2FE09207A105FB
:10462000B10510F48CE018C0853F9F4FA105B1057E
:1046300010F480E111C08091790390917A03A091E8
:104640007B03B0917C038093140690931506A0938E
:104650001606B093170680E28093110681E0DF9181
:10466000CF91FF90EF90DF90CF90BF90AF909F9051
:104670008F90089587E396E00E941D198DE396E0E0
:104680000E941D1980E591E09093440680934306B3
:1046900080913B0390913C038354964071F4E091E8
:1046A0005606F0915706908180915806809589238F
:1046B000808310923C0310923B030895CF93DF93C5
:1046C000CDB7DEB72C970FB6F894DEBF0FBECDBFC7
:1046D000789484B5826084BD84B5816084BD85B5DD
:1046E000826085BD85B5816085BD80916E008160E9
:1046F00080936E001092810080918100826080938F
:104700008100809181008160809381008091800090
:104710008160809380008091B10084608093B100BB
:104720008091B00081608093B00080917A008460B5
:1047300080937A0080917A00826080937A008091E1
:104740007A008E7F80937A0080917A0080688093CF
:104750007A001092C10010925E0610925D061092CF
:104760005C0610925B0610925A06109259068EE073
:1047700090E09093600680935F0690914F0696318B
:1047800008F055C021E030E030935A0620935906D6
:104790004CE050E050935C0640935B0630935E061D
:1047A00020935D0620916800983050F031E09E30F3
:1047B00008F430E081E001C0880F3A95EAF701C0C3
:1047C00084E0822B80936800983038F09E3040F06F
:1047D000963148F020E030E008C02DE630E005C01A
:1047E0002BE630E002C02CE630E0309357062093F1
:1047F0005606983030F481E001C0880F9A95EAF7A8
:104800000EC0292F30E09E3018F42850310902C024
:104810002E50310981E001C0880F2A95EAF7809374
:10482000580680915F06909160060197F1F780919C
:104830005D0690915E06892B49F1E0913B03F09172
:104840003C0386E0E334F80709F1309739F0A38997
:10485000B4899C918589809589238C938091610688
:104860008E7F8093610610923A031092390383E49D
:1048700096E090933C0380933B03E0915606F091C1
:104880005706908180915806892B80836AE070E0FA
:1048900080E090E00E94671CE0915F05F091600568
:1048A00082E08083E0915B05F0915C051082E091ED
:1048B0005D05F0915E0588E0808310926705E091C8
:1048C0006305F091640586E08083E0916105F091D5
:1048D0006205808180618083E0916105F0916205CD
:1048E000808188608083E0916105F091620580811C
:1048F00080688083E0916105F091620580818F7D01
:1049000080836AE070E080E090E00E94671C0E9473
:1049100064028CE796E00E942F040E94A70981118F
:1049200003C06BEC71E002C06CED71E08FE495E0C8
:104930000E94681A80918806909189060E942F042F
:1049400082EF91E00E942C1E8F838AE088878DEE93
:1049500091E00E942C1E898785EF91E00E942C1E19
:104960008A8788EF91E00E942C1E8B878BEF91E065
:104970000E942C1E8C878FE00E94390C87FF0AC092
:104980006EEF71E08FE495E00E94681ACE01079601
:104990000E94940C8EE00E94390C87FF0EC067E0E5
:1049A00072E08FE495E00E94681A8EE00E94390C54
:1049B000682F6F778EE00E94690C0E94500B29834C
:1049C0003A834B835C836D837E83CE0101960E9484
:1049D000F61D6B017C01CE0107960E94F61DC616DE
:1049E000D706E806F90650F463E172E08FE495E03B
:1049F0000E94681ACE0107960E94940C8FE00E94D4
:104A0000390C682F677F8FE00E94690C8EE00E944E
:104A1000390C8C7B682F64608EE00E94690C8CE7F7
:104A200096E00E942F0460E48CE796E00E94250443
:104A30008CE796E00E94C803811103C081E0809357
:104A40003E0320E042E060E183E696E00E948F1D95
:104A500060E080E00E94E90A6EE172E083E696E0A1
:104A60000E949B1A61E080E00E94E90A64E272E021
:104A700083E696E00E949B1A60E08BE00E94E90AC0
:104A800069E272E083E696E00E949B1A61E08BE0A7
:104A90000E94E90A6BE272E083E696E00E949B1AAC
:104AA00060E08FE00E94E90A6DE272E083E696E042
:104AB0000E949B1A61E08FE00E94E90A6FE272E0B7
:104AC00083E696E00E949B1A6AEF70E085E090E032
:104AD0000E945C040E9489040E944218FBCFCF927E
:104AE000DF92EF92FF92CF931092520510925105F0
:104AF00098EEC92E93E0D92EE12CF12CC0925305EB
:104B0000D0925405E0925505F092560580E291E06E
:104B10009093500580934F0585EC90E090935C0551
:104B200080935B0584EC90E090935E0580935D0537
:104B300080EC90E09093600580935F0581EC90E0BD
:104B4000909362058093610582EC90E090936405F8
:104B50008093630586EC90E09093660580936505ED
:104B6000109268051092690510926A0510926B0503
:104B700080E58093EC05C1E0C093ED051092F3054C
:104B80001092F4051092F7051092F90582E090E07A
:104B9000A0E0B0E08093FA059093FB05A093FC059C
:104BA000B093FD051092110610921B0610921A0682
:104BB00082E391E0909319068093180610921D06E7
:104BC00010927F0610927E06C0928006D0928106D7
:104BD000E0928206F09283068EE391E090937D0648
:104BE00080937C068CE796E09093890680938806F4
:104BF000109266061092650680E891E09093640634
:104C000080936306109273068FEF80937206109262
:104C10007106109274068FE380936E0610926F06F1
:104C20001092700610926D0610926C0684E08093CC
:104C3000750682E080937606C093770680E18093C4
:104C4000780680E28093790680E480937A0680E893
:104C500080937B0640E050E063E083E696E00E94AC
:104C6000661B1092460610924506C0924706D092E7
:104C70004806E0924906F0924A0680E591E090935A
:104C800044068093430610925A06109259061092D9
:104C90005C0610925B0610925E0610925D06109202
:104CA000600610925F06809161068E7F8D7F8093F3
:104CB000610686958170682F6C2785E00E94F51A41
:104CC00061E085E00E942B1CE9ECF1E0E491E093C7
:104CD0005306E5EBF1E0E491F0E0EE0FFF1FE45640
:104CE000FE4F85919491909355068093540660E011
:104CF00086E00E942B1C8091610681FD04C061E06A
:104D000086E00E94F51A86E080934F06EAECF1E017
:104D1000E491E0935006E6EBF1E0E491F0E0EE0F71
:104D2000FF1FEA55FE4F8591949190935206809310
:104D300051066AEC71E08DE396E00E9469196AEC15
:104D400071E087E396E0CF91FF90EF90DF90CF90F6
:104D50000C946919EF920F931F93CF93DF93E8019F
:104D600047FD02C034E001C034E1E42F440FFF0BE3
:104D7000F7FF03C0F195E195F109E32E022F2E2FE5
:104D8000AE010E94FA26CE01DF91CF911F910F91C3
:104D9000EF900895BB274A3031F4992322F4BDE205
:104DA000909581959F4F0C94E1264532510520F452
:104DB000423010F00C94E026FB011082CB010895E4
:104DC000BB27FB015527AA27880F991FAA1FA417E5
:104DD00010F0A41B83955051B9F7A05DAA3308F0D9
:104DE000A95DA193009779F7B111B1931192CB010D
:104DF0000C9460294F925F926F927F929F92AF9234
:104E0000BF92CF92DF92EF92FF920F931F93CF93B7
:104E1000DF93CDB7DEB729970FB6F894DEBF0FBE8C
:104E2000CDBF6A01122FB02E2BE3201720F0FF24F4
:104E3000F394F00E02C0BCE3FB2E0F2D27E0AE0171
:104E40004F5F5F4F0E948828AC018981982F99702D
:104E5000913031F0E1FC06C0E0FE06C090E205C0F2
:104E60009DE203C09BE201C090E0EE2DE07183FF64
:104E70003CC0911102C083E001C084E0811718F4A6
:104E8000212F281B01C020E0E1110BC0F601822F69
:104E900030E2882319F031938150FBCFC20ED11C30
:104EA00020E0992329F0D6019C93F60131966F01F9
:104EB000C6010396E2FE0AC03EE4D6013C9341E4FB
:104EC00011964C93119712963C9306C03EE6F6015C
:104ED000308341E641833283FC01322F40E23323A9
:104EE00009F442C041933150FACF82FF44C091117E
:104EF00002C083E001C084E0811718F4212F281B31
:104F000001C020E0E1110BC0F601822F30E28823BE
:104F100019F031938150FBCFC20ED11C20E09923B0
:104F200029F0D6019C93F60131966F01C6010396D4
:104F3000E2FE0BC039E4D6013C933EE411963C936B
:104F4000119736E412963C9307C039E6F601308398
:104F50003EE6318336E63283FC01322F40E23323D2
:104F600019F041933150FBCFFC01E20FF11D10828B
:104F70008EEF9FEFB7C0F1E0911101C0F0E06F2F0D
:104F800070E01416150624F49A012F5F3F4F02C0FB
:104F900021E030E0260F371FBB2029F06B2D70E099
:104FA0006F5F7F4F02C060E070E0260F371F612FF8
:104FB00070E0261737071CF4121B212F01C020E0D8
:104FC0003E2D387159F4D601322F60E2332319F0A7
:104FD0006D933150FBCFC20ED11C20E0FF2331F086
:104FE000D6019C93B6016F5F7F4F6B01E1110BC03F
:104FF000F601922F30E3992319F031939150FBCFB2
:10500000C20ED11C20E09F2D940F3A81782F707131
:10501000A72E84FF03C0313309F49150191624F4EC
:10502000993018F098E001C091E0E42F852F57FFE8
:1050300002C0E0E080E06E2F782FE0E0F0E0AEE22A
:105040009A2E3A01691A71082A01461A570A0B2D3D
:1050500010E01195019511096F3F8FEF780729F442
:10506000D6019C92C60101966C014617570784F041
:10507000661677066CF47F01E40CF51CA1E0B0E045
:10508000AC0FBD1FEA0EFB1ED7011196BC9002C0EB
:1050900090E3B92E615071093196C60101967C01E9
:1050A0006017710724F0D601BC926C01D5CF64174C
:1050B000750741F4363320F4353321F4A11002C0D2
:1050C00081E3B82EF601B082F701822F90E28823A7
:1050D00019F091938150FBCFF701E20FF11D10827F
:1050E00080E090E029960FB6F894DEBF0FBECDBFEA
:1050F000DF91CF911F910F91FF90EF90DF90CF90B4
:10510000BF90AF909F907F906F905F904F90089569
:10511000283008F027E03327DA01990F311D87FD89
:10512000916000966105710539F432602E5F3D9300
:1051300030E32A95E1F708959F3F30F080387105FC
:10514000610509F03C5F3C5F3D93913008F0806859
:10515000911DDF93CF931F930F93FF92EF92192F1F
:10516000987F9695E92F96959695E90FFF27EE5330
:10517000FF4F99273327EE24FF24A701E70105906D
:105180000894079428F4360FE71EF81E491F511D96
:10519000660F771F881F991F0694A1F70590079443
:1051A00028F4E70EF81E491F561FC11D770F881FF0
:1051B000991F661F0694A1F70590079428F4F80E2E
:1051C000491F561FC71FD11D880F991F661F771FC4
:1051D0000694A1F70590079420F4490F561FC71FA6
:1051E000D81F990F661F771F881F0694A9F784910F
:1051F0001095177041F0D695C79557954795F79438
:10520000E7941A95C1F7E8E6F0E0689415901591D7
:1052100035916591959105907FE27395E118F10ABA
:10522000430B560BC90BD009C0F7E10CF11E431F0D
:10523000561FC91FD01D7EF4703311F48A95E6CF36
:10524000E894015030F0080F0AF40027021708F420
:10525000202F2395022F7A3328F079E37D932A9526
:10526000E9F710C07D932A9589F60694979567957E
:10527000379517951794E118F10A430B560BC90B94
:10528000D00998F023957E9173957A3308F070E3F6
:105290007C932013B8F77E9170617D9330F08395F5
:1052A00071E37D9370E32A95E1F71124EF90FF906D
:1052B0000F911F91CF91DF91992787FD90950895C8
:1052C000DC01FC01672F71917723E1F7329704C06D
:1052D0007C916D9370836291AE17BF07C8F30895F8
:1052E0000E94B22908F481E00895E89409C097FB70
:1052F0003EF490958095709561957F4F8F4F9F4FAD
:105300009923A9F0F92F96E9BB279395F6958795F0
:1053100077956795B795F111F8CFFAF4BB0F11F4B3
:1053200060FF1BC06F5F7F4F8F4F9F4F16C088235A
:1053300011F096E911C0772321F09EE8872F762F90
:1053400005C0662371F096E8862F70E060E02AF0D1
:105350009A95660F771F881FDAF7880F96958795BD
:1053600097F90895990F0008550FAA0BE0E8FEEF92
:1053700016161706E807F907C0F012161306E40719
:10538000F50798F0621B730B840B950B39F40A2612
:1053900061F0232B242B252B21F408950A2609F4F0
:1053A000A140A6958FEF811D811D08950E94E929D6
:1053B0000C945A2A0E944C2A38F00E94532A20F05A
:1053C000952311F00C94432A0C94492A11240C942F
:1053D0008E2A0E946B2A70F3959FC1F3950F50E0BF
:1053E000551F629FF001729FBB27F00DB11D639F97
:1053F000AA27F00DB11DAA1F649F6627B00DA11D3D
:10540000661F829F2227B00DA11D621F739FB00DE2
:10541000A11D621F839FA00D611D221F749F332752
:10542000A00D611D231F849F600D211D822F762FEB
:105430006A2F11249F5750409AF0F1F088234AF0C8
:10544000EE0FFF1FBB1F661F771F881F9150504034
:10545000A9F79E3F510580F00C94432A0C948E2AA4
:105460005F3FE4F3983ED4F3869577956795B795BB
:10547000F795E7959F5FC1F7FE2B880F911D9695D5
:10548000879597F9089597F99F6780E870E060E045
:1054900008959FEF80EC089500240A9416161706CD
:1054A00018060906089500240A9412161306140615
:1054B00005060895092E0394000C11F4882352F078
:1054C000BB0F40F4BF2B11F460FF04C06F5F7F4F30
:1054D0008F4F9F4F089557FD9058440F551F59F017
:1054E0005F3F71F04795880F97FB991F61F09F3FD1
:1054F00079F087950895121613061406551FF2CFFA
:105500004695F1DF08C0161617061806991FF1CF49
:1055100086957105610508940895E894BB27662770
:105520007727CB0197F908950E94D62AA59F900D61
:10553000B49F900DA49F800D911D112408952F926A
:105540003F924F925F926F927F928F929F92AF9213
:10555000BF92CF92DF92EF92FF920F931F93CF9360
:10556000DF93CDB7DEB7CA1BDB0B0FB6F894DEBFF7
:105570000FBECDBF09942A88398848885F846E841D
:105580007D848C849B84AA84B984C884DF80EE8067
:10559000FD800C811B81AA81B981CE0FD11D0FB670
:1055A000F894DEBF0FBECDBFED010895A29FB001FC
:1055B000B39FC001A39F700D811D1124911DB29F47
:1055C000700D811D1124911D08955058BB27AA27E5
:1055D0000E94FD2A0C945A2A0E944C2A38F00E94FC
:1055E000532A20F039F49F3F19F426F40C94492AE9
:1055F0000EF4E095E7FB0C94432AE92F0E946B2AF6
:1056000058F3BA17620773078407950720F079F4F7
:10561000A6F50C948D2A0EF4E0950B2EBA2FA02D32
:105620000B01B90190010C01CA01A0011124FF274F
:10563000591B99F0593F50F4503E68F11A16F0404A
:10564000A22F232F342F4427585FF3CF4695379549
:105650002795A795F0405395C9F77EF41F16BA0B0E
:10566000620B730B840BBAF09150A1F0FF0FBB1FBC
:10567000661F771F881FC2F70EC0BA0F621F731F05
:10568000841F48F4879577956795B795F7959E3F62
:1056900008F0B0CF9395880F08F09927EE0F9795F3
:1056A000879508950E94662B0C945A2A0E94532ACB
:1056B00058F00E944C2A40F029F45F3F29F00C94E6
:1056C000432A51110C948E2A0C94492A0E946B2A69
:1056D00068F39923B1F3552391F3951B550BBB2721
:1056E000AA2762177307840738F09F5F5F4F220F66
:1056F000331F441FAA1FA9F335D00E2E3AF0E0E85D
:1057000032D091505040E695001CCAF72BD0FE2FA6
:1057100029D0660F771F881FBB1F2617370748073A
:10572000AB07B0E809F0BB0B802DBF01FF279358F2
:105730005F4F3AF09E3F510578F00C94432A0C9449
:105740008E2A5F3FE4F3983ED4F38695779567956C
:10575000B795F7959F5FC9F7880F911D9695879527
:1057600097F90895E1E0660F771F881FBB1F621746
:1057700073078407BA0720F0621B730B840BBA0B04
:10578000EE1F88F7E09508950E94732A88F09F57CE
:1057900098F0B92F9927B751B0F0E1F0660F771F55
:1057A000881F991F1AF0BA95C9F714C0B13091F04B
:1057B0000E948D2AB1E008950C948D2A672F782FCE
:1057C0008827B85F39F0B93FCCF386957795679510
:1057D000B395D9F73EF490958095709561957F4F7C
:1057E0008F4F9F4F08950E94B22908F48FEF0895BC
:1057F0000E94B229880B990B0895991B79E004C087
:10580000991F961708F0961B881F7A95C9F78095FF
:105810000895AA1BBB1B51E107C0AA1FBB1FA617F7
:10582000B70710F0A61BB70B881F991F5A95A9F749
:1058300080959095BC01CD01089597FB072E16F435
:10584000009407D077FD09D00E94092C07FC05D0F1
:105850003EF4909581959F4F0895709561957F4F87
:105860000895A1E21A2EAA1BBB1BFD010DC0AA1FA1
:10587000BB1FEE1FFF1FA217B307E407F50720F0B9
:10588000A21BB30BE40BF50B661F771F881F991F34
:105890001A9469F760957095809590959B01AC017D
:1058A000BD01CF010895EE0FFF1F0590F491E02D8B
:1058B0000994CF93DF938230910510F482E090E059
:1058C000E0918C06F0918D0620E030E0C0E0D0E061
:1058D000309711F14081518148175907C0F048179E
:1058E000590761F482819381209719F09B838A8301
:1058F0002BC090938D0680938C0626C02115310510
:1059000019F04217530718F49A01BE01DF01EF01A5
:105910000280F381E02DDCCF2115310509F1281B30
:10592000390B2430310590F412968D919C91139788
:105930006115710521F0FB019383828304C090936C
:105940008D0680938C06FD01329644C0FD01E20F66
:10595000F31F81939193225031092D933C933AC0C8
:1059600020918A0630918B06232B41F42091060169
:105970003091070130938B0620938A062091040111
:10598000309105012115310541F42DB73EB7409105
:10599000080150910901241B350BE0918A06F09112
:1059A0008B06E217F307A0F42E1B3F0B28173907CD
:1059B00078F0AC014E5F5F4F2417350748F04E0F6B
:1059C0005F1F50938B0640938A068193919302C088
:1059D000E0E0F0E0CF01DF91CF9108950F931F93A6
:1059E000CF93DF93009709F48CC0FC0132971382A8
:1059F000128200918C0610918D060115110581F41B
:105A000020813181820F931F20918A0630918B066D
:105A10002817390779F5F0938B06E0938A0671C051
:105A2000D80140E050E0AE17BF0750F412962D9118
:105A30003C911397AD012115310509F1D901F3CF3F
:105A40009D01DA013383228360817181860F971F64
:105A50008217930769F4EC0128813981260F371FDB
:105A60002E5F3F4F318320838A819B819383828382
:105A7000452B29F4F0938D06E0938C0642C01396D3
:105A8000FC93EE931297ED01499159919E01240FD9
:105A9000351FE217F30771F480819181840F951F00
:105AA000029611969C938E938281938113969C9378
:105AB0008E931297E0E0F0E0D80112968D919C91C0
:105AC0001397009719F0F8018C01F6CF8D919C91F6
:105AD00098012E5F3F4F820F931F20918A063091CD
