:100000000C9471000C9499000C9499000C94551761
:100010000C9455170C9455170C9499000C94990056
:100020000C9499000C9499000C9499000C949900EC
:100030000C9499000C9499000C9499000C949900DC
:100040000C9408110C9499000C947E0F0C94A5004C
:100050000C9499000C9499000C9499000C949900BC
:100060000C9405180C9499007C3C3E5E2B3D3F2F70
:100070005B5D3B2C2A225C001F1C1F1E1F1E1F1FC6
:100080001E1F1E1F00000000240027002A00000081
:100090000008000201000003040700000000000047
:1000A000000000000000250028002B0000000000D8
:1000B00023002600290004040404040404040202AA
:1000C00002020202030303030303010204081020D7
:1000D0004080010204081020010204081020A02220
:1000E000792211241FBECFEFD8E0DEBFCDBF26E0BE
:1000F000A0E2B2E001C01D92A338B207E1F712E01E
:10010000A0E0B1E0EEE7F2E502C005900D92A0326A
:10011000B107D9F710E0C0E7D0E004C02197FE0195
:100120000E94F926CF36D107C9F70E942F1D0C94E3
:1001300032290C9400008CE395E00E948D0E21E0A2
:10014000892B09F420E0822F08951F920F920FB699
:100150000F9211242F933F934F935F936F937F934D
:100160008F939F93AF93BF93EF93FF938CE395E0AF
:100170000E94B00FFF91EF91BF91AF919F918F912E
:100180007F916F915F914F913F912F910F900FBE93
:100190000F901F901895DC015996ED91FC915A979C
:1001A0003097B9F083899489A589B68942855385AA
:1001B00064857585841B950BA60BB70B811520E80C
:1001C0009207A105B10538F08FEF9FE7A0E0B0E0FE
:1001D000089580E090E00895CF93DF931F92CDB70C
:1001E000DEB76983DC01ED91FC910280F381E02DA3
:1001F00041E050E0BE016F5F7F4F09950F90DF91A6
:10020000CF910895FC01818D928D009711F00C948F
:100210004B168FEF9FEF0895CF93DF93EC018D8105
:100220008823A1F18C8187FF2DC06E857F85888909
:10023000998941E00E94D912882341F1EA8980E23C
:10024000E89FF0011124DF01A65CBC4F1097F1F08C
:100250008D81823050F44B895C896D897E895C96F2
:100260004D935D936D937C935F978F89988DA98D46
:10027000BA8DE65CFC4F938F828FB58BA48B8C81FB
:100280008F778C83DF91CF910C949E1280E0DF9169
:10029000CF910895FC01818D928D009711F00C94FF
:1002A0000C0108953F924F925F926F927F928F92CE
:1002B0009F92AF92BF92CF92DF92EF92FF920F93F5
:1002C0001F93CF93DF93CDB7DEB72C970FB6F8947B
:1002D000DEBF0FBECDBF5C01DC015B968D909C90B4
:1002E0005C971696CD90DD90ED90FC901997C11417
:1002F000D104E104F10439F0BFEFCB1ADB0AEB0AB9
:10030000FB0A312C07C0F401C080D180E280F38069
:1003100033243394F40181859285A385B4859C01AF
:10032000AD012F5F3F4F4F4F5F4F29873A874B8774
:100330005C87260137011D821E821F821886F40108
:1003400081859285A385B4852D813E814F81588515
:10035000281739074A075B0708F063C089859A8523
:10036000AB85BC858C159D05AE05BF0550F482E0BC
:10037000C82ED12CE12CF12C92E0492E512C612C6D
:10038000712C9E012F5F3F4FB701A601C4010E944F
:10039000C213882309F445C089819A81AB81BC814D
:1003A000892B8A2B8B2B41F0260137019FEF491AAD
:1003B000590A690A790A05C0C414D504E604F70489
:1003C00091F02D813E814F8158852F5F3F4F4F4FD8
:1003D0005F4F2D833E834F8358873FEFC31AD30A65
:1003E000E30AF30AACCF0FEF1FEF2FEF3FE0B301AB
:1003F000A201C4010E942213882399F0D501169608
:100400004D915D916D917C91199741155105610553
:10041000710549F093018201C4010E9422138111E8
:1004200002C080E02AC0D50116964D925D926D9271
:100430007C921997332051F0D301C2010196A11D7E
:10044000B11DF40180839183A283B383F501878971
:10045000908DA18DB28D892B8A2B8B2B69F4D501C0
:1004600057964D925D926D927C925A9714968C910C
:100470001497806814968C9381E02C960FB6F894AC
:10048000DEBF0FBECDBFDF91CF911F910F91FF90C7
:10049000EF90DF90CF90BF90AF909F908F907F9024
:1004A0006F905F904F903F9008958F929F92AF9280
:1004B000BF92CF92DF92EF92FF920F931F93CF9351
:1004C000DF93EC018D81811102C080E077C00B8940
:1004D0001C892D893E890417150726073707A8F3BD
:1004E0006A017B01823029F4CA86DB86EC86FD86B0
:1004F0000DC0C114D104E104F10451F41E821F8225
:10050000188619861A861B861C861D8681E056C0B1
:100510008A849B84AC84BD84EB8DFC8D258530E082
:10052000275F3F4FB501A40141505109610971098D
:10053000022E04C076956795579547950A94D2F791
:10054000D701C6010197A109B10904C0B695A795C5
:10055000979587952A95D2F784179507A607B70729
:1005600020F089288A288B2849F44F89588D698D75
:100570007A8D4E835F836887798704C0841B950BCF
:10058000A60BB70B4C015D018E010A5F1F4F811452
:100590009104A104B10409F4A7CF4E815F8168855D
:1005A000798598018B8D9C8D0E94C21391E0891AE8
:1005B0009108A108B1088111EACF87CFDF91CF91CF
:1005C0001F910F91FF90EF90DF90CF90BF90AF9071
:1005D0009F908F9008958F929F92AF92BF92CF92EB
:1005E000DF92EF92FF920F931F93CF93DF9300D090
:1005F00000D0CDB7DEB77C0180E2689F6001112496
:100600009601265C3C4FD9011B969C91917121F07B
:10061000842F827409F097C0142FF701628B8091A8
:10062000000190910101A0910201B0910301868720
:100630009787A08BB18BF601E65CFC4F4489558906
:1006400060E070E0BA0155274427D70157964D93D3
:100650005D936D937C935A97828D938DA0E0B0E06B
:10066000482B592B6A2B7B2BD70157964D935D93C3
:100670006D937C935A97D9011B968C91887159F48C
:10068000848D958DA68DB78DF701838B948BA58B6B
:10069000B68B81E012C0803109F055C097012D5E04
:1006A0003F4FD7015B968D919C915C970E944614B9
:1006B000882309F448C084E0F7018583812F8F7077
:1006C000D70114968C931497F7011682178210861F
:1006D00011861A961D921D921D921C921D9716FF4F
:1006E00034C015968C91813071F511FF2CC0F70143
:1006F0004389548965897689452B462B472B09F414
:1007000061C040E050E0BA01C7010E945502882351
:10071000D1F0F7018788908CA18CB28CC38CD48CDB
:1007200082E090E0A0E0B0E0F60180839183A283B4
:10073000B3839E012F5F3F4FB501A401C6010E9404
:10074000C213811104C080E03DC081E03BC000E0E5
:1007500010E09801B501A401C6010E94221388236C
:1007600091F389809A80AB80BC80D60157968C919A
:10077000803129F088EF9FEFAFEFBFE004C088EF32
:100780009FEFA0E0B0E088169906AA06BB0688F2A3
:10079000D70157961D921D921D921C925A97F701F0
:1007A000138A148A158A168A848180688483C70113
:1007B0000E940C01882339F240E050E0BA01C701E1
:1007C0000E9455020F900F900F900F90DF91CF91E4
:1007D0001F910F91FF90EF90DF90CF90BF90AF905F
:1007E0009F908F9008954F925F926F927F92AF92F9
:1007F000BF92CF92DF92EF92FF920F931F93CF930E
:10080000DF93CDB7DEB72B970FB6F894DEBF0FBEE0
:10081000CDBF7C01CE0101966C01FC0190E28BE022
:100820008C0D91938E13FDCFDA0130E047E09D915E
:10083000992339F19E3219F0E8E6F0E00AC04A3017
:1008400009F472C138E04AE0F2CF3196891709F411
:100850006BC184918111F9CF431708F465C18FED05
:10086000890F8E3508F060C181E0830FF601E30F38
:10087000F11D3FE9390F3A3108F490529083382F37
:10088000D6CF8981803209F44FC1B22E8B01DB01B2
:100890005B968D919C915C97F701948F838F169650
:1008A0001D921D921D921C921997FB0112861386B0
:1008B00014861586712CF80182859385A485B585EB
:1008C000438954896589768984179507A607B707F0
:1008D00008F061C025E0B695A795979587952A956C
:1008E000D1F7F82FFF706F2ED80115968C918230BA
:1008F00008F41AC1C8010E944B1697FD15C1F801F2
:1009000082859385A485B5854F96A11DB11D8287EB
:100910009387A487B587F0E26F9EC0011124BC01C4
:10092000665C7C4F6115710509F4FEC0DB012C91FA
:10093000222319F0253EC1F427C071100EC0F70123
:10094000628A409100015091010160910201709111
:10095000030146875787608B718BFC01E65CFC4F77
:100960008081811113C015C04BE050E0C6010E9488
:10097000FB28892B09F09FCF8B2D8073803309F4DE
:10098000D3C04B2D662DCCC07720C9F27724739449
:1009900092CF772473948B2D8271823109F0C4C079
:1009A0007720D1F0D7011E966D917D918D919C910C
:1009B000519741E00E94D912882309F4B5C0F7018C
:1009C0006289F0E26F9FB0011124665C7C4F611573
:1009D000710509F079C0A8C0D80115968C918230B4
:1009E00009F4A2C0C8010E945201882309F49CC0E6
:1009F000D8015B96ED91FC915C9716964D905D90B9
:100A00006D907C901997B2E04B1A510861087108FB
:100A1000058404C0440C551C661C771C0A94D2F74C
:100A200086859785A089B189480E591E6A1E7B1E4E
:100A3000A480E1E04E1A510861087108AA2009F16A
:100A40000E949E12882309F46FC0EAE3F3E011923A
:100A500025E0EA33F207D9F7D301C2018A0D911DCF
:100A6000A11DB11D8093000190930101A09302018B
:100A7000B093030180918002816080938002AA94E8
:100A8000DDCFD8015B96ED91FC915C9780E092E020
:100A9000A0E0B0E0058404C0880F991FAA1FBB1F07
:100AA0000A94D2F7F8014389548965897689840FBD
:100AB000951FA61FB71F838B948BA58BB68BD70171
:100AC00052961C926AE373E080E2FB0111928A95D0
:100AD000E9F78BE0F601DB0101900D928A95E1F7D1
:100AE00081E298E2DB0151969C938E93509720E02F
:100AF00038E01F963C932E931E9753969C938E93AB
:100B0000529759969C938E93589757963C932E9351
:100B100056970E949E12882339F04B2DF701628967
:100B2000C7010E94EB0201C080E02B960FB6F8943B
:100B3000DEBF0FBECDBFDF91CF911F910F91FF9010
:100B4000EF90DF90CF90BF90AF907F906F905F90CD
:100B50004F9008950F931F93CF93DF93FC01818DE6
:100B6000928D0097B9F0EF010E944B168C010F3F58
:100B70008FEF180791F0898D9A8DFC01428553857E
:100B80006485758541505109610971090E945502BA
:100B9000C80105C080E090E002C08FEF9FEFDF91B9
:100BA000CF911F910F910895CF93DF93EC010E9495
:100BB0000C01882311F01D8281E0DF91CF9108950F
:100BC0008FB7F894809136028FBF089561E0FC01E1
:100BD00084810E943A108091350281111092350271
:100BE00008958EBD00000DB407FEFDCF8EB50895AB
:100BF0008FEF0C94F1050F931F93CF93DF93EB01CD
:100C00000E94FC108B010E94F8058F3F49F00E9462
:100C1000FC10601B710B6C177D07A8F380E001C00E
:100C200081E0DF91CF911F910F910895CF93DF93D2
:100C3000EC018E81882389F08F8198859C012F5F3C
:100C40003F4F38872F838230924018F40E94F80576
:100C5000F3CFCE010E94E6051E82DF91CF91089569
:100C60008CBD9DBD0895CF93DF93EC01809135023B
:100C7000811109C081E0809335028091D90590915E
:100C8000DA050E94300660E08C81DF91CF910C94F0
:100C90003A10CF92DF92FF920F931F93CF93DF937F
:100CA00000D000D0CDB7DEB76C01F62E29833A8391
:100CB0004B835C830E941606C6010E9433066CE2D9
:100CC00071E0C6010E94FB058F2D80640E94F10532
:100CD00008E110E05C814B813A812981DA01C90188
:100CE000002E04C0B695A795979587950A94D2F7DC
:100CF00029833A834B835C830E94F10508501109D4
:100D000029813A814B815C81083F8FEF180731F7C9
:100D1000FF2029F0E8E0FE1204C087E803C085E95F
:100D200001C08FEF0E94F10510E00E94F805F60166
:100D3000828787FF04C01F3F11F01F5FF6CF0F901F
:100D40000F900F900F90DF91CF911F910F91FF9017
:100D5000DF90CF900895AF92BF92CF92DF92EF9243
:100D6000FF920F931F93CF93DF93EC016901C801AA
:100D7000820F931F8130924008F070C08E818823CB
:100D800071F088819981AA81BB81481759076A0748
:100D90007B0729F48F819885C816D906B0F548835A
:100DA00059836A837B838B85833039F089E0440FD4
:100DB000551F661F771F8A95D1F79A01AB0161E134
:100DC000CE010E944906882319F083E08D8346C036
:100DD0000E94FC105B010E94F8058A878F3F49F44E
:100DE0000E94FC106A197B096D327140A0F38FE0FC
:100DF00003C08E3F31F08DE08D83CE010E94E60569
:100E00002DC018861F8281E08E838F8198858C1576
:100E10009D0540F40E94F8058F819885019698877A
:100E20008F83F3CF6701E00EF11ECE14DF0431F0A3
:100E30000E94F805F60181936F01F7CF8F819885A5
:100E4000080F191F18870F838985882319F001154A
:100E5000124048F0CE010E94160605C0CE010E9445
:100E6000E60580E001C081E0DF91CF911F910F91F5
:100E7000FF90EF90DF90CF90BF90AF900895EF92EA
:100E8000FF920F931F93CF93DF93EC0179014115EC
:100E900051056105710511F482E13CC08B858330F9
:100EA00039F089E0440F551F661F771F8A95D1F7E7
:100EB0009A01AB0168E1CE010E944906882311F036
:100EC00084E028C08EEF0E94F10587018EEFF81AAA
:100ED000F80181918F010E94F1050E151F05C1F7E0
:100EE0008FEF0E94F1058FEF0E94F1050E94F80537
:100EF0008A878F71853031F081E18D83CE010E9428
:100F0000E60509C068E572E0CE010E94FB0581118B
:100F100007C085E18D83CE010E94E60580E013C005
:100F200020E030E0A9016DE0CE010E944906811168
:100F300004C00E94F805882311F084E1EBCFCE01B4
:100F40000E94E60581E0DF91CF911F910F91FF9004
:100F5000EF9008952F923F924F925F926F927F92FF
:100F60008F929F92AF92BF92CF92DF92EF92FF92B9
:100F70000F931F93CF93DF9300D000D0CDB7DEB790
:100F80008C015B011A01DC0115968C91159781305B
:100F9000C9F414968C9181FF15C082FF1BC0F80123
:100FA000438954896589768982859385A485B58529
:100FB00084179507A607B70769F0C8010E94550274
:100FC000811108C081E090E0F8019383828380E082
:100FD00090E039C1610183C0D8015B968D919C91ED
:100FE0005C97FC01248121502A013B0139E0769471
:100FF0006794579447943A95D1F7722E74207A01EA
:10100000F1E0FF22772009F476C080E092E08E19AB
:101010009F0946018C159D0508F44C01D8015B968B
:101020002D913C915C9716968D919D910D90BC9160
:10103000A02D0297A109B109F901058404C0880F08
:10104000991FAA1FBB1F0A94D2F74685578560894E
:101050007189840F951FA61FB71F9C01AD01270D35
:10106000311D411D511D29013A01811432E09306C1
:1010700009F088C08091000190910101A0910201C6
:10108000B091030184159505A605B70559F48FEFB6
:101090009FEFDC018093000190930101A093020176
:1010A000B09303019501B301A20180913A0590919B
:1010B0003B050E943F07882309F484CF9EEFB91AAD
:1010C000C818D908F80182859385A485B585880D4F
:1010D000991DA11DB11D82879387A487B587D8016B
:1010E0001A964D915D916D917C911D97C114D1041B
:1010F00009F072CF87C0E114F10409F086CF16968B
:101100004D915D916D917C91199741155105610546
:10111000710559F457968D919D910D90BC91A02D1C
:101120000097A105B10541F521C09E012F5F3F4FFA
:101130000E94C213882309F44BCF89819A81AB8125
:10114000BC81F801238D348DF9012789203129F0E4
:1011500048EF5FEF6FEF7FE004C048EF5FEF60E0C4
:1011600070E084179507A607B70730F0C8010E9402
:10117000520181114ACF26CFF80186839783A08739
:10118000B18743CFE114F10429F5D8011A964D91A6
:101190005D916D917C911D9753968D919D910D90D0
:1011A000BC91A02D481759076A077B0798F00E9449
:1011B0009E12882309F406CF40920001509201014B
:1011C000609202017092030180918002816080939D
:1011D000800208C041E0C301B2010E94D9128823F5
:1011E00009F4F0CED501F701E65CFC4FCF01880D84
:1011F000991DE817F90719F02D912193FACFA80C42
:10120000B91C5ECF53968D919D910D90BC91A02DF0
:1012100084179507A607B70740F4F801438B548B52
:10122000658B768B848180688483D80114968C9139
:1012300083FD02C0C10107C0C8010E940C018823C0
:1012400009F4C0CEF7CF0F900F900F900F90DF9161
:10125000CF911F910F91FF90EF90DF90CF90BF90B3
:10126000AF909F908F907F906F905F904F903F9046
:101270002F900895CF93DF931F92CDB7DEB7698388
:1012800041E050E0BE016F5F7F4F0E94AA070F90C0
:10129000DF91CF910895CF93DF93EC01898D9A8DE3
:1012A000009739F481E090E09B838A8380E090E0AE
:1012B0000BC0FC01138212820E94AA07E98DFA8DED
:1012C00022813381232B71F7DF91CF910895FC01A7
:1012D000DB0112968D919C9113979383828382E315
:1012E00091E09183808314968C9114978483159652
:1012F0008C911597858316964D915D916D917C919A
:10130000199746835783608771871A964D915D912F
:101310006D917C911D9742875387648775871E96D0
:101320004D915D916D917C91519746875787608B68
:10133000718B52968C915297828B53964D915D9101
:101340006D917C915697438B548B658B768B57961A
:101350004D915D916D917C915A97478B508F618F24
:10136000728F5B968D919C915C97948F838F08957B
:1013700090917F029111FCCF91E090937F02909326
:101380007E022FEF20937D0210927C02260F209385
:101390007B0290937A0290917A02880F892B809336
:1013A0007A0280917902813061F410927902809101
:1013B0007A028093BB008091BC0083FDF8CF85EC5E
:1013C00001C085EE8093BC0080917F028130E1F303
:1013D00080917C02861710F460917C02A9E5B2E04E
:1013E00029E332E0F9018E2F821B861718F48D91C4
:1013F0008193F9CF862F0895EF92FF920F931F9359
:10140000CF93DF93FC01248135816115710511F4BF
:1014100080E019C041155105A9F07B01EC018A015A
:10142000020F131FB8010E94471B882389F32881EC
:1014300039818C819D81B701820F931F0E941C29E5
:101440001D830C8381E0DF91CF911F910F91FF905D
:10145000EF900895CF92DF92EF92FF921F93CF9378
:10146000DF931092E6051092E4051092E1051092C8
:10147000E0058093DF050E94FC106B017C0161E0B8
:101480008091DF050E94861061E08091DF050E9457
:101490003A100E94CF1782E58093D9051092DA05A1
:1014A0008091D9059091DA050E943006DAE08FEF3D
:1014B0000E94F105D150D9F7E6018BED95E00E942D
:1014C000330620E030E0A90160E08BED95E00E945A
:1014D0004906182F8093E505813049F00E94FC10E1
:1014E0006C1B7D0B613D774060F381E054C02AEABC
:1014F00031E040E050E068E08BED95E00E94490665
:1015000082FF03C01093E6050EC014E00E94F805A8
:101510008093E5051150D1F78A3A11F082E03BC083
:1015200082E08093E6058091E605823021F0C12CAF
:10153000D12C760105C0C12CD12CE12C30E4F32E46
:1015400020E030E0A90167E38BED95E00E944906B9
:10155000A701960169E28BED95E00E944906809310
:10156000E505882349F00E94FC106C1B7D0B613D52
:10157000774030F388E00FC08091E605823001F5B6
:1015800020E030E0A9016AE38BED95E00E94490676
:10159000882341F086E08093E0058BED95E00E9482
:1015A000E6058FC00E94F805807C803C19F483E03A
:1015B0008093E6050E94F8050E94F8050E94F80550
:1015C0008BED95E00E94E60580E58093D9051092A9
:1015D000DA0581E00E94ED19882329F080910A063E
:1015E000882341F06EC080E00E94ED19882309F441
:1015F00069C0F4CF8091FE05803109F582E08093C7
:101600000A0610921C0610921D0610921E061092D9
:101610001F068091FF0590910006A0E0B0E025E054
:10162000880F991FAA1FBB1F2A95D1F78093180610
:1016300090931906A0931A06B0931B061EC0803221
:1016400009F03FC083E080930A0640910106509163
:101650000206609103067091040640931C065093A5
:101660001D0660931E0670931F0628E136E087EE84
:1016700095E00E944614882321F187EE95E090932F
:1016800021068093200681E08093090610920B06C4
:1016900010920C0610920D0610920E0610920F0674
:1016A0001092100610921106109212061092130654
:1016B0001092140610921506109216061092170634
:1016C00001C080E0DF91CF911F91FF90EF90DF90FC
:1016D000CF900895CF93DF93CDB7DEB728970FB69D
:1016E000F894DEBF0FBECDBF1D8290E49E8324E13F
:1016F0002F8324E5288719829A8390E19B8390E5C4
:101700009C8390915F06691710F06FEF690F40910D
:101710006006262F30E0FE01E20FF31F403121F476
:10172000943011F4918101C09581682F690F606830
:1017300088E596E028960FB6F894DEBF0FBECDBFC1
:10174000DF91CF910C945211CF93DF93EC0162E0C3
:1017500080E40E94B809109238028093370281E732
:1017600096E00E949715888381E796E00E9497157E
:10177000898381E090E0DF91CF910895CF93DF934B
:10178000EC0160E481E796E00E949019688181E7AE
:1017900096E00E94E31581E796E0DF91CF910C94EB
:1017A0003319EF92FF920F931F93CF93DF93CDB72F
:1017B000DEB728970FB6F894DEBF0FBECDBF68E640
:1017C00080917D0690917E060E94901980917D0601
:1017D00090917E06DC01ED91FC910190F081E02D6D
:1017E00060E0099580917D0690917E060E943319F4
:1017F00067E088E60E94B8091092380280933702A9
:1018000080917D0690917E06DC01ED91FC91028431
:10181000F385E02D09958F77982F92959F701AEF99
:10182000082F919F000D112480917D0690917E06D6
:10183000DC01ED91FC910284F385E02D09959C017A
:10184000332764E0359527956A95E1F7F82E129FC6
:10185000F00C112480917D0690917E06DC01ED91C3
:10186000FC910284F385E02D099586FF0CC0582F6A
:101870005F71952F92959F70919F500D112485FF58
:101880000DC0545F0BC09C01332754E0359527955C
:101890005A95E1F7582F129F500D112480917D0623
:1018A00090917E06DC01ED91FC910284F385E02DA0
:1018B0005887099580917D0690917E06DC01ED9117
:1018C000FC910284F385E02D09959C01332794E077
:1018D000359527959A95E1F73AEFE32E482FE29E4A
:1018E000400D112480917D0690917E06DC01ED91E2
:1018F000FC910284F385E02D4F830995182F809188
:101900007D0690917E06DC01ED91FC910284F385C9
:10191000E02D09959C01332744E0359527954A959C
:10192000E1F7E82FE29EE00D1124F0E09F01205343
:10193000384F4F81588517FF02C02C593F4F1F77F2
:10194000205D812F82958F70312FB6E08B9F3019EB
:1019500011246F2D702F80E090E028960FB6F89438
:10196000DEBF0FBECDBFDF91CF911F910F91FF90D2
:10197000EF900895CF93C82F68E680917D069091EF
:101980007E060E94901980917D0690917E06DC0172
:10199000ED91FC910190F081E02D6C2F09958091E3
:1019A0007D0690917E060E94331961E088E60E94D0
:1019B000B809109238028093370280917D06909189
:1019C0007E06DC01ED91FC910284F385E02D099502
:1019D000CF910895CF93DF93D82FC62F68E68091DB
:1019E0007D0690917E060E94901980917D069091CF
:1019F0007E06DC01ED91FC910190F081E02D6D2FD0
:101A0000099580917D0690917E06DC01ED91FC9117
:101A10000190F081E02D6C2F099580917D069091C9
:101A20007E06DF91CF910C943319CF92DF92FF9213
:101A30000F931F93CF93DF93EC018FE00E94BA0CBA
:101A4000682F6F778FE00E94EA0C68E680917D0630
:101A500090917E060E94901980917D0690917E065D
:101A6000DC01ED91FC910190F081E02D60E00995A1
:101A7000A0917D06B0917E062D81ED91FC9111978C
:101A80001AE0822F612F0E94A326982F880F980FAB
:101A9000990F692F620F0190F081E02DCD0109951A
:101AA000A0917D06B0917E062C81ED91FC9111975D
:101AB000822F612F0E94A326982F880F980F990FCD
:101AC000692F620F0190F081E02DCD010995A09161
:101AD0007D06B0917E062B81ED91FC911197822FAE
:101AE000612F0E94A326982F880F980F990F692FB6
:101AF000620F0190F081E02DCD010995888190E081
:101B00009C012053384F10E3120F143628F01CECC0
:101B1000120F20E8F22E01C0F12CE0917D06F09129
:101B20007E060190F081E02DC080D1804A816981DC
:101B30000E942212069667E070E00E94AF26682F8E
:101B400080917D0690917E06F6010995A0917D0613
:101B5000B0917E063A81ED91FC9111970AE0832FB6
:101B6000602F0E94A326982F880F980F990F692F36
:101B7000630F0190F081E02DCD0109952981A0919D
:101B80007D06B0917E06ED91FC911197822F602F1A
:101B90000E94A326982F880F980F990F290F6F2D59
:101BA000622B0190F081E02DCD010995A0917D0679
:101BB000B0917E06ED91FC911197812F602F0E94CC
:101BC000A326682F880F680F660F610F0190F081C0
:101BD000E02DCD01099580917D0690917E06DF91E3
:101BE000CF911F910F91FF90DF90CF900C943319FC
:101BF000CF93DF93EC016115710561F0FB0101905A
:101C00000020E9F73197AF01461B570B0E94FC09F2
:101C1000811103C0CE010E946E1BCE01DF91CF91D6
:101C20000895CF93DF93EC01FB01448155816081DE
:101C300071810E94FC09811103C0CE010E946E1BBC
:101C4000CE01DF91CF910895EF92FF920F931F93F2
:101C5000CF93DF93EC017B018A01BA010E94471BFD
:101C6000811104C0CE010E946E1B07C01D830C832E
:101C7000B701888199810E941C29CE01DF91CF9103
:101C80001F910F91FF90EF900895CF93DF93EC0198
:101C9000FB018617970761F06081718161157105FD
:101CA00029F0448155810E94240E02C00E946E1BBF
:101CB000CE01DF91CF910895FC01538D448D252FE6
:101CC00030E0842F90E0821B930B541710F0CF96D6
:101CD000089501970895FC01918D828D981761F008
:101CE000828DDF01A80FB11D5D968C91928D9F5F53
:101CF0009F73928F90E008958FEF9FEF0895FC01FE
:101D0000918D828D981731F0828DE80FF11D858DB0
:101D100090E008958FEF9FEF0895FC01918D228D43
:101D2000892F90E0805C9F4F821B91098F739927C8
:101D3000089580E090E0892B29F00E949B0081119A
:101D40000C94000008953FB7F89480918A02909116
:101D50008B02A0918C02B0918D0226B5A89B05C084
:101D60002F3F19F00196A11DB11D3FBFBA2FA92F1A
:101D7000982F8827820F911DA11DB11DBC01CD0197
:101D800042E0660F771F881F991F4A95D1F7089583
:101D900021E001C0220F6A95EAF7DC011C962C9322
:101DA0001C971A965C934E931997ED91FC910484BD
:101DB000F585E02D60E00994DC01ED91FC9106844D
:101DC000F785E02D41E0099581E090E008950895C0
:101DD00008950E94F628CF93DF93FC0123812223EC
:101DE000B1F0EC018181809568236083628181E795
:101DF00096E00E949019688181E796E00E94E315C1
:101E000081E796E00E943319282F30E002C020E0DD
:101E100030E081E090E0232B11F080E090E0DF9152
:101E2000CF910895EF92FF920F931F93CF938C0160
:101E3000FC01759684E0C0E060FF02C09081C92B70
:101E40006695815031968111F7CF413011F4F80138
:101E50004489F8018585C82BC42B7801FEE0EF0E7C
:101E6000F11CF80162896C2BC7010E94EB0EF8018E
:101E7000628960956C23C701CF911F910F91FF90EC
:101E8000EF900C94EB0E0F931F93CF93DF93062FDD
:101E90000F70423019F440E0602F10C0142F262F2D
:101EA000EC0130E0B90184E0759567958A95E1F71A
:101EB000CE010E94120F412F602FCE01DF91CF91F2
:101EC0001F910F910C94120FFC0184858823A9F0B7
:101ED000218532852115310519F4611106C007C02D
:101EE0002130310521F4611102C0858701C01586BA
:101EF0006585CF010E960C94EB0E08951F920F92FC
:101F00000FB60F9211242F938F939F93EF93FF930C
:101F1000E0914C05F0914D058081E0915205F091E2
:101F2000530582FD12C09081809155058F5F8F739C
:101F300020915605821751F0E0915505F0E0E45CE0
:101F4000FA4F958F8093550501C08081FF91EF91E5
:101F50009F918F912F910F900FBE0F901F9018950A
:101F6000FC01848DDF01A80FB11DA35ABF4F2C9136
:101F7000848D90E001968F739927848FA689B78905
:101F80002C93A089B1898C9180648C93938D848DDE
:101F9000981306C00288F389E02D80818F7D8083AD
:101FA0000895EF92FF920F931F93CF93DF93EC016D
:101FB00081E0888F9B8D8C8D981305C0E889F98905
:101FC000808185FD24C0F62E0B8D10E00F5F1F4F22
:101FD0000F731127E02E8C8DE8120CC00FB607FC92
:101FE000FACFE889F989808185FFF5CFCE010E947B
:101FF000B00FF1CF8B8DFE01E80FF11DE35AFF4FBB
:10200000F0820B8FEA89FB898081806207C0EE89AC
:10201000FF896083E889F98980818064808381E019
:1020200090E0DF91CF911F910F91FF90EF90089575
:10203000CF93DF93EC01888D8823C9F0EA89FB896F
:10204000808185FD05C0A889B9898C9186FD0FC066
:102050000FB607FCF5CF808185FFF2CFA889B9893B
:102060008C9185FFEDCFCE010E94B00FE7CFDF91BD
:10207000CF91089590E0FC01E257FF4F3491FC01AD
:10208000E653FF4F2491FC01EA54FF4FE491EE2305
:1020900009F43BC0332339F1333091F038F4313057
:1020A000A9F0323001F584B58F7D12C0373091F040
:1020B0003830A1F03430B9F4809180008F7D03C0B6
:1020C000809180008F77809380000DC084B58F77DA
:1020D00084BD09C08091B0008F7703C08091B000AB
:1020E0008F7D8093B000F0E0EE0FFF1FEE55FF4FA5
:1020F000A591B4918FB7F894EC91611103C020952C
:102100002E2301C02E2B2C938FBF0895CF93DF93E6
:1021100090E0FC01E653FF4F2491FC01EA54FF4F8D
:102120008491882361F190E0880F991FFC01EC579E
:10213000FF4FC591D491FC01EE55FF4FA591B4918D
:10214000611109C09FB7F894888120958223888304
:10215000EC912E230BC0623061F49FB7F894388164
:10216000822F809583238883EC912E2B2C939FBF05
:1021700006C08FB7F894E8812E2B28838FBFDF919C
:10218000CF9108958F929F92AF92BF92CF92DF929C
:10219000EF92FF926B017C010E94A30E4B015C0148
:1021A000C114D104E104F104F1F00E94A30EDC019A
:1021B000CB0188199909AA09BB09883E9340A1055A
:1021C000B10570F321E0C21AD108E108F10888EEE8
:1021D000880E83E0981EA11CB11CC114D104E10437
:1021E000F10419F7DDCFFF90EF90DF90CF90BF9013
:1021F000AF909F908F9008952FB7F89460918602CA
:102200007091870280918802909189022FBF089572
:102210001F920F920FB60F9211242F933F938F931B
:102220009F93AF93BF938091860290918702A09174
:102230008802B09189023091850223E0230F2D3767
:1022400020F40196A11DB11D05C026E8230F0296BA
:10225000A11DB11D20938502809386029093870271
:10226000A0938802B093890280918A0290918B0298
:10227000A0918C02B0918D020196A11DB11D809399
:102280008A0290938B02A0938C02B0938D02BF912F
:10229000AF919F918F913F912F910F900FBE0F9013
:1022A0001F901895DC01ED91FC910684F785E02DD7
:1022B00040E009940F931F93CF93DF93EC014230DA
:1022C00018F08C8188608C834F836887222329F0E3
:1022D000413019F48C8184608C8364E670E080E086
:1022E00090E00E94C2106C8164FD31C0E881F981E8
:1022F0000684F785E02D42E063E0CE0109958BE48A
:1023000096E40197F1F7E881F9810684F785E02DDD
:1023100042E063E0CE01099503E512E0C8010197B0
:10232000F1F7E881F9810684F785E02D42E063E06A
:10233000CE010995C8010197F1F7E881F98106847A
:10234000F785E02D42E062E0CE01099517C060629A
:10235000CE010E9452118BE496E40197F1F76C8153
:102360006062CE010E94521103E512E0C80101979C
:10237000F1F76C816062CE010E945211C801019791
:10238000F1F76C816062CE010E9452118BEE90E0F9
:102390000197F1F784E08D836CE0CE010E94521129
:1023A00061E0CE010E9452118BE39FE10197F1F7AA
:1023B00082E08E8366E0CE010E945211E881F981AD
:1023C0000484F585E02D6FEFCE01DF91CF911F9151
:1023D0000F910994FF920F931F93CF93DF93EC011A
:1023E000162F042FF22E8B85888B81E796E00E94B2
:1023F0009A19688981E796E00E94901981E796E032
:102400000E94331991E0811190E0998B992329F072
:1024100081E796E00E9497158E878989882339F095
:102420001F861C8260E0CE010E960E94EB0E2F2DBF
:10243000402F612FCE01DF91CF911F910F91FF901F
:102440000C945A1150E0E8E7F0E021E02E1B322F07
:102450003E0F361728F43491430F511D3196F7CFB4
:10246000633038F09C0123703327232B11F44F5F26
:102470005F4F2DE631E0829FB001839F700D929FE8
:10248000700D1124615071099C012D5F3F4F3695ED
:10249000279536952795CB01820F931F840F951FA3
:1024A0000895EF92FF920F931F93CF93DF93EC0168
:1024B00088814A81698190E00E9422129C01A8E1F2
:1024C000B0E00E947C252B817B018C01E20EF11C87
:1024D000011D111DA8019701ACE3B0E00E943A254F
:1024E0002C817B018C01E20EF11C011D111DA80144
:1024F00097010E943A252D81620F711D811D911D4A
:10250000DF91CF911F910F91FF90EF9008959C0163
:10251000F9012F5F3F4F90819F7E9032C9F380E099
:10252000219190ED920F9A3040F4880F982F990FD7
:10253000990F890F8053820FF3CF08958091800205
:102540008823A9F14091000150910101609102019D
:10255000709103012AE333E080913A0590913B05A5
:102560000E943F07811102C080E0089540918102DE
:10257000509182026091830270918402411551054D
:102580006105710591F02AE333E080913A0590915D
:102590003B050E943F07882339F310928102109275
:1025A000820210928302109284021092800281E0D3
:1025B00008958F929F92AF92BF92EF92FF920F93E6
:1025C0001F93CF934B015C01C42F80910001909128
:1025D0000101A0910201B091030188159905AA0596
:1025E000BB0501F10E949E12811102C080E020C053
:1025F0008AE3E82E83E0F82E00E012E020E030E0ED
:10260000B501A40180913A0590913B050E94AB066B
:10261000882361F38092000190920101A09202014F
:10262000B092030180918002C82BC093800281E0A8
:10263000CF911F910F91FF90EF90BF90AF909F901F
:102640008F9008954F925F926F927F928F929F9298
:10265000AF92BF92CF92DF92EF92FF920F931F93B0
:10266000CF93DF93EC016A017B01280139014230ED
:1026700051056105710510F480E073C089859A8564
:10268000AB85BC850196A11DB11D84179507A607D2
:10269000B70790F38B889C88AD88BE888F8980317E
:1026A00029F4BB27AF2D9E2D8D2D09C0DB01CA015A
:1026B00047E0B695A795979587954A95D1F7880EE7
:1026C000991EAA1EBB1E8091000190910101A0914C
:1026D0000201B091030188169906AA06BB0679F497
:1026E0008F898031A1F4DD24EE24FF24C601880FF8
:1026F000991FFC01E65CFC4F5182408219C040E00A
:10270000C501B4010E94D9128111EACFB5CFE89476
:10271000C7F8DD24EE24FF24C601880F991F880F17
:10272000991FFC01E65CFC4F4082518262827382F9
:10273000809180028160809380028A89823080F05B
:102740008D819E81AF81B885880E991EAA1EBB1E01
:102750008092810290928202A0928302B0928402BF
:1027600081E0DF91CF911F910F91FF90EF90DF906B
:10277000CF90BF90AF909F908F907F906F905F9021
:102780004F9008958F929F92AF92BF92CF92DF9217
:10279000EF92FF920F931F93CF93DF93FC018185FC
:1027A0009285A385B4850196A11DB11D8417950757
:1027B000A607B70710F480E05CC083899489A589D7
:1027C000B689C789C03129F4852E962EA72EBB2441
:1027D00009C04A015B01C7E0B694A7949794879417
:1027E000CA95D1F7E9016A017B018F01BC01CD01D6
:1027F000680D791D8A1D9B1D80900001909001013C
:10280000A0900201B0900301681579058A059B0527
:1028100099F4F80187898031A9F4B701A6015527F9
:1028200066277727440F551FFA01E65CFC4F80812D
:102830009181A0E0B0E018C040E00E94D91281115F
:10284000E8CFB9CFB701A6014F775527662777277D
:10285000440F551F440F551FFA01E65CFC4F808161
:102860009181A281B381BF7088839983AA83BB833E
:1028700081E0DF91CF911F910F91FF90EF90DF905A
:10288000CF90BF90AF909F908F9008954F925F929E
:102890006F927F92AF92BF92CF92DF92EF92FF92B0
:1028A0000F931F93CF93DF9300D000D0CDB7DEB747
:1028B0008C0149835A836B837C835901C12CD12CB1
:1028C0007601412C82E0582E612C712C49815A816D
:1028D0006B817C819E012F5F3F4FC8010E94C21314
:1028E000882351F1D301C201F801058404C0880F87
:1028F000991FAA1FBB1F0A94D2F7C80ED91EEA1E41
:10290000FB1E49815A816B817C818789803129F046
:1029100088EF9FEFAFEFBFE004C088EF9FEFA0E02C
:10292000B0E0481759076A077B0780F2F501C082BB
:10293000D182E282F38281E00F900F900F900F908E
:10294000DF91CF911F910F91FF90EF90DF90CF908B
:10295000BF90AF907F906F905F904F9008952091BF
:102960002202309123022817390771F49091200236
:1029700080912102981741F0E0912002F0E0E650AA
:10298000FD4F808190E008958FEF9FEF08950895A7
:102990001F93CF93DF93DC015C962D913C915D9763
:1029A0002115310539F481E090E013969C938E93C4
:1029B00012973DC05196ED91FC91529750969C9183
:1029C0005097892F80951FB75E964C915E9741FB7B
:1029D000772770F941FD6095F8944081772311F0D5
:1029E000492B01C048234083E9012197F1F748E0D2
:1029F000508160FF02C0592B01C058235083E90168
:102A00002197F1F76695415099F7772321F090814E
:102A10008923808303C08081982B90831FBF5C969D
:102A20008D919C915D970197F1F721E030E0C9010C
:102A3000DF91CF911F9108952091220230912302BE
:102A40002817390771F4809121022091200290E02B
:102A5000805C9F4F821B910960E470E00E94C32656
:102A6000089580E090E008952091220230912302A1
:102A700028173907B9F49091200280912102981704
:102A800089F0E0912002F0E0E650FD4F8081209136
:102A9000200230E02F5F3F4F2F7333272093200217
:102AA00090E008958FEF9FEF089585ED8093BC002F
:102AB0008091BC0084FDFCCF10927F02089540916C
:102AC000D402262F30E0240F311D21323105DCF4F1
:102AD00020917F022430C9F4FC0180E090E0861749
:102AE00058F43091D4022191DC01AE54BD4FA30FB4
:102AF000B11D2C930196F3CF8091D402680F60939F
:102B0000D40280E0089581E0089582E00895089558
:102B1000E091380280913702E81730F4F0E0E75C8A
:102B2000FD4F808190E008958FEF9FEF0895909181
:102B3000380280913702981750F4E92FF0E0E75CF3
:102B4000FD4F208130E09F5F9093380202C02FEF4D
:102B50003FEFC90108958091370290E0209138023B
:102B6000821B91090895CF92DF92EF92FF920F930B
:102B70001F93CF93DF937C01262F972F8A0180919B
:102B8000B102882391F0C62FD72F6E01C40ED51E37
:102B9000CC15DD0571F06991D701ED91FC910190A3
:102BA000F081E02DC7010995F3CF642F822F0E9499
:102BB0005F15C801DF91CF911F910F91FF90EF90AA
:102BC000DF90CF900895CF93DF931F92CDB7DEB7FC
:102BD00069832091B1022223D1F02091B0022032EA
:102BE00040F021E030E0FC013383228380E090E07C
:102BF00015C08091AF02E82FF0E0E157FD4F9981B9
:102C000090838F5F8093AF028093B00205C061E034
:102C1000CE0101960E945F1581E090E00F90DF9158
:102C2000CF910895089580E090E00895EF92FF928B
:102C30000F931F93CF93DF93EC017B018A011B82DB
:102C40001A8288EE93E0A0E0B0E08C839D83AE838F
:102C5000BF838EE091E0998388838DE190E00E94AC
:102C6000FF269A8F898F009779F02DE1F701DC011B
:102C700001900D922A95E1F74CE050E0B801CE01A9
:102C80000C960E942329188EDF91CF911F910F91EE
:102C9000FF90EF9008952F923F924F925F926F9224
:102CA0007F928F929F92AF92BF92CF92DF92EF92DC
:102CB000FF920F931F93CF93DF9300D0CDB7DEB772
:102CC000FC018581882309F4D9C0848180FFD6C0A6
:102CD00021E02A8343895489658976898285938591
:102CE000A485B585481759076A077B0709F41A8236
:102CF0006F013A81832F90E0DE0111964D013F0173
:102D0000B6E06B0E711C892B09F47DC0D6011A96B2
:102D10004D915D916D917C911D975A01B1E0BB225F
:102D2000F60125811A012B0189E0569447943794C6
:102D300027948A95D1F7838D948D223061F4FC011C
:102D4000828D938DA48DB58DBC01CD01620D731D57
:102D5000841D951D45C0DC0114961C911150122153
:102D6000A114B104D1F4111118C0452B462B472BE7
:102D700051F4F6018789908DA18DB28D868397835A
:102D8000A087B1870AC0468157816085718593010C
:102D90000E94C213882309F471C0F601238D348D7B
:102DA00086819781A085B1850297A109B109AC01FF
:102DB000BD01F901058404C0440F551F661F771F2C
:102DC0000A94D2F786859785A089B189840F951FCB
:102DD000A61FB71FBC01CD01610F711D811D911D83
:102DE000D60114962C9126FF14C000910001109179
:102DF00001012091020130910301601771078207E0
:102E0000930751F506C0FA81FF23C1F1898190E053
:102E100037C040E00E94D912882381F1F501E65CB9
:102E2000FC4FD401CF010196E817F90719F0219161
:102E30002D93FACFEFEF8E1A9E0AF60182859385C5
:102E4000A485B5850196A11DB11D82879387A487AE
:102E5000B58780E090E057CF740101E010E0950164
:102E6000AB01BC0180913A0590913B050E94AB06F5
:102E7000882321F0BFEF8B1A9B0ADFCF8FEF9FEFE4
:102E80000F900F90DF91CF911F910F91FF90EF90D6
:102E9000DF90CF90BF90AF909F908F907F906F907A
:102EA0005F904F903F902F9008951F920F920FB612
:102EB0000F9211242F933F934F935F936F937F93C0
:102EC0008F939F93AF93BF93EF93FF93E091220271
:102ED000F0912302309709F451C0968DA685B785ED
:102EE000858591FF04C09C91892329F447C09C915A
:102EF000892309F043C0A389B4899C918589809571
:102F000089238C93868997890197F1F7608D718D5C
:102F1000A685B785558538E020E0CB010197F1F70C
:102F2000822F90E095958795282F4C91452309F0A5
:102F30002068315091F7868D81FD20958091210286
:102F400090E001968F73992730912002381749F04D
:102F5000A0912102B0E0A650BD4F2C938093210296
:102F600003C0868D8160868F828D938D0197F1F7E6
:102F7000A389B4899C918589892B8C93FF91EF91CA
:102F8000BF91AF919F918F917F916F915F914F9181
:102F90003F912F910F900FBE0F901F901895CF93D8
:102FA000CFB7F8948091F902811127C0E0ECF0E0EE
:102FB0008491E4EDF0E09491E82FF0E0EE0FFF1F34
:102FC000EC57FF4FA591B491EC91E92321F461E016
:102FD0008AE00E943A1061E08AE00E9486108CB577
:102FE00080618CBD8CB580648CBD61E08DE00E94F9
:102FF000861061E08BE00E9486108091F9028F5F5D
:103000008093F902CFBFCF9108951F920F920FB610
:103010000F9211242F933F934F935F936F937F935E
:103020008F939F93AF93BF93EF93FF938091B900DA
:10303000887F803609F49CC068F5883209F45BC04B
:1030400090F4803109F454C038F4882309F4F6C0B0
:10305000883009F44DC0F6C0883109F44CC0803284
:1030600009F45DC0EFC0803409F468C048F48033CF
:1030700009F455C0883309F0E5C080937D02D8C0BB
:10308000803509F44FC0883509F45DC0883409F0F3
:10309000D9C0D6C0883909F4C7C0A8F4883709F464
:1030A00067C038F4883609F463C0803709F460C01B
:1030B000C9C0883809F4B8C0803909F45FC08038C5
:1030C00009F0C0C05BC0803B09F486C038F4803A88
:1030D00009F466C0883A09F47FC0B4C0803C09F4A2
:1030E000A7C0883C09F4A4C0883B09F48AC0AAC0E0
:1030F00080917A0210C090917C0280917B02981797
:1031000070F5E0917C0281E08E0F80937C02F0E00C
:10311000E75AFD4F80818093BB0085EC86C0809389
:103120007D028EC0E0917C0281E08E0F80937C0254
:103130008091BB00F0E0E75AFD4F808390917C02C4
:1031400080917B026EC0E0917C0281E08E0F8093C3
:103150007C028091BB00F0E0E75AFD4F80838091B4
:103160007E0281116DC081E08093790284EA61C0A2
:1031700083E080937F021092F802CFCF8091F80213
:10318000803208F051C0E091F80281E08E0F809308
:10319000F8028091BB00F0E0E852FD4F8083BDCF84
:1031A00085EC8093BC0010927F028091F8028032FF
:1031B00030F4E091F802F0E0E852FD4F10826091A7
:1031C000F80270E0E091D602F091D70288ED92E02B
:1031D00009951092F80236C084E080937F02109225
:1031E000D5021092D402E091D202F091D302099557
:1031F0008091D402811105C081E08093D4021092A5
:10320000B202E091D50281E08E0F8093D502F0E00A
:10321000EE54FD4F80818093BB009091D502809148
:10322000D402981708F479CF85E88093BC000AC0CF
:1032300085EC8093BC0010927F0204C010927D0246
:103240000E945515FF91EF91BF91AF919F918F9182
:103250007F916F915F914F913F912F910F900FBE92
:103260000F901F9018952091B00290918E022132FC
:1032700008F04AC080917F028111FCCF32E0309388
:103280007F0231E030937E023FEF30937D02109257
:103290007C0220937B02AFE8B2E049E552E0FA01FC
:1032A0003E2F341B321718F43D913193F9CF109211
:1032B0007A0220917A02990F922B90937A02909140
:1032C0007902913061F41092790290917A02909390
:1032D000BB009091BC0093FDF8CF95EC01C095EE3A
:1032E0009093BC0090917F029230E1F390917D0227
:1032F0009F3F79F080917D02803241F080917D0284
:10330000803331F084E005C081E003C082E001C079
:1033100083E01092AF021092B0021092B1020895B1
:1033200081E08093B10260938E021092AF021092FE
:10333000B002089510923802109237021092AF0234
:103340001092B00210927F0281E080937E02109270
:10335000790261E082E10E943A1061E083E10E941B
:103360003A10E9EBF0E080818E7F808380818D7F51
:10337000808388E48093B80085E48093BC0008953E
:10338000CF92DF92EF92FF920F931F93CF93DF9331
:103390008C01C1E0D0E06B01770FEE08FF080C173D
:1033A0001D0794F061E082E00E943A10C701B60167
:1033B0000E94C21060E082E00E943A10C701B6018C
:1033C0000E94C2102196EBCFDF91CF911F910F91F8
:1033D000FF90EF90DF90CF9008958F929F92AF92E1
:1033E000BF92CF92DF92EF92FF92CF93DF93C82FDD
:1033F0008BED95E090933B0580933A05CC2369F1E2
:10340000C53010F080E00DC140E060E070E0CB011D
:103410000E94D9128823B1F320E1C29FC001112478
:10342000865D9C4FFC01E254FE4F20812F7751F7BF
:103430003C9640815181628173814436510561051A
:10344000710500F33497C080D180E280F380C1140D
:10345000D104E104F10421F4D5CFC12CD12C7601A3
:1034600040E0C701B6010E94D912882359F2809129
:103470004503909146038115924021F6A0914A039D
:10348000AA2309F4BFCF60914803709149036115E5
:10349000710509F4B7CF20914703222309F4B2CF75
:1034A000A093F9052093EB0580E030E0E1E0F0E047
:1034B000C82FAF01082E02C0440F551F0A94E2F72F
:1034C0002417350741F0982F8F5F983089F789E0EE
:1034D0008093F40597CF8093F405209150033091A9
:1034E00051032115310519F040E050E008C020914A
:1034F0005E0330915F03409160035091610320931C
:10350000EC053093ED054093EE055093EF05460131
:103510005701860E971EA11CB11C8092FA0590924D
:10352000FB05A092FC05B092FD05E0914B03F091E4
:103530004C03F0930006E093FF05B0E00E943A25AB
:10354000860E971EA81EB91E809201069092020652
:10355000A0920306B092040685E0EE0FFF1F8A9545
:10356000E1F7E150FE4FEF2FFF27E6958E0E9F1EED
:10357000A11CB11C8092F5059092F605A092F7056A
:10358000B092F80520914D0330914E03211531057D
:1035900021F0A90160E070E008C040915A03509109
:1035A0005B0360915C0370915D03D701C6018819CC
:1035B0009909AA09BB09840F951FA61FB71F04C04C
:1035C000B695A79597958795CA95D2F78093F005FC
:1035D0009093F105A093F205B093F305853F2FE09A
:1035E0009207A105B10510F48CE018C0853F9F4FEC
:1035F000A105B10510F480E111C08091660390919E
:103600006703A0916803B0916903809301069093CA
:103610000206A0930306B093040680E28093FE05A1
:1036200081E0DF91CF91FF90EF90DF90CF90BF903E
:10363000AF909F908F900895CF92DF92EF92FF927C
:103640000F931F93CF93DF936C017A018B01C0E03E
:10365000D0E0CE15DF0589F0D8016D918D01D6013E
:10366000ED91FC910190F081E02DC6010995892B27
:1036700011F47E0102C02196ECCFC701DF91CF91FA
:103680001F910F91FF90EF90DF90CF9008950F93CF
:103690001F93CF93DF93EC0188819981009729F0E4
:1036A0002A813B812617370788F48B016F5F7F4F94
:1036B0000E942C28009761F0998388831B830A83DA
:1036C0002C813D81232B11F4FC01108281E001C08B
:1036D00080E0DF91CF911F910F910895CF93DF93F9
:1036E000EC0188819981009711F00E94942719823A
:1036F00018821D821C821B821A82DF91CF9108954D
:10370000FC01808191810C949427EF92FF920F939A
:103710001F93CF93DF93CDB7DEB729970FB6F894F9
:10372000DEBF0FBECDBF8C01862FF8011182108243
:10373000138212821582148250E09E012F5F3F4F48
:103740007901B90190E00E94E123F7010190002086
:10375000E9F73197AF014E195F09B701C8010E941F
:10376000240E29960FB6F894DEBF0FBECDBFDF91B1
:10377000CF911F910F91FF90EF900895FC0111825E
:10378000108213821282158214826115710551F024
:10379000FB0101900020E9F73197AF01461B570B61
:1037A0000C94240E08956115710579F0FB010190C8
:1037B0000020E9F73197AF01461B570BDC01ED9173
:1037C000FC910280F381E02D099480E090E008955F
:1037D0004F925F926F927F92EF92FF920F931F939F
:1037E000CF93DF93CDB7DEB7A1970FB6F894DEBFC6
:1037F0000FBECDBF7C01FA01CB0119A2223008F423
:103800002AE08E010F5D1F4F422E512C612C712C2E
:10381000BF01A30192010E94D726F901CA010150FC
:1038200011096A3014F4605D01C0695CD8016C93C1
:10383000232B242B252B61F7B801C7010E94D31B32
:10384000A1960FB6F894DEBF0FBECDBFDF91CF912A
:103850001F910F91FF90EF907F906F905F904F902E
:1038600008954F925F926F927F928F929F92AF9244
:10387000BF92CF92DF92EF92FF92CF93DF93EC0152
:103880006A017B01B22E9A01AB01C701B6010E9409
:103890009E26882319F064E172E027C026013701D3
:1038A000E89477F82FEF3FEF4FE75FE7C301B201EE
:1038B0000E949E2681110DC02FEF3FEF4FE75FE77B
:1038C000C301B2010E94162418161CF468E172E0CC
:1038D0000CC02FEF3FEF4FE75FE4C701B6010E9436
:1038E000992618169CF46CE172E0CE01DF91CF911D
:1038F000FF90EF90DF90CF90BF90AF909F908F9010
:103900007F906F905F904F900C94D31B2FEF3FEF01
:103910004FE75FECC701B6010E94162487FDE3CF95
:1039200020E030E0A901C701B6010E94162487FFFC
:103930000EC0E881F9810190F081E02D6DE2CE01A9
:1039400009954C01F7FAF094F7F8F09402C0812C35
:10395000912CA12C60E070E080E09FE3AB1441F07B
:1039600020E030E040E251E40E94F825A394F6CF35
:103970009B01AC01C701B6010E948C252B013C01C3
:103980000E946A266B017C010E941B249B01AC01F2
:10399000C301B2010E948B252B013C012AE0B70133
:1039A000A601CE010E94E81B7C01E80CF91CBB209B
:1039B00051F0E881F9810190F081E02D6EE2CE01B5
:1039C0000995E80EF91EDB2CDD2029F120E030E01E
:1039D00040E251E4C301B2010E947C242B013C016E
:1039E0000E946A264B01A12CB12C2AE0B501A4014A
:1039F000CE010E94E81BE80EF91EC501B4010E9429
:103A00001B249B01AC01C301B2010E948B252B0139
:103A10003C01DA94D9CFC701DF91CF91FF90EF90AD
:103A2000DF90CF90BF90AF909F908F907F906F90DE
:103A30005F904F9008950F931F93CF93DF93EC0106
:103A40000E94D31B8C016AEF71E0CE010E94D31B50
:103A5000800F911FDF91CF911F910F910895CF9308
:103A6000DF93CDB7DEB7CA59D1090FB6F894DEBFE0
:103A70000FBECDBF789484B5826084BD84B581606B
:103A800084BD85B5826085BD85B5816085BD809129
:103A90006E00816080936E001092810080918100A1
:103AA0008260809381008091810081608093810099
:103AB000809180008160809380008091B10084605B
:103AC0008093B1008091B00081608093B0008091BC
:103AD0007A00846080937A0080917A00826080937B
:103AE0007A0080917A00816080937A0080917A00D8
:103AF000806880937A001092C10010924B06109259
:103B00004A061092490610924806109247061092F3
:103B100046068FE190E090934D0680934C0690917D
:103B20003C06963108F057C021E030E0309347065C
:103B3000209346062DE130E0309349062093480655
:103B40002DE030E030934B0620934A062091680028
:103B5000983050F031E09E3008F430E081E001C050
:103B6000880F3A95EAF701C084E0822B80936800C1
:103B7000983038F09E3040F0963148F020E030E048
:103B800008C02DE630E005C02BE630E002C02CE690
:103B900030E03093440620934306983030F481E0BF
:103BA00001C0880F9A95EAF70EC0292F30E09E30A9
:103BB00018F42850310902C02E50310981E001C0AB
:103BC000880F2A95EAF78093450680914C069091DC
:103BD0004D060197F1F780914A0690914B06892B8B
:103BE00049F1E0912202F091230226E0E033F2074E
:103BF00009F1309739F0A389B4899C918589809522
:103C000089238C9380914E068E7F80934E0610926E
:103C100021021092200280E396E090932302809389
:103C20002202E0914306F09144069081809145067E
:103C3000892B80836AE070E080E090E00E94C210EF
:103C4000E0914C05F0914D0582E08083E0914805BC
:103C5000F09149051082E0914A05F0914B0580E111
:103C6000808310925405E0915005F091510586E053
:103C70008083E0914E05F0914F05808180618083C3
:103C8000E0914E05F0914F05808188608083E0913E
:103C90004E05F0914F05808180688083E0914E054C
:103CA000F0914F0580818F7D80836AE070E080E035
:103CB00090E00E94C2100E94CF1781E796E00E9418
:103CC0009A1960E971E08E010F5F1F4FC8010E94D1
:103CD000BE1BB80180E596E00E94450E8AE090E0A8
:103CE00090935706809356060E942A0A811103C0BA
:103CF00069E971E002C060EA71E08CE395E00E943E
:103D00001B1DC8010E94801B80917D0690917E063C
:103D10000E949A198FEA91E00E9487128E8F89E0A3
:103D20008F8F8AEA91E00E94871288A382EB91E04C
:103D30000E94871289A385EB91E00E9487128AA3D3
:103D400088EB91E00E9487128BA38FE00E94BA0C4F
:103D5000DE015E967D0187FF09C06BEB71E08CE3AD
:103D600095E00E941B1DC7010E94150D8EE00E9468
:103D7000BA0C87FF0EC064EC71E08CE395E00E9402
:103D80001B1D8EE00E94BA0C682F6F778EE00E9498
:103D9000EA0C0E94D10B29833A834B835C836D83A9
:103DA0007E83C8010E9451124B015C01C7010E9431
:103DB000511286169706A806B90648F460ED71E020
:103DC0008CE395E00E941B1DC7010E94150D8FE03A
:103DD0000E94BA0C682F677F8FE00E94EA0C8EE089
:103DE0000E94BA0C8C7B682F64608EE00E94EA0C03
:103DF00081E796E00E949A1960E481E796E00E94CC
:103E0000901981E796E00E943319811103C081E087
:103E10008093240220E042E060E188E596E00E9481
:103E2000EA1160E082E00E946A0B6BED71E088E5C8
:103E300096E00E94D31B61E082E00E946A0B61EE73
:103E400071E088E596E00E94D31B60E08DE00E945F
:103E50006A0B66EE71E088E596E00E94D31B61E094
:103E60008DE00E946A0B68EE71E088E596E00E94A2
:103E7000D31B6AEF70E085E090E00E94C0190E94B9
:103E8000FC1060933102709332028093330290935E
:103E9000340283EECE56DF4F8883C259D040CE0124
:103EA0008E569F4F0E94BE0BC8010E94A40B298111
:103EB000822F90E0A0E0B0E04427582F692F7A2F9E
:103EC0008A819A01AB01282BA4EAB4E40E943A2526
:103ED000BC016D547241072E000C880B990B0E9497
:103EE0001D2420E030E048EC52E40E94F8254B010C
:103EF0005C0160932D0270932E0280932F029093A9
:103F0000300285EECF56DF4F8883C159D040CE01B5
:103F10008F569F4F0E94BE0BC8010E94A40B29819F
:103F2000822F90E0A0E0B0E04427582F692F7A2F2D
:103F30008A819A01AB01282BADE7B0E00E943A25B7
:103F4000BC016650710980E090E00E941B242B01A7
:103F50003C016093290270932A0280932B02909374
:103F60002C0260E088E00E946A0B21E0B501A40108
:103F700088E596E00E94311C61E088E00E946A0BAF
:103F800020E0B301A20188E596E00E94311C62E3C3
:103F900070E081E090E00E94C01980913102909120
:103FA0003202A0913302B091340240912502509127
:103FB00026026091270270912802841B950BA60BA4
:103FC000B70B80319742A105B10508F489C26AEEAA
:103FD00071E08CE395E00E941B1D40912D025091F1
:103FE0002E0260912F027091300222E080E396E071
:103FF0000E94311C6AEF71E080E396E00E94D31BBF
:104000008091310290913202A0913302B09134023A
:104010008093250290932602A0932702B093280252
:104020000E94D10B29833A834B835C836D837E830B
:104030000E94D10BCB57DF4F2883C558D040CA57B9
:10404000DF4F3883C658D040C957DF4F4883C75821
:10405000D040C857DF4F5883C858D040C757DF4FAC
:104060006883C958D040C657DF4F7883CA58D040BC
:104070004AE0672FCE0181589F4F0E94851B4AE07E
:10408000C757DF4F6881C958D040CE0187589F4F2E
:104090000E94851B4AE0C857DF4F6881C858D0404E
:1040A000CE018D589F4F0E94851BCB57DF4F8881D3
:1040B000C558D04090E06A961FAE1EAE6A976C96C7
:1040C0001FAE1EAE6C976E961FAE1EAE6E974AE088
:1040D000B8018053984F0E94EC23F8010190002012
:1040E000E9F73197AF01401B510BB801CE01885A57
:1040F0009F4F0E94240E4AE0CA57DF4F6881C6587E
:10410000D040CE01CB960E94851B4AE0C957DF4FB5
:104110006881C758D040C8010E94851B1F8E1E8E23
:1041200019A218A21BA21AA2B801C7010E94450E2B
:104130006DEF71E0C7010E94F80DBE01655C7F4F15
:104140000E94110E6DEF71E00E94F80DBE01685AD9
:104150007F4F0E94110E6FEF71E00E94F80DBE01BB
:104160006D587F4F0E94110E64EE71E00E94F80DB1
:10417000BE0167587F4F0E94110E64EE71E00E94ED
:10418000F80DBE0161587F4F0E94110EC557DF4FD9
:1041900019821882CB58D040C357DF4F198218823A
:1041A000CD58D040C157DF4F19821882CF58D04028
:1041B000BC01CE0185579F4F0E94450EC7010E944A
:1041C000801BC8010E94801BCE01CB960E94801BE1
:1041D000CE01885A9F4F0E94801BCE018D589F4F61
:1041E0000E94801BCE0187589F4F0E94801BCE01EA
:1041F00081589F4F0E94801B8091290290912A0232
:10420000A0912B02B0912C02CB56DF4F888399836B
:10421000AA83BB83C559D04040902D0250902E02F6
:1042200060902F0270903002809156060E942A0AF8
:10423000A0915006B0915106CD56DF4FB983A883A7
:10424000C359D04065E076E0C7010E9467091C822F
:104250001B82E2E3F1E0FA83E9831E82CD56DF4F51
:10426000C880D980C359D040580117016FE270E06F
:10427000C6010E941129009709F447C0D6012C916C
:104280002F3249F4BFEFCB1ADB0A9A2D8B2D510147
:10429000292E382E34C08C198D3008F08CE0882EF1
:1042A000912CA401B601CE01885A9F4F0E94232968
:1042B000E8E5F0E0EC0FFD1FE80DF91D1082C501E7
:1042C0000E94D405F5018581882351F01EAE1DAEF4
:1042D00022E331E03CAF2BAF21961FAE219729C0DE
:1042E00021E0AE01485A5F4FB101C5010E94F303BE
:1042F000882361F3C80CD91CC1010E94D405922DFA
:10430000832D1501A92EB82EB1CFC601CD56DF4F92
:10431000A881B981C359D0408A1B9B0BC756DF4F78
:1043200099838883C959D040B101CE01CB960E94B0
:104330006709CD56DF4FC880D980C359D040C756D2
:10434000DF4FE881F981C959D040CE0EDF1ED6017A
:104350008C91811109C0BE01655C7F4FC8010E942C
:1043600067094DEF51E04FC019A218A2E2E3F1E056
:10437000FF8FEE8F1BA221968FAD219781111CC05C
:104380006C961FAE1EAE6C9788EE93E0A0E0B0E096
:10439000A0968CAF9DAFAEAFBFAFA0978EE091E07F
:1043A0006A969FAF8EAF6A97E3961FAE1EAEE397F5
:1043B000A5961FAEA5972DC0825023E1A60182309D
:1043C00048F465E076E0CE014E960E94F303811139
:1043D0000EC0D6CFBE01655C7F4FCE014E960E94C7
:1043E000F303882369F2CE01CB960E94D40549A934
:1043F0005AA96BA97CA9C7010E945502B701C8013F
:104400000E946709A601B801CE01885A9F4F0E94F9
:104410001616E396EEADFFADE397309709F455C05D
:104420008581882309F451C061E072E08CE395E056
:104430000E941B1DC157DF4F48815981CF58D04082
:10444000C557DF4F68817981CB58D040CE01885A5B
:104450009F4F0E944B096CE072E0CE01885A9F4F3B
:104460000E94D31B22E0B301A201CE01885A9F4FC4
:104470000E94311C6CE072E0CE01885A9F4F0E946E
:10448000D31B22E0CB56DF4F488159816A817B8163
:10449000C559D040CE01885A9F4F0E94311C6CE014
:1044A00072E0CE01885A9F4F0E941B1DE3968EAD8D
:1044B0009FADE397009779F00E94D405E3968EAD07
:1044C0009FADE3970E94942706C06EE072E08CE3F4
:1044D00095E00E941B1DCE0185579F4F0E94801BB7
:1044E00068EB7BE080E090E00E94C2100E94990E91
:1044F000C6CC84E296E00E94801B8AE296E00E948D
:10450000801B80E591E09093310680933006809186
:104510002202909123028053964071F4E091430669
:10452000F09144069081809145068095892380838F
:10453000109223021092220280E596E00C94801BD8
:10454000CF92DF92EF92FF92CF9310923F0510929D
:104550003E0598EEC92E93E0D92EE12CF12CC092A5
:104560004005D0924105E0924205F092430580E279
:1045700091E090933D0580933C0585EC90E090930D
:1045800049058093480584EC90E090934B05809317
:104590004A0580EC90E090934D0580934C0581ECAA
:1045A00090E090934F0580934E0582EC90E09093BD
:1045B00051058093500586EC90E0909353058093CD
:1045C00052051092550510925605109257051092FB
:1045D000580580E58093D9051092DA051092E00520
:1045E0001092E1051092E4051092E60582E090E059
:1045F000A0E0B0E08093E7059093E805A093E9057B
:10460000B093EA051092FE05109208061092070674
:1046100082E391E0909306068093050610920A06C5
:104620001092740610927306C0927506D0927606A8
:10463000E0927706F09278068EE391E0909372060E
:104640008093710681E796E090937E0680937D06C5
:1046500010925B0610925A0680E891E090935906FA
:1046600080935806109268068FEF80936706109229
:104670006606109269068FE38093630610926406C3
:1046800010926506109262061092610684E0809393
:104690006A0682E080936B06C1E0C0936C0680E1FD
:1046A00080936D0680E280936E0680E480936F06AF
:1046B00080E88093700640E050E063E088E596E093
:1046C0000E94C80E6CEF71E080E596E00E94BE1B70
:1046D0001092330610923206C0923406D0923506FC
:1046E000E0923606F092370680E591E0909331062D
:1046F00080933006109247061092460610924906A3
:104700001092480610924B0610924A0610924D06DF
:1047100010924C0680914E068E7F8D7F80934E06C0
:1047200086958170682F6C2785E00E943A1061E0C1
:1047300085E00E948610EFECF0E0E491E093400603
:10474000EBEBF0E0E491F0E0EE0FFF1FEE55FF4FD2
:1047500085919491909342068093410660E086E0B3
:104760000E94861080914E0681FD04C061E086E0C3
:104770000E943A1086E080933C06E0EDF0E0E49180
:10478000E0933D06ECEBF0E0E491F0E0EE0FFF1F6C
:10479000E455FF4F8591949190933F0680933E0698
:1047A0006CEF71E08AE296E00E94BE1B6CEF71E054
:1047B00084E296E0CF91FF90EF90DF90CF900C9441
:1047C000BE1B4532510520F4423010F00C94EC230E
:1047D000FB011082CB010895BB27FB015527AA27B7
:1047E000880F991FAA1FA41710F0A41B839550517E
:1047F000B9F7A05DAA3308F0A95DA193009779F7F6
:10480000B111B1931192CB010C940624DC01FC018F
:10481000672F71917723E1F7329704C07C916D93F4
:1048200070836291AE17BF07C8F308950E945824A1
:1048300008F481E00895E89409C097FB3EF4909550
:104840008095709561957F4F8F4F9F4F9923A9F069
:10485000F92F96E9BB279395F695879577956795F8
:10486000B795F111F8CFFAF4BB0F11F460FF1BC03C
:104870006F5F7F4F8F4F9F4F16C0882311F096E9CF
:1048800011C0772321F09EE8872F762F05C066237D
:1048900071F096E8862F70E060E02AF09A95660F36
:1048A000771F881FDAF7880F9695879597F90895EF
:1048B000990F0008550FAA0BE0E8FEEF1616170631
:1048C000E807F907C0F012161306E407F50798F099
:1048D000621B730B840B950B39F40A2661F0232BB2
:1048E000242B252B21F408950A2609F4A140A6952E
:1048F0008FEF811D811D08950E948F240C94002547
:104900000E94F22438F00E94F92420F0952311F03F
:104910000C94E9240C94EF2411240C9434250E9467
:10492000112570F3959FC1F3950F50E0551F629FBD
:10493000F001729FBB27F00DB11D639FAA27F00DF8
:10494000B11DAA1F649F6627B00DA11D661F829F1F
:104950002227B00DA11D621F739FB00DA11D621F04
:10496000839FA00D611D221F749F3327A00D611D21
:10497000231F849F600D211D822F762F6A2F112403
:104980009F5750409AF0F1F088234AF0EE0FFF1F36
:10499000BB1F661F771F881F91505040A9F79E3F8D
:1049A000510580F00C94E9240C9434255F3FE4F326
:1049B000983ED4F3869577956795B795F795E795E3
:1049C0009F5FC1F7FE2B880F911D9695879597F9EC
:1049D000089597F99F6780E870E060E008959FEF81
:1049E00080EC089500240A94161617061806090686
:1049F000089500240A941216130614060506089555
:104A0000092E0394000C11F4882352F0BB0F40F4DC
:104A1000BF2B11F460FF04C06F5F7F4F8F4F9F4F1C
:104A2000089557FD9058440F551F59F05F3F71F09E
:104A30004795880F97FB991F61F09F3F79F0879505
:104A40000895121613061406551FF2CF4695F1DF8E
:104A500008C0161617061806991FF1CF869571051E
:104A6000610508940895E894BB2766277727CB0152
:104A700097F908950E947C25A59F900DB49F900DF5
:104A8000A49F800D911D112408952F923F924F9263
:104A90005F926F927F928F929F92AF92BF92CF92CE
:104AA000DF92EF92FF920F931F93CF93DF93CDB7D7
:104AB000DEB7CA1BDB0B0FB6F894DEBF0FBECDBF4F
:104AC00009942A88398848885F846E847D848C8420
:104AD0009B84AA84B984C884DF80EE80FD800C8129
:104AE0001B81AA81B981CE0FD11D0FB6F894DEBF0C
:104AF0000FBECDBFED010895A29FB001B39FC001CD
:104B0000A39F700D811D1124911DB29F700D811DF9
:104B10001124911D08955058BB27AA270E94A32550
:104B20000C9400250E94F22438F00E94F92420F011
:104B300039F49F3F19F426F40C94EF240EF4E09519
:104B4000E7FB0C94E924E92F0E94112558F3BA17CA
:104B5000620773078407950720F079F4A6F50C9493
:104B600033250EF4E0950B2EBA2FA02D0B01B901C1
:104B700090010C01CA01A0011124FF27591B99F0D3
:104B8000593F50F4503E68F11A16F040A22F232FDF
:104B9000342F4427585FF3CF469537952795A7952F
:104BA000F0405395C9F77EF41F16BA0B620B730BD6
:104BB000840BBAF09150A1F0FF0FBB1F661F771F47
:104BC000881FC2F70EC0BA0F621F731F841F48F4FC
:104BD000879577956795B795F7959E3F08F0B0CF85
:104BE0009395880F08F09927EE0F9795879508956C
:104BF0000E940C260C9400250E94F92458F00E9473
:104C0000F22440F029F45F3F29F00C94E92451117B
:104C10000C9434250C94EF240E94112568F39923F9
:104C2000B1F3552391F3951B550BBB27AA276217A8
:104C30007307840738F09F5F5F4F220F331F441FB5
:104C4000AA1FA9F335D00E2E3AF0E0E832D09150E9
:104C50005040E695001CCAF72BD0FE2F29D0660FD6
:104C6000771F881FBB1F261737074807AB07B0E819
:104C700009F0BB0B802DBF01FF2793585F4F3AF01F
:104C80009E3F510578F00C94E9240C9434255F3F45
:104C9000E4F3983ED4F3869577956795B795F795A5
:104CA0009F5FC9F7880F911D9695879597F908958D
:104CB000E1E0660F771F881FBB1F62177307840729
:104CC000BA0720F0621B730B840BBA0BEE1F88F738
:104CD000E09508950E94192588F09F5798F0B92F04
:104CE0009927B751B0F0E1F0660F771F881F991F21
:104CF0001AF0BA95C9F714C0B13091F00E9433256B
:104D0000B1E008950C943325672F782F8827B85F7A
:104D100039F0B93FCCF3869577956795B395D9F778
:104D20003EF490958095709561957F4F8F4F9F4F82
:104D300008950E94582408F48FEF08950E94582483
:104D4000880B990B0895991B79E004C0991F961759
:104D500008F0961B881F7A95C9F780950895AA1BBD
:104D6000BB1B51E107C0AA1FBB1FA617B70710F056
:104D7000A61BB70B881F991F5A95A9F78095909588
:104D8000BC01CD01089597FB072E16F4009407D0BF
:104D900077FD09D00E94AF2607FC05D03EF4909520
:104DA00081959F4F0895709561957F4F0895A1E279
:104DB0001A2EAA1BBB1BFD010DC0AA1FBB1FEE1F95
:104DC000FF1FA217B307E407F50720F0A21BB30BE0
:104DD000E40BF50B661F771F881F991F1A9469F75C
:104DE00060957095809590959B01AC01BD01CF01B8
:104DF0000895EE0FFF1F0590F491E02D0994CF93D5
:104E0000DF938230910510F482E090E0E09181061A
:104E1000F091820620E030E0C0E0D0E0309711F160
:104E20004081518148175907C0F04817590761F46C
:104E300082819381209719F09B838A832BC0909362
:104E400082068093810626C02115310519F042178C
:104E5000530718F49A01BE01DF01EF010280F381CC
:104E6000E02DDCCF2115310509F1281B390B243049
:104E7000310590F412968D919C91139761157105EF
:104E800021F0FB019383828304C090938206809378
:104E90008106FD01329644C0FD01E20FF31F8193AC
:104EA0009193225031092D933C933AC020917F0673
:104EB00030918006232B41F42091060130910701A7
:104EC0003093800620937F062091040130910501E4
:104ED0002115310541F42DB73EB74091080150919D
:104EE0000901241B350BE0917F06F0918006E21743
:104EF000F307A0F42E1B3F0B2817390778F0AC01FD
:104F00004E5F5F4F2417350748F04E0F5F1F5093D9
:104F1000800640937F068193919302C0E0E0F0E029
:104F2000CF01DF91CF9108950F931F93CF93DF931C
:104F3000009709F48CC0FC01329713821282009111
:104F40008106109182060115110581F420813181BD
:104F5000820F931F20917F06309180062817390712
:104F600079F5F0938006E0937F0671C0D80140E0A8
:104F700050E0AE17BF0750F412962D913C91139755
:104F8000AD012115310509F1D901F3CF9D01DA01F8
:104F90003383228360817181860F971F8217930765
:104FA00069F4EC0128813981260F371F2E5F3F4FAE
:104FB000318320838A819B8193838283452B29F4CB
:104FC000F0938206E093810642C01396FC93EE9321
:104FD0001297ED01499159919E01240F351FE21757
:104FE000F30771F480819181840F951F02961196C9
:104FF0009C938E938281938113969C938E931297A8
:10500000E0E0F0E0D80112968D919C911397009703
:1050100019F0F8018C01F6CF8D919C9198012E5FCB
:105020003F4F820F931F20917F06309180062817F3
:10503000390769F4309729F410928206109281069C
:1050400002C0138212821093800600937F06DF91C4
:10505000CF911F910F910895A0E0B0E0E2E3F8E254
:105060000C944925EC01009721F4CB010E94FF2606
:10507000B8C0FC01E60FF71F9C0122503109E2176E
:10508000F30708F4ACC0D9010D911C9111970617D4
:105090001707B0F00530110508F49FC0C801049748
:1050A0008617970708F499C002501109061B170BC1
:1050B000019311936D937C93CF010E9494278DC02F
:1050C0005B01A01AB10A4C01800E911EA0918106CD
:1050D000B091820640E050E0E12CF12C109709F4E9
:1050E0004AC0A815B905D1F56D907C901197630160
:1050F00082E0C80ED11CCA14DB0480F1A3014A1956
:105100005B096A0182E0C80ED11C1296BC9012970E
:105110001396AC91B5E0CB16D10440F0B282A383D4
:1051200051834083D9016D937C930AC00E5F1F4F5A
:10513000C301800F911FF90191838083EB2DFA2F1A
:10514000E114F10431F0D7011396FC93EE9312971A
:1051500044C0F0938206E09381063FC08D919C91FC
:1051600011974817590708F4AC017D0112960D906C
:10517000BC91A02DB3CF80917F06909180068815B9
:105180009905E1F446175707C8F4809104019091FE
:105190000501009741F48DB79EB7409108015091E9
:1051A0000901841B950BE817F907C8F4F0938006F2
:1051B000E0937F06F901718360830FC0CB010E94E9
:1051C000FF267C01009759F0A801BE010E94082922
:1051D000CE010E949427C70104C0CE0102C080E026
:1051E00090E0CDB7DEB7EEE00C94652581E090E06D
:1051F000F8940C943229FB01DC0104C08D910190DC
:10520000801921F441505040C8F7881B990B08952C
:10521000FB01DC0102C001900D9241505040D8F7D3
:105220000895FC018191861721F08823D9F79927E9
:1052300008953197CF010895FB01DC0101900D9293
:105240000020E1F70895FB01DC014150504048F097
:1052500001900D920020C9F701C01D9241505040AD
:10526000E0F7089510E0C0E7D0E004C0FE010E941E
:0E527000F9262196C137D107C9F7F894FFCF70
:10527E00FFFFFFFF00008306800000000000EC002F
:10528E004B0913164A01CB000201AA0500000000CB
:10529E00D10F1C1B5C0E18108D0E6B0E7F0E0000B6
:1052AE0000003A091C1B1316121600000000E3152D
:1052BE00B31513168715AB1597158815000000004A
:1052CE00C8141C1B1316C7141C153415AF1400007C
:1052DE000000E90E1C1B13161216E90EE90EE90E5C
:1052EE0000000000E90E1C1B131612160000000031
:1052FE00DC0E1C1B13161216EA11C80E640F430F98
:10530E0074656D702E637376005344204B4F2100ED
:10531E005344204F4B0053657020323120323031D0
:10532E00370032313A31383A323800525443206C19
:10533E006F7374005254432052756E206E6F770057
:10534E00557064617465205254430054656D703A13
:10535E000048756D3A006300250053656E64207435
:10536E006F2045535038323636000D0A002F00207C
:10537E000057726974652064617461003B00534488
:10538E00204B4F006E616E00696E66006F76660090
:00000001FF
